{"contracts/ringSigVerifier.sol":{"RingSigVerifier":{"abi":[{"inputs":[],"stateMutability":"nonpayable","type":"constructor"},{"inputs":[{"internalType":"string","name":"message","type":"string"},{"internalType":"uint256[]","name":"ring","type":"uint256[]"},{"internalType":"uint256[]","name":"responses","type":"uint256[]"},{"internalType":"uint256","name":"c","type":"uint256"}],"name":"verifyRingSignature","outputs":[{"internalType":"bool","name":"","type":"bool"}],"stateMutability":"pure","type":"function"}],"evm":{"bytecode":{"linkReferences":{},"object":"608060405234801561001057600080fd5b50611cd7806100206000396000f3fe608060405234801561001057600080fd5b506004361061002b5760003560e01c8063c434c5ee14610030575b600080fd5b61004a6004803603810190610045919061166c565b610060565b6040516100579190611742565b60405180910390f35b600060018451118015610080575060006002855161007e919061178c565b145b6100bf576040517f08c379a00000000000000000000000000000000000000000000000000000000081526004016100b690611840565b60405180910390fd5b600284516100cd919061188f565b83511461010f576040517f08c379a000000000000000000000000000000000000000000000000000000000815260040161010690611932565b60405180910390fd5b600061011a856102f0565b9050600061019082888760008151811061013757610136611952565b5b60200260200101518760405180604001604052808c60008151811061015f5761015e611952565b5b602002602001015181526020018c6001815181106101805761017f611952565b5b6020026020010151815250610375565b90506000600290505b600287516101a79190611981565b81101561024b576102358389886002856101c1919061188f565b815181106101d2576101d1611952565b5b60200260200101518560405180604001604052808d88815181106101f9576101f8611952565b5b602002602001015181526020018d60018961021491906119b5565b8151811061022557610224611952565b5b6020026020010151815250610375565b915060028161024491906119b5565b9050610199565b506102e2828887600189516102609190611981565b8151811061027157610270611952565b5b60200260200101518460405180604001604052808c60028e516102949190611981565b815181106102a5576102a4611952565b5b602002602001015181526020018c60018e516102c19190611981565b815181106102d2576102d1611952565b5b6020026020010151815250610375565b841492505050949350505050565b6060600060405180602001604052806000815250905060005b835181101561036b578161033685838151811061032957610328611952565b5b60200260200101516105c4565b604051602001610347929190611a5a565b6040516020818303038152906040529150808061036390611a7e565b915050610309565b5080915050919050565b60006103d68260006002811061038e5761038d611952565b5b6020020151836001600281106103a7576103a6611952565b5b6020020151600060077ffffffffffffffffffffffffffffffffffffffffffffffffffffffffefffffc2f610692565b610415576040517f08c379a000000000000000000000000000000000000000000000000000000000815260040161040c90611b12565b60405180910390fd5b600080610486867f79be667ef9dcbbac55a06295ce870b07029bfcdb2dce28d959f2815b16f817987f483ada7726a3c4655da4fbfc0e1108a8fd17b448a68554199c47d08ffb10d4b860007ffffffffffffffffffffffffffffffffffffffffffffffffffffffffefffffc2f610760565b915091506000806104eb87876000600281106104a5576104a4611952565b5b6020020151886001600281106104be576104bd611952565b5b602002015160007ffffffffffffffffffffffffffffffffffffffffffffffffffffffffefffffc2f610760565b915091506000806105218686868660007ffffffffffffffffffffffffffffffffffffffffffffffffffffffffefffffc2f61079a565b9150915060008c8c610532856105c4565b61053b856105c4565b60405160200161054e9493929190611b32565b60405160208183030381529060405260405160200161056d9190611b70565b60405160208183030381529060405290506105b2818051906020012060001c7ffffffffffffffffffffffffffffffffebaaedce6af48a03bbfd25e8cd036414161082d565b97505050505050505095945050505050565b6060600060016105d384610860565b01905060008167ffffffffffffffff8111156105f2576105f1611443565b5b6040519080825280601f01601f1916602001820160405280156106245781602001600182028036833780820191505090505b509050600082602001820190505b600115610687578080600190039150507f3031323334353637383961626364656600000000000000000000000000000000600a86061a8153600a858161067b5761067a61175d565b5b04945060008503610632575b819350505050919050565b600085600014806106a35750818610155b806106ae5750846000145b806106b95750818510155b156106c75760009050610757565b600082806106d8576106d761175d565b5b8687099050600083806106ee576106ed61175d565b5b8885806106fe576106fd61175d565b5b8a8b090990506000861461073257838061071b5761071a61175d565b5b848061072a5761072961175d565b5b878a09820890505b6000851461074f5783806107495761074861175d565b5b85820890505b808214925050505b95945050505050565b60008060008060006107778a8a8a60018b8b6109b3565b92509250925061078983838389610a52565b945094505050509550959350505050565b6000806000806000888b036107f057600086806107ba576107b961175d565b5b898c08036107d15760008094509450505050610822565b6107df8b8b60018a8a610ac9565b80935081945082955050505061080e565b6108018b8b60018c8c60018c610c87565b8093508194508295505050505b61081a83838389610a52565b945094505050505b965096945050505050565b600080828461083c919061178c565b9050600081101561085657828161085391906119b5565b90505b8091505092915050565b600080600090507a184f03e93ff9f4daa797ed6e38ed64bf6a1f01000000000000000083106108be577a184f03e93ff9f4daa797ed6e38ed64bf6a1f01000000000000000083816108b4576108b361175d565b5b0492506040810190505b6d04ee2d6d415b85acef810000000083106108fb576d04ee2d6d415b85acef810000000083816108f1576108f061175d565b5b0492506020810190505b662386f26fc10000831061092a57662386f26fc1000083816109205761091f61175d565b5b0492506010810190505b6305f5e1008310610953576305f5e10083816109495761094861175d565b5b0492506008810190505b612710831061097857612710838161096e5761096d61175d565b5b0492506004810190505b6064831061099b57606483816109915761099061175d565b5b0492506002810190505b600a83106109aa576001810190505b80915050919050565b60008060008089036109cd57878787925092509250610a46565b60008990506000806000600190505b60008414610a385760006001851614610a0b576109fe8383838f8f8f8e610c87565b8093508194508295505050505b600284610a18919061188f565b9350610a278c8c8c8c8c610ac9565b809c50819d50829e505050506109dc565b828282965096509650505050505b96509650969350505050565b6000806000610a618585611306565b905060008480610a7457610a7361175d565b5b828309905060008580610a8a57610a8961175d565b5b828a09905060008680610aa057610a9f61175d565b5b8780610aaf57610aae61175d565b5b8486098a0990508181955095505050505094509492505050565b6000806000808603610ae357878787925092509250610c7c565b60008480610af457610af361175d565b5b898a09905060008580610b0a57610b0961175d565b5b898a09905060008680610b2057610b1f61175d565b5b898a09905060008780610b3657610b3561175d565b5b8880610b4557610b4461175d565b5b848e09600409905060008880610b5e57610b5d61175d565b5b8980610b6d57610b6c61175d565b5b8a80610b7c57610b7b61175d565b5b8586098c098a80610b9057610b8f61175d565b5b876003090890508880610ba657610ba561175d565b5b8980610bb557610bb461175d565b5b8384088a610bc39190611981565b8a80610bd257610bd161175d565b5b8384090894508880610be757610be661175d565b5b8980610bf657610bf561175d565b5b8a80610c0557610c0461175d565b5b8687096008098a610c169190611981565b8a80610c2557610c2461175d565b5b8b80610c3457610c3361175d565b5b888d610c409190611981565b860884090893508880610c5657610c5561175d565b5b8980610c6557610c6461175d565b5b8c8e09600209925084848497509750975050505050505b955095509592505050565b6000806000808a148015610c9b5750600089145b15610cae578686869250925092506112f9565b600087148015610cbe5750600086145b15610cd1578989899250925092506112f9565b610cd96113f2565b8480610ce857610ce761175d565b5b898a0981600060048110610cff57610cfe611952565b5b6020020181815250508480610d1757610d1661175d565b5b81600060048110610d2b57610d2a611952565b5b60200201518a0981600160048110610d4657610d45611952565b5b6020020181815250508480610d5e57610d5d61175d565b5b86870981600260048110610d7557610d74611952565b5b6020020181815250508480610d8d57610d8c61175d565b5b81600260048110610da157610da0611952565b5b6020020151870981600360048110610dbc57610dbb611952565b5b60200201818152505060405180608001604052808680610ddf57610dde61175d565b5b83600260048110610df357610df2611952565b5b60200201518e0981526020018680610e0e57610e0d61175d565b5b83600360048110610e2257610e21611952565b5b60200201518d0981526020018680610e3d57610e3c61175d565b5b83600060048110610e5157610e50611952565b5b60200201518b0981526020018680610e6c57610e6b61175d565b5b83600160048110610e8057610e7f611952565b5b60200201518a09815250905080600260048110610ea057610e9f611952565b5b602002015181600060048110610eb957610eb8611952565b5b6020020151141580610efb575080600360048110610eda57610ed9611952565b5b602002015181600160048110610ef357610ef2611952565b5b602002015114155b610f3a576040517f08c379a0000000000000000000000000000000000000000000000000000000008152600401610f3190611bd3565b60405180910390fd5b610f426113f2565b8580610f5157610f5061175d565b5b82600060048110610f6557610f64611952565b5b602002015187610f759190611981565b83600260048110610f8957610f88611952565b5b60200201510881600060048110610fa357610fa2611952565b5b6020020181815250508580610fbb57610fba61175d565b5b82600160048110610fcf57610fce611952565b5b602002015187610fdf9190611981565b83600360048110610ff357610ff2611952565b5b6020020151088160016004811061100d5761100c611952565b5b60200201818152505085806110255761102461175d565b5b8160006004811061103957611038611952565b5b60200201518260006004811061105257611051611952565b5b6020020151098160026004811061106c5761106b611952565b5b60200201818152505085806110845761108361175d565b5b8160006004811061109857611097611952565b5b6020020151826002600481106110b1576110b0611952565b5b602002015109816003600481106110cb576110ca611952565b5b602002018181525050600086806110e5576110e461175d565b5b826003600481106110f9576110f8611952565b5b6020020151886111099190611981565b88806111185761111761175d565b5b8460016004811061112c5761112b611952565b5b60200201518560016004811061114557611144611952565b5b602002015109089050868061115d5761115c61175d565b5b878061116c5761116b61175d565b5b888061117b5761117a61175d565b5b8460026004811061118f5761118e611952565b5b6020020151866000600481106111a8576111a7611952565b5b602002015109600209886111bc9190611981565b82089050600087806111d1576111d061175d565b5b88806111e0576111df61175d565b5b838a6111ec9190611981565b8a806111fb576111fa61175d565b5b8660026004811061120f5761120e611952565b5b60200201518860006004811061122857611227611952565b5b602002015109088460016004811061124357611242611952565b5b6020020151099050878061125a5761125961175d565b5b88806112695761126861175d565b5b8460036004811061127d5761127c611952565b5b60200201518660016004811061129657611295611952565b5b602002015109896112a79190611981565b82089050600088806112bc576112bb61175d565b5b89806112cb576112ca61175d565b5b8b8f09856000600481106112e2576112e1611952565b5b602002015109905082828297509750975050505050505b9750975097945050505050565b60008083141580156113185750818314155b8015611325575060008214155b611364576040517f08c379a000000000000000000000000000000000000000000000000000000000815260040161135b90611c3f565b60405180910390fd5b60008060019050600084905060005b600087146113e5578682611387919061188f565b90508286806113995761139861175d565b5b87806113a8576113a761175d565b5b858409886113b69190611981565b860880945081955050508687826113cd9190611c5f565b836113d89190611981565b8098508193505050611373565b8394505050505092915050565b6040518060800160405280600490602082028036833780820191505090505090565b6000604051905090565b600080fd5b600080fd5b600080fd5b600080fd5b6000601f19601f8301169050919050565b7f4e487b7100000000000000000000000000000000000000000000000000000000600052604160045260246000fd5b61147b82611432565b810181811067ffffffffffffffff8211171561149a57611499611443565b5b80604052505050565b60006114ad611414565b90506114b98282611472565b919050565b600067ffffffffffffffff8211156114d9576114d8611443565b5b6114e282611432565b9050602081019050919050565b82818337600083830152505050565b600061151161150c846114be565b6114a3565b90508281526020810184848401111561152d5761152c61142d565b5b6115388482856114ef565b509392505050565b600082601f83011261155557611554611428565b5b81356115658482602086016114fe565b91505092915050565b600067ffffffffffffffff82111561158957611588611443565b5b602082029050602081019050919050565b600080fd5b6000819050919050565b6115b28161159f565b81146115bd57600080fd5b50565b6000813590506115cf816115a9565b92915050565b60006115e86115e38461156e565b6114a3565b9050808382526020820190506020840283018581111561160b5761160a61159a565b5b835b81811015611634578061162088826115c0565b84526020840193505060208101905061160d565b5050509392505050565b600082601f83011261165357611652611428565b5b81356116638482602086016115d5565b91505092915050565b600080600080608085870312156116865761168561141e565b5b600085013567ffffffffffffffff8111156116a4576116a3611423565b5b6116b087828801611540565b945050602085013567ffffffffffffffff8111156116d1576116d0611423565b5b6116dd8782880161163e565b935050604085013567ffffffffffffffff8111156116fe576116fd611423565b5b61170a8782880161163e565b925050606061171b878288016115c0565b91505092959194509250565b60008115159050919050565b61173c81611727565b82525050565b60006020820190506117576000830184611733565b92915050565b7f4e487b7100000000000000000000000000000000000000000000000000000000600052601260045260246000fd5b60006117978261159f565b91506117a28361159f565b9250826117b2576117b161175d565b5b828206905092915050565b600082825260208201905092915050565b7f52696e67206c656e677468206d757374206265206576656e20616e642067726560008201527f61746572207468616e2031000000000000000000000000000000000000000000602082015250565b600061182a602b836117bd565b9150611835826117ce565b604082019050919050565b600060208201905081810360008301526118598161181d565b9050919050565b7f4e487b7100000000000000000000000000000000000000000000000000000000600052601160045260246000fd5b600061189a8261159f565b91506118a58361159f565b9250826118b5576118b461175d565b5b828204905092915050565b7f526573706f6e736573206c656e677468206d75737420626520657175616c207460008201527f6f2072696e67206c656e677468202f2032000000000000000000000000000000602082015250565b600061191c6031836117bd565b9150611927826118c0565b604082019050919050565b6000602082019050818103600083015261194b8161190f565b9050919050565b7f4e487b7100000000000000000000000000000000000000000000000000000000600052603260045260246000fd5b600061198c8261159f565b91506119978361159f565b92508282039050818111156119af576119ae611860565b5b92915050565b60006119c08261159f565b91506119cb8361159f565b92508282019050808211156119e3576119e2611860565b5b92915050565b600081519050919050565b600081905092915050565b60005b83811015611a1d578082015181840152602081019050611a02565b60008484015250505050565b6000611a34826119e9565b611a3e81856119f4565b9350611a4e8185602086016119ff565b80840191505092915050565b6000611a668285611a29565b9150611a728284611a29565b91508190509392505050565b6000611a898261159f565b91507fffffffffffffffffffffffffffffffffffffffffffffffffffffffffffffffff8203611abb57611aba611860565b5b600182019050919050565b7f70726576696f75735075624b6579206973206e6f74206f6e2063757276650000600082015250565b6000611afc601e836117bd565b9150611b0782611ac6565b602082019050919050565b60006020820190508181036000830152611b2b81611aef565b9050919050565b6000611b3e8287611a29565b9150611b4a8286611a29565b9150611b568285611a29565b9150611b628284611a29565b915081905095945050505050565b6000611b7c8284611a29565b915081905092915050565b7f557365206a6163446f75626c652066756e6374696f6e20696e73746561640000600082015250565b6000611bbd601e836117bd565b9150611bc882611b87565b602082019050919050565b60006020820190508181036000830152611bec81611bb0565b9050919050565b7f496e76616c6964206e756d626572000000000000000000000000000000000000600082015250565b6000611c29600e836117bd565b9150611c3482611bf3565b602082019050919050565b60006020820190508181036000830152611c5881611c1c565b9050919050565b6000611c6a8261159f565b9150611c758361159f565b9250828202611c838161159f565b91508282048414831517611c9a57611c99611860565b5b509291505056fea2646970667358221220a83f62d11a4a0d3e5903393500413602546f2d2560f66aaa7efc40a40c0105b864736f6c63430008140033","opcodes":"PUSH1 0x80 PUSH1 0x40 MSTORE CALLVALUE DUP1 ISZERO PUSH2 0x10 JUMPI PUSH1 0x0 DUP1 REVERT JUMPDEST POP PUSH2 0x1CD7 DUP1 PUSH2 0x20 PUSH1 0x0 CODECOPY PUSH1 0x0 RETURN INVALID PUSH1 0x80 PUSH1 0x40 MSTORE CALLVALUE DUP1 ISZERO PUSH2 0x10 JUMPI PUSH1 0x0 DUP1 REVERT JUMPDEST POP PUSH1 0x4 CALLDATASIZE LT PUSH2 0x2B JUMPI PUSH1 0x0 CALLDATALOAD PUSH1 0xE0 SHR DUP1 PUSH4 0xC434C5EE EQ PUSH2 0x30 JUMPI JUMPDEST PUSH1 0x0 DUP1 REVERT JUMPDEST PUSH2 0x4A PUSH1 0x4 DUP1 CALLDATASIZE SUB DUP2 ADD SWAP1 PUSH2 0x45 SWAP2 SWAP1 PUSH2 0x166C JUMP JUMPDEST PUSH2 0x60 JUMP JUMPDEST PUSH1 0x40 MLOAD PUSH2 0x57 SWAP2 SWAP1 PUSH2 0x1742 JUMP JUMPDEST PUSH1 0x40 MLOAD DUP1 SWAP2 SUB SWAP1 RETURN JUMPDEST PUSH1 0x0 PUSH1 0x1 DUP5 MLOAD GT DUP1 ISZERO PUSH2 0x80 JUMPI POP PUSH1 0x0 PUSH1 0x2 DUP6 MLOAD PUSH2 0x7E SWAP2 SWAP1 PUSH2 0x178C JUMP JUMPDEST EQ JUMPDEST PUSH2 0xBF JUMPI PUSH1 0x40 MLOAD PUSH32 0x8C379A000000000000000000000000000000000000000000000000000000000 DUP2 MSTORE PUSH1 0x4 ADD PUSH2 0xB6 SWAP1 PUSH2 0x1840 JUMP JUMPDEST PUSH1 0x40 MLOAD DUP1 SWAP2 SUB SWAP1 REVERT JUMPDEST PUSH1 0x2 DUP5 MLOAD PUSH2 0xCD SWAP2 SWAP1 PUSH2 0x188F JUMP JUMPDEST DUP4 MLOAD EQ PUSH2 0x10F JUMPI PUSH1 0x40 MLOAD PUSH32 0x8C379A000000000000000000000000000000000000000000000000000000000 DUP2 MSTORE PUSH1 0x4 ADD PUSH2 0x106 SWAP1 PUSH2 0x1932 JUMP JUMPDEST PUSH1 0x40 MLOAD DUP1 SWAP2 SUB SWAP1 REVERT JUMPDEST PUSH1 0x0 PUSH2 0x11A DUP6 PUSH2 0x2F0 JUMP JUMPDEST SWAP1 POP PUSH1 0x0 PUSH2 0x190 DUP3 DUP9 DUP8 PUSH1 0x0 DUP2 MLOAD DUP2 LT PUSH2 0x137 JUMPI PUSH2 0x136 PUSH2 0x1952 JUMP JUMPDEST JUMPDEST PUSH1 0x20 MUL PUSH1 0x20 ADD ADD MLOAD DUP8 PUSH1 0x40 MLOAD DUP1 PUSH1 0x40 ADD PUSH1 0x40 MSTORE DUP1 DUP13 PUSH1 0x0 DUP2 MLOAD DUP2 LT PUSH2 0x15F JUMPI PUSH2 0x15E PUSH2 0x1952 JUMP JUMPDEST JUMPDEST PUSH1 0x20 MUL PUSH1 0x20 ADD ADD MLOAD DUP2 MSTORE PUSH1 0x20 ADD DUP13 PUSH1 0x1 DUP2 MLOAD DUP2 LT PUSH2 0x180 JUMPI PUSH2 0x17F PUSH2 0x1952 JUMP JUMPDEST JUMPDEST PUSH1 0x20 MUL PUSH1 0x20 ADD ADD MLOAD DUP2 MSTORE POP PUSH2 0x375 JUMP JUMPDEST SWAP1 POP PUSH1 0x0 PUSH1 0x2 SWAP1 POP JUMPDEST PUSH1 0x2 DUP8 MLOAD PUSH2 0x1A7 SWAP2 SWAP1 PUSH2 0x1981 JUMP JUMPDEST DUP2 LT ISZERO PUSH2 0x24B JUMPI PUSH2 0x235 DUP4 DUP10 DUP9 PUSH1 0x2 DUP6 PUSH2 0x1C1 SWAP2 SWAP1 PUSH2 0x188F JUMP JUMPDEST DUP2 MLOAD DUP2 LT PUSH2 0x1D2 JUMPI PUSH2 0x1D1 PUSH2 0x1952 JUMP JUMPDEST JUMPDEST PUSH1 0x20 MUL PUSH1 0x20 ADD ADD MLOAD DUP6 PUSH1 0x40 MLOAD DUP1 PUSH1 0x40 ADD PUSH1 0x40 MSTORE DUP1 DUP14 DUP9 DUP2 MLOAD DUP2 LT PUSH2 0x1F9 JUMPI PUSH2 0x1F8 PUSH2 0x1952 JUMP JUMPDEST JUMPDEST PUSH1 0x20 MUL PUSH1 0x20 ADD ADD MLOAD DUP2 MSTORE PUSH1 0x20 ADD DUP14 PUSH1 0x1 DUP10 PUSH2 0x214 SWAP2 SWAP1 PUSH2 0x19B5 JUMP JUMPDEST DUP2 MLOAD DUP2 LT PUSH2 0x225 JUMPI PUSH2 0x224 PUSH2 0x1952 JUMP JUMPDEST JUMPDEST PUSH1 0x20 MUL PUSH1 0x20 ADD ADD MLOAD DUP2 MSTORE POP PUSH2 0x375 JUMP JUMPDEST SWAP2 POP PUSH1 0x2 DUP2 PUSH2 0x244 SWAP2 SWAP1 PUSH2 0x19B5 JUMP JUMPDEST SWAP1 POP PUSH2 0x199 JUMP JUMPDEST POP PUSH2 0x2E2 DUP3 DUP9 DUP8 PUSH1 0x1 DUP10 MLOAD PUSH2 0x260 SWAP2 SWAP1 PUSH2 0x1981 JUMP JUMPDEST DUP2 MLOAD DUP2 LT PUSH2 0x271 JUMPI PUSH2 0x270 PUSH2 0x1952 JUMP JUMPDEST JUMPDEST PUSH1 0x20 MUL PUSH1 0x20 ADD ADD MLOAD DUP5 PUSH1 0x40 MLOAD DUP1 PUSH1 0x40 ADD PUSH1 0x40 MSTORE DUP1 DUP13 PUSH1 0x2 DUP15 MLOAD PUSH2 0x294 SWAP2 SWAP1 PUSH2 0x1981 JUMP JUMPDEST DUP2 MLOAD DUP2 LT PUSH2 0x2A5 JUMPI PUSH2 0x2A4 PUSH2 0x1952 JUMP JUMPDEST JUMPDEST PUSH1 0x20 MUL PUSH1 0x20 ADD ADD MLOAD DUP2 MSTORE PUSH1 0x20 ADD DUP13 PUSH1 0x1 DUP15 MLOAD PUSH2 0x2C1 SWAP2 SWAP1 PUSH2 0x1981 JUMP JUMPDEST DUP2 MLOAD DUP2 LT PUSH2 0x2D2 JUMPI PUSH2 0x2D1 PUSH2 0x1952 JUMP JUMPDEST JUMPDEST PUSH1 0x20 MUL PUSH1 0x20 ADD ADD MLOAD DUP2 MSTORE POP PUSH2 0x375 JUMP JUMPDEST DUP5 EQ SWAP3 POP POP POP SWAP5 SWAP4 POP POP POP POP JUMP JUMPDEST PUSH1 0x60 PUSH1 0x0 PUSH1 0x40 MLOAD DUP1 PUSH1 0x20 ADD PUSH1 0x40 MSTORE DUP1 PUSH1 0x0 DUP2 MSTORE POP SWAP1 POP PUSH1 0x0 JUMPDEST DUP4 MLOAD DUP2 LT ISZERO PUSH2 0x36B JUMPI DUP2 PUSH2 0x336 DUP6 DUP4 DUP2 MLOAD DUP2 LT PUSH2 0x329 JUMPI PUSH2 0x328 PUSH2 0x1952 JUMP JUMPDEST JUMPDEST PUSH1 0x20 MUL PUSH1 0x20 ADD ADD MLOAD PUSH2 0x5C4 JUMP JUMPDEST PUSH1 0x40 MLOAD PUSH1 0x20 ADD PUSH2 0x347 SWAP3 SWAP2 SWAP1 PUSH2 0x1A5A JUMP JUMPDEST PUSH1 0x40 MLOAD PUSH1 0x20 DUP2 DUP4 SUB SUB DUP2 MSTORE SWAP1 PUSH1 0x40 MSTORE SWAP2 POP DUP1 DUP1 PUSH2 0x363 SWAP1 PUSH2 0x1A7E JUMP JUMPDEST SWAP2 POP POP PUSH2 0x309 JUMP JUMPDEST POP DUP1 SWAP2 POP POP SWAP2 SWAP1 POP JUMP JUMPDEST PUSH1 0x0 PUSH2 0x3D6 DUP3 PUSH1 0x0 PUSH1 0x2 DUP2 LT PUSH2 0x38E JUMPI PUSH2 0x38D PUSH2 0x1952 JUMP JUMPDEST JUMPDEST PUSH1 0x20 MUL ADD MLOAD DUP4 PUSH1 0x1 PUSH1 0x2 DUP2 LT PUSH2 0x3A7 JUMPI PUSH2 0x3A6 PUSH2 0x1952 JUMP JUMPDEST JUMPDEST PUSH1 0x20 MUL ADD MLOAD PUSH1 0x0 PUSH1 0x7 PUSH32 0xFFFFFFFFFFFFFFFFFFFFFFFFFFFFFFFFFFFFFFFFFFFFFFFFFFFFFFFEFFFFFC2F PUSH2 0x692 JUMP JUMPDEST PUSH2 0x415 JUMPI PUSH1 0x40 MLOAD PUSH32 0x8C379A000000000000000000000000000000000000000000000000000000000 DUP2 MSTORE PUSH1 0x4 ADD PUSH2 0x40C SWAP1 PUSH2 0x1B12 JUMP JUMPDEST PUSH1 0x40 MLOAD DUP1 SWAP2 SUB SWAP1 REVERT JUMPDEST PUSH1 0x0 DUP1 PUSH2 0x486 DUP7 PUSH32 0x79BE667EF9DCBBAC55A06295CE870B07029BFCDB2DCE28D959F2815B16F81798 PUSH32 0x483ADA7726A3C4655DA4FBFC0E1108A8FD17B448A68554199C47D08FFB10D4B8 PUSH1 0x0 PUSH32 0xFFFFFFFFFFFFFFFFFFFFFFFFFFFFFFFFFFFFFFFFFFFFFFFFFFFFFFFEFFFFFC2F PUSH2 0x760 JUMP JUMPDEST SWAP2 POP SWAP2 POP PUSH1 0x0 DUP1 PUSH2 0x4EB DUP8 DUP8 PUSH1 0x0 PUSH1 0x2 DUP2 LT PUSH2 0x4A5 JUMPI PUSH2 0x4A4 PUSH2 0x1952 JUMP JUMPDEST JUMPDEST PUSH1 0x20 MUL ADD MLOAD DUP9 PUSH1 0x1 PUSH1 0x2 DUP2 LT PUSH2 0x4BE JUMPI PUSH2 0x4BD PUSH2 0x1952 JUMP JUMPDEST JUMPDEST PUSH1 0x20 MUL ADD MLOAD PUSH1 0x0 PUSH32 0xFFFFFFFFFFFFFFFFFFFFFFFFFFFFFFFFFFFFFFFFFFFFFFFFFFFFFFFEFFFFFC2F PUSH2 0x760 JUMP JUMPDEST SWAP2 POP SWAP2 POP PUSH1 0x0 DUP1 PUSH2 0x521 DUP7 DUP7 DUP7 DUP7 PUSH1 0x0 PUSH32 0xFFFFFFFFFFFFFFFFFFFFFFFFFFFFFFFFFFFFFFFFFFFFFFFFFFFFFFFEFFFFFC2F PUSH2 0x79A JUMP JUMPDEST SWAP2 POP SWAP2 POP PUSH1 0x0 DUP13 DUP13 PUSH2 0x532 DUP6 PUSH2 0x5C4 JUMP JUMPDEST PUSH2 0x53B DUP6 PUSH2 0x5C4 JUMP JUMPDEST PUSH1 0x40 MLOAD PUSH1 0x20 ADD PUSH2 0x54E SWAP5 SWAP4 SWAP3 SWAP2 SWAP1 PUSH2 0x1B32 JUMP JUMPDEST PUSH1 0x40 MLOAD PUSH1 0x20 DUP2 DUP4 SUB SUB DUP2 MSTORE SWAP1 PUSH1 0x40 MSTORE PUSH1 0x40 MLOAD PUSH1 0x20 ADD PUSH2 0x56D SWAP2 SWAP1 PUSH2 0x1B70 JUMP JUMPDEST PUSH1 0x40 MLOAD PUSH1 0x20 DUP2 DUP4 SUB SUB DUP2 MSTORE SWAP1 PUSH1 0x40 MSTORE SWAP1 POP PUSH2 0x5B2 DUP2 DUP1 MLOAD SWAP1 PUSH1 0x20 ADD KECCAK256 PUSH1 0x0 SHR PUSH32 0xFFFFFFFFFFFFFFFFFFFFFFFFFFFFFFFEBAAEDCE6AF48A03BBFD25E8CD0364141 PUSH2 0x82D JUMP JUMPDEST SWAP8 POP POP POP POP POP POP POP POP SWAP6 SWAP5 POP POP POP POP POP JUMP JUMPDEST PUSH1 0x60 PUSH1 0x0 PUSH1 0x1 PUSH2 0x5D3 DUP5 PUSH2 0x860 JUMP JUMPDEST ADD SWAP1 POP PUSH1 0x0 DUP2 PUSH8 0xFFFFFFFFFFFFFFFF DUP2 GT ISZERO PUSH2 0x5F2 JUMPI PUSH2 0x5F1 PUSH2 0x1443 JUMP JUMPDEST JUMPDEST PUSH1 0x40 MLOAD SWAP1 DUP1 DUP3 MSTORE DUP1 PUSH1 0x1F ADD PUSH1 0x1F NOT AND PUSH1 0x20 ADD DUP3 ADD PUSH1 0x40 MSTORE DUP1 ISZERO PUSH2 0x624 JUMPI DUP2 PUSH1 0x20 ADD PUSH1 0x1 DUP3 MUL DUP1 CALLDATASIZE DUP4 CALLDATACOPY DUP1 DUP3 ADD SWAP2 POP POP SWAP1 POP JUMPDEST POP SWAP1 POP PUSH1 0x0 DUP3 PUSH1 0x20 ADD DUP3 ADD SWAP1 POP JUMPDEST PUSH1 0x1 ISZERO PUSH2 0x687 JUMPI DUP1 DUP1 PUSH1 0x1 SWAP1 SUB SWAP2 POP POP PUSH32 0x3031323334353637383961626364656600000000000000000000000000000000 PUSH1 0xA DUP7 MOD BYTE DUP2 MSTORE8 PUSH1 0xA DUP6 DUP2 PUSH2 0x67B JUMPI PUSH2 0x67A PUSH2 0x175D JUMP JUMPDEST JUMPDEST DIV SWAP5 POP PUSH1 0x0 DUP6 SUB PUSH2 0x632 JUMPI JUMPDEST DUP2 SWAP4 POP POP POP POP SWAP2 SWAP1 POP JUMP JUMPDEST PUSH1 0x0 DUP6 PUSH1 0x0 EQ DUP1 PUSH2 0x6A3 JUMPI POP DUP2 DUP7 LT ISZERO JUMPDEST DUP1 PUSH2 0x6AE JUMPI POP DUP5 PUSH1 0x0 EQ JUMPDEST DUP1 PUSH2 0x6B9 JUMPI POP DUP2 DUP6 LT ISZERO JUMPDEST ISZERO PUSH2 0x6C7 JUMPI PUSH1 0x0 SWAP1 POP PUSH2 0x757 JUMP JUMPDEST PUSH1 0x0 DUP3 DUP1 PUSH2 0x6D8 JUMPI PUSH2 0x6D7 PUSH2 0x175D JUMP JUMPDEST JUMPDEST DUP7 DUP8 MULMOD SWAP1 POP PUSH1 0x0 DUP4 DUP1 PUSH2 0x6EE JUMPI PUSH2 0x6ED PUSH2 0x175D JUMP JUMPDEST JUMPDEST DUP9 DUP6 DUP1 PUSH2 0x6FE JUMPI PUSH2 0x6FD PUSH2 0x175D JUMP JUMPDEST JUMPDEST DUP11 DUP12 MULMOD MULMOD SWAP1 POP PUSH1 0x0 DUP7 EQ PUSH2 0x732 JUMPI DUP4 DUP1 PUSH2 0x71B JUMPI PUSH2 0x71A PUSH2 0x175D JUMP JUMPDEST JUMPDEST DUP5 DUP1 PUSH2 0x72A JUMPI PUSH2 0x729 PUSH2 0x175D JUMP JUMPDEST JUMPDEST DUP8 DUP11 MULMOD DUP3 ADDMOD SWAP1 POP JUMPDEST PUSH1 0x0 DUP6 EQ PUSH2 0x74F JUMPI DUP4 DUP1 PUSH2 0x749 JUMPI PUSH2 0x748 PUSH2 0x175D JUMP JUMPDEST JUMPDEST DUP6 DUP3 ADDMOD SWAP1 POP JUMPDEST DUP1 DUP3 EQ SWAP3 POP POP POP JUMPDEST SWAP6 SWAP5 POP POP POP POP POP JUMP JUMPDEST PUSH1 0x0 DUP1 PUSH1 0x0 DUP1 PUSH1 0x0 PUSH2 0x777 DUP11 DUP11 DUP11 PUSH1 0x1 DUP12 DUP12 PUSH2 0x9B3 JUMP JUMPDEST SWAP3 POP SWAP3 POP SWAP3 POP PUSH2 0x789 DUP4 DUP4 DUP4 DUP10 PUSH2 0xA52 JUMP JUMPDEST SWAP5 POP SWAP5 POP POP POP POP SWAP6 POP SWAP6 SWAP4 POP POP POP POP JUMP JUMPDEST PUSH1 0x0 DUP1 PUSH1 0x0 DUP1 PUSH1 0x0 DUP9 DUP12 SUB PUSH2 0x7F0 JUMPI PUSH1 0x0 DUP7 DUP1 PUSH2 0x7BA JUMPI PUSH2 0x7B9 PUSH2 0x175D JUMP JUMPDEST JUMPDEST DUP10 DUP13 ADDMOD SUB PUSH2 0x7D1 JUMPI PUSH1 0x0 DUP1 SWAP5 POP SWAP5 POP POP POP POP PUSH2 0x822 JUMP JUMPDEST PUSH2 0x7DF DUP12 DUP12 PUSH1 0x1 DUP11 DUP11 PUSH2 0xAC9 JUMP JUMPDEST DUP1 SWAP4 POP DUP2 SWAP5 POP DUP3 SWAP6 POP POP POP POP PUSH2 0x80E JUMP JUMPDEST PUSH2 0x801 DUP12 DUP12 PUSH1 0x1 DUP13 DUP13 PUSH1 0x1 DUP13 PUSH2 0xC87 JUMP JUMPDEST DUP1 SWAP4 POP DUP2 SWAP5 POP DUP3 SWAP6 POP POP POP POP JUMPDEST PUSH2 0x81A DUP4 DUP4 DUP4 DUP10 PUSH2 0xA52 JUMP JUMPDEST SWAP5 POP SWAP5 POP POP POP POP JUMPDEST SWAP7 POP SWAP7 SWAP5 POP POP POP POP POP JUMP JUMPDEST PUSH1 0x0 DUP1 DUP3 DUP5 PUSH2 0x83C SWAP2 SWAP1 PUSH2 0x178C JUMP JUMPDEST SWAP1 POP PUSH1 0x0 DUP2 LT ISZERO PUSH2 0x856 JUMPI DUP3 DUP2 PUSH2 0x853 SWAP2 SWAP1 PUSH2 0x19B5 JUMP JUMPDEST SWAP1 POP JUMPDEST DUP1 SWAP2 POP POP SWAP3 SWAP2 POP POP JUMP JUMPDEST PUSH1 0x0 DUP1 PUSH1 0x0 SWAP1 POP PUSH27 0x184F03E93FF9F4DAA797ED6E38ED64BF6A1F010000000000000000 DUP4 LT PUSH2 0x8BE JUMPI PUSH27 0x184F03E93FF9F4DAA797ED6E38ED64BF6A1F010000000000000000 DUP4 DUP2 PUSH2 0x8B4 JUMPI PUSH2 0x8B3 PUSH2 0x175D JUMP JUMPDEST JUMPDEST DIV SWAP3 POP PUSH1 0x40 DUP2 ADD SWAP1 POP JUMPDEST PUSH14 0x4EE2D6D415B85ACEF8100000000 DUP4 LT PUSH2 0x8FB JUMPI PUSH14 0x4EE2D6D415B85ACEF8100000000 DUP4 DUP2 PUSH2 0x8F1 JUMPI PUSH2 0x8F0 PUSH2 0x175D JUMP JUMPDEST JUMPDEST DIV SWAP3 POP PUSH1 0x20 DUP2 ADD SWAP1 POP JUMPDEST PUSH7 0x2386F26FC10000 DUP4 LT PUSH2 0x92A JUMPI PUSH7 0x2386F26FC10000 DUP4 DUP2 PUSH2 0x920 JUMPI PUSH2 0x91F PUSH2 0x175D JUMP JUMPDEST JUMPDEST DIV SWAP3 POP PUSH1 0x10 DUP2 ADD SWAP1 POP JUMPDEST PUSH4 0x5F5E100 DUP4 LT PUSH2 0x953 JUMPI PUSH4 0x5F5E100 DUP4 DUP2 PUSH2 0x949 JUMPI PUSH2 0x948 PUSH2 0x175D JUMP JUMPDEST JUMPDEST DIV SWAP3 POP PUSH1 0x8 DUP2 ADD SWAP1 POP JUMPDEST PUSH2 0x2710 DUP4 LT PUSH2 0x978 JUMPI PUSH2 0x2710 DUP4 DUP2 PUSH2 0x96E JUMPI PUSH2 0x96D PUSH2 0x175D JUMP JUMPDEST JUMPDEST DIV SWAP3 POP PUSH1 0x4 DUP2 ADD SWAP1 POP JUMPDEST PUSH1 0x64 DUP4 LT PUSH2 0x99B JUMPI PUSH1 0x64 DUP4 DUP2 PUSH2 0x991 JUMPI PUSH2 0x990 PUSH2 0x175D JUMP JUMPDEST JUMPDEST DIV SWAP3 POP PUSH1 0x2 DUP2 ADD SWAP1 POP JUMPDEST PUSH1 0xA DUP4 LT PUSH2 0x9AA JUMPI PUSH1 0x1 DUP2 ADD SWAP1 POP JUMPDEST DUP1 SWAP2 POP POP SWAP2 SWAP1 POP JUMP JUMPDEST PUSH1 0x0 DUP1 PUSH1 0x0 DUP1 DUP10 SUB PUSH2 0x9CD JUMPI DUP8 DUP8 DUP8 SWAP3 POP SWAP3 POP SWAP3 POP PUSH2 0xA46 JUMP JUMPDEST PUSH1 0x0 DUP10 SWAP1 POP PUSH1 0x0 DUP1 PUSH1 0x0 PUSH1 0x1 SWAP1 POP JUMPDEST PUSH1 0x0 DUP5 EQ PUSH2 0xA38 JUMPI PUSH1 0x0 PUSH1 0x1 DUP6 AND EQ PUSH2 0xA0B JUMPI PUSH2 0x9FE DUP4 DUP4 DUP4 DUP16 DUP16 DUP16 DUP15 PUSH2 0xC87 JUMP JUMPDEST DUP1 SWAP4 POP DUP2 SWAP5 POP DUP3 SWAP6 POP POP POP POP JUMPDEST PUSH1 0x2 DUP5 PUSH2 0xA18 SWAP2 SWAP1 PUSH2 0x188F JUMP JUMPDEST SWAP4 POP PUSH2 0xA27 DUP13 DUP13 DUP13 DUP13 DUP13 PUSH2 0xAC9 JUMP JUMPDEST DUP1 SWAP13 POP DUP2 SWAP14 POP DUP3 SWAP15 POP POP POP POP PUSH2 0x9DC JUMP JUMPDEST DUP3 DUP3 DUP3 SWAP7 POP SWAP7 POP SWAP7 POP POP POP POP POP JUMPDEST SWAP7 POP SWAP7 POP SWAP7 SWAP4 POP POP POP POP JUMP JUMPDEST PUSH1 0x0 DUP1 PUSH1 0x0 PUSH2 0xA61 DUP6 DUP6 PUSH2 0x1306 JUMP JUMPDEST SWAP1 POP PUSH1 0x0 DUP5 DUP1 PUSH2 0xA74 JUMPI PUSH2 0xA73 PUSH2 0x175D JUMP JUMPDEST JUMPDEST DUP3 DUP4 MULMOD SWAP1 POP PUSH1 0x0 DUP6 DUP1 PUSH2 0xA8A JUMPI PUSH2 0xA89 PUSH2 0x175D JUMP JUMPDEST JUMPDEST DUP3 DUP11 MULMOD SWAP1 POP PUSH1 0x0 DUP7 DUP1 PUSH2 0xAA0 JUMPI PUSH2 0xA9F PUSH2 0x175D JUMP JUMPDEST JUMPDEST DUP8 DUP1 PUSH2 0xAAF JUMPI PUSH2 0xAAE PUSH2 0x175D JUMP JUMPDEST JUMPDEST DUP5 DUP7 MULMOD DUP11 MULMOD SWAP1 POP DUP2 DUP2 SWAP6 POP SWAP6 POP POP POP POP POP SWAP5 POP SWAP5 SWAP3 POP POP POP JUMP JUMPDEST PUSH1 0x0 DUP1 PUSH1 0x0 DUP1 DUP7 SUB PUSH2 0xAE3 JUMPI DUP8 DUP8 DUP8 SWAP3 POP SWAP3 POP SWAP3 POP PUSH2 0xC7C JUMP JUMPDEST PUSH1 0x0 DUP5 DUP1 PUSH2 0xAF4 JUMPI PUSH2 0xAF3 PUSH2 0x175D JUMP JUMPDEST JUMPDEST DUP10 DUP11 MULMOD SWAP1 POP PUSH1 0x0 DUP6 DUP1 PUSH2 0xB0A JUMPI PUSH2 0xB09 PUSH2 0x175D JUMP JUMPDEST JUMPDEST DUP10 DUP11 MULMOD SWAP1 POP PUSH1 0x0 DUP7 DUP1 PUSH2 0xB20 JUMPI PUSH2 0xB1F PUSH2 0x175D JUMP JUMPDEST JUMPDEST DUP10 DUP11 MULMOD SWAP1 POP PUSH1 0x0 DUP8 DUP1 PUSH2 0xB36 JUMPI PUSH2 0xB35 PUSH2 0x175D JUMP JUMPDEST JUMPDEST DUP9 DUP1 PUSH2 0xB45 JUMPI PUSH2 0xB44 PUSH2 0x175D JUMP JUMPDEST JUMPDEST DUP5 DUP15 MULMOD PUSH1 0x4 MULMOD SWAP1 POP PUSH1 0x0 DUP9 DUP1 PUSH2 0xB5E JUMPI PUSH2 0xB5D PUSH2 0x175D JUMP JUMPDEST JUMPDEST DUP10 DUP1 PUSH2 0xB6D JUMPI PUSH2 0xB6C PUSH2 0x175D JUMP JUMPDEST JUMPDEST DUP11 DUP1 PUSH2 0xB7C JUMPI PUSH2 0xB7B PUSH2 0x175D JUMP JUMPDEST JUMPDEST DUP6 DUP7 MULMOD DUP13 MULMOD DUP11 DUP1 PUSH2 0xB90 JUMPI PUSH2 0xB8F PUSH2 0x175D JUMP JUMPDEST JUMPDEST DUP8 PUSH1 0x3 MULMOD ADDMOD SWAP1 POP DUP9 DUP1 PUSH2 0xBA6 JUMPI PUSH2 0xBA5 PUSH2 0x175D JUMP JUMPDEST JUMPDEST DUP10 DUP1 PUSH2 0xBB5 JUMPI PUSH2 0xBB4 PUSH2 0x175D JUMP JUMPDEST JUMPDEST DUP4 DUP5 ADDMOD DUP11 PUSH2 0xBC3 SWAP2 SWAP1 PUSH2 0x1981 JUMP JUMPDEST DUP11 DUP1 PUSH2 0xBD2 JUMPI PUSH2 0xBD1 PUSH2 0x175D JUMP JUMPDEST JUMPDEST DUP4 DUP5 MULMOD ADDMOD SWAP5 POP DUP9 DUP1 PUSH2 0xBE7 JUMPI PUSH2 0xBE6 PUSH2 0x175D JUMP JUMPDEST JUMPDEST DUP10 DUP1 PUSH2 0xBF6 JUMPI PUSH2 0xBF5 PUSH2 0x175D JUMP JUMPDEST JUMPDEST DUP11 DUP1 PUSH2 0xC05 JUMPI PUSH2 0xC04 PUSH2 0x175D JUMP JUMPDEST JUMPDEST DUP7 DUP8 MULMOD PUSH1 0x8 MULMOD DUP11 PUSH2 0xC16 SWAP2 SWAP1 PUSH2 0x1981 JUMP JUMPDEST DUP11 DUP1 PUSH2 0xC25 JUMPI PUSH2 0xC24 PUSH2 0x175D JUMP JUMPDEST JUMPDEST DUP12 DUP1 PUSH2 0xC34 JUMPI PUSH2 0xC33 PUSH2 0x175D JUMP JUMPDEST JUMPDEST DUP9 DUP14 PUSH2 0xC40 SWAP2 SWAP1 PUSH2 0x1981 JUMP JUMPDEST DUP7 ADDMOD DUP5 MULMOD ADDMOD SWAP4 POP DUP9 DUP1 PUSH2 0xC56 JUMPI PUSH2 0xC55 PUSH2 0x175D JUMP JUMPDEST JUMPDEST DUP10 DUP1 PUSH2 0xC65 JUMPI PUSH2 0xC64 PUSH2 0x175D JUMP JUMPDEST JUMPDEST DUP13 DUP15 MULMOD PUSH1 0x2 MULMOD SWAP3 POP DUP5 DUP5 DUP5 SWAP8 POP SWAP8 POP SWAP8 POP POP POP POP POP POP JUMPDEST SWAP6 POP SWAP6 POP SWAP6 SWAP3 POP POP POP JUMP JUMPDEST PUSH1 0x0 DUP1 PUSH1 0x0 DUP1 DUP11 EQ DUP1 ISZERO PUSH2 0xC9B JUMPI POP PUSH1 0x0 DUP10 EQ JUMPDEST ISZERO PUSH2 0xCAE JUMPI DUP7 DUP7 DUP7 SWAP3 POP SWAP3 POP SWAP3 POP PUSH2 0x12F9 JUMP JUMPDEST PUSH1 0x0 DUP8 EQ DUP1 ISZERO PUSH2 0xCBE JUMPI POP PUSH1 0x0 DUP7 EQ JUMPDEST ISZERO PUSH2 0xCD1 JUMPI DUP10 DUP10 DUP10 SWAP3 POP SWAP3 POP SWAP3 POP PUSH2 0x12F9 JUMP JUMPDEST PUSH2 0xCD9 PUSH2 0x13F2 JUMP JUMPDEST DUP5 DUP1 PUSH2 0xCE8 JUMPI PUSH2 0xCE7 PUSH2 0x175D JUMP JUMPDEST JUMPDEST DUP10 DUP11 MULMOD DUP2 PUSH1 0x0 PUSH1 0x4 DUP2 LT PUSH2 0xCFF JUMPI PUSH2 0xCFE PUSH2 0x1952 JUMP JUMPDEST JUMPDEST PUSH1 0x20 MUL ADD DUP2 DUP2 MSTORE POP POP DUP5 DUP1 PUSH2 0xD17 JUMPI PUSH2 0xD16 PUSH2 0x175D JUMP JUMPDEST JUMPDEST DUP2 PUSH1 0x0 PUSH1 0x4 DUP2 LT PUSH2 0xD2B JUMPI PUSH2 0xD2A PUSH2 0x1952 JUMP JUMPDEST JUMPDEST PUSH1 0x20 MUL ADD MLOAD DUP11 MULMOD DUP2 PUSH1 0x1 PUSH1 0x4 DUP2 LT PUSH2 0xD46 JUMPI PUSH2 0xD45 PUSH2 0x1952 JUMP JUMPDEST JUMPDEST PUSH1 0x20 MUL ADD DUP2 DUP2 MSTORE POP POP DUP5 DUP1 PUSH2 0xD5E JUMPI PUSH2 0xD5D PUSH2 0x175D JUMP JUMPDEST JUMPDEST DUP7 DUP8 MULMOD DUP2 PUSH1 0x2 PUSH1 0x4 DUP2 LT PUSH2 0xD75 JUMPI PUSH2 0xD74 PUSH2 0x1952 JUMP JUMPDEST JUMPDEST PUSH1 0x20 MUL ADD DUP2 DUP2 MSTORE POP POP DUP5 DUP1 PUSH2 0xD8D JUMPI PUSH2 0xD8C PUSH2 0x175D JUMP JUMPDEST JUMPDEST DUP2 PUSH1 0x2 PUSH1 0x4 DUP2 LT PUSH2 0xDA1 JUMPI PUSH2 0xDA0 PUSH2 0x1952 JUMP JUMPDEST JUMPDEST PUSH1 0x20 MUL ADD MLOAD DUP8 MULMOD DUP2 PUSH1 0x3 PUSH1 0x4 DUP2 LT PUSH2 0xDBC JUMPI PUSH2 0xDBB PUSH2 0x1952 JUMP JUMPDEST JUMPDEST PUSH1 0x20 MUL ADD DUP2 DUP2 MSTORE POP POP PUSH1 0x40 MLOAD DUP1 PUSH1 0x80 ADD PUSH1 0x40 MSTORE DUP1 DUP7 DUP1 PUSH2 0xDDF JUMPI PUSH2 0xDDE PUSH2 0x175D JUMP JUMPDEST JUMPDEST DUP4 PUSH1 0x2 PUSH1 0x4 DUP2 LT PUSH2 0xDF3 JUMPI PUSH2 0xDF2 PUSH2 0x1952 JUMP JUMPDEST JUMPDEST PUSH1 0x20 MUL ADD MLOAD DUP15 MULMOD DUP2 MSTORE PUSH1 0x20 ADD DUP7 DUP1 PUSH2 0xE0E JUMPI PUSH2 0xE0D PUSH2 0x175D JUMP JUMPDEST JUMPDEST DUP4 PUSH1 0x3 PUSH1 0x4 DUP2 LT PUSH2 0xE22 JUMPI PUSH2 0xE21 PUSH2 0x1952 JUMP JUMPDEST JUMPDEST PUSH1 0x20 MUL ADD MLOAD DUP14 MULMOD DUP2 MSTORE PUSH1 0x20 ADD DUP7 DUP1 PUSH2 0xE3D JUMPI PUSH2 0xE3C PUSH2 0x175D JUMP JUMPDEST JUMPDEST DUP4 PUSH1 0x0 PUSH1 0x4 DUP2 LT PUSH2 0xE51 JUMPI PUSH2 0xE50 PUSH2 0x1952 JUMP JUMPDEST JUMPDEST PUSH1 0x20 MUL ADD MLOAD DUP12 MULMOD DUP2 MSTORE PUSH1 0x20 ADD DUP7 DUP1 PUSH2 0xE6C JUMPI PUSH2 0xE6B PUSH2 0x175D JUMP JUMPDEST JUMPDEST DUP4 PUSH1 0x1 PUSH1 0x4 DUP2 LT PUSH2 0xE80 JUMPI PUSH2 0xE7F PUSH2 0x1952 JUMP JUMPDEST JUMPDEST PUSH1 0x20 MUL ADD MLOAD DUP11 MULMOD DUP2 MSTORE POP SWAP1 POP DUP1 PUSH1 0x2 PUSH1 0x4 DUP2 LT PUSH2 0xEA0 JUMPI PUSH2 0xE9F PUSH2 0x1952 JUMP JUMPDEST JUMPDEST PUSH1 0x20 MUL ADD MLOAD DUP2 PUSH1 0x0 PUSH1 0x4 DUP2 LT PUSH2 0xEB9 JUMPI PUSH2 0xEB8 PUSH2 0x1952 JUMP JUMPDEST JUMPDEST PUSH1 0x20 MUL ADD MLOAD EQ ISZERO DUP1 PUSH2 0xEFB JUMPI POP DUP1 PUSH1 0x3 PUSH1 0x4 DUP2 LT PUSH2 0xEDA JUMPI PUSH2 0xED9 PUSH2 0x1952 JUMP JUMPDEST JUMPDEST PUSH1 0x20 MUL ADD MLOAD DUP2 PUSH1 0x1 PUSH1 0x4 DUP2 LT PUSH2 0xEF3 JUMPI PUSH2 0xEF2 PUSH2 0x1952 JUMP JUMPDEST JUMPDEST PUSH1 0x20 MUL ADD MLOAD EQ ISZERO JUMPDEST PUSH2 0xF3A JUMPI PUSH1 0x40 MLOAD PUSH32 0x8C379A000000000000000000000000000000000000000000000000000000000 DUP2 MSTORE PUSH1 0x4 ADD PUSH2 0xF31 SWAP1 PUSH2 0x1BD3 JUMP JUMPDEST PUSH1 0x40 MLOAD DUP1 SWAP2 SUB SWAP1 REVERT JUMPDEST PUSH2 0xF42 PUSH2 0x13F2 JUMP JUMPDEST DUP6 DUP1 PUSH2 0xF51 JUMPI PUSH2 0xF50 PUSH2 0x175D JUMP JUMPDEST JUMPDEST DUP3 PUSH1 0x0 PUSH1 0x4 DUP2 LT PUSH2 0xF65 JUMPI PUSH2 0xF64 PUSH2 0x1952 JUMP JUMPDEST JUMPDEST PUSH1 0x20 MUL ADD MLOAD DUP8 PUSH2 0xF75 SWAP2 SWAP1 PUSH2 0x1981 JUMP JUMPDEST DUP4 PUSH1 0x2 PUSH1 0x4 DUP2 LT PUSH2 0xF89 JUMPI PUSH2 0xF88 PUSH2 0x1952 JUMP JUMPDEST JUMPDEST PUSH1 0x20 MUL ADD MLOAD ADDMOD DUP2 PUSH1 0x0 PUSH1 0x4 DUP2 LT PUSH2 0xFA3 JUMPI PUSH2 0xFA2 PUSH2 0x1952 JUMP JUMPDEST JUMPDEST PUSH1 0x20 MUL ADD DUP2 DUP2 MSTORE POP POP DUP6 DUP1 PUSH2 0xFBB JUMPI PUSH2 0xFBA PUSH2 0x175D JUMP JUMPDEST JUMPDEST DUP3 PUSH1 0x1 PUSH1 0x4 DUP2 LT PUSH2 0xFCF JUMPI PUSH2 0xFCE PUSH2 0x1952 JUMP JUMPDEST JUMPDEST PUSH1 0x20 MUL ADD MLOAD DUP8 PUSH2 0xFDF SWAP2 SWAP1 PUSH2 0x1981 JUMP JUMPDEST DUP4 PUSH1 0x3 PUSH1 0x4 DUP2 LT PUSH2 0xFF3 JUMPI PUSH2 0xFF2 PUSH2 0x1952 JUMP JUMPDEST JUMPDEST PUSH1 0x20 MUL ADD MLOAD ADDMOD DUP2 PUSH1 0x1 PUSH1 0x4 DUP2 LT PUSH2 0x100D JUMPI PUSH2 0x100C PUSH2 0x1952 JUMP JUMPDEST JUMPDEST PUSH1 0x20 MUL ADD DUP2 DUP2 MSTORE POP POP DUP6 DUP1 PUSH2 0x1025 JUMPI PUSH2 0x1024 PUSH2 0x175D JUMP JUMPDEST JUMPDEST DUP2 PUSH1 0x0 PUSH1 0x4 DUP2 LT PUSH2 0x1039 JUMPI PUSH2 0x1038 PUSH2 0x1952 JUMP JUMPDEST JUMPDEST PUSH1 0x20 MUL ADD MLOAD DUP3 PUSH1 0x0 PUSH1 0x4 DUP2 LT PUSH2 0x1052 JUMPI PUSH2 0x1051 PUSH2 0x1952 JUMP JUMPDEST JUMPDEST PUSH1 0x20 MUL ADD MLOAD MULMOD DUP2 PUSH1 0x2 PUSH1 0x4 DUP2 LT PUSH2 0x106C JUMPI PUSH2 0x106B PUSH2 0x1952 JUMP JUMPDEST JUMPDEST PUSH1 0x20 MUL ADD DUP2 DUP2 MSTORE POP POP DUP6 DUP1 PUSH2 0x1084 JUMPI PUSH2 0x1083 PUSH2 0x175D JUMP JUMPDEST JUMPDEST DUP2 PUSH1 0x0 PUSH1 0x4 DUP2 LT PUSH2 0x1098 JUMPI PUSH2 0x1097 PUSH2 0x1952 JUMP JUMPDEST JUMPDEST PUSH1 0x20 MUL ADD MLOAD DUP3 PUSH1 0x2 PUSH1 0x4 DUP2 LT PUSH2 0x10B1 JUMPI PUSH2 0x10B0 PUSH2 0x1952 JUMP JUMPDEST JUMPDEST PUSH1 0x20 MUL ADD MLOAD MULMOD DUP2 PUSH1 0x3 PUSH1 0x4 DUP2 LT PUSH2 0x10CB JUMPI PUSH2 0x10CA PUSH2 0x1952 JUMP JUMPDEST JUMPDEST PUSH1 0x20 MUL ADD DUP2 DUP2 MSTORE POP POP PUSH1 0x0 DUP7 DUP1 PUSH2 0x10E5 JUMPI PUSH2 0x10E4 PUSH2 0x175D JUMP JUMPDEST JUMPDEST DUP3 PUSH1 0x3 PUSH1 0x4 DUP2 LT PUSH2 0x10F9 JUMPI PUSH2 0x10F8 PUSH2 0x1952 JUMP JUMPDEST JUMPDEST PUSH1 0x20 MUL ADD MLOAD DUP9 PUSH2 0x1109 SWAP2 SWAP1 PUSH2 0x1981 JUMP JUMPDEST DUP9 DUP1 PUSH2 0x1118 JUMPI PUSH2 0x1117 PUSH2 0x175D JUMP JUMPDEST JUMPDEST DUP5 PUSH1 0x1 PUSH1 0x4 DUP2 LT PUSH2 0x112C JUMPI PUSH2 0x112B PUSH2 0x1952 JUMP JUMPDEST JUMPDEST PUSH1 0x20 MUL ADD MLOAD DUP6 PUSH1 0x1 PUSH1 0x4 DUP2 LT PUSH2 0x1145 JUMPI PUSH2 0x1144 PUSH2 0x1952 JUMP JUMPDEST JUMPDEST PUSH1 0x20 MUL ADD MLOAD MULMOD ADDMOD SWAP1 POP DUP7 DUP1 PUSH2 0x115D JUMPI PUSH2 0x115C PUSH2 0x175D JUMP JUMPDEST JUMPDEST DUP8 DUP1 PUSH2 0x116C JUMPI PUSH2 0x116B PUSH2 0x175D JUMP JUMPDEST JUMPDEST DUP9 DUP1 PUSH2 0x117B JUMPI PUSH2 0x117A PUSH2 0x175D JUMP JUMPDEST JUMPDEST DUP5 PUSH1 0x2 PUSH1 0x4 DUP2 LT PUSH2 0x118F JUMPI PUSH2 0x118E PUSH2 0x1952 JUMP JUMPDEST JUMPDEST PUSH1 0x20 MUL ADD MLOAD DUP7 PUSH1 0x0 PUSH1 0x4 DUP2 LT PUSH2 0x11A8 JUMPI PUSH2 0x11A7 PUSH2 0x1952 JUMP JUMPDEST JUMPDEST PUSH1 0x20 MUL ADD MLOAD MULMOD PUSH1 0x2 MULMOD DUP9 PUSH2 0x11BC SWAP2 SWAP1 PUSH2 0x1981 JUMP JUMPDEST DUP3 ADDMOD SWAP1 POP PUSH1 0x0 DUP8 DUP1 PUSH2 0x11D1 JUMPI PUSH2 0x11D0 PUSH2 0x175D JUMP JUMPDEST JUMPDEST DUP9 DUP1 PUSH2 0x11E0 JUMPI PUSH2 0x11DF PUSH2 0x175D JUMP JUMPDEST JUMPDEST DUP4 DUP11 PUSH2 0x11EC SWAP2 SWAP1 PUSH2 0x1981 JUMP JUMPDEST DUP11 DUP1 PUSH2 0x11FB JUMPI PUSH2 0x11FA PUSH2 0x175D JUMP JUMPDEST JUMPDEST DUP7 PUSH1 0x2 PUSH1 0x4 DUP2 LT PUSH2 0x120F JUMPI PUSH2 0x120E PUSH2 0x1952 JUMP JUMPDEST JUMPDEST PUSH1 0x20 MUL ADD MLOAD DUP9 PUSH1 0x0 PUSH1 0x4 DUP2 LT PUSH2 0x1228 JUMPI PUSH2 0x1227 PUSH2 0x1952 JUMP JUMPDEST JUMPDEST PUSH1 0x20 MUL ADD MLOAD MULMOD ADDMOD DUP5 PUSH1 0x1 PUSH1 0x4 DUP2 LT PUSH2 0x1243 JUMPI PUSH2 0x1242 PUSH2 0x1952 JUMP JUMPDEST JUMPDEST PUSH1 0x20 MUL ADD MLOAD MULMOD SWAP1 POP DUP8 DUP1 PUSH2 0x125A JUMPI PUSH2 0x1259 PUSH2 0x175D JUMP JUMPDEST JUMPDEST DUP9 DUP1 PUSH2 0x1269 JUMPI PUSH2 0x1268 PUSH2 0x175D JUMP JUMPDEST JUMPDEST DUP5 PUSH1 0x3 PUSH1 0x4 DUP2 LT PUSH2 0x127D JUMPI PUSH2 0x127C PUSH2 0x1952 JUMP JUMPDEST JUMPDEST PUSH1 0x20 MUL ADD MLOAD DUP7 PUSH1 0x1 PUSH1 0x4 DUP2 LT PUSH2 0x1296 JUMPI PUSH2 0x1295 PUSH2 0x1952 JUMP JUMPDEST JUMPDEST PUSH1 0x20 MUL ADD MLOAD MULMOD DUP10 PUSH2 0x12A7 SWAP2 SWAP1 PUSH2 0x1981 JUMP JUMPDEST DUP3 ADDMOD SWAP1 POP PUSH1 0x0 DUP9 DUP1 PUSH2 0x12BC JUMPI PUSH2 0x12BB PUSH2 0x175D JUMP JUMPDEST JUMPDEST DUP10 DUP1 PUSH2 0x12CB JUMPI PUSH2 0x12CA PUSH2 0x175D JUMP JUMPDEST JUMPDEST DUP12 DUP16 MULMOD DUP6 PUSH1 0x0 PUSH1 0x4 DUP2 LT PUSH2 0x12E2 JUMPI PUSH2 0x12E1 PUSH2 0x1952 JUMP JUMPDEST JUMPDEST PUSH1 0x20 MUL ADD MLOAD MULMOD SWAP1 POP DUP3 DUP3 DUP3 SWAP8 POP SWAP8 POP SWAP8 POP POP POP POP POP POP JUMPDEST SWAP8 POP SWAP8 POP SWAP8 SWAP5 POP POP POP POP POP JUMP JUMPDEST PUSH1 0x0 DUP1 DUP4 EQ ISZERO DUP1 ISZERO PUSH2 0x1318 JUMPI POP DUP2 DUP4 EQ ISZERO JUMPDEST DUP1 ISZERO PUSH2 0x1325 JUMPI POP PUSH1 0x0 DUP3 EQ ISZERO JUMPDEST PUSH2 0x1364 JUMPI PUSH1 0x40 MLOAD PUSH32 0x8C379A000000000000000000000000000000000000000000000000000000000 DUP2 MSTORE PUSH1 0x4 ADD PUSH2 0x135B SWAP1 PUSH2 0x1C3F JUMP JUMPDEST PUSH1 0x40 MLOAD DUP1 SWAP2 SUB SWAP1 REVERT JUMPDEST PUSH1 0x0 DUP1 PUSH1 0x1 SWAP1 POP PUSH1 0x0 DUP5 SWAP1 POP PUSH1 0x0 JUMPDEST PUSH1 0x0 DUP8 EQ PUSH2 0x13E5 JUMPI DUP7 DUP3 PUSH2 0x1387 SWAP2 SWAP1 PUSH2 0x188F JUMP JUMPDEST SWAP1 POP DUP3 DUP7 DUP1 PUSH2 0x1399 JUMPI PUSH2 0x1398 PUSH2 0x175D JUMP JUMPDEST JUMPDEST DUP8 DUP1 PUSH2 0x13A8 JUMPI PUSH2 0x13A7 PUSH2 0x175D JUMP JUMPDEST JUMPDEST DUP6 DUP5 MULMOD DUP9 PUSH2 0x13B6 SWAP2 SWAP1 PUSH2 0x1981 JUMP JUMPDEST DUP7 ADDMOD DUP1 SWAP5 POP DUP2 SWAP6 POP POP POP DUP7 DUP8 DUP3 PUSH2 0x13CD SWAP2 SWAP1 PUSH2 0x1C5F JUMP JUMPDEST DUP4 PUSH2 0x13D8 SWAP2 SWAP1 PUSH2 0x1981 JUMP JUMPDEST DUP1 SWAP9 POP DUP2 SWAP4 POP POP POP PUSH2 0x1373 JUMP JUMPDEST DUP4 SWAP5 POP POP POP POP POP SWAP3 SWAP2 POP POP JUMP JUMPDEST PUSH1 0x40 MLOAD DUP1 PUSH1 0x80 ADD PUSH1 0x40 MSTORE DUP1 PUSH1 0x4 SWAP1 PUSH1 0x20 DUP3 MUL DUP1 CALLDATASIZE DUP4 CALLDATACOPY DUP1 DUP3 ADD SWAP2 POP POP SWAP1 POP POP SWAP1 JUMP JUMPDEST PUSH1 0x0 PUSH1 0x40 MLOAD SWAP1 POP SWAP1 JUMP JUMPDEST PUSH1 0x0 DUP1 REVERT JUMPDEST PUSH1 0x0 DUP1 REVERT JUMPDEST PUSH1 0x0 DUP1 REVERT JUMPDEST PUSH1 0x0 DUP1 REVERT JUMPDEST PUSH1 0x0 PUSH1 0x1F NOT PUSH1 0x1F DUP4 ADD AND SWAP1 POP SWAP2 SWAP1 POP JUMP JUMPDEST PUSH32 0x4E487B7100000000000000000000000000000000000000000000000000000000 PUSH1 0x0 MSTORE PUSH1 0x41 PUSH1 0x4 MSTORE PUSH1 0x24 PUSH1 0x0 REVERT JUMPDEST PUSH2 0x147B DUP3 PUSH2 0x1432 JUMP JUMPDEST DUP2 ADD DUP2 DUP2 LT PUSH8 0xFFFFFFFFFFFFFFFF DUP3 GT OR ISZERO PUSH2 0x149A JUMPI PUSH2 0x1499 PUSH2 0x1443 JUMP JUMPDEST JUMPDEST DUP1 PUSH1 0x40 MSTORE POP POP POP JUMP JUMPDEST PUSH1 0x0 PUSH2 0x14AD PUSH2 0x1414 JUMP JUMPDEST SWAP1 POP PUSH2 0x14B9 DUP3 DUP3 PUSH2 0x1472 JUMP JUMPDEST SWAP2 SWAP1 POP JUMP JUMPDEST PUSH1 0x0 PUSH8 0xFFFFFFFFFFFFFFFF DUP3 GT ISZERO PUSH2 0x14D9 JUMPI PUSH2 0x14D8 PUSH2 0x1443 JUMP JUMPDEST JUMPDEST PUSH2 0x14E2 DUP3 PUSH2 0x1432 JUMP JUMPDEST SWAP1 POP PUSH1 0x20 DUP2 ADD SWAP1 POP SWAP2 SWAP1 POP JUMP JUMPDEST DUP3 DUP2 DUP4 CALLDATACOPY PUSH1 0x0 DUP4 DUP4 ADD MSTORE POP POP POP JUMP JUMPDEST PUSH1 0x0 PUSH2 0x1511 PUSH2 0x150C DUP5 PUSH2 0x14BE JUMP JUMPDEST PUSH2 0x14A3 JUMP JUMPDEST SWAP1 POP DUP3 DUP2 MSTORE PUSH1 0x20 DUP2 ADD DUP5 DUP5 DUP5 ADD GT ISZERO PUSH2 0x152D JUMPI PUSH2 0x152C PUSH2 0x142D JUMP JUMPDEST JUMPDEST PUSH2 0x1538 DUP5 DUP3 DUP6 PUSH2 0x14EF JUMP JUMPDEST POP SWAP4 SWAP3 POP POP POP JUMP JUMPDEST PUSH1 0x0 DUP3 PUSH1 0x1F DUP4 ADD SLT PUSH2 0x1555 JUMPI PUSH2 0x1554 PUSH2 0x1428 JUMP JUMPDEST JUMPDEST DUP2 CALLDATALOAD PUSH2 0x1565 DUP5 DUP3 PUSH1 0x20 DUP7 ADD PUSH2 0x14FE JUMP JUMPDEST SWAP2 POP POP SWAP3 SWAP2 POP POP JUMP JUMPDEST PUSH1 0x0 PUSH8 0xFFFFFFFFFFFFFFFF DUP3 GT ISZERO PUSH2 0x1589 JUMPI PUSH2 0x1588 PUSH2 0x1443 JUMP JUMPDEST JUMPDEST PUSH1 0x20 DUP3 MUL SWAP1 POP PUSH1 0x20 DUP2 ADD SWAP1 POP SWAP2 SWAP1 POP JUMP JUMPDEST PUSH1 0x0 DUP1 REVERT JUMPDEST PUSH1 0x0 DUP2 SWAP1 POP SWAP2 SWAP1 POP JUMP JUMPDEST PUSH2 0x15B2 DUP2 PUSH2 0x159F JUMP JUMPDEST DUP2 EQ PUSH2 0x15BD JUMPI PUSH1 0x0 DUP1 REVERT JUMPDEST POP JUMP JUMPDEST PUSH1 0x0 DUP2 CALLDATALOAD SWAP1 POP PUSH2 0x15CF DUP2 PUSH2 0x15A9 JUMP JUMPDEST SWAP3 SWAP2 POP POP JUMP JUMPDEST PUSH1 0x0 PUSH2 0x15E8 PUSH2 0x15E3 DUP5 PUSH2 0x156E JUMP JUMPDEST PUSH2 0x14A3 JUMP JUMPDEST SWAP1 POP DUP1 DUP4 DUP3 MSTORE PUSH1 0x20 DUP3 ADD SWAP1 POP PUSH1 0x20 DUP5 MUL DUP4 ADD DUP6 DUP2 GT ISZERO PUSH2 0x160B JUMPI PUSH2 0x160A PUSH2 0x159A JUMP JUMPDEST JUMPDEST DUP4 JUMPDEST DUP2 DUP2 LT ISZERO PUSH2 0x1634 JUMPI DUP1 PUSH2 0x1620 DUP9 DUP3 PUSH2 0x15C0 JUMP JUMPDEST DUP5 MSTORE PUSH1 0x20 DUP5 ADD SWAP4 POP POP PUSH1 0x20 DUP2 ADD SWAP1 POP PUSH2 0x160D JUMP JUMPDEST POP POP POP SWAP4 SWAP3 POP POP POP JUMP JUMPDEST PUSH1 0x0 DUP3 PUSH1 0x1F DUP4 ADD SLT PUSH2 0x1653 JUMPI PUSH2 0x1652 PUSH2 0x1428 JUMP JUMPDEST JUMPDEST DUP2 CALLDATALOAD PUSH2 0x1663 DUP5 DUP3 PUSH1 0x20 DUP7 ADD PUSH2 0x15D5 JUMP JUMPDEST SWAP2 POP POP SWAP3 SWAP2 POP POP JUMP JUMPDEST PUSH1 0x0 DUP1 PUSH1 0x0 DUP1 PUSH1 0x80 DUP6 DUP8 SUB SLT ISZERO PUSH2 0x1686 JUMPI PUSH2 0x1685 PUSH2 0x141E JUMP JUMPDEST JUMPDEST PUSH1 0x0 DUP6 ADD CALLDATALOAD PUSH8 0xFFFFFFFFFFFFFFFF DUP2 GT ISZERO PUSH2 0x16A4 JUMPI PUSH2 0x16A3 PUSH2 0x1423 JUMP JUMPDEST JUMPDEST PUSH2 0x16B0 DUP8 DUP3 DUP9 ADD PUSH2 0x1540 JUMP JUMPDEST SWAP5 POP POP PUSH1 0x20 DUP6 ADD CALLDATALOAD PUSH8 0xFFFFFFFFFFFFFFFF DUP2 GT ISZERO PUSH2 0x16D1 JUMPI PUSH2 0x16D0 PUSH2 0x1423 JUMP JUMPDEST JUMPDEST PUSH2 0x16DD DUP8 DUP3 DUP9 ADD PUSH2 0x163E JUMP JUMPDEST SWAP4 POP POP PUSH1 0x40 DUP6 ADD CALLDATALOAD PUSH8 0xFFFFFFFFFFFFFFFF DUP2 GT ISZERO PUSH2 0x16FE JUMPI PUSH2 0x16FD PUSH2 0x1423 JUMP JUMPDEST JUMPDEST PUSH2 0x170A DUP8 DUP3 DUP9 ADD PUSH2 0x163E JUMP JUMPDEST SWAP3 POP POP PUSH1 0x60 PUSH2 0x171B DUP8 DUP3 DUP9 ADD PUSH2 0x15C0 JUMP JUMPDEST SWAP2 POP POP SWAP3 SWAP6 SWAP2 SWAP5 POP SWAP3 POP JUMP JUMPDEST PUSH1 0x0 DUP2 ISZERO ISZERO SWAP1 POP SWAP2 SWAP1 POP JUMP JUMPDEST PUSH2 0x173C DUP2 PUSH2 0x1727 JUMP JUMPDEST DUP3 MSTORE POP POP JUMP JUMPDEST PUSH1 0x0 PUSH1 0x20 DUP3 ADD SWAP1 POP PUSH2 0x1757 PUSH1 0x0 DUP4 ADD DUP5 PUSH2 0x1733 JUMP JUMPDEST SWAP3 SWAP2 POP POP JUMP JUMPDEST PUSH32 0x4E487B7100000000000000000000000000000000000000000000000000000000 PUSH1 0x0 MSTORE PUSH1 0x12 PUSH1 0x4 MSTORE PUSH1 0x24 PUSH1 0x0 REVERT JUMPDEST PUSH1 0x0 PUSH2 0x1797 DUP3 PUSH2 0x159F JUMP JUMPDEST SWAP2 POP PUSH2 0x17A2 DUP4 PUSH2 0x159F JUMP JUMPDEST SWAP3 POP DUP3 PUSH2 0x17B2 JUMPI PUSH2 0x17B1 PUSH2 0x175D JUMP JUMPDEST JUMPDEST DUP3 DUP3 MOD SWAP1 POP SWAP3 SWAP2 POP POP JUMP JUMPDEST PUSH1 0x0 DUP3 DUP3 MSTORE PUSH1 0x20 DUP3 ADD SWAP1 POP SWAP3 SWAP2 POP POP JUMP JUMPDEST PUSH32 0x52696E67206C656E677468206D757374206265206576656E20616E6420677265 PUSH1 0x0 DUP3 ADD MSTORE PUSH32 0x61746572207468616E2031000000000000000000000000000000000000000000 PUSH1 0x20 DUP3 ADD MSTORE POP JUMP JUMPDEST PUSH1 0x0 PUSH2 0x182A PUSH1 0x2B DUP4 PUSH2 0x17BD JUMP JUMPDEST SWAP2 POP PUSH2 0x1835 DUP3 PUSH2 0x17CE JUMP JUMPDEST PUSH1 0x40 DUP3 ADD SWAP1 POP SWAP2 SWAP1 POP JUMP JUMPDEST PUSH1 0x0 PUSH1 0x20 DUP3 ADD SWAP1 POP DUP2 DUP2 SUB PUSH1 0x0 DUP4 ADD MSTORE PUSH2 0x1859 DUP2 PUSH2 0x181D JUMP JUMPDEST SWAP1 POP SWAP2 SWAP1 POP JUMP JUMPDEST PUSH32 0x4E487B7100000000000000000000000000000000000000000000000000000000 PUSH1 0x0 MSTORE PUSH1 0x11 PUSH1 0x4 MSTORE PUSH1 0x24 PUSH1 0x0 REVERT JUMPDEST PUSH1 0x0 PUSH2 0x189A DUP3 PUSH2 0x159F JUMP JUMPDEST SWAP2 POP PUSH2 0x18A5 DUP4 PUSH2 0x159F JUMP JUMPDEST SWAP3 POP DUP3 PUSH2 0x18B5 JUMPI PUSH2 0x18B4 PUSH2 0x175D JUMP JUMPDEST JUMPDEST DUP3 DUP3 DIV SWAP1 POP SWAP3 SWAP2 POP POP JUMP JUMPDEST PUSH32 0x526573706F6E736573206C656E677468206D75737420626520657175616C2074 PUSH1 0x0 DUP3 ADD MSTORE PUSH32 0x6F2072696E67206C656E677468202F2032000000000000000000000000000000 PUSH1 0x20 DUP3 ADD MSTORE POP JUMP JUMPDEST PUSH1 0x0 PUSH2 0x191C PUSH1 0x31 DUP4 PUSH2 0x17BD JUMP JUMPDEST SWAP2 POP PUSH2 0x1927 DUP3 PUSH2 0x18C0 JUMP JUMPDEST PUSH1 0x40 DUP3 ADD SWAP1 POP SWAP2 SWAP1 POP JUMP JUMPDEST PUSH1 0x0 PUSH1 0x20 DUP3 ADD SWAP1 POP DUP2 DUP2 SUB PUSH1 0x0 DUP4 ADD MSTORE PUSH2 0x194B DUP2 PUSH2 0x190F JUMP JUMPDEST SWAP1 POP SWAP2 SWAP1 POP JUMP JUMPDEST PUSH32 0x4E487B7100000000000000000000000000000000000000000000000000000000 PUSH1 0x0 MSTORE PUSH1 0x32 PUSH1 0x4 MSTORE PUSH1 0x24 PUSH1 0x0 REVERT JUMPDEST PUSH1 0x0 PUSH2 0x198C DUP3 PUSH2 0x159F JUMP JUMPDEST SWAP2 POP PUSH2 0x1997 DUP4 PUSH2 0x159F JUMP JUMPDEST SWAP3 POP DUP3 DUP3 SUB SWAP1 POP DUP2 DUP2 GT ISZERO PUSH2 0x19AF JUMPI PUSH2 0x19AE PUSH2 0x1860 JUMP JUMPDEST JUMPDEST SWAP3 SWAP2 POP POP JUMP JUMPDEST PUSH1 0x0 PUSH2 0x19C0 DUP3 PUSH2 0x159F JUMP JUMPDEST SWAP2 POP PUSH2 0x19CB DUP4 PUSH2 0x159F JUMP JUMPDEST SWAP3 POP DUP3 DUP3 ADD SWAP1 POP DUP1 DUP3 GT ISZERO PUSH2 0x19E3 JUMPI PUSH2 0x19E2 PUSH2 0x1860 JUMP JUMPDEST JUMPDEST SWAP3 SWAP2 POP POP JUMP JUMPDEST PUSH1 0x0 DUP2 MLOAD SWAP1 POP SWAP2 SWAP1 POP JUMP JUMPDEST PUSH1 0x0 DUP2 SWAP1 POP SWAP3 SWAP2 POP POP JUMP JUMPDEST PUSH1 0x0 JUMPDEST DUP4 DUP2 LT ISZERO PUSH2 0x1A1D JUMPI DUP1 DUP3 ADD MLOAD DUP2 DUP5 ADD MSTORE PUSH1 0x20 DUP2 ADD SWAP1 POP PUSH2 0x1A02 JUMP JUMPDEST PUSH1 0x0 DUP5 DUP5 ADD MSTORE POP POP POP POP JUMP JUMPDEST PUSH1 0x0 PUSH2 0x1A34 DUP3 PUSH2 0x19E9 JUMP JUMPDEST PUSH2 0x1A3E DUP2 DUP6 PUSH2 0x19F4 JUMP JUMPDEST SWAP4 POP PUSH2 0x1A4E DUP2 DUP6 PUSH1 0x20 DUP7 ADD PUSH2 0x19FF JUMP JUMPDEST DUP1 DUP5 ADD SWAP2 POP POP SWAP3 SWAP2 POP POP JUMP JUMPDEST PUSH1 0x0 PUSH2 0x1A66 DUP3 DUP6 PUSH2 0x1A29 JUMP JUMPDEST SWAP2 POP PUSH2 0x1A72 DUP3 DUP5 PUSH2 0x1A29 JUMP JUMPDEST SWAP2 POP DUP2 SWAP1 POP SWAP4 SWAP3 POP POP POP JUMP JUMPDEST PUSH1 0x0 PUSH2 0x1A89 DUP3 PUSH2 0x159F JUMP JUMPDEST SWAP2 POP PUSH32 0xFFFFFFFFFFFFFFFFFFFFFFFFFFFFFFFFFFFFFFFFFFFFFFFFFFFFFFFFFFFFFFFF DUP3 SUB PUSH2 0x1ABB JUMPI PUSH2 0x1ABA PUSH2 0x1860 JUMP JUMPDEST JUMPDEST PUSH1 0x1 DUP3 ADD SWAP1 POP SWAP2 SWAP1 POP JUMP JUMPDEST PUSH32 0x70726576696F75735075624B6579206973206E6F74206F6E2063757276650000 PUSH1 0x0 DUP3 ADD MSTORE POP JUMP JUMPDEST PUSH1 0x0 PUSH2 0x1AFC PUSH1 0x1E DUP4 PUSH2 0x17BD JUMP JUMPDEST SWAP2 POP PUSH2 0x1B07 DUP3 PUSH2 0x1AC6 JUMP JUMPDEST PUSH1 0x20 DUP3 ADD SWAP1 POP SWAP2 SWAP1 POP JUMP JUMPDEST PUSH1 0x0 PUSH1 0x20 DUP3 ADD SWAP1 POP DUP2 DUP2 SUB PUSH1 0x0 DUP4 ADD MSTORE PUSH2 0x1B2B DUP2 PUSH2 0x1AEF JUMP JUMPDEST SWAP1 POP SWAP2 SWAP1 POP JUMP JUMPDEST PUSH1 0x0 PUSH2 0x1B3E DUP3 DUP8 PUSH2 0x1A29 JUMP JUMPDEST SWAP2 POP PUSH2 0x1B4A DUP3 DUP7 PUSH2 0x1A29 JUMP JUMPDEST SWAP2 POP PUSH2 0x1B56 DUP3 DUP6 PUSH2 0x1A29 JUMP JUMPDEST SWAP2 POP PUSH2 0x1B62 DUP3 DUP5 PUSH2 0x1A29 JUMP JUMPDEST SWAP2 POP DUP2 SWAP1 POP SWAP6 SWAP5 POP POP POP POP POP JUMP JUMPDEST PUSH1 0x0 PUSH2 0x1B7C DUP3 DUP5 PUSH2 0x1A29 JUMP JUMPDEST SWAP2 POP DUP2 SWAP1 POP SWAP3 SWAP2 POP POP JUMP JUMPDEST PUSH32 0x557365206A6163446F75626C652066756E6374696F6E20696E73746561640000 PUSH1 0x0 DUP3 ADD MSTORE POP JUMP JUMPDEST PUSH1 0x0 PUSH2 0x1BBD PUSH1 0x1E DUP4 PUSH2 0x17BD JUMP JUMPDEST SWAP2 POP PUSH2 0x1BC8 DUP3 PUSH2 0x1B87 JUMP JUMPDEST PUSH1 0x20 DUP3 ADD SWAP1 POP SWAP2 SWAP1 POP JUMP JUMPDEST PUSH1 0x0 PUSH1 0x20 DUP3 ADD SWAP1 POP DUP2 DUP2 SUB PUSH1 0x0 DUP4 ADD MSTORE PUSH2 0x1BEC DUP2 PUSH2 0x1BB0 JUMP JUMPDEST SWAP1 POP SWAP2 SWAP1 POP JUMP JUMPDEST PUSH32 0x496E76616C6964206E756D626572000000000000000000000000000000000000 PUSH1 0x0 DUP3 ADD MSTORE POP JUMP JUMPDEST PUSH1 0x0 PUSH2 0x1C29 PUSH1 0xE DUP4 PUSH2 0x17BD JUMP JUMPDEST SWAP2 POP PUSH2 0x1C34 DUP3 PUSH2 0x1BF3 JUMP JUMPDEST PUSH1 0x20 DUP3 ADD SWAP1 POP SWAP2 SWAP1 POP JUMP JUMPDEST PUSH1 0x0 PUSH1 0x20 DUP3 ADD SWAP1 POP DUP2 DUP2 SUB PUSH1 0x0 DUP4 ADD MSTORE PUSH2 0x1C58 DUP2 PUSH2 0x1C1C JUMP JUMPDEST SWAP1 POP SWAP2 SWAP1 POP JUMP JUMPDEST PUSH1 0x0 PUSH2 0x1C6A DUP3 PUSH2 0x159F JUMP JUMPDEST SWAP2 POP PUSH2 0x1C75 DUP4 PUSH2 0x159F JUMP JUMPDEST SWAP3 POP DUP3 DUP3 MUL PUSH2 0x1C83 DUP2 PUSH2 0x159F JUMP JUMPDEST SWAP2 POP DUP3 DUP3 DIV DUP5 EQ DUP4 ISZERO OR PUSH2 0x1C9A JUMPI PUSH2 0x1C99 PUSH2 0x1860 JUMP JUMPDEST JUMPDEST POP SWAP3 SWAP2 POP POP JUMP INVALID LOG2 PUSH5 0x6970667358 0x22 SLT KECCAK256 0xA8 EXTCODEHASH PUSH3 0xD11A4A 0xD RETURNDATACOPY MSIZE SUB CODECOPY CALLDATALOAD STOP COINBASE CALLDATASIZE MUL SLOAD PUSH16 0x2D2560F66AAA7EFC40A40C0105B86473 PUSH16 0x6C634300081400330000000000000000 "},"methodIdentifiers":{"verifyRingSignature(string,uint256[],uint256[],uint256)":"c434c5ee"}}}}}