{"contracts/ringSigVerifier.sol":{"RingSigVerifier":{"abi":[{"inputs":[],"stateMutability":"nonpayable","type":"constructor"},{"inputs":[{"internalType":"string","name":"strRing","type":"string"},{"internalType":"string","name":"message","type":"string"},{"internalType":"uint256","name":"r","type":"uint256"},{"internalType":"uint256","name":"previousC","type":"uint256"},{"internalType":"uint256[2]","name":"previousPubKey","type":"uint256[2]"}],"name":"computeC","outputs":[{"internalType":"uint256","name":"","type":"uint256"}],"stateMutability":"pure","type":"function"},{"inputs":[{"internalType":"string","name":"message","type":"string"},{"internalType":"uint256[]","name":"ring","type":"uint256[]"},{"internalType":"uint256[]","name":"responses","type":"uint256[]"},{"internalType":"uint256","name":"c","type":"uint256"}],"name":"verifyRingSignature","outputs":[{"internalType":"bool","name":"","type":"bool"}],"stateMutability":"pure","type":"function"}],"evm":{"bytecode":{"linkReferences":{"contracts/secp256k1.sol":{"Secp256k1":[{"length":20,"start":836},{"length":20,"start":862},{"length":20,"start":1068}]}},"object":"608060405234801561001057600080fd5b506113e6806100206000396000f3fe608060405234801561001057600080fd5b50600436106100365760003560e01c8063c434c5ee1461003b578063eae4ae8f1461006b575b600080fd5b61005560048036038101906100509190610ab3565b61009b565b6040516100629190610b89565b60405180910390f35b61008560048036038101906100809190610c55565b61031f565b6040516100929190610d17565b60405180910390f35b6000600184511180156100bb57506000600285516100b99190610d61565b145b6100fa576040517f08c379a00000000000000000000000000000000000000000000000000000000081526004016100f190610e15565b60405180910390fd5b600284516101089190610e64565b83511461014a576040517f08c379a000000000000000000000000000000000000000000000000000000000815260040161014190610f07565b60405180910390fd5b6000610155856105c8565b905060006101cb82888760008151811061017257610171610f27565b5b60200260200101518760405180604001604052808c60008151811061019a57610199610f27565b5b602002602001015181526020018c6001815181106101bb576101ba610f27565b5b602002602001015181525061031f565b90506000600290505b865181101561027a576102648389886002856101f09190610e64565b8151811061020157610200610f27565b5b60200260200101518560405180604001604052808d888151811061022857610227610f27565b5b602002602001015181526020018d6001896102439190610f56565b8151811061025457610253610f27565b5b602002602001015181525061031f565b91506002816102739190610f56565b90506101d4565b506103118288876001895161028f9190610f8a565b815181106102a05761029f610f27565b5b60200260200101518460405180604001604052808c60028e516102c39190610f8a565b815181106102d4576102d3610f27565b5b602002602001015181526020018c60018e516102f09190610f8a565b8151811061030157610300610f27565b5b602002602001015181525061031f565b841492505050949350505050565b60008073__$ac9df8564564f09022d97baa7c4ddef38f$__637670aa7673__$ac9df8564564f09022d97baa7c4ddef38f$__63cef3da1a8860405180604001604052807f79be667ef9dcbbac55a06295ce870b07029bfcdb2dce28d959f2815b16f8179881526020017f483ada7726a3c4655da4fbfc0e1108a8fd17b448a68554199c47d08ffb10d4b88152506040518363ffffffff1660e01b81526004016103c9929190611078565b606060405180830381865af41580156103e6573d6000803e3d6000fd5b505050506040513d601f19601f8201168201806040525081019061040a9190611167565b73__$ac9df8564564f09022d97baa7c4ddef38f$__63cef3da1a88886040518363ffffffff1660e01b8152600401610443929190611078565b606060405180830381865af4158015610460573d6000803e3d6000fd5b505050506040513d601f19601f820116820180604052508101906104849190611167565b6040518363ffffffff1660e01b81526004016104a1929190611218565b606060405180830381865af41580156104be573d6000803e3d6000fd5b505050506040513d601f19601f820116820180604052508101906104e29190611167565b905061050e817ffffffffffffffffffffffffffffffffebaaedce6af48a03bbfd25e8cd036414161066e565b600087878360006003811061052657610525610f27565b5b60200201518460016003811061053f5761053e610f27565b5b602002015160405160200161055794939291906112d3565b60405160208183030381529060405290506105bb8160405160200161057c9190611360565b6040516020818303038152906040528051906020012060001c7ffffffffffffffffffffffffffffffffebaaedce6af48a03bbfd25e8cd036414161076e565b9250505095945050505050565b6060600060405180602001604052806000815250905060005b835181101561066457818482815181106105fe576105fd610f27565b5b6020026020010151856001846106149190610f56565b8151811061062557610624610f27565b5b602002602001015160405160200161063f93929190611377565b604051602081830303815290604052915060028161065d9190610f56565b90506105e1565b5080915050919050565b60006106928360026003811061068757610686610f27565b5b6020020151836107a1565b9050600082806106a5576106a4610d32565b5b828309905082806106b9576106b8610d32565b5b81856000600381106106ce576106cd610f27565b5b602002015109846000600381106106e8576106e7610f27565b5b6020020181815250508280610700576106ff610d32565b5b838061070f5761070e610d32565b5b8284098560016003811061072657610725610f27565b5b602002015109846001600381106107405761073f610f27565b5b60200201818152505060018460026003811061075f5761075e610f27565b5b60200201818152505050505050565b600080828461077d9190610d61565b905060008110156107975782816107949190610f56565b90505b8091505092915050565b6000808314806107b057508183145b806107bb5750600082145b156107c557600080fd5b818311156107e1578183816107dd576107dc610d32565b5b0692505b600080600190506000849050600086905060005b600082146108315781838161080d5761080c610d32565b5b049050838482028603838484028603809550819650829750839850505050506107f5565b600085121561084c5784600003870395505050505050610855565b84955050505050505b92915050565b6000604051905090565b600080fd5b600080fd5b600080fd5b600080fd5b6000601f19601f8301169050919050565b7f4e487b7100000000000000000000000000000000000000000000000000000000600052604160045260246000fd5b6108c282610879565b810181811067ffffffffffffffff821117156108e1576108e061088a565b5b80604052505050565b60006108f461085b565b905061090082826108b9565b919050565b600067ffffffffffffffff8211156109205761091f61088a565b5b61092982610879565b9050602081019050919050565b82818337600083830152505050565b600061095861095384610905565b6108ea565b90508281526020810184848401111561097457610973610874565b5b61097f848285610936565b509392505050565b600082601f83011261099c5761099b61086f565b5b81356109ac848260208601610945565b91505092915050565b600067ffffffffffffffff8211156109d0576109cf61088a565b5b602082029050602081019050919050565b600080fd5b6000819050919050565b6109f9816109e6565b8114610a0457600080fd5b50565b600081359050610a16816109f0565b92915050565b6000610a2f610a2a846109b5565b6108ea565b90508083825260208201905060208402830185811115610a5257610a516109e1565b5b835b81811015610a7b5780610a678882610a07565b845260208401935050602081019050610a54565b5050509392505050565b600082601f830112610a9a57610a9961086f565b5b8135610aaa848260208601610a1c565b91505092915050565b60008060008060808587031215610acd57610acc610865565b5b600085013567ffffffffffffffff811115610aeb57610aea61086a565b5b610af787828801610987565b945050602085013567ffffffffffffffff811115610b1857610b1761086a565b5b610b2487828801610a85565b935050604085013567ffffffffffffffff811115610b4557610b4461086a565b5b610b5187828801610a85565b9250506060610b6287828801610a07565b91505092959194509250565b60008115159050919050565b610b8381610b6e565b82525050565b6000602082019050610b9e6000830184610b7a565b92915050565b600067ffffffffffffffff821115610bbf57610bbe61088a565b5b602082029050919050565b6000610bdd610bd884610ba4565b6108ea565b90508060208402830185811115610bf757610bf66109e1565b5b835b81811015610c205780610c0c8882610a07565b845260208401935050602081019050610bf9565b5050509392505050565b600082601f830112610c3f57610c3e61086f565b5b6002610c4c848285610bca565b91505092915050565b600080600080600060c08688031215610c7157610c70610865565b5b600086013567ffffffffffffffff811115610c8f57610c8e61086a565b5b610c9b88828901610987565b955050602086013567ffffffffffffffff811115610cbc57610cbb61086a565b5b610cc888828901610987565b9450506040610cd988828901610a07565b9350506060610cea88828901610a07565b9250506080610cfb88828901610c2a565b9150509295509295909350565b610d11816109e6565b82525050565b6000602082019050610d2c6000830184610d08565b92915050565b7f4e487b7100000000000000000000000000000000000000000000000000000000600052601260045260246000fd5b6000610d6c826109e6565b9150610d77836109e6565b925082610d8757610d86610d32565b5b828206905092915050565b600082825260208201905092915050565b7f52696e67206c656e677468206d757374206265206576656e20616e642067726560008201527f61746572207468616e2031000000000000000000000000000000000000000000602082015250565b6000610dff602b83610d92565b9150610e0a82610da3565b604082019050919050565b60006020820190508181036000830152610e2e81610df2565b9050919050565b7f4e487b7100000000000000000000000000000000000000000000000000000000600052601160045260246000fd5b6000610e6f826109e6565b9150610e7a836109e6565b925082610e8a57610e89610d32565b5b828204905092915050565b7f526573706f6e736573206c656e677468206d75737420626520657175616c207460008201527f6f2072696e67206c656e677468202f2032000000000000000000000000000000602082015250565b6000610ef1603183610d92565b9150610efc82610e95565b604082019050919050565b60006020820190508181036000830152610f2081610ee4565b9050919050565b7f4e487b7100000000000000000000000000000000000000000000000000000000600052603260045260246000fd5b6000610f61826109e6565b9150610f6c836109e6565b9250828201905080821115610f8457610f83610e35565b5b92915050565b6000610f95826109e6565b9150610fa0836109e6565b9250828203905081811115610fb857610fb7610e35565b5b92915050565b610fc7816109e6565b82525050565b600060029050919050565b600081905092915050565b6000819050919050565b610ff6816109e6565b82525050565b60006110088383610fed565b60208301905092915050565b6000602082019050919050565b61102a81610fcd565b6110348184610fd8565b925061103f82610fe3565b8060005b838110156110705781516110578782610ffc565b965061106283611014565b925050600181019050611043565b505050505050565b600060608201905061108d6000830185610fbe565b61109a6020830184611021565b9392505050565b600067ffffffffffffffff8211156110bc576110bb61088a565b5b602082029050919050565b6000815190506110d6816109f0565b92915050565b60006110ef6110ea846110a1565b6108ea565b90508060208402830185811115611109576111086109e1565b5b835b81811015611132578061111e88826110c7565b84526020840193505060208101905061110b565b5050509392505050565b600082601f8301126111515761115061086f565b5b600361115e8482856110dc565b91505092915050565b60006060828403121561117d5761117c610865565b5b600061118b8482850161113c565b91505092915050565b600060039050919050565b600081905092915050565b6000819050919050565b6000602082019050919050565b6111ca81611194565b6111d4818461119f565b92506111df826111aa565b8060005b838110156112105781516111f78782610ffc565b9650611202836111b4565b9250506001810190506111e3565b505050505050565b600060c08201905061122d60008301856111c1565b61123a60608301846111c1565b9392505050565b600081519050919050565b600081905092915050565b60005b8381101561127557808201518184015260208101905061125a565b60008484015250505050565b600061128c82611241565b611296818561124c565b93506112a6818560208601611257565b80840191505092915050565b6000819050919050565b6112cd6112c8826109e6565b6112b2565b82525050565b60006112df8287611281565b91506112eb8286611281565b91506112f782856112bc565b60208201915061130782846112bc565b60208201915081905095945050505050565b600081519050919050565b600081905092915050565b600061133a82611319565b6113448185611324565b9350611354818560208601611257565b80840191505092915050565b600061136c828461132f565b915081905092915050565b60006113838286611281565b915061138f82856112bc565b60208201915061139f82846112bc565b60208201915081905094935050505056fea2646970667358221220561b01efdbf266d79a82ea2c26cf673d7a12d0b1122207d3120810594eb5e44664736f6c63430008140033","opcodes":"PUSH1 0x80 PUSH1 0x40 MSTORE CALLVALUE DUP1 ISZERO PUSH2 0x10 JUMPI PUSH1 0x0 DUP1 REVERT JUMPDEST POP PUSH2 0x13E6 DUP1 PUSH2 0x20 PUSH1 0x0 CODECOPY PUSH1 0x0 RETURN INVALID PUSH1 0x80 PUSH1 0x40 MSTORE CALLVALUE DUP1 ISZERO PUSH2 0x10 JUMPI PUSH1 0x0 DUP1 REVERT JUMPDEST POP PUSH1 0x4 CALLDATASIZE LT PUSH2 0x36 JUMPI PUSH1 0x0 CALLDATALOAD PUSH1 0xE0 SHR DUP1 PUSH4 0xC434C5EE EQ PUSH2 0x3B JUMPI DUP1 PUSH4 0xEAE4AE8F EQ PUSH2 0x6B JUMPI JUMPDEST PUSH1 0x0 DUP1 REVERT JUMPDEST PUSH2 0x55 PUSH1 0x4 DUP1 CALLDATASIZE SUB DUP2 ADD SWAP1 PUSH2 0x50 SWAP2 SWAP1 PUSH2 0xAB3 JUMP JUMPDEST PUSH2 0x9B JUMP JUMPDEST PUSH1 0x40 MLOAD PUSH2 0x62 SWAP2 SWAP1 PUSH2 0xB89 JUMP JUMPDEST PUSH1 0x40 MLOAD DUP1 SWAP2 SUB SWAP1 RETURN JUMPDEST PUSH2 0x85 PUSH1 0x4 DUP1 CALLDATASIZE SUB DUP2 ADD SWAP1 PUSH2 0x80 SWAP2 SWAP1 PUSH2 0xC55 JUMP JUMPDEST PUSH2 0x31F JUMP JUMPDEST PUSH1 0x40 MLOAD PUSH2 0x92 SWAP2 SWAP1 PUSH2 0xD17 JUMP JUMPDEST PUSH1 0x40 MLOAD DUP1 SWAP2 SUB SWAP1 RETURN JUMPDEST PUSH1 0x0 PUSH1 0x1 DUP5 MLOAD GT DUP1 ISZERO PUSH2 0xBB JUMPI POP PUSH1 0x0 PUSH1 0x2 DUP6 MLOAD PUSH2 0xB9 SWAP2 SWAP1 PUSH2 0xD61 JUMP JUMPDEST EQ JUMPDEST PUSH2 0xFA JUMPI PUSH1 0x40 MLOAD PUSH32 0x8C379A000000000000000000000000000000000000000000000000000000000 DUP2 MSTORE PUSH1 0x4 ADD PUSH2 0xF1 SWAP1 PUSH2 0xE15 JUMP JUMPDEST PUSH1 0x40 MLOAD DUP1 SWAP2 SUB SWAP1 REVERT JUMPDEST PUSH1 0x2 DUP5 MLOAD PUSH2 0x108 SWAP2 SWAP1 PUSH2 0xE64 JUMP JUMPDEST DUP4 MLOAD EQ PUSH2 0x14A JUMPI PUSH1 0x40 MLOAD PUSH32 0x8C379A000000000000000000000000000000000000000000000000000000000 DUP2 MSTORE PUSH1 0x4 ADD PUSH2 0x141 SWAP1 PUSH2 0xF07 JUMP JUMPDEST PUSH1 0x40 MLOAD DUP1 SWAP2 SUB SWAP1 REVERT JUMPDEST PUSH1 0x0 PUSH2 0x155 DUP6 PUSH2 0x5C8 JUMP JUMPDEST SWAP1 POP PUSH1 0x0 PUSH2 0x1CB DUP3 DUP9 DUP8 PUSH1 0x0 DUP2 MLOAD DUP2 LT PUSH2 0x172 JUMPI PUSH2 0x171 PUSH2 0xF27 JUMP JUMPDEST JUMPDEST PUSH1 0x20 MUL PUSH1 0x20 ADD ADD MLOAD DUP8 PUSH1 0x40 MLOAD DUP1 PUSH1 0x40 ADD PUSH1 0x40 MSTORE DUP1 DUP13 PUSH1 0x0 DUP2 MLOAD DUP2 LT PUSH2 0x19A JUMPI PUSH2 0x199 PUSH2 0xF27 JUMP JUMPDEST JUMPDEST PUSH1 0x20 MUL PUSH1 0x20 ADD ADD MLOAD DUP2 MSTORE PUSH1 0x20 ADD DUP13 PUSH1 0x1 DUP2 MLOAD DUP2 LT PUSH2 0x1BB JUMPI PUSH2 0x1BA PUSH2 0xF27 JUMP JUMPDEST JUMPDEST PUSH1 0x20 MUL PUSH1 0x20 ADD ADD MLOAD DUP2 MSTORE POP PUSH2 0x31F JUMP JUMPDEST SWAP1 POP PUSH1 0x0 PUSH1 0x2 SWAP1 POP JUMPDEST DUP7 MLOAD DUP2 LT ISZERO PUSH2 0x27A JUMPI PUSH2 0x264 DUP4 DUP10 DUP9 PUSH1 0x2 DUP6 PUSH2 0x1F0 SWAP2 SWAP1 PUSH2 0xE64 JUMP JUMPDEST DUP2 MLOAD DUP2 LT PUSH2 0x201 JUMPI PUSH2 0x200 PUSH2 0xF27 JUMP JUMPDEST JUMPDEST PUSH1 0x20 MUL PUSH1 0x20 ADD ADD MLOAD DUP6 PUSH1 0x40 MLOAD DUP1 PUSH1 0x40 ADD PUSH1 0x40 MSTORE DUP1 DUP14 DUP9 DUP2 MLOAD DUP2 LT PUSH2 0x228 JUMPI PUSH2 0x227 PUSH2 0xF27 JUMP JUMPDEST JUMPDEST PUSH1 0x20 MUL PUSH1 0x20 ADD ADD MLOAD DUP2 MSTORE PUSH1 0x20 ADD DUP14 PUSH1 0x1 DUP10 PUSH2 0x243 SWAP2 SWAP1 PUSH2 0xF56 JUMP JUMPDEST DUP2 MLOAD DUP2 LT PUSH2 0x254 JUMPI PUSH2 0x253 PUSH2 0xF27 JUMP JUMPDEST JUMPDEST PUSH1 0x20 MUL PUSH1 0x20 ADD ADD MLOAD DUP2 MSTORE POP PUSH2 0x31F JUMP JUMPDEST SWAP2 POP PUSH1 0x2 DUP2 PUSH2 0x273 SWAP2 SWAP1 PUSH2 0xF56 JUMP JUMPDEST SWAP1 POP PUSH2 0x1D4 JUMP JUMPDEST POP PUSH2 0x311 DUP3 DUP9 DUP8 PUSH1 0x1 DUP10 MLOAD PUSH2 0x28F SWAP2 SWAP1 PUSH2 0xF8A JUMP JUMPDEST DUP2 MLOAD DUP2 LT PUSH2 0x2A0 JUMPI PUSH2 0x29F PUSH2 0xF27 JUMP JUMPDEST JUMPDEST PUSH1 0x20 MUL PUSH1 0x20 ADD ADD MLOAD DUP5 PUSH1 0x40 MLOAD DUP1 PUSH1 0x40 ADD PUSH1 0x40 MSTORE DUP1 DUP13 PUSH1 0x2 DUP15 MLOAD PUSH2 0x2C3 SWAP2 SWAP1 PUSH2 0xF8A JUMP JUMPDEST DUP2 MLOAD DUP2 LT PUSH2 0x2D4 JUMPI PUSH2 0x2D3 PUSH2 0xF27 JUMP JUMPDEST JUMPDEST PUSH1 0x20 MUL PUSH1 0x20 ADD ADD MLOAD DUP2 MSTORE PUSH1 0x20 ADD DUP13 PUSH1 0x1 DUP15 MLOAD PUSH2 0x2F0 SWAP2 SWAP1 PUSH2 0xF8A JUMP JUMPDEST DUP2 MLOAD DUP2 LT PUSH2 0x301 JUMPI PUSH2 0x300 PUSH2 0xF27 JUMP JUMPDEST JUMPDEST PUSH1 0x20 MUL PUSH1 0x20 ADD ADD MLOAD DUP2 MSTORE POP PUSH2 0x31F JUMP JUMPDEST DUP5 EQ SWAP3 POP POP POP SWAP5 SWAP4 POP POP POP POP JUMP JUMPDEST PUSH1 0x0 DUP1 PUSH20 0x0 PUSH4 0x7670AA76 PUSH20 0x0 PUSH4 0xCEF3DA1A DUP9 PUSH1 0x40 MLOAD DUP1 PUSH1 0x40 ADD PUSH1 0x40 MSTORE DUP1 PUSH32 0x79BE667EF9DCBBAC55A06295CE870B07029BFCDB2DCE28D959F2815B16F81798 DUP2 MSTORE PUSH1 0x20 ADD PUSH32 0x483ADA7726A3C4655DA4FBFC0E1108A8FD17B448A68554199C47D08FFB10D4B8 DUP2 MSTORE POP PUSH1 0x40 MLOAD DUP4 PUSH4 0xFFFFFFFF AND PUSH1 0xE0 SHL DUP2 MSTORE PUSH1 0x4 ADD PUSH2 0x3C9 SWAP3 SWAP2 SWAP1 PUSH2 0x1078 JUMP JUMPDEST PUSH1 0x60 PUSH1 0x40 MLOAD DUP1 DUP4 SUB DUP2 DUP7 GAS DELEGATECALL ISZERO DUP1 ISZERO PUSH2 0x3E6 JUMPI RETURNDATASIZE PUSH1 0x0 DUP1 RETURNDATACOPY RETURNDATASIZE PUSH1 0x0 REVERT JUMPDEST POP POP POP POP PUSH1 0x40 MLOAD RETURNDATASIZE PUSH1 0x1F NOT PUSH1 0x1F DUP3 ADD AND DUP3 ADD DUP1 PUSH1 0x40 MSTORE POP DUP2 ADD SWAP1 PUSH2 0x40A SWAP2 SWAP1 PUSH2 0x1167 JUMP JUMPDEST PUSH20 0x0 PUSH4 0xCEF3DA1A DUP9 DUP9 PUSH1 0x40 MLOAD DUP4 PUSH4 0xFFFFFFFF AND PUSH1 0xE0 SHL DUP2 MSTORE PUSH1 0x4 ADD PUSH2 0x443 SWAP3 SWAP2 SWAP1 PUSH2 0x1078 JUMP JUMPDEST PUSH1 0x60 PUSH1 0x40 MLOAD DUP1 DUP4 SUB DUP2 DUP7 GAS DELEGATECALL ISZERO DUP1 ISZERO PUSH2 0x460 JUMPI RETURNDATASIZE PUSH1 0x0 DUP1 RETURNDATACOPY RETURNDATASIZE PUSH1 0x0 REVERT JUMPDEST POP POP POP POP PUSH1 0x40 MLOAD RETURNDATASIZE PUSH1 0x1F NOT PUSH1 0x1F DUP3 ADD AND DUP3 ADD DUP1 PUSH1 0x40 MSTORE POP DUP2 ADD SWAP1 PUSH2 0x484 SWAP2 SWAP1 PUSH2 0x1167 JUMP JUMPDEST PUSH1 0x40 MLOAD DUP4 PUSH4 0xFFFFFFFF AND PUSH1 0xE0 SHL DUP2 MSTORE PUSH1 0x4 ADD PUSH2 0x4A1 SWAP3 SWAP2 SWAP1 PUSH2 0x1218 JUMP JUMPDEST PUSH1 0x60 PUSH1 0x40 MLOAD DUP1 DUP4 SUB DUP2 DUP7 GAS DELEGATECALL ISZERO DUP1 ISZERO PUSH2 0x4BE JUMPI RETURNDATASIZE PUSH1 0x0 DUP1 RETURNDATACOPY RETURNDATASIZE PUSH1 0x0 REVERT JUMPDEST POP POP POP POP PUSH1 0x40 MLOAD RETURNDATASIZE PUSH1 0x1F NOT PUSH1 0x1F DUP3 ADD AND DUP3 ADD DUP1 PUSH1 0x40 MSTORE POP DUP2 ADD SWAP1 PUSH2 0x4E2 SWAP2 SWAP1 PUSH2 0x1167 JUMP JUMPDEST SWAP1 POP PUSH2 0x50E DUP2 PUSH32 0xFFFFFFFFFFFFFFFFFFFFFFFFFFFFFFFEBAAEDCE6AF48A03BBFD25E8CD0364141 PUSH2 0x66E JUMP JUMPDEST PUSH1 0x0 DUP8 DUP8 DUP4 PUSH1 0x0 PUSH1 0x3 DUP2 LT PUSH2 0x526 JUMPI PUSH2 0x525 PUSH2 0xF27 JUMP JUMPDEST JUMPDEST PUSH1 0x20 MUL ADD MLOAD DUP5 PUSH1 0x1 PUSH1 0x3 DUP2 LT PUSH2 0x53F JUMPI PUSH2 0x53E PUSH2 0xF27 JUMP JUMPDEST JUMPDEST PUSH1 0x20 MUL ADD MLOAD PUSH1 0x40 MLOAD PUSH1 0x20 ADD PUSH2 0x557 SWAP5 SWAP4 SWAP3 SWAP2 SWAP1 PUSH2 0x12D3 JUMP JUMPDEST PUSH1 0x40 MLOAD PUSH1 0x20 DUP2 DUP4 SUB SUB DUP2 MSTORE SWAP1 PUSH1 0x40 MSTORE SWAP1 POP PUSH2 0x5BB DUP2 PUSH1 0x40 MLOAD PUSH1 0x20 ADD PUSH2 0x57C SWAP2 SWAP1 PUSH2 0x1360 JUMP JUMPDEST PUSH1 0x40 MLOAD PUSH1 0x20 DUP2 DUP4 SUB SUB DUP2 MSTORE SWAP1 PUSH1 0x40 MSTORE DUP1 MLOAD SWAP1 PUSH1 0x20 ADD KECCAK256 PUSH1 0x0 SHR PUSH32 0xFFFFFFFFFFFFFFFFFFFFFFFFFFFFFFFEBAAEDCE6AF48A03BBFD25E8CD0364141 PUSH2 0x76E JUMP JUMPDEST SWAP3 POP POP POP SWAP6 SWAP5 POP POP POP POP POP JUMP JUMPDEST PUSH1 0x60 PUSH1 0x0 PUSH1 0x40 MLOAD DUP1 PUSH1 0x20 ADD PUSH1 0x40 MSTORE DUP1 PUSH1 0x0 DUP2 MSTORE POP SWAP1 POP PUSH1 0x0 JUMPDEST DUP4 MLOAD DUP2 LT ISZERO PUSH2 0x664 JUMPI DUP2 DUP5 DUP3 DUP2 MLOAD DUP2 LT PUSH2 0x5FE JUMPI PUSH2 0x5FD PUSH2 0xF27 JUMP JUMPDEST JUMPDEST PUSH1 0x20 MUL PUSH1 0x20 ADD ADD MLOAD DUP6 PUSH1 0x1 DUP5 PUSH2 0x614 SWAP2 SWAP1 PUSH2 0xF56 JUMP JUMPDEST DUP2 MLOAD DUP2 LT PUSH2 0x625 JUMPI PUSH2 0x624 PUSH2 0xF27 JUMP JUMPDEST JUMPDEST PUSH1 0x20 MUL PUSH1 0x20 ADD ADD MLOAD PUSH1 0x40 MLOAD PUSH1 0x20 ADD PUSH2 0x63F SWAP4 SWAP3 SWAP2 SWAP1 PUSH2 0x1377 JUMP JUMPDEST PUSH1 0x40 MLOAD PUSH1 0x20 DUP2 DUP4 SUB SUB DUP2 MSTORE SWAP1 PUSH1 0x40 MSTORE SWAP2 POP PUSH1 0x2 DUP2 PUSH2 0x65D SWAP2 SWAP1 PUSH2 0xF56 JUMP JUMPDEST SWAP1 POP PUSH2 0x5E1 JUMP JUMPDEST POP DUP1 SWAP2 POP POP SWAP2 SWAP1 POP JUMP JUMPDEST PUSH1 0x0 PUSH2 0x692 DUP4 PUSH1 0x2 PUSH1 0x3 DUP2 LT PUSH2 0x687 JUMPI PUSH2 0x686 PUSH2 0xF27 JUMP JUMPDEST JUMPDEST PUSH1 0x20 MUL ADD MLOAD DUP4 PUSH2 0x7A1 JUMP JUMPDEST SWAP1 POP PUSH1 0x0 DUP3 DUP1 PUSH2 0x6A5 JUMPI PUSH2 0x6A4 PUSH2 0xD32 JUMP JUMPDEST JUMPDEST DUP3 DUP4 MULMOD SWAP1 POP DUP3 DUP1 PUSH2 0x6B9 JUMPI PUSH2 0x6B8 PUSH2 0xD32 JUMP JUMPDEST JUMPDEST DUP2 DUP6 PUSH1 0x0 PUSH1 0x3 DUP2 LT PUSH2 0x6CE JUMPI PUSH2 0x6CD PUSH2 0xF27 JUMP JUMPDEST JUMPDEST PUSH1 0x20 MUL ADD MLOAD MULMOD DUP5 PUSH1 0x0 PUSH1 0x3 DUP2 LT PUSH2 0x6E8 JUMPI PUSH2 0x6E7 PUSH2 0xF27 JUMP JUMPDEST JUMPDEST PUSH1 0x20 MUL ADD DUP2 DUP2 MSTORE POP POP DUP3 DUP1 PUSH2 0x700 JUMPI PUSH2 0x6FF PUSH2 0xD32 JUMP JUMPDEST JUMPDEST DUP4 DUP1 PUSH2 0x70F JUMPI PUSH2 0x70E PUSH2 0xD32 JUMP JUMPDEST JUMPDEST DUP3 DUP5 MULMOD DUP6 PUSH1 0x1 PUSH1 0x3 DUP2 LT PUSH2 0x726 JUMPI PUSH2 0x725 PUSH2 0xF27 JUMP JUMPDEST JUMPDEST PUSH1 0x20 MUL ADD MLOAD MULMOD DUP5 PUSH1 0x1 PUSH1 0x3 DUP2 LT PUSH2 0x740 JUMPI PUSH2 0x73F PUSH2 0xF27 JUMP JUMPDEST JUMPDEST PUSH1 0x20 MUL ADD DUP2 DUP2 MSTORE POP POP PUSH1 0x1 DUP5 PUSH1 0x2 PUSH1 0x3 DUP2 LT PUSH2 0x75F JUMPI PUSH2 0x75E PUSH2 0xF27 JUMP JUMPDEST JUMPDEST PUSH1 0x20 MUL ADD DUP2 DUP2 MSTORE POP POP POP POP POP POP JUMP JUMPDEST PUSH1 0x0 DUP1 DUP3 DUP5 PUSH2 0x77D SWAP2 SWAP1 PUSH2 0xD61 JUMP JUMPDEST SWAP1 POP PUSH1 0x0 DUP2 LT ISZERO PUSH2 0x797 JUMPI DUP3 DUP2 PUSH2 0x794 SWAP2 SWAP1 PUSH2 0xF56 JUMP JUMPDEST SWAP1 POP JUMPDEST DUP1 SWAP2 POP POP SWAP3 SWAP2 POP POP JUMP JUMPDEST PUSH1 0x0 DUP1 DUP4 EQ DUP1 PUSH2 0x7B0 JUMPI POP DUP2 DUP4 EQ JUMPDEST DUP1 PUSH2 0x7BB JUMPI POP PUSH1 0x0 DUP3 EQ JUMPDEST ISZERO PUSH2 0x7C5 JUMPI PUSH1 0x0 DUP1 REVERT JUMPDEST DUP2 DUP4 GT ISZERO PUSH2 0x7E1 JUMPI DUP2 DUP4 DUP2 PUSH2 0x7DD JUMPI PUSH2 0x7DC PUSH2 0xD32 JUMP JUMPDEST JUMPDEST MOD SWAP3 POP JUMPDEST PUSH1 0x0 DUP1 PUSH1 0x1 SWAP1 POP PUSH1 0x0 DUP5 SWAP1 POP PUSH1 0x0 DUP7 SWAP1 POP PUSH1 0x0 JUMPDEST PUSH1 0x0 DUP3 EQ PUSH2 0x831 JUMPI DUP2 DUP4 DUP2 PUSH2 0x80D JUMPI PUSH2 0x80C PUSH2 0xD32 JUMP JUMPDEST JUMPDEST DIV SWAP1 POP DUP4 DUP5 DUP3 MUL DUP7 SUB DUP4 DUP5 DUP5 MUL DUP7 SUB DUP1 SWAP6 POP DUP2 SWAP7 POP DUP3 SWAP8 POP DUP4 SWAP9 POP POP POP POP POP PUSH2 0x7F5 JUMP JUMPDEST PUSH1 0x0 DUP6 SLT ISZERO PUSH2 0x84C JUMPI DUP5 PUSH1 0x0 SUB DUP8 SUB SWAP6 POP POP POP POP POP POP PUSH2 0x855 JUMP JUMPDEST DUP5 SWAP6 POP POP POP POP POP POP JUMPDEST SWAP3 SWAP2 POP POP JUMP JUMPDEST PUSH1 0x0 PUSH1 0x40 MLOAD SWAP1 POP SWAP1 JUMP JUMPDEST PUSH1 0x0 DUP1 REVERT JUMPDEST PUSH1 0x0 DUP1 REVERT JUMPDEST PUSH1 0x0 DUP1 REVERT JUMPDEST PUSH1 0x0 DUP1 REVERT JUMPDEST PUSH1 0x0 PUSH1 0x1F NOT PUSH1 0x1F DUP4 ADD AND SWAP1 POP SWAP2 SWAP1 POP JUMP JUMPDEST PUSH32 0x4E487B7100000000000000000000000000000000000000000000000000000000 PUSH1 0x0 MSTORE PUSH1 0x41 PUSH1 0x4 MSTORE PUSH1 0x24 PUSH1 0x0 REVERT JUMPDEST PUSH2 0x8C2 DUP3 PUSH2 0x879 JUMP JUMPDEST DUP2 ADD DUP2 DUP2 LT PUSH8 0xFFFFFFFFFFFFFFFF DUP3 GT OR ISZERO PUSH2 0x8E1 JUMPI PUSH2 0x8E0 PUSH2 0x88A JUMP JUMPDEST JUMPDEST DUP1 PUSH1 0x40 MSTORE POP POP POP JUMP JUMPDEST PUSH1 0x0 PUSH2 0x8F4 PUSH2 0x85B JUMP JUMPDEST SWAP1 POP PUSH2 0x900 DUP3 DUP3 PUSH2 0x8B9 JUMP JUMPDEST SWAP2 SWAP1 POP JUMP JUMPDEST PUSH1 0x0 PUSH8 0xFFFFFFFFFFFFFFFF DUP3 GT ISZERO PUSH2 0x920 JUMPI PUSH2 0x91F PUSH2 0x88A JUMP JUMPDEST JUMPDEST PUSH2 0x929 DUP3 PUSH2 0x879 JUMP JUMPDEST SWAP1 POP PUSH1 0x20 DUP2 ADD SWAP1 POP SWAP2 SWAP1 POP JUMP JUMPDEST DUP3 DUP2 DUP4 CALLDATACOPY PUSH1 0x0 DUP4 DUP4 ADD MSTORE POP POP POP JUMP JUMPDEST PUSH1 0x0 PUSH2 0x958 PUSH2 0x953 DUP5 PUSH2 0x905 JUMP JUMPDEST PUSH2 0x8EA JUMP JUMPDEST SWAP1 POP DUP3 DUP2 MSTORE PUSH1 0x20 DUP2 ADD DUP5 DUP5 DUP5 ADD GT ISZERO PUSH2 0x974 JUMPI PUSH2 0x973 PUSH2 0x874 JUMP JUMPDEST JUMPDEST PUSH2 0x97F DUP5 DUP3 DUP6 PUSH2 0x936 JUMP JUMPDEST POP SWAP4 SWAP3 POP POP POP JUMP JUMPDEST PUSH1 0x0 DUP3 PUSH1 0x1F DUP4 ADD SLT PUSH2 0x99C JUMPI PUSH2 0x99B PUSH2 0x86F JUMP JUMPDEST JUMPDEST DUP2 CALLDATALOAD PUSH2 0x9AC DUP5 DUP3 PUSH1 0x20 DUP7 ADD PUSH2 0x945 JUMP JUMPDEST SWAP2 POP POP SWAP3 SWAP2 POP POP JUMP JUMPDEST PUSH1 0x0 PUSH8 0xFFFFFFFFFFFFFFFF DUP3 GT ISZERO PUSH2 0x9D0 JUMPI PUSH2 0x9CF PUSH2 0x88A JUMP JUMPDEST JUMPDEST PUSH1 0x20 DUP3 MUL SWAP1 POP PUSH1 0x20 DUP2 ADD SWAP1 POP SWAP2 SWAP1 POP JUMP JUMPDEST PUSH1 0x0 DUP1 REVERT JUMPDEST PUSH1 0x0 DUP2 SWAP1 POP SWAP2 SWAP1 POP JUMP JUMPDEST PUSH2 0x9F9 DUP2 PUSH2 0x9E6 JUMP JUMPDEST DUP2 EQ PUSH2 0xA04 JUMPI PUSH1 0x0 DUP1 REVERT JUMPDEST POP JUMP JUMPDEST PUSH1 0x0 DUP2 CALLDATALOAD SWAP1 POP PUSH2 0xA16 DUP2 PUSH2 0x9F0 JUMP JUMPDEST SWAP3 SWAP2 POP POP JUMP JUMPDEST PUSH1 0x0 PUSH2 0xA2F PUSH2 0xA2A DUP5 PUSH2 0x9B5 JUMP JUMPDEST PUSH2 0x8EA JUMP JUMPDEST SWAP1 POP DUP1 DUP4 DUP3 MSTORE PUSH1 0x20 DUP3 ADD SWAP1 POP PUSH1 0x20 DUP5 MUL DUP4 ADD DUP6 DUP2 GT ISZERO PUSH2 0xA52 JUMPI PUSH2 0xA51 PUSH2 0x9E1 JUMP JUMPDEST JUMPDEST DUP4 JUMPDEST DUP2 DUP2 LT ISZERO PUSH2 0xA7B JUMPI DUP1 PUSH2 0xA67 DUP9 DUP3 PUSH2 0xA07 JUMP JUMPDEST DUP5 MSTORE PUSH1 0x20 DUP5 ADD SWAP4 POP POP PUSH1 0x20 DUP2 ADD SWAP1 POP PUSH2 0xA54 JUMP JUMPDEST POP POP POP SWAP4 SWAP3 POP POP POP JUMP JUMPDEST PUSH1 0x0 DUP3 PUSH1 0x1F DUP4 ADD SLT PUSH2 0xA9A JUMPI PUSH2 0xA99 PUSH2 0x86F JUMP JUMPDEST JUMPDEST DUP2 CALLDATALOAD PUSH2 0xAAA DUP5 DUP3 PUSH1 0x20 DUP7 ADD PUSH2 0xA1C JUMP JUMPDEST SWAP2 POP POP SWAP3 SWAP2 POP POP JUMP JUMPDEST PUSH1 0x0 DUP1 PUSH1 0x0 DUP1 PUSH1 0x80 DUP6 DUP8 SUB SLT ISZERO PUSH2 0xACD JUMPI PUSH2 0xACC PUSH2 0x865 JUMP JUMPDEST JUMPDEST PUSH1 0x0 DUP6 ADD CALLDATALOAD PUSH8 0xFFFFFFFFFFFFFFFF DUP2 GT ISZERO PUSH2 0xAEB JUMPI PUSH2 0xAEA PUSH2 0x86A JUMP JUMPDEST JUMPDEST PUSH2 0xAF7 DUP8 DUP3 DUP9 ADD PUSH2 0x987 JUMP JUMPDEST SWAP5 POP POP PUSH1 0x20 DUP6 ADD CALLDATALOAD PUSH8 0xFFFFFFFFFFFFFFFF DUP2 GT ISZERO PUSH2 0xB18 JUMPI PUSH2 0xB17 PUSH2 0x86A JUMP JUMPDEST JUMPDEST PUSH2 0xB24 DUP8 DUP3 DUP9 ADD PUSH2 0xA85 JUMP JUMPDEST SWAP4 POP POP PUSH1 0x40 DUP6 ADD CALLDATALOAD PUSH8 0xFFFFFFFFFFFFFFFF DUP2 GT ISZERO PUSH2 0xB45 JUMPI PUSH2 0xB44 PUSH2 0x86A JUMP JUMPDEST JUMPDEST PUSH2 0xB51 DUP8 DUP3 DUP9 ADD PUSH2 0xA85 JUMP JUMPDEST SWAP3 POP POP PUSH1 0x60 PUSH2 0xB62 DUP8 DUP3 DUP9 ADD PUSH2 0xA07 JUMP JUMPDEST SWAP2 POP POP SWAP3 SWAP6 SWAP2 SWAP5 POP SWAP3 POP JUMP JUMPDEST PUSH1 0x0 DUP2 ISZERO ISZERO SWAP1 POP SWAP2 SWAP1 POP JUMP JUMPDEST PUSH2 0xB83 DUP2 PUSH2 0xB6E JUMP JUMPDEST DUP3 MSTORE POP POP JUMP JUMPDEST PUSH1 0x0 PUSH1 0x20 DUP3 ADD SWAP1 POP PUSH2 0xB9E PUSH1 0x0 DUP4 ADD DUP5 PUSH2 0xB7A JUMP JUMPDEST SWAP3 SWAP2 POP POP JUMP JUMPDEST PUSH1 0x0 PUSH8 0xFFFFFFFFFFFFFFFF DUP3 GT ISZERO PUSH2 0xBBF JUMPI PUSH2 0xBBE PUSH2 0x88A JUMP JUMPDEST JUMPDEST PUSH1 0x20 DUP3 MUL SWAP1 POP SWAP2 SWAP1 POP JUMP JUMPDEST PUSH1 0x0 PUSH2 0xBDD PUSH2 0xBD8 DUP5 PUSH2 0xBA4 JUMP JUMPDEST PUSH2 0x8EA JUMP JUMPDEST SWAP1 POP DUP1 PUSH1 0x20 DUP5 MUL DUP4 ADD DUP6 DUP2 GT ISZERO PUSH2 0xBF7 JUMPI PUSH2 0xBF6 PUSH2 0x9E1 JUMP JUMPDEST JUMPDEST DUP4 JUMPDEST DUP2 DUP2 LT ISZERO PUSH2 0xC20 JUMPI DUP1 PUSH2 0xC0C DUP9 DUP3 PUSH2 0xA07 JUMP JUMPDEST DUP5 MSTORE PUSH1 0x20 DUP5 ADD SWAP4 POP POP PUSH1 0x20 DUP2 ADD SWAP1 POP PUSH2 0xBF9 JUMP JUMPDEST POP POP POP SWAP4 SWAP3 POP POP POP JUMP JUMPDEST PUSH1 0x0 DUP3 PUSH1 0x1F DUP4 ADD SLT PUSH2 0xC3F JUMPI PUSH2 0xC3E PUSH2 0x86F JUMP JUMPDEST JUMPDEST PUSH1 0x2 PUSH2 0xC4C DUP5 DUP3 DUP6 PUSH2 0xBCA JUMP JUMPDEST SWAP2 POP POP SWAP3 SWAP2 POP POP JUMP JUMPDEST PUSH1 0x0 DUP1 PUSH1 0x0 DUP1 PUSH1 0x0 PUSH1 0xC0 DUP7 DUP9 SUB SLT ISZERO PUSH2 0xC71 JUMPI PUSH2 0xC70 PUSH2 0x865 JUMP JUMPDEST JUMPDEST PUSH1 0x0 DUP7 ADD CALLDATALOAD PUSH8 0xFFFFFFFFFFFFFFFF DUP2 GT ISZERO PUSH2 0xC8F JUMPI PUSH2 0xC8E PUSH2 0x86A JUMP JUMPDEST JUMPDEST PUSH2 0xC9B DUP9 DUP3 DUP10 ADD PUSH2 0x987 JUMP JUMPDEST SWAP6 POP POP PUSH1 0x20 DUP7 ADD CALLDATALOAD PUSH8 0xFFFFFFFFFFFFFFFF DUP2 GT ISZERO PUSH2 0xCBC JUMPI PUSH2 0xCBB PUSH2 0x86A JUMP JUMPDEST JUMPDEST PUSH2 0xCC8 DUP9 DUP3 DUP10 ADD PUSH2 0x987 JUMP JUMPDEST SWAP5 POP POP PUSH1 0x40 PUSH2 0xCD9 DUP9 DUP3 DUP10 ADD PUSH2 0xA07 JUMP JUMPDEST SWAP4 POP POP PUSH1 0x60 PUSH2 0xCEA DUP9 DUP3 DUP10 ADD PUSH2 0xA07 JUMP JUMPDEST SWAP3 POP POP PUSH1 0x80 PUSH2 0xCFB DUP9 DUP3 DUP10 ADD PUSH2 0xC2A JUMP JUMPDEST SWAP2 POP POP SWAP3 SWAP6 POP SWAP3 SWAP6 SWAP1 SWAP4 POP JUMP JUMPDEST PUSH2 0xD11 DUP2 PUSH2 0x9E6 JUMP JUMPDEST DUP3 MSTORE POP POP JUMP JUMPDEST PUSH1 0x0 PUSH1 0x20 DUP3 ADD SWAP1 POP PUSH2 0xD2C PUSH1 0x0 DUP4 ADD DUP5 PUSH2 0xD08 JUMP JUMPDEST SWAP3 SWAP2 POP POP JUMP JUMPDEST PUSH32 0x4E487B7100000000000000000000000000000000000000000000000000000000 PUSH1 0x0 MSTORE PUSH1 0x12 PUSH1 0x4 MSTORE PUSH1 0x24 PUSH1 0x0 REVERT JUMPDEST PUSH1 0x0 PUSH2 0xD6C DUP3 PUSH2 0x9E6 JUMP JUMPDEST SWAP2 POP PUSH2 0xD77 DUP4 PUSH2 0x9E6 JUMP JUMPDEST SWAP3 POP DUP3 PUSH2 0xD87 JUMPI PUSH2 0xD86 PUSH2 0xD32 JUMP JUMPDEST JUMPDEST DUP3 DUP3 MOD SWAP1 POP SWAP3 SWAP2 POP POP JUMP JUMPDEST PUSH1 0x0 DUP3 DUP3 MSTORE PUSH1 0x20 DUP3 ADD SWAP1 POP SWAP3 SWAP2 POP POP JUMP JUMPDEST PUSH32 0x52696E67206C656E677468206D757374206265206576656E20616E6420677265 PUSH1 0x0 DUP3 ADD MSTORE PUSH32 0x61746572207468616E2031000000000000000000000000000000000000000000 PUSH1 0x20 DUP3 ADD MSTORE POP JUMP JUMPDEST PUSH1 0x0 PUSH2 0xDFF PUSH1 0x2B DUP4 PUSH2 0xD92 JUMP JUMPDEST SWAP2 POP PUSH2 0xE0A DUP3 PUSH2 0xDA3 JUMP JUMPDEST PUSH1 0x40 DUP3 ADD SWAP1 POP SWAP2 SWAP1 POP JUMP JUMPDEST PUSH1 0x0 PUSH1 0x20 DUP3 ADD SWAP1 POP DUP2 DUP2 SUB PUSH1 0x0 DUP4 ADD MSTORE PUSH2 0xE2E DUP2 PUSH2 0xDF2 JUMP JUMPDEST SWAP1 POP SWAP2 SWAP1 POP JUMP JUMPDEST PUSH32 0x4E487B7100000000000000000000000000000000000000000000000000000000 PUSH1 0x0 MSTORE PUSH1 0x11 PUSH1 0x4 MSTORE PUSH1 0x24 PUSH1 0x0 REVERT JUMPDEST PUSH1 0x0 PUSH2 0xE6F DUP3 PUSH2 0x9E6 JUMP JUMPDEST SWAP2 POP PUSH2 0xE7A DUP4 PUSH2 0x9E6 JUMP JUMPDEST SWAP3 POP DUP3 PUSH2 0xE8A JUMPI PUSH2 0xE89 PUSH2 0xD32 JUMP JUMPDEST JUMPDEST DUP3 DUP3 DIV SWAP1 POP SWAP3 SWAP2 POP POP JUMP JUMPDEST PUSH32 0x526573706F6E736573206C656E677468206D75737420626520657175616C2074 PUSH1 0x0 DUP3 ADD MSTORE PUSH32 0x6F2072696E67206C656E677468202F2032000000000000000000000000000000 PUSH1 0x20 DUP3 ADD MSTORE POP JUMP JUMPDEST PUSH1 0x0 PUSH2 0xEF1 PUSH1 0x31 DUP4 PUSH2 0xD92 JUMP JUMPDEST SWAP2 POP PUSH2 0xEFC DUP3 PUSH2 0xE95 JUMP JUMPDEST PUSH1 0x40 DUP3 ADD SWAP1 POP SWAP2 SWAP1 POP JUMP JUMPDEST PUSH1 0x0 PUSH1 0x20 DUP3 ADD SWAP1 POP DUP2 DUP2 SUB PUSH1 0x0 DUP4 ADD MSTORE PUSH2 0xF20 DUP2 PUSH2 0xEE4 JUMP JUMPDEST SWAP1 POP SWAP2 SWAP1 POP JUMP JUMPDEST PUSH32 0x4E487B7100000000000000000000000000000000000000000000000000000000 PUSH1 0x0 MSTORE PUSH1 0x32 PUSH1 0x4 MSTORE PUSH1 0x24 PUSH1 0x0 REVERT JUMPDEST PUSH1 0x0 PUSH2 0xF61 DUP3 PUSH2 0x9E6 JUMP JUMPDEST SWAP2 POP PUSH2 0xF6C DUP4 PUSH2 0x9E6 JUMP JUMPDEST SWAP3 POP DUP3 DUP3 ADD SWAP1 POP DUP1 DUP3 GT ISZERO PUSH2 0xF84 JUMPI PUSH2 0xF83 PUSH2 0xE35 JUMP JUMPDEST JUMPDEST SWAP3 SWAP2 POP POP JUMP JUMPDEST PUSH1 0x0 PUSH2 0xF95 DUP3 PUSH2 0x9E6 JUMP JUMPDEST SWAP2 POP PUSH2 0xFA0 DUP4 PUSH2 0x9E6 JUMP JUMPDEST SWAP3 POP DUP3 DUP3 SUB SWAP1 POP DUP2 DUP2 GT ISZERO PUSH2 0xFB8 JUMPI PUSH2 0xFB7 PUSH2 0xE35 JUMP JUMPDEST JUMPDEST SWAP3 SWAP2 POP POP JUMP JUMPDEST PUSH2 0xFC7 DUP2 PUSH2 0x9E6 JUMP JUMPDEST DUP3 MSTORE POP POP JUMP JUMPDEST PUSH1 0x0 PUSH1 0x2 SWAP1 POP SWAP2 SWAP1 POP JUMP JUMPDEST PUSH1 0x0 DUP2 SWAP1 POP SWAP3 SWAP2 POP POP JUMP JUMPDEST PUSH1 0x0 DUP2 SWAP1 POP SWAP2 SWAP1 POP JUMP JUMPDEST PUSH2 0xFF6 DUP2 PUSH2 0x9E6 JUMP JUMPDEST DUP3 MSTORE POP POP JUMP JUMPDEST PUSH1 0x0 PUSH2 0x1008 DUP4 DUP4 PUSH2 0xFED JUMP JUMPDEST PUSH1 0x20 DUP4 ADD SWAP1 POP SWAP3 SWAP2 POP POP JUMP JUMPDEST PUSH1 0x0 PUSH1 0x20 DUP3 ADD SWAP1 POP SWAP2 SWAP1 POP JUMP JUMPDEST PUSH2 0x102A DUP2 PUSH2 0xFCD JUMP JUMPDEST PUSH2 0x1034 DUP2 DUP5 PUSH2 0xFD8 JUMP JUMPDEST SWAP3 POP PUSH2 0x103F DUP3 PUSH2 0xFE3 JUMP JUMPDEST DUP1 PUSH1 0x0 JUMPDEST DUP4 DUP2 LT ISZERO PUSH2 0x1070 JUMPI DUP2 MLOAD PUSH2 0x1057 DUP8 DUP3 PUSH2 0xFFC JUMP JUMPDEST SWAP7 POP PUSH2 0x1062 DUP4 PUSH2 0x1014 JUMP JUMPDEST SWAP3 POP POP PUSH1 0x1 DUP2 ADD SWAP1 POP PUSH2 0x1043 JUMP JUMPDEST POP POP POP POP POP POP JUMP JUMPDEST PUSH1 0x0 PUSH1 0x60 DUP3 ADD SWAP1 POP PUSH2 0x108D PUSH1 0x0 DUP4 ADD DUP6 PUSH2 0xFBE JUMP JUMPDEST PUSH2 0x109A PUSH1 0x20 DUP4 ADD DUP5 PUSH2 0x1021 JUMP JUMPDEST SWAP4 SWAP3 POP POP POP JUMP JUMPDEST PUSH1 0x0 PUSH8 0xFFFFFFFFFFFFFFFF DUP3 GT ISZERO PUSH2 0x10BC JUMPI PUSH2 0x10BB PUSH2 0x88A JUMP JUMPDEST JUMPDEST PUSH1 0x20 DUP3 MUL SWAP1 POP SWAP2 SWAP1 POP JUMP JUMPDEST PUSH1 0x0 DUP2 MLOAD SWAP1 POP PUSH2 0x10D6 DUP2 PUSH2 0x9F0 JUMP JUMPDEST SWAP3 SWAP2 POP POP JUMP JUMPDEST PUSH1 0x0 PUSH2 0x10EF PUSH2 0x10EA DUP5 PUSH2 0x10A1 JUMP JUMPDEST PUSH2 0x8EA JUMP JUMPDEST SWAP1 POP DUP1 PUSH1 0x20 DUP5 MUL DUP4 ADD DUP6 DUP2 GT ISZERO PUSH2 0x1109 JUMPI PUSH2 0x1108 PUSH2 0x9E1 JUMP JUMPDEST JUMPDEST DUP4 JUMPDEST DUP2 DUP2 LT ISZERO PUSH2 0x1132 JUMPI DUP1 PUSH2 0x111E DUP9 DUP3 PUSH2 0x10C7 JUMP JUMPDEST DUP5 MSTORE PUSH1 0x20 DUP5 ADD SWAP4 POP POP PUSH1 0x20 DUP2 ADD SWAP1 POP PUSH2 0x110B JUMP JUMPDEST POP POP POP SWAP4 SWAP3 POP POP POP JUMP JUMPDEST PUSH1 0x0 DUP3 PUSH1 0x1F DUP4 ADD SLT PUSH2 0x1151 JUMPI PUSH2 0x1150 PUSH2 0x86F JUMP JUMPDEST JUMPDEST PUSH1 0x3 PUSH2 0x115E DUP5 DUP3 DUP6 PUSH2 0x10DC JUMP JUMPDEST SWAP2 POP POP SWAP3 SWAP2 POP POP JUMP JUMPDEST PUSH1 0x0 PUSH1 0x60 DUP3 DUP5 SUB SLT ISZERO PUSH2 0x117D JUMPI PUSH2 0x117C PUSH2 0x865 JUMP JUMPDEST JUMPDEST PUSH1 0x0 PUSH2 0x118B DUP5 DUP3 DUP6 ADD PUSH2 0x113C JUMP JUMPDEST SWAP2 POP POP SWAP3 SWAP2 POP POP JUMP JUMPDEST PUSH1 0x0 PUSH1 0x3 SWAP1 POP SWAP2 SWAP1 POP JUMP JUMPDEST PUSH1 0x0 DUP2 SWAP1 POP SWAP3 SWAP2 POP POP JUMP JUMPDEST PUSH1 0x0 DUP2 SWAP1 POP SWAP2 SWAP1 POP JUMP JUMPDEST PUSH1 0x0 PUSH1 0x20 DUP3 ADD SWAP1 POP SWAP2 SWAP1 POP JUMP JUMPDEST PUSH2 0x11CA DUP2 PUSH2 0x1194 JUMP JUMPDEST PUSH2 0x11D4 DUP2 DUP5 PUSH2 0x119F JUMP JUMPDEST SWAP3 POP PUSH2 0x11DF DUP3 PUSH2 0x11AA JUMP JUMPDEST DUP1 PUSH1 0x0 JUMPDEST DUP4 DUP2 LT ISZERO PUSH2 0x1210 JUMPI DUP2 MLOAD PUSH2 0x11F7 DUP8 DUP3 PUSH2 0xFFC JUMP JUMPDEST SWAP7 POP PUSH2 0x1202 DUP4 PUSH2 0x11B4 JUMP JUMPDEST SWAP3 POP POP PUSH1 0x1 DUP2 ADD SWAP1 POP PUSH2 0x11E3 JUMP JUMPDEST POP POP POP POP POP POP JUMP JUMPDEST PUSH1 0x0 PUSH1 0xC0 DUP3 ADD SWAP1 POP PUSH2 0x122D PUSH1 0x0 DUP4 ADD DUP6 PUSH2 0x11C1 JUMP JUMPDEST PUSH2 0x123A PUSH1 0x60 DUP4 ADD DUP5 PUSH2 0x11C1 JUMP JUMPDEST SWAP4 SWAP3 POP POP POP JUMP JUMPDEST PUSH1 0x0 DUP2 MLOAD SWAP1 POP SWAP2 SWAP1 POP JUMP JUMPDEST PUSH1 0x0 DUP2 SWAP1 POP SWAP3 SWAP2 POP POP JUMP JUMPDEST PUSH1 0x0 JUMPDEST DUP4 DUP2 LT ISZERO PUSH2 0x1275 JUMPI DUP1 DUP3 ADD MLOAD DUP2 DUP5 ADD MSTORE PUSH1 0x20 DUP2 ADD SWAP1 POP PUSH2 0x125A JUMP JUMPDEST PUSH1 0x0 DUP5 DUP5 ADD MSTORE POP POP POP POP JUMP JUMPDEST PUSH1 0x0 PUSH2 0x128C DUP3 PUSH2 0x1241 JUMP JUMPDEST PUSH2 0x1296 DUP2 DUP6 PUSH2 0x124C JUMP JUMPDEST SWAP4 POP PUSH2 0x12A6 DUP2 DUP6 PUSH1 0x20 DUP7 ADD PUSH2 0x1257 JUMP JUMPDEST DUP1 DUP5 ADD SWAP2 POP POP SWAP3 SWAP2 POP POP JUMP JUMPDEST PUSH1 0x0 DUP2 SWAP1 POP SWAP2 SWAP1 POP JUMP JUMPDEST PUSH2 0x12CD PUSH2 0x12C8 DUP3 PUSH2 0x9E6 JUMP JUMPDEST PUSH2 0x12B2 JUMP JUMPDEST DUP3 MSTORE POP POP JUMP JUMPDEST PUSH1 0x0 PUSH2 0x12DF DUP3 DUP8 PUSH2 0x1281 JUMP JUMPDEST SWAP2 POP PUSH2 0x12EB DUP3 DUP7 PUSH2 0x1281 JUMP JUMPDEST SWAP2 POP PUSH2 0x12F7 DUP3 DUP6 PUSH2 0x12BC JUMP JUMPDEST PUSH1 0x20 DUP3 ADD SWAP2 POP PUSH2 0x1307 DUP3 DUP5 PUSH2 0x12BC JUMP JUMPDEST PUSH1 0x20 DUP3 ADD SWAP2 POP DUP2 SWAP1 POP SWAP6 SWAP5 POP POP POP POP POP JUMP JUMPDEST PUSH1 0x0 DUP2 MLOAD SWAP1 POP SWAP2 SWAP1 POP JUMP JUMPDEST PUSH1 0x0 DUP2 SWAP1 POP SWAP3 SWAP2 POP POP JUMP JUMPDEST PUSH1 0x0 PUSH2 0x133A DUP3 PUSH2 0x1319 JUMP JUMPDEST PUSH2 0x1344 DUP2 DUP6 PUSH2 0x1324 JUMP JUMPDEST SWAP4 POP PUSH2 0x1354 DUP2 DUP6 PUSH1 0x20 DUP7 ADD PUSH2 0x1257 JUMP JUMPDEST DUP1 DUP5 ADD SWAP2 POP POP SWAP3 SWAP2 POP POP JUMP JUMPDEST PUSH1 0x0 PUSH2 0x136C DUP3 DUP5 PUSH2 0x132F JUMP JUMPDEST SWAP2 POP DUP2 SWAP1 POP SWAP3 SWAP2 POP POP JUMP JUMPDEST PUSH1 0x0 PUSH2 0x1383 DUP3 DUP7 PUSH2 0x1281 JUMP JUMPDEST SWAP2 POP PUSH2 0x138F DUP3 DUP6 PUSH2 0x12BC JUMP JUMPDEST PUSH1 0x20 DUP3 ADD SWAP2 POP PUSH2 0x139F DUP3 DUP5 PUSH2 0x12BC JUMP JUMPDEST PUSH1 0x20 DUP3 ADD SWAP2 POP DUP2 SWAP1 POP SWAP5 SWAP4 POP POP POP POP JUMP INVALID LOG2 PUSH5 0x6970667358 0x22 SLT KECCAK256 JUMP SHL ADD 0xEF 0xDB CALLCODE PUSH7 0xD79A82EA2C26CF PUSH8 0x3D7A12D0B1122207 0xD3 SLT ADDMOD LT MSIZE 0x4E 0xB5 0xE4 CHAINID PUSH5 0x736F6C6343 STOP ADDMOD EQ STOP CALLER "},"methodIdentifiers":{"computeC(string,string,uint256,uint256,uint256[2])":"eae4ae8f","verifyRingSignature(string,uint256[],uint256[],uint256)":"c434c5ee"}}}}}