{"contracts/sbt.sol":{"AliceRingToken":{"abi":[{"inputs":[{"internalType":"address","name":"_verifier","type":"address"},{"internalType":"address","name":"router","type":"address"}],"stateMutability":"nonpayable","type":"constructor"},{"inputs":[{"internalType":"string","name":"proofId","type":"string"}],"name":"AlreadyMinted","type":"error"},{"inputs":[{"internalType":"address","name":"sender","type":"address"},{"internalType":"uint256","name":"tokenId","type":"uint256"},{"internalType":"address","name":"owner","type":"address"}],"name":"ERC721IncorrectOwner","type":"error"},{"inputs":[{"internalType":"address","name":"operator","type":"address"},{"internalType":"uint256","name":"tokenId","type":"uint256"}],"name":"ERC721InsufficientApproval","type":"error"},{"inputs":[{"internalType":"address","name":"approver","type":"address"}],"name":"ERC721InvalidApprover","type":"error"},{"inputs":[{"internalType":"address","name":"operator","type":"address"}],"name":"ERC721InvalidOperator","type":"error"},{"inputs":[{"internalType":"address","name":"owner","type":"address"}],"name":"ERC721InvalidOwner","type":"error"},{"inputs":[{"internalType":"address","name":"receiver","type":"address"}],"name":"ERC721InvalidReceiver","type":"error"},{"inputs":[{"internalType":"address","name":"sender","type":"address"}],"name":"ERC721InvalidSender","type":"error"},{"inputs":[{"internalType":"uint256","name":"tokenId","type":"uint256"}],"name":"ERC721NonexistentToken","type":"error"},{"inputs":[],"name":"EmptyArgs","type":"error"},{"inputs":[],"name":"EmptySource","type":"error"},{"inputs":[],"name":"InvalidSignature","type":"error"},{"inputs":[],"name":"InvalidTokenAmounts","type":"error"},{"inputs":[],"name":"NoInlineSecrets","type":"error"},{"inputs":[{"internalType":"uint256","name":"tokenId","type":"uint256"}],"name":"OnlyOwnerCanBurn","type":"error"},{"inputs":[],"name":"OnlyRouterCanFulfill","type":"error"},{"inputs":[{"internalType":"address","name":"owner","type":"address"}],"name":"OwnableInvalidOwner","type":"error"},{"inputs":[{"internalType":"address","name":"account","type":"address"}],"name":"OwnableUnauthorizedAccount","type":"error"},{"inputs":[{"internalType":"bytes32","name":"requestId","type":"bytes32"}],"name":"UnexpectedRequestID","type":"error"},{"anonymous":false,"inputs":[{"indexed":true,"internalType":"address","name":"owner","type":"address"},{"indexed":true,"internalType":"address","name":"approved","type":"address"},{"indexed":true,"internalType":"uint256","name":"tokenId","type":"uint256"}],"name":"Approval","type":"event"},{"anonymous":false,"inputs":[{"indexed":true,"internalType":"address","name":"owner","type":"address"},{"indexed":true,"internalType":"address","name":"operator","type":"address"},{"indexed":false,"internalType":"bool","name":"approved","type":"bool"}],"name":"ApprovalForAll","type":"event"},{"anonymous":false,"inputs":[{"indexed":false,"internalType":"uint256","name":"_fromTokenId","type":"uint256"},{"indexed":false,"internalType":"uint256","name":"_toTokenId","type":"uint256"}],"name":"BatchMetadataUpdate","type":"event"},{"anonymous":false,"inputs":[{"indexed":false,"internalType":"uint256","name":"_tokenId","type":"uint256"}],"name":"MetadataUpdate","type":"event"},{"anonymous":false,"inputs":[{"indexed":true,"internalType":"address","name":"previousOwner","type":"address"},{"indexed":true,"internalType":"address","name":"newOwner","type":"address"}],"name":"OwnershipTransferred","type":"event"},{"anonymous":false,"inputs":[{"indexed":true,"internalType":"bytes32","name":"id","type":"bytes32"}],"name":"RequestFulfilled","type":"event"},{"anonymous":false,"inputs":[{"indexed":true,"internalType":"bytes32","name":"id","type":"bytes32"}],"name":"RequestSent","type":"event"},{"anonymous":false,"inputs":[{"indexed":true,"internalType":"bytes32","name":"requestId","type":"bytes32"},{"indexed":false,"internalType":"bytes","name":"response","type":"bytes"},{"indexed":false,"internalType":"bytes","name":"err","type":"bytes"}],"name":"Response","type":"event"},{"anonymous":false,"inputs":[{"indexed":true,"internalType":"address","name":"from","type":"address"},{"indexed":true,"internalType":"address","name":"to","type":"address"},{"indexed":true,"internalType":"uint256","name":"tokenId","type":"uint256"}],"name":"Transfer","type":"event"},{"inputs":[{"internalType":"address","name":"to","type":"address"},{"internalType":"uint256","name":"tokenId","type":"uint256"}],"name":"approve","outputs":[],"stateMutability":"pure","type":"function"},{"inputs":[{"internalType":"address","name":"owner","type":"address"}],"name":"balanceOf","outputs":[{"internalType":"uint256","name":"","type":"uint256"}],"stateMutability":"view","type":"function"},{"inputs":[{"internalType":"uint256","name":"tokenId","type":"uint256"}],"name":"burn","outputs":[],"stateMutability":"nonpayable","type":"function"},{"inputs":[{"internalType":"uint256","name":"tokenId","type":"uint256"}],"name":"getApproved","outputs":[{"internalType":"address","name":"operator","type":"address"}],"stateMutability":"pure","type":"function"},{"inputs":[{"internalType":"bytes32","name":"requestId","type":"bytes32"},{"internalType":"bytes","name":"response","type":"bytes"},{"internalType":"bytes","name":"err","type":"bytes"}],"name":"handleOracleFulfillment","outputs":[],"stateMutability":"nonpayable","type":"function"},{"inputs":[{"internalType":"address","name":"owner","type":"address"},{"internalType":"address","name":"operator","type":"address"}],"name":"isApprovedForAll","outputs":[{"internalType":"bool","name":"","type":"bool"}],"stateMutability":"pure","type":"function"},{"inputs":[{"internalType":"address","name":"token","type":"address"},{"internalType":"uint256","name":"minBalance","type":"uint256"},{"internalType":"string","name":"uri","type":"string"},{"internalType":"string","name":"proofId","type":"string"},{"internalType":"string","name":"message","type":"string"},{"internalType":"uint256[]","name":"ring","type":"uint256[]"},{"internalType":"uint256[]","name":"responses","type":"uint256[]"},{"internalType":"uint256","name":"c","type":"uint256"}],"name":"mint","outputs":[{"internalType":"bool","name":"","type":"bool"}],"stateMutability":"payable","type":"function"},{"inputs":[{"internalType":"string","name":"","type":"string"}],"name":"mintStatus","outputs":[{"internalType":"enum AliceRingToken.Status","name":"","type":"uint8"}],"stateMutability":"view","type":"function"},{"inputs":[],"name":"name","outputs":[{"internalType":"string","name":"","type":"string"}],"stateMutability":"view","type":"function"},{"inputs":[],"name":"owner","outputs":[{"internalType":"address","name":"","type":"address"}],"stateMutability":"view","type":"function"},{"inputs":[{"internalType":"uint256","name":"tokenId","type":"uint256"}],"name":"ownerOf","outputs":[{"internalType":"address","name":"","type":"address"}],"stateMutability":"view","type":"function"},{"inputs":[],"name":"renounceOwnership","outputs":[],"stateMutability":"nonpayable","type":"function"},{"inputs":[],"name":"s_lastError","outputs":[{"internalType":"bytes","name":"","type":"bytes"}],"stateMutability":"view","type":"function"},{"inputs":[],"name":"s_lastRequestId","outputs":[{"internalType":"bytes32","name":"","type":"bytes32"}],"stateMutability":"view","type":"function"},{"inputs":[],"name":"s_lastResponse","outputs":[{"internalType":"bytes","name":"","type":"bytes"}],"stateMutability":"view","type":"function"},{"inputs":[{"internalType":"address","name":"from","type":"address"},{"internalType":"address","name":"to","type":"address"},{"internalType":"uint256","name":"tokenId","type":"uint256"}],"name":"safeTransferFrom","outputs":[],"stateMutability":"pure","type":"function"},{"inputs":[{"internalType":"address","name":"from","type":"address"},{"internalType":"address","name":"to","type":"address"},{"internalType":"uint256","name":"tokenId","type":"uint256"},{"internalType":"bytes","name":"data","type":"bytes"}],"name":"safeTransferFrom","outputs":[],"stateMutability":"nonpayable","type":"function"},{"inputs":[{"internalType":"string","name":"source","type":"string"},{"internalType":"enum FunctionsRequest.Location","name":"secretsLocation","type":"uint8"},{"internalType":"bytes","name":"encryptedSecretsReference","type":"bytes"},{"internalType":"string[]","name":"args","type":"string[]"},{"internalType":"bytes[]","name":"bytesArgs","type":"bytes[]"},{"internalType":"uint64","name":"subscriptionId","type":"uint64"}],"name":"sendRequest","outputs":[{"internalType":"bytes32","name":"","type":"bytes32"}],"stateMutability":"nonpayable","type":"function"},{"inputs":[{"internalType":"address","name":"operator","type":"address"},{"internalType":"bool","name":"_approved","type":"bool"}],"name":"setApprovalForAll","outputs":[],"stateMutability":"pure","type":"function"},{"inputs":[{"internalType":"bytes4","name":"interfaceId","type":"bytes4"}],"name":"supportsInterface","outputs":[{"internalType":"bool","name":"","type":"bool"}],"stateMutability":"view","type":"function"},{"inputs":[],"name":"symbol","outputs":[{"internalType":"string","name":"","type":"string"}],"stateMutability":"view","type":"function"},{"inputs":[{"internalType":"uint256","name":"tokenId","type":"uint256"}],"name":"tokenURI","outputs":[{"internalType":"string","name":"","type":"string"}],"stateMutability":"view","type":"function"},{"inputs":[{"internalType":"address","name":"from","type":"address"},{"internalType":"address","name":"to","type":"address"},{"internalType":"uint256","name":"tokenId","type":"uint256"}],"name":"transferFrom","outputs":[],"stateMutability":"pure","type":"function"},{"inputs":[{"internalType":"address","name":"newOwner","type":"address"}],"name":"transferOwnership","outputs":[],"stateMutability":"nonpayable","type":"function"},{"inputs":[],"name":"verifier","outputs":[{"internalType":"contract RingSigVerifier","name":"","type":"address"}],"stateMutability":"view","type":"function"}],"evm":{"bytecode":{"linkReferences":{},"object":"60a0604052600c805463ffffffff19166207a1201790557f66756e2d657468657265756d2d7365706f6c69612d3100000000000000000000600d553480156200004757600080fd5b5060405162002f1838038062002f188339810160408190526200006a91620001aa565b80336040518060400160405280600e81526020016d20b634b1b2a934b733aa37b5b2b760911b8152506040518060400160405280600381526020016210549560ea1b8152508160009081620000c0919062000287565b506001620000cf828262000287565b5050506001600160a01b0381166200010157604051631e4fbdf760e01b81526000600482015260240160405180910390fd5b6200010c816200013b565b506001600160a01b03908116608052600e80546001600160a01b03191693909116929092179091555062000353565b600780546001600160a01b038381166001600160a01b0319831681179093556040519116919082907f8be0079c531659141344cd1fd0a4f28419497f9722a3daafe3b4186f6b6457e090600090a35050565b80516001600160a01b0381168114620001a557600080fd5b919050565b60008060408385031215620001be57600080fd5b620001c9836200018d565b9150620001d9602084016200018d565b90509250929050565b634e487b7160e01b600052604160045260246000fd5b600181811c908216806200020d57607f821691505b6020821081036200022e57634e487b7160e01b600052602260045260246000fd5b50919050565b601f8211156200028257600081815260208120601f850160051c810160208610156200025d5750805b601f850160051c820191505b818110156200027e5782815560010162000269565b5050505b505050565b81516001600160401b03811115620002a357620002a3620001e2565b620002bb81620002b48454620001f8565b8462000234565b602080601f831160018114620002f35760008415620002da5750858301515b600019600386901b1c1916600185901b1785556200027e565b600085815260208120601f198616915b82811015620003245788860151825594840194600190910190840162000303565b5085821015620003435787850151600019600388901b60f8161c191681555b5050505050600190811b01905550565b608051612ba262000376600039600081816105f601526110dd0152612ba26000f3fe6080604052600436106101665760003560e01c80636352211e116100d1578063a22cb4651161008a578063c87b56dd11610064578063c87b56dd1461043a578063e985e9c51461045a578063f2fde38b1461047d578063feec04b51461049d57600080fd5b8063a22cb465146103e4578063b1e2174914610404578063b88d4fde1461041a57600080fd5b80636352211e1461032e57806370a082311461034e578063715018a61461037c5780638194af52146103915780638da5cb5b146103b157806395d89b41146103cf57600080fd5b806328f213261161012357806328f213261461025c5780632b7ac3f3146102a45780633944ea3a146102c457806342842e0e146102d957806342966c68146102f95780634b0795a81461031957600080fd5b806301ffc9a71461016b57806306fdde03146101a0578063081812fc146101c2578063095ea7b3146101fa5780630ca761751461021c57806323b872dd1461023c575b600080fd5b34801561017757600080fd5b5061018b610186366004611e9e565b6104b0565b60405190151581526020015b60405180910390f35b3480156101ac57600080fd5b506101b56104c1565b6040516101979190611f0b565b3480156101ce57600080fd5b506101e26101dd366004611f1e565b610553565b6040516001600160a01b039091168152602001610197565b34801561020657600080fd5b5061021a610215366004611f53565b6105a3565b005b34801561022857600080fd5b5061021a610237366004612032565b6105eb565b34801561024857600080fd5b5061021a61025736600461209e565b61066f565b34801561026857600080fd5b506102976102773660046120da565b8051602081830181018051600f8252928201919093012091525460ff1681565b6040516101979190612124565b3480156102b057600080fd5b50600e546101e2906001600160a01b031681565b3480156102d057600080fd5b506101b56106b7565b3480156102e557600080fd5b5061021a6102f436600461209e565b610745565b34801561030557600080fd5b5061021a610314366004611f1e565b61078d565b34801561032557600080fd5b506101b56107cd565b34801561033a57600080fd5b506101e2610349366004611f1e565b6107da565b34801561035a57600080fd5b5061036e61036936600461214c565b6107e5565b604051908152602001610197565b34801561038857600080fd5b5061021a61082d565b34801561039d57600080fd5b5061036e6103ac366004612219565b610841565b3480156103bd57600080fd5b506007546001600160a01b03166101e2565b3480156103db57600080fd5b506101b561099c565b3480156103f057600080fd5b5061021a6103ff36600461230e565b6109ab565b34801561041057600080fd5b5061036e60095481565b34801561042657600080fd5b5061021a610435366004612345565b6109fe565b34801561044657600080fd5b506101b5610455366004611f1e565b610a1b565b34801561046657600080fd5b5061018b6104753660046123ac565b600092915050565b34801561048957600080fd5b5061021a61049836600461214c565b610a26565b61018b6104ab36600461246d565b610a61565b60006104bb82610bc8565b92915050565b6060600080546104d090612562565b80601f01602080910402602001604051908101604052809291908181526020018280546104fc90612562565b80156105495780601f1061051e57610100808354040283529160200191610549565b820191906000526020600020905b81548152906001019060200180831161052c57829003601f168201915b5050505050905090565b60405162461bcd60e51b815260206004820152601c60248201527f5342543a20676574417070726f766564206e6f7420616c6c6f7765640000000060448201526000906064015b60405180910390fd5b60405162461bcd60e51b815260206004820152601860248201527f5342543a20417070726f7665206e6f7420616c6c6f7765640000000000000000604482015260640161059a565b336001600160a01b037f000000000000000000000000000000000000000000000000000000000000000016146106345760405163c6829f8360e01b815260040160405180910390fd5b61063f838383610bed565b60405183907f85e1543bf2f84fe80c6badbce3648c8539ad1df4d2b3d822938ca0538be727e690600090a2505050565b60405162461bcd60e51b815260206004820152601960248201527f5342543a205472616e73666572206e6f7420616c6c6f77656400000000000000604482015260640161059a565b600a80546106c490612562565b80601f01602080910402602001604051908101604052809291908181526020018280546106f090612562565b801561073d5780601f106107125761010080835404028352916020019161073d565b820191906000526020600020905b81548152906001019060200180831161072057829003601f168201915b505050505081565b60405162461bcd60e51b815260206004820152601d60248201527f5342543a20536166655472616e73666572206e6f7420616c6c6f776564000000604482015260640161059a565b33610797826107da565b6001600160a01b0316146107c15760405163bdeff5ab60e01b81526004810182905260240161059a565b6107ca81610c6d565b50565b600b80546106c490612562565b60006104bb82610c76565b60006001600160a01b038216610811576040516322718ad960e21b81526000600482015260240161059a565b506001600160a01b031660009081526003602052604090205490565b610835610caf565b61083f6000610cdc565b565b60006108846040805160e0810190915280600081526020016000815260200160008152602001606081526020016060815260200160608152602001606081525090565b6108cb6000808e8e8080601f01602080910402602001604051908101604052809392919081815260200183838082843760009201919091525087959493925050610d2e9050565b602081018a60028111156108e1576108e161210e565b908160028111156108f4576108f461210e565b8152505088888080601f0160208091040260200160405190810160405280939291908181526020018383808284376000920191909152505050506080820152851561094d5761094d610946878961259c565b8290610dac565b831561096757610967610960858761260f565b8290610dd6565b61098761097382610e00565b600c54600d54869163ffffffff16906110d8565b60098190559c9b505050505050505050505050565b6060600180546104d090612562565b60405162461bcd60e51b815260206004820152602260248201527f5342543a20736574417070726f76616c466f72416c6c206e6f7420616c6c6f77604482015261195960f21b606482015260840161059a565b610a0984848461066f565b610a15848484846111aa565b50505050565b60606104bb826112d3565b610a2e610caf565b6001600160a01b038116610a5857604051631e4fbdf760e01b81526000600482015260240161059a565b6107ca81610cdc565b60006001600f87604051610a759190612676565b9081526040519081900360200190205460ff166001811115610a9957610a9961210e565b03610ab95785604051630226686160e21b815260040161059a9190611f0b565b600e5460405163621a62f760e11b81526001600160a01b039091169063c434c5ee90610aef9088908890889088906004016126cd565b602060405180830381865afa158015610b0c573d6000803e3d6000fd5b505050506040513d601f19601f82011682018060405250810190610b309190612718565b610b4d57604051638baa579f60e01b815260040160405180910390fd5b6001600f87604051610b5f9190612676565b908152604051908190036020019020805460ff191660018381811115610b8757610b8761210e565b0217905550610b98336008546113e4565b610ba460085488611402565b60088054906000610bb48361274b565b9091555060019a9950505050505050505050565b60006001600160e01b03198216632483248360e11b14806104bb57506104bb82611452565b8260095414610c125760405163d068bf5b60e01b81526004810184905260240161059a565b600a610c1e83826127b2565b50600b610c2b82826127b2565b50827f7873807bf6ddc50401cd3d29bbe0decee23fd4d68d273f4b5eb83cded4d2f172600a600b604051610c609291906128ee565b60405180910390a2505050565b6107ca816114a2565b6000818152600260205260408120546001600160a01b0316806104bb57604051637e27328960e01b81526004810184905260240161059a565b6007546001600160a01b0316331461083f5760405163118cdaa760e01b815233600482015260240161059a565b600780546001600160a01b038381166001600160a01b0319831681179093556040519116919082907f8be0079c531659141344cd1fd0a4f28419497f9722a3daafe3b4186f6b6457e090600090a35050565b8051600003610d50576040516322ce3edd60e01b815260040160405180910390fd5b83836002811115610d6357610d6361210e565b90816002811115610d7657610d7661210e565b90525060408401828015610d8c57610d8c61210e565b90818015610d9c57610d9c61210e565b9052506060909301929092525050565b8051600003610dce5760405163fe936cb760e01b815260040160405180910390fd5b60a090910152565b8051600003610df85760405163fe936cb760e01b815260040160405180910390fd5b60c090910152565b60606000610e0f6101006114dd565b9050610e486040518060400160405280600c81526020016b31b7b232a637b1b0ba34b7b760a11b815250826114fe90919063ffffffff16565b8251610e66906002811115610e5f57610e5f61210e565b829061151c565b6040805180820190915260088152676c616e677561676560c01b6020820152610e909082906114fe565b6040830151610ea7908015610e5f57610e5f61210e565b604080518082019091526006815265736f7572636560d01b6020820152610ecf9082906114fe565b6060830151610edf9082906114fe565b60a08301515115610f73576040805180820190915260048152636172677360e01b6020820152610f109082906114fe565b610f1981611555565b60005b8360a0015151811015610f6957610f598460a001518281518110610f4257610f4261291c565b6020026020010151836114fe90919063ffffffff16565b610f628161274b565b9050610f1c565b50610f7381611579565b6080830151511561103757600083602001516002811115610f9657610f9661210e565b03610fb45760405163a80d31f760e01b815260040160405180910390fd5b60408051808201909152600f81526e39b2b1b932ba39a637b1b0ba34b7b760891b6020820152610fe59082906114fe565b610ffe83602001516002811115610e5f57610e5f61210e565b6040805180820190915260078152667365637265747360c81b60208201526110279082906114fe565b6080830151611037908290611597565b60c083015151156110d05760408051808201909152600981526862797465734172677360b81b602082015261106d9082906114fe565b61107681611555565b60005b8360c00151518110156110c6576110b68460c00151828151811061109f5761109f61291c565b60200260200101518361159790919063ffffffff16565b6110bf8161274b565b9050611079565b506110d081611579565b515192915050565b6000807f00000000000000000000000000000000000000000000000000000000000000006001600160a01b031663461d27628688600188886040518663ffffffff1660e01b8152600401611130959493929190612932565b6020604051808303816000875af115801561114f573d6000803e3d6000fd5b505050506040513d601f19601f82011682018060405250810190611173919061297b565b60405190915081907f1131472297a800fee664d1d89cfa8f7676ff07189ecc53f80bbb5f4969099db890600090a295945050505050565b6001600160a01b0383163b15610a1557604051630a85bd0160e11b81526001600160a01b0384169063150b7a02906111ec903390889087908790600401612994565b6020604051808303816000875af1925050508015611227575060408051601f3d908101601f19168201909252611224918101906129d1565b60015b611290573d808015611255576040519150601f19603f3d011682016040523d82523d6000602084013e61125a565b606091505b50805160000361128857604051633250574960e11b81526001600160a01b038516600482015260240161059a565b805181602001fd5b6001600160e01b03198116630a85bd0160e11b146112cc57604051633250574960e11b81526001600160a01b038516600482015260240161059a565b5050505050565b60606112de82610c76565b50600082815260066020526040812080546112f890612562565b80601f016020809104026020016040519081016040528092919081815260200182805461132490612562565b80156113715780601f1061134657610100808354040283529160200191611371565b820191906000526020600020905b81548152906001019060200180831161135457829003601f168201915b50505050509050600061138f60408051602081019091526000815290565b905080516000036113a1575092915050565b8151156113d35780826040516020016113bb9291906129ee565b60405160208183030381529060405292505050919050565b6113dc846115a4565b949350505050565b6113fe828260405180602001604052806000815250611619565b5050565b600082815260066020526040902061141a82826127b2565b506040518281527ff8e1a15aba9398e019f0b49df1a4fde98ee17ae345cb5f6b5e2c27f5033e8ce79060200160405180910390a15050565b60006001600160e01b031982166380ac58cd60e01b148061148357506001600160e01b03198216635b5e139f60e01b145b806104bb57506301ffc9a760e01b6001600160e01b03198316146104bb565b60006114b16000836000611630565b90506001600160a01b0381166113fe57604051637e27328960e01b81526004810183905260240161059a565b6114e5611e53565b80516114f19083611729565b5060006020820152919050565b61150b82600383516117a0565b815161151790826118b9565b505050565b81516115299060c26118da565b506113fe828260405160200161154191815260200190565b604051602081830303815290604052611597565b611560816004611943565b6001816020018181516115739190612a1d565b90525050565b611584816007611943565b6001816020018181516115739190612a30565b61150b82600283516117a0565b60606115af82610c76565b5060006115c760408051602081019091526000815290565b905060008151116115e75760405180602001604052806000815250611612565b806115f18461195a565b6040516020016116029291906129ee565b6040516020818303038152906040525b9392505050565b61162383836119ec565b61151760008484846111aa565b6000828152600260205260408120546001600160a01b039081169083161561165d5761165d818486611a51565b6001600160a01b0381161561169b5761167a600085600080611ab5565b6001600160a01b038116600090815260036020526040902080546000190190555b6001600160a01b038516156116ca576001600160a01b0385166000908152600360205260409020805460010190555b60008481526002602052604080822080546001600160a01b0319166001600160a01b0389811691821790925591518793918516917fddf252ad1be2c89b69c2b068fc378daa952ba7f163c4a11628f55a4df523b3ef91a4949350505050565b604080518082019091526060815260006020820152611749602083612a43565b1561177157611759602083612a43565b611764906020612a30565b61176e9083612a1d565b91505b60208084018390526040518085526000815290818401018181101561179557600080fd5b604052509192915050565b6017816001600160401b0316116117c6578251610a159060e0600585901b1683176118da565b60ff816001600160401b0316116118065782516117ee906018611fe0600586901b16176118da565b508251610a15906001600160401b0383166001611bb2565b61ffff816001600160401b03161161184757825161182f906019611fe0600586901b16176118da565b508251610a15906001600160401b0383166002611bb2565b63ffffffff816001600160401b03161161188a57825161187290601a611fe0600586901b16176118da565b508251610a15906001600160401b0383166004611bb2565b82516118a190601b611fe0600586901b16176118da565b508251610a15906001600160401b0383166008611bb2565b60408051808201909152606081526000602082015261161283838451611c37565b60408051808201909152606081526000602082015282515160006118ff826001612a1d565b905084602001518210611920576119208561191b836002612a65565b611d08565b8451602083820101858153508051821115611939578181525b5093949350505050565b815161151790601f611fe0600585901b16176118da565b6060600061196783611d1f565b60010190506000816001600160401b0381111561198657611986611f7d565b6040519080825280601f01601f1916602001820160405280156119b0576020820181803683370190505b5090508181016020015b600019016f181899199a1a9b1b9c1cb0b131b232b360811b600a86061a8153600a85049450846119ba57509392505050565b6001600160a01b038216611a1657604051633250574960e11b81526000600482015260240161059a565b6000611a2483836000611630565b90506001600160a01b03811615611517576040516339e3563760e11b81526000600482015260240161059a565b611a5c838383611df7565b611517576001600160a01b038316611a8a57604051637e27328960e01b81526004810182905260240161059a565b60405163177e802f60e01b81526001600160a01b03831660048201526024810182905260440161059a565b8080611ac957506001600160a01b03821615155b15611b82576000611ad984610c76565b90506001600160a01b03831615801590611b055750826001600160a01b0316816001600160a01b031614155b8015611b0f575060015b15611b385760405163a9fbf51f60e01b81526001600160a01b038416600482015260240161059a565b8115611b805783856001600160a01b0316826001600160a01b03167f8c5be1e5ebec7d5bd14f71427d1e84f3dd0314c0f7b2291e5b200ac8c7c3b92560405160405180910390a45b505b5050600090815260046020526040902080546001600160a01b0319166001600160a01b0392909216919091179055565b6040805180820190915260608152600060208201528351516000611bd68285612a1d565b90508560200151811115611bf357611bf38661191b836002612a65565b60006001611c0386610100612b60565b611c0d9190612a30565b90508651828101878319825116178152508051831115611c2b578281525b50959695505050505050565b6040805180820190915260608152600060208201528251821115611c5a57600080fd5b8351516000611c698483612a1d565b90508560200151811115611c8657611c868661191b836002612a65565b855180518382016020019160009180851115611ca0578482525b505050602086015b60208610611ce05780518252611cbf602083612a1d565b9150611ccc602082612a1d565b9050611cd9602087612a30565b9550611ca8565b51815160001960208890036101000a0190811690199190911617905250849150509392505050565b8151611d148383611729565b50610a1583826118b9565b60008072184f03e93ff9f4daa797ed6e38ed64bf6a1f0160401b8310611d5e5772184f03e93ff9f4daa797ed6e38ed64bf6a1f0160401b830492506040015b6d04ee2d6d415b85acef81000000008310611d8a576d04ee2d6d415b85acef8100000000830492506020015b662386f26fc100008310611da857662386f26fc10000830492506010015b6305f5e1008310611dc0576305f5e100830492506008015b6127108310611dd457612710830492506004015b60648310611de6576064830492506002015b600a83106104bb5760010192915050565b60006001600160a01b038316158015906113dc5750826001600160a01b0316846001600160a01b03161480611e2a575060005b806113dc5750506000908152600460205260409020546001600160a01b03908116911614919050565b6040518060400160405280611e7b604051806040016040528060608152602001600081525090565b8152602001600081525090565b6001600160e01b0319811681146107ca57600080fd5b600060208284031215611eb057600080fd5b813561161281611e88565b60005b83811015611ed6578181015183820152602001611ebe565b50506000910152565b60008151808452611ef7816020860160208601611ebb565b601f01601f19169290920160200192915050565b6020815260006116126020830184611edf565b600060208284031215611f3057600080fd5b5035919050565b80356001600160a01b0381168114611f4e57600080fd5b919050565b60008060408385031215611f6657600080fd5b611f6f83611f37565b946020939093013593505050565b634e487b7160e01b600052604160045260246000fd5b604051601f8201601f191681016001600160401b0381118282101715611fbb57611fbb611f7d565b604052919050565b600082601f830112611fd457600080fd5b81356001600160401b03811115611fed57611fed611f7d565b612000601f8201601f1916602001611f93565b81815284602083860101111561201557600080fd5b816020850160208301376000918101602001919091529392505050565b60008060006060848603121561204757600080fd5b8335925060208401356001600160401b038082111561206557600080fd5b61207187838801611fc3565b9350604086013591508082111561208757600080fd5b5061209486828701611fc3565b9150509250925092565b6000806000606084860312156120b357600080fd5b6120bc84611f37565b92506120ca60208501611f37565b9150604084013590509250925092565b6000602082840312156120ec57600080fd5b81356001600160401b0381111561210257600080fd5b6113dc84828501611fc3565b634e487b7160e01b600052602160045260246000fd5b602081016002831061214657634e487b7160e01b600052602160045260246000fd5b91905290565b60006020828403121561215e57600080fd5b61161282611f37565b60008083601f84011261217957600080fd5b5081356001600160401b0381111561219057600080fd5b6020830191508360208285010111156121a857600080fd5b9250929050565b803560038110611f4e57600080fd5b60008083601f8401126121d057600080fd5b5081356001600160401b038111156121e757600080fd5b6020830191508360208260051b85010111156121a857600080fd5b80356001600160401b0381168114611f4e57600080fd5b60008060008060008060008060008060c08b8d03121561223857600080fd5b8a356001600160401b038082111561224f57600080fd5b61225b8e838f01612167565b909c509a508a915061226f60208e016121af565b995060408d013591508082111561228557600080fd5b6122918e838f01612167565b909950975060608d01359150808211156122aa57600080fd5b6122b68e838f016121be565b909750955060808d01359150808211156122cf57600080fd5b506122dc8d828e016121be565b90945092506122ef905060a08c01612202565b90509295989b9194979a5092959850565b80151581146107ca57600080fd5b6000806040838503121561232157600080fd5b61232a83611f37565b9150602083013561233a81612300565b809150509250929050565b6000806000806080858703121561235b57600080fd5b61236485611f37565b935061237260208601611f37565b92506040850135915060608501356001600160401b0381111561239457600080fd5b6123a087828801611fc3565b91505092959194509250565b600080604083850312156123bf57600080fd5b6123c883611f37565b91506123d660208401611f37565b90509250929050565b60006001600160401b038211156123f8576123f8611f7d565b5060051b60200190565b600082601f83011261241357600080fd5b81356020612428612423836123df565b611f93565b82815260059290921b8401810191818101908684111561244757600080fd5b8286015b84811015612462578035835291830191830161244b565b509695505050505050565b600080600080600080600080610100898b03121561248a57600080fd5b61249389611f37565b97506020890135965060408901356001600160401b03808211156124b657600080fd5b6124c28c838d01611fc3565b975060608b01359150808211156124d857600080fd5b6124e48c838d01611fc3565b965060808b01359150808211156124fa57600080fd5b6125068c838d01611fc3565b955060a08b013591508082111561251c57600080fd5b6125288c838d01612402565b945060c08b013591508082111561253e57600080fd5b5061254b8b828c01612402565b92505060e089013590509295985092959890939650565b600181811c9082168061257657607f821691505b60208210810361259657634e487b7160e01b600052602260045260246000fd5b50919050565b60006125aa612423846123df565b80848252602080830192508560051b8501368111156125c857600080fd5b855b818110156126035780356001600160401b038111156125e95760008081fd5b6125f536828a01611fc3565b8652509382019382016125ca565b50919695505050505050565b600061261d612423846123df565b80848252602080830192508560051b85013681111561263b57600080fd5b855b818110156126035780356001600160401b0381111561265c5760008081fd5b61266836828a01611fc3565b86525093820193820161263d565b60008251612688818460208701611ebb565b9190910192915050565b600081518084526020808501945080840160005b838110156126c2578151875295820195908201906001016126a6565b509495945050505050565b6080815260006126e06080830187611edf565b82810360208401526126f28187612692565b905082810360408401526127068186612692565b91505082606083015295945050505050565b60006020828403121561272a57600080fd5b815161161281612300565b634e487b7160e01b600052601160045260246000fd5b60006001820161275d5761275d612735565b5060010190565b601f82111561151757600081815260208120601f850160051c8101602086101561278b5750805b601f850160051c820191505b818110156127aa57828155600101612797565b505050505050565b81516001600160401b038111156127cb576127cb611f7d565b6127df816127d98454612562565b84612764565b602080601f83116001811461281457600084156127fc5750858301515b600019600386901b1c1916600185901b1785556127aa565b600085815260208120601f198616915b8281101561284357888601518255948401946001909101908401612824565b50858210156128615787850151600019600388901b60f8161c191681555b5050505050600190811b01905550565b6000815461287e81612562565b80855260206001838116801561289b57600181146128b5576128e3565b60ff1985168884015283151560051b8801830195506128e3565b866000528260002060005b858110156128db5781548a82018601529083019084016128c0565b890184019650505b505050505092915050565b6040815260006129016040830185612871565b82810360208401526129138185612871565b95945050505050565b634e487b7160e01b600052603260045260246000fd5b6001600160401b038616815260a06020820152600061295460a0830187611edf565b61ffff9590951660408301525063ffffffff92909216606083015260809091015292915050565b60006020828403121561298d57600080fd5b5051919050565b6001600160a01b03858116825284166020820152604081018390526080606082018190526000906129c790830184611edf565b9695505050505050565b6000602082840312156129e357600080fd5b815161161281611e88565b60008351612a00818460208801611ebb565b835190830190612a14818360208801611ebb565b01949350505050565b808201808211156104bb576104bb612735565b818103818111156104bb576104bb612735565b600082612a6057634e487b7160e01b600052601260045260246000fd5b500690565b80820281158282048414176104bb576104bb612735565b600181815b80851115612ab7578160001904821115612a9d57612a9d612735565b80851615612aaa57918102915b93841c9390800290612a81565b509250929050565b600082612ace575060016104bb565b81612adb575060006104bb565b8160018114612af15760028114612afb57612b17565b60019150506104bb565b60ff841115612b0c57612b0c612735565b50506001821b6104bb565b5060208310610133831016604e8410600b8410161715612b3a575081810a6104bb565b612b448383612a7c565b8060001904821115612b5857612b58612735565b029392505050565b60006116128383612abf56fea26469706673582212201a4612b6c0febec19e9f553adfd0db584fb6fceaad5fdc86997b15fcb4645a4d64736f6c63430008140033","opcodes":"PUSH1 0xA0 PUSH1 0x40 MSTORE PUSH1 0xC DUP1 SLOAD PUSH4 0xFFFFFFFF NOT AND PUSH3 0x7A120 OR SWAP1 SSTORE PUSH32 0x66756E2D657468657265756D2D7365706F6C69612D3100000000000000000000 PUSH1 0xD SSTORE CALLVALUE DUP1 ISZERO PUSH3 0x47 JUMPI PUSH1 0x0 DUP1 REVERT JUMPDEST POP PUSH1 0x40 MLOAD PUSH3 0x2F18 CODESIZE SUB DUP1 PUSH3 0x2F18 DUP4 CODECOPY DUP2 ADD PUSH1 0x40 DUP2 SWAP1 MSTORE PUSH3 0x6A SWAP2 PUSH3 0x1AA JUMP JUMPDEST DUP1 CALLER PUSH1 0x40 MLOAD DUP1 PUSH1 0x40 ADD PUSH1 0x40 MSTORE DUP1 PUSH1 0xE DUP2 MSTORE PUSH1 0x20 ADD PUSH14 0x20B634B1B2A934B733AA37B5B2B7 PUSH1 0x91 SHL DUP2 MSTORE POP PUSH1 0x40 MLOAD DUP1 PUSH1 0x40 ADD PUSH1 0x40 MSTORE DUP1 PUSH1 0x3 DUP2 MSTORE PUSH1 0x20 ADD PUSH3 0x105495 PUSH1 0xEA SHL DUP2 MSTORE POP DUP2 PUSH1 0x0 SWAP1 DUP2 PUSH3 0xC0 SWAP2 SWAP1 PUSH3 0x287 JUMP JUMPDEST POP PUSH1 0x1 PUSH3 0xCF DUP3 DUP3 PUSH3 0x287 JUMP JUMPDEST POP POP POP PUSH1 0x1 PUSH1 0x1 PUSH1 0xA0 SHL SUB DUP2 AND PUSH3 0x101 JUMPI PUSH1 0x40 MLOAD PUSH4 0x1E4FBDF7 PUSH1 0xE0 SHL DUP2 MSTORE PUSH1 0x0 PUSH1 0x4 DUP3 ADD MSTORE PUSH1 0x24 ADD PUSH1 0x40 MLOAD DUP1 SWAP2 SUB SWAP1 REVERT JUMPDEST PUSH3 0x10C DUP2 PUSH3 0x13B JUMP JUMPDEST POP PUSH1 0x1 PUSH1 0x1 PUSH1 0xA0 SHL SUB SWAP1 DUP2 AND PUSH1 0x80 MSTORE PUSH1 0xE DUP1 SLOAD PUSH1 0x1 PUSH1 0x1 PUSH1 0xA0 SHL SUB NOT AND SWAP4 SWAP1 SWAP2 AND SWAP3 SWAP1 SWAP3 OR SWAP1 SWAP2 SSTORE POP PUSH3 0x353 JUMP JUMPDEST PUSH1 0x7 DUP1 SLOAD PUSH1 0x1 PUSH1 0x1 PUSH1 0xA0 SHL SUB DUP4 DUP2 AND PUSH1 0x1 PUSH1 0x1 PUSH1 0xA0 SHL SUB NOT DUP4 AND DUP2 OR SWAP1 SWAP4 SSTORE PUSH1 0x40 MLOAD SWAP2 AND SWAP2 SWAP1 DUP3 SWAP1 PUSH32 0x8BE0079C531659141344CD1FD0A4F28419497F9722A3DAAFE3B4186F6B6457E0 SWAP1 PUSH1 0x0 SWAP1 LOG3 POP POP JUMP JUMPDEST DUP1 MLOAD PUSH1 0x1 PUSH1 0x1 PUSH1 0xA0 SHL SUB DUP2 AND DUP2 EQ PUSH3 0x1A5 JUMPI PUSH1 0x0 DUP1 REVERT JUMPDEST SWAP2 SWAP1 POP JUMP JUMPDEST PUSH1 0x0 DUP1 PUSH1 0x40 DUP4 DUP6 SUB SLT ISZERO PUSH3 0x1BE JUMPI PUSH1 0x0 DUP1 REVERT JUMPDEST PUSH3 0x1C9 DUP4 PUSH3 0x18D JUMP JUMPDEST SWAP2 POP PUSH3 0x1D9 PUSH1 0x20 DUP5 ADD PUSH3 0x18D JUMP JUMPDEST SWAP1 POP SWAP3 POP SWAP3 SWAP1 POP JUMP JUMPDEST PUSH4 0x4E487B71 PUSH1 0xE0 SHL PUSH1 0x0 MSTORE PUSH1 0x41 PUSH1 0x4 MSTORE PUSH1 0x24 PUSH1 0x0 REVERT JUMPDEST PUSH1 0x1 DUP2 DUP2 SHR SWAP1 DUP3 AND DUP1 PUSH3 0x20D JUMPI PUSH1 0x7F DUP3 AND SWAP2 POP JUMPDEST PUSH1 0x20 DUP3 LT DUP2 SUB PUSH3 0x22E JUMPI PUSH4 0x4E487B71 PUSH1 0xE0 SHL PUSH1 0x0 MSTORE PUSH1 0x22 PUSH1 0x4 MSTORE PUSH1 0x24 PUSH1 0x0 REVERT JUMPDEST POP SWAP2 SWAP1 POP JUMP JUMPDEST PUSH1 0x1F DUP3 GT ISZERO PUSH3 0x282 JUMPI PUSH1 0x0 DUP2 DUP2 MSTORE PUSH1 0x20 DUP2 KECCAK256 PUSH1 0x1F DUP6 ADD PUSH1 0x5 SHR DUP2 ADD PUSH1 0x20 DUP7 LT ISZERO PUSH3 0x25D JUMPI POP DUP1 JUMPDEST PUSH1 0x1F DUP6 ADD PUSH1 0x5 SHR DUP3 ADD SWAP2 POP JUMPDEST DUP2 DUP2 LT ISZERO PUSH3 0x27E JUMPI DUP3 DUP2 SSTORE PUSH1 0x1 ADD PUSH3 0x269 JUMP JUMPDEST POP POP POP JUMPDEST POP POP POP JUMP JUMPDEST DUP2 MLOAD PUSH1 0x1 PUSH1 0x1 PUSH1 0x40 SHL SUB DUP2 GT ISZERO PUSH3 0x2A3 JUMPI PUSH3 0x2A3 PUSH3 0x1E2 JUMP JUMPDEST PUSH3 0x2BB DUP2 PUSH3 0x2B4 DUP5 SLOAD PUSH3 0x1F8 JUMP JUMPDEST DUP5 PUSH3 0x234 JUMP JUMPDEST PUSH1 0x20 DUP1 PUSH1 0x1F DUP4 GT PUSH1 0x1 DUP2 EQ PUSH3 0x2F3 JUMPI PUSH1 0x0 DUP5 ISZERO PUSH3 0x2DA JUMPI POP DUP6 DUP4 ADD MLOAD JUMPDEST PUSH1 0x0 NOT PUSH1 0x3 DUP7 SWAP1 SHL SHR NOT AND PUSH1 0x1 DUP6 SWAP1 SHL OR DUP6 SSTORE PUSH3 0x27E JUMP JUMPDEST PUSH1 0x0 DUP6 DUP2 MSTORE PUSH1 0x20 DUP2 KECCAK256 PUSH1 0x1F NOT DUP7 AND SWAP2 JUMPDEST DUP3 DUP2 LT ISZERO PUSH3 0x324 JUMPI DUP9 DUP7 ADD MLOAD DUP3 SSTORE SWAP5 DUP5 ADD SWAP5 PUSH1 0x1 SWAP1 SWAP2 ADD SWAP1 DUP5 ADD PUSH3 0x303 JUMP JUMPDEST POP DUP6 DUP3 LT ISZERO PUSH3 0x343 JUMPI DUP8 DUP6 ADD MLOAD PUSH1 0x0 NOT PUSH1 0x3 DUP9 SWAP1 SHL PUSH1 0xF8 AND SHR NOT AND DUP2 SSTORE JUMPDEST POP POP POP POP POP PUSH1 0x1 SWAP1 DUP2 SHL ADD SWAP1 SSTORE POP JUMP JUMPDEST PUSH1 0x80 MLOAD PUSH2 0x2BA2 PUSH3 0x376 PUSH1 0x0 CODECOPY PUSH1 0x0 DUP2 DUP2 PUSH2 0x5F6 ADD MSTORE PUSH2 0x10DD ADD MSTORE PUSH2 0x2BA2 PUSH1 0x0 RETURN INVALID PUSH1 0x80 PUSH1 0x40 MSTORE PUSH1 0x4 CALLDATASIZE LT PUSH2 0x166 JUMPI PUSH1 0x0 CALLDATALOAD PUSH1 0xE0 SHR DUP1 PUSH4 0x6352211E GT PUSH2 0xD1 JUMPI DUP1 PUSH4 0xA22CB465 GT PUSH2 0x8A JUMPI DUP1 PUSH4 0xC87B56DD GT PUSH2 0x64 JUMPI DUP1 PUSH4 0xC87B56DD EQ PUSH2 0x43A JUMPI DUP1 PUSH4 0xE985E9C5 EQ PUSH2 0x45A JUMPI DUP1 PUSH4 0xF2FDE38B EQ PUSH2 0x47D JUMPI DUP1 PUSH4 0xFEEC04B5 EQ PUSH2 0x49D JUMPI PUSH1 0x0 DUP1 REVERT JUMPDEST DUP1 PUSH4 0xA22CB465 EQ PUSH2 0x3E4 JUMPI DUP1 PUSH4 0xB1E21749 EQ PUSH2 0x404 JUMPI DUP1 PUSH4 0xB88D4FDE EQ PUSH2 0x41A JUMPI PUSH1 0x0 DUP1 REVERT JUMPDEST DUP1 PUSH4 0x6352211E EQ PUSH2 0x32E JUMPI DUP1 PUSH4 0x70A08231 EQ PUSH2 0x34E JUMPI DUP1 PUSH4 0x715018A6 EQ PUSH2 0x37C JUMPI DUP1 PUSH4 0x8194AF52 EQ PUSH2 0x391 JUMPI DUP1 PUSH4 0x8DA5CB5B EQ PUSH2 0x3B1 JUMPI DUP1 PUSH4 0x95D89B41 EQ PUSH2 0x3CF JUMPI PUSH1 0x0 DUP1 REVERT JUMPDEST DUP1 PUSH4 0x28F21326 GT PUSH2 0x123 JUMPI DUP1 PUSH4 0x28F21326 EQ PUSH2 0x25C JUMPI DUP1 PUSH4 0x2B7AC3F3 EQ PUSH2 0x2A4 JUMPI DUP1 PUSH4 0x3944EA3A EQ PUSH2 0x2C4 JUMPI DUP1 PUSH4 0x42842E0E EQ PUSH2 0x2D9 JUMPI DUP1 PUSH4 0x42966C68 EQ PUSH2 0x2F9 JUMPI DUP1 PUSH4 0x4B0795A8 EQ PUSH2 0x319 JUMPI PUSH1 0x0 DUP1 REVERT JUMPDEST DUP1 PUSH4 0x1FFC9A7 EQ PUSH2 0x16B JUMPI DUP1 PUSH4 0x6FDDE03 EQ PUSH2 0x1A0 JUMPI DUP1 PUSH4 0x81812FC EQ PUSH2 0x1C2 JUMPI DUP1 PUSH4 0x95EA7B3 EQ PUSH2 0x1FA JUMPI DUP1 PUSH4 0xCA76175 EQ PUSH2 0x21C JUMPI DUP1 PUSH4 0x23B872DD EQ PUSH2 0x23C JUMPI JUMPDEST PUSH1 0x0 DUP1 REVERT JUMPDEST CALLVALUE DUP1 ISZERO PUSH2 0x177 JUMPI PUSH1 0x0 DUP1 REVERT JUMPDEST POP PUSH2 0x18B PUSH2 0x186 CALLDATASIZE PUSH1 0x4 PUSH2 0x1E9E JUMP JUMPDEST PUSH2 0x4B0 JUMP JUMPDEST PUSH1 0x40 MLOAD SWAP1 ISZERO ISZERO DUP2 MSTORE PUSH1 0x20 ADD JUMPDEST PUSH1 0x40 MLOAD DUP1 SWAP2 SUB SWAP1 RETURN JUMPDEST CALLVALUE DUP1 ISZERO PUSH2 0x1AC JUMPI PUSH1 0x0 DUP1 REVERT JUMPDEST POP PUSH2 0x1B5 PUSH2 0x4C1 JUMP JUMPDEST PUSH1 0x40 MLOAD PUSH2 0x197 SWAP2 SWAP1 PUSH2 0x1F0B JUMP JUMPDEST CALLVALUE DUP1 ISZERO PUSH2 0x1CE JUMPI PUSH1 0x0 DUP1 REVERT JUMPDEST POP PUSH2 0x1E2 PUSH2 0x1DD CALLDATASIZE PUSH1 0x4 PUSH2 0x1F1E JUMP JUMPDEST PUSH2 0x553 JUMP JUMPDEST PUSH1 0x40 MLOAD PUSH1 0x1 PUSH1 0x1 PUSH1 0xA0 SHL SUB SWAP1 SWAP2 AND DUP2 MSTORE PUSH1 0x20 ADD PUSH2 0x197 JUMP JUMPDEST CALLVALUE DUP1 ISZERO PUSH2 0x206 JUMPI PUSH1 0x0 DUP1 REVERT JUMPDEST POP PUSH2 0x21A PUSH2 0x215 CALLDATASIZE PUSH1 0x4 PUSH2 0x1F53 JUMP JUMPDEST PUSH2 0x5A3 JUMP JUMPDEST STOP JUMPDEST CALLVALUE DUP1 ISZERO PUSH2 0x228 JUMPI PUSH1 0x0 DUP1 REVERT JUMPDEST POP PUSH2 0x21A PUSH2 0x237 CALLDATASIZE PUSH1 0x4 PUSH2 0x2032 JUMP JUMPDEST PUSH2 0x5EB JUMP JUMPDEST CALLVALUE DUP1 ISZERO PUSH2 0x248 JUMPI PUSH1 0x0 DUP1 REVERT JUMPDEST POP PUSH2 0x21A PUSH2 0x257 CALLDATASIZE PUSH1 0x4 PUSH2 0x209E JUMP JUMPDEST PUSH2 0x66F JUMP JUMPDEST CALLVALUE DUP1 ISZERO PUSH2 0x268 JUMPI PUSH1 0x0 DUP1 REVERT JUMPDEST POP PUSH2 0x297 PUSH2 0x277 CALLDATASIZE PUSH1 0x4 PUSH2 0x20DA JUMP JUMPDEST DUP1 MLOAD PUSH1 0x20 DUP2 DUP4 ADD DUP2 ADD DUP1 MLOAD PUSH1 0xF DUP3 MSTORE SWAP3 DUP3 ADD SWAP2 SWAP1 SWAP4 ADD KECCAK256 SWAP2 MSTORE SLOAD PUSH1 0xFF AND DUP2 JUMP JUMPDEST PUSH1 0x40 MLOAD PUSH2 0x197 SWAP2 SWAP1 PUSH2 0x2124 JUMP JUMPDEST CALLVALUE DUP1 ISZERO PUSH2 0x2B0 JUMPI PUSH1 0x0 DUP1 REVERT JUMPDEST POP PUSH1 0xE SLOAD PUSH2 0x1E2 SWAP1 PUSH1 0x1 PUSH1 0x1 PUSH1 0xA0 SHL SUB AND DUP2 JUMP JUMPDEST CALLVALUE DUP1 ISZERO PUSH2 0x2D0 JUMPI PUSH1 0x0 DUP1 REVERT JUMPDEST POP PUSH2 0x1B5 PUSH2 0x6B7 JUMP JUMPDEST CALLVALUE DUP1 ISZERO PUSH2 0x2E5 JUMPI PUSH1 0x0 DUP1 REVERT JUMPDEST POP PUSH2 0x21A PUSH2 0x2F4 CALLDATASIZE PUSH1 0x4 PUSH2 0x209E JUMP JUMPDEST PUSH2 0x745 JUMP JUMPDEST CALLVALUE DUP1 ISZERO PUSH2 0x305 JUMPI PUSH1 0x0 DUP1 REVERT JUMPDEST POP PUSH2 0x21A PUSH2 0x314 CALLDATASIZE PUSH1 0x4 PUSH2 0x1F1E JUMP JUMPDEST PUSH2 0x78D JUMP JUMPDEST CALLVALUE DUP1 ISZERO PUSH2 0x325 JUMPI PUSH1 0x0 DUP1 REVERT JUMPDEST POP PUSH2 0x1B5 PUSH2 0x7CD JUMP JUMPDEST CALLVALUE DUP1 ISZERO PUSH2 0x33A JUMPI PUSH1 0x0 DUP1 REVERT JUMPDEST POP PUSH2 0x1E2 PUSH2 0x349 CALLDATASIZE PUSH1 0x4 PUSH2 0x1F1E JUMP JUMPDEST PUSH2 0x7DA JUMP JUMPDEST CALLVALUE DUP1 ISZERO PUSH2 0x35A JUMPI PUSH1 0x0 DUP1 REVERT JUMPDEST POP PUSH2 0x36E PUSH2 0x369 CALLDATASIZE PUSH1 0x4 PUSH2 0x214C JUMP JUMPDEST PUSH2 0x7E5 JUMP JUMPDEST PUSH1 0x40 MLOAD SWAP1 DUP2 MSTORE PUSH1 0x20 ADD PUSH2 0x197 JUMP JUMPDEST CALLVALUE DUP1 ISZERO PUSH2 0x388 JUMPI PUSH1 0x0 DUP1 REVERT JUMPDEST POP PUSH2 0x21A PUSH2 0x82D JUMP JUMPDEST CALLVALUE DUP1 ISZERO PUSH2 0x39D JUMPI PUSH1 0x0 DUP1 REVERT JUMPDEST POP PUSH2 0x36E PUSH2 0x3AC CALLDATASIZE PUSH1 0x4 PUSH2 0x2219 JUMP JUMPDEST PUSH2 0x841 JUMP JUMPDEST CALLVALUE DUP1 ISZERO PUSH2 0x3BD JUMPI PUSH1 0x0 DUP1 REVERT JUMPDEST POP PUSH1 0x7 SLOAD PUSH1 0x1 PUSH1 0x1 PUSH1 0xA0 SHL SUB AND PUSH2 0x1E2 JUMP JUMPDEST CALLVALUE DUP1 ISZERO PUSH2 0x3DB JUMPI PUSH1 0x0 DUP1 REVERT JUMPDEST POP PUSH2 0x1B5 PUSH2 0x99C JUMP JUMPDEST CALLVALUE DUP1 ISZERO PUSH2 0x3F0 JUMPI PUSH1 0x0 DUP1 REVERT JUMPDEST POP PUSH2 0x21A PUSH2 0x3FF CALLDATASIZE PUSH1 0x4 PUSH2 0x230E JUMP JUMPDEST PUSH2 0x9AB JUMP JUMPDEST CALLVALUE DUP1 ISZERO PUSH2 0x410 JUMPI PUSH1 0x0 DUP1 REVERT JUMPDEST POP PUSH2 0x36E PUSH1 0x9 SLOAD DUP2 JUMP JUMPDEST CALLVALUE DUP1 ISZERO PUSH2 0x426 JUMPI PUSH1 0x0 DUP1 REVERT JUMPDEST POP PUSH2 0x21A PUSH2 0x435 CALLDATASIZE PUSH1 0x4 PUSH2 0x2345 JUMP JUMPDEST PUSH2 0x9FE JUMP JUMPDEST CALLVALUE DUP1 ISZERO PUSH2 0x446 JUMPI PUSH1 0x0 DUP1 REVERT JUMPDEST POP PUSH2 0x1B5 PUSH2 0x455 CALLDATASIZE PUSH1 0x4 PUSH2 0x1F1E JUMP JUMPDEST PUSH2 0xA1B JUMP JUMPDEST CALLVALUE DUP1 ISZERO PUSH2 0x466 JUMPI PUSH1 0x0 DUP1 REVERT JUMPDEST POP PUSH2 0x18B PUSH2 0x475 CALLDATASIZE PUSH1 0x4 PUSH2 0x23AC JUMP JUMPDEST PUSH1 0x0 SWAP3 SWAP2 POP POP JUMP JUMPDEST CALLVALUE DUP1 ISZERO PUSH2 0x489 JUMPI PUSH1 0x0 DUP1 REVERT JUMPDEST POP PUSH2 0x21A PUSH2 0x498 CALLDATASIZE PUSH1 0x4 PUSH2 0x214C JUMP JUMPDEST PUSH2 0xA26 JUMP JUMPDEST PUSH2 0x18B PUSH2 0x4AB CALLDATASIZE PUSH1 0x4 PUSH2 0x246D JUMP JUMPDEST PUSH2 0xA61 JUMP JUMPDEST PUSH1 0x0 PUSH2 0x4BB DUP3 PUSH2 0xBC8 JUMP JUMPDEST SWAP3 SWAP2 POP POP JUMP JUMPDEST PUSH1 0x60 PUSH1 0x0 DUP1 SLOAD PUSH2 0x4D0 SWAP1 PUSH2 0x2562 JUMP JUMPDEST DUP1 PUSH1 0x1F ADD PUSH1 0x20 DUP1 SWAP2 DIV MUL PUSH1 0x20 ADD PUSH1 0x40 MLOAD SWAP1 DUP2 ADD PUSH1 0x40 MSTORE DUP1 SWAP3 SWAP2 SWAP1 DUP2 DUP2 MSTORE PUSH1 0x20 ADD DUP3 DUP1 SLOAD PUSH2 0x4FC SWAP1 PUSH2 0x2562 JUMP JUMPDEST DUP1 ISZERO PUSH2 0x549 JUMPI DUP1 PUSH1 0x1F LT PUSH2 0x51E JUMPI PUSH2 0x100 DUP1 DUP4 SLOAD DIV MUL DUP4 MSTORE SWAP2 PUSH1 0x20 ADD SWAP2 PUSH2 0x549 JUMP JUMPDEST DUP3 ADD SWAP2 SWAP1 PUSH1 0x0 MSTORE PUSH1 0x20 PUSH1 0x0 KECCAK256 SWAP1 JUMPDEST DUP2 SLOAD DUP2 MSTORE SWAP1 PUSH1 0x1 ADD SWAP1 PUSH1 0x20 ADD DUP1 DUP4 GT PUSH2 0x52C JUMPI DUP3 SWAP1 SUB PUSH1 0x1F AND DUP3 ADD SWAP2 JUMPDEST POP POP POP POP POP SWAP1 POP SWAP1 JUMP JUMPDEST PUSH1 0x40 MLOAD PUSH3 0x461BCD PUSH1 0xE5 SHL DUP2 MSTORE PUSH1 0x20 PUSH1 0x4 DUP3 ADD MSTORE PUSH1 0x1C PUSH1 0x24 DUP3 ADD MSTORE PUSH32 0x5342543A20676574417070726F766564206E6F7420616C6C6F77656400000000 PUSH1 0x44 DUP3 ADD MSTORE PUSH1 0x0 SWAP1 PUSH1 0x64 ADD JUMPDEST PUSH1 0x40 MLOAD DUP1 SWAP2 SUB SWAP1 REVERT JUMPDEST PUSH1 0x40 MLOAD PUSH3 0x461BCD PUSH1 0xE5 SHL DUP2 MSTORE PUSH1 0x20 PUSH1 0x4 DUP3 ADD MSTORE PUSH1 0x18 PUSH1 0x24 DUP3 ADD MSTORE PUSH32 0x5342543A20417070726F7665206E6F7420616C6C6F7765640000000000000000 PUSH1 0x44 DUP3 ADD MSTORE PUSH1 0x64 ADD PUSH2 0x59A JUMP JUMPDEST CALLER PUSH1 0x1 PUSH1 0x1 PUSH1 0xA0 SHL SUB PUSH32 0x0 AND EQ PUSH2 0x634 JUMPI PUSH1 0x40 MLOAD PUSH4 0xC6829F83 PUSH1 0xE0 SHL DUP2 MSTORE PUSH1 0x4 ADD PUSH1 0x40 MLOAD DUP1 SWAP2 SUB SWAP1 REVERT JUMPDEST PUSH2 0x63F DUP4 DUP4 DUP4 PUSH2 0xBED JUMP JUMPDEST PUSH1 0x40 MLOAD DUP4 SWAP1 PUSH32 0x85E1543BF2F84FE80C6BADBCE3648C8539AD1DF4D2B3D822938CA0538BE727E6 SWAP1 PUSH1 0x0 SWAP1 LOG2 POP POP POP JUMP JUMPDEST PUSH1 0x40 MLOAD PUSH3 0x461BCD PUSH1 0xE5 SHL DUP2 MSTORE PUSH1 0x20 PUSH1 0x4 DUP3 ADD MSTORE PUSH1 0x19 PUSH1 0x24 DUP3 ADD MSTORE PUSH32 0x5342543A205472616E73666572206E6F7420616C6C6F77656400000000000000 PUSH1 0x44 DUP3 ADD MSTORE PUSH1 0x64 ADD PUSH2 0x59A JUMP JUMPDEST PUSH1 0xA DUP1 SLOAD PUSH2 0x6C4 SWAP1 PUSH2 0x2562 JUMP JUMPDEST DUP1 PUSH1 0x1F ADD PUSH1 0x20 DUP1 SWAP2 DIV MUL PUSH1 0x20 ADD PUSH1 0x40 MLOAD SWAP1 DUP2 ADD PUSH1 0x40 MSTORE DUP1 SWAP3 SWAP2 SWAP1 DUP2 DUP2 MSTORE PUSH1 0x20 ADD DUP3 DUP1 SLOAD PUSH2 0x6F0 SWAP1 PUSH2 0x2562 JUMP JUMPDEST DUP1 ISZERO PUSH2 0x73D JUMPI DUP1 PUSH1 0x1F LT PUSH2 0x712 JUMPI PUSH2 0x100 DUP1 DUP4 SLOAD DIV MUL DUP4 MSTORE SWAP2 PUSH1 0x20 ADD SWAP2 PUSH2 0x73D JUMP JUMPDEST DUP3 ADD SWAP2 SWAP1 PUSH1 0x0 MSTORE PUSH1 0x20 PUSH1 0x0 KECCAK256 SWAP1 JUMPDEST DUP2 SLOAD DUP2 MSTORE SWAP1 PUSH1 0x1 ADD SWAP1 PUSH1 0x20 ADD DUP1 DUP4 GT PUSH2 0x720 JUMPI DUP3 SWAP1 SUB PUSH1 0x1F AND DUP3 ADD SWAP2 JUMPDEST POP POP POP POP POP DUP2 JUMP JUMPDEST PUSH1 0x40 MLOAD PUSH3 0x461BCD PUSH1 0xE5 SHL DUP2 MSTORE PUSH1 0x20 PUSH1 0x4 DUP3 ADD MSTORE PUSH1 0x1D PUSH1 0x24 DUP3 ADD MSTORE PUSH32 0x5342543A20536166655472616E73666572206E6F7420616C6C6F776564000000 PUSH1 0x44 DUP3 ADD MSTORE PUSH1 0x64 ADD PUSH2 0x59A JUMP JUMPDEST CALLER PUSH2 0x797 DUP3 PUSH2 0x7DA JUMP JUMPDEST PUSH1 0x1 PUSH1 0x1 PUSH1 0xA0 SHL SUB AND EQ PUSH2 0x7C1 JUMPI PUSH1 0x40 MLOAD PUSH4 0xBDEFF5AB PUSH1 0xE0 SHL DUP2 MSTORE PUSH1 0x4 DUP2 ADD DUP3 SWAP1 MSTORE PUSH1 0x24 ADD PUSH2 0x59A JUMP JUMPDEST PUSH2 0x7CA DUP2 PUSH2 0xC6D JUMP JUMPDEST POP JUMP JUMPDEST PUSH1 0xB DUP1 SLOAD PUSH2 0x6C4 SWAP1 PUSH2 0x2562 JUMP JUMPDEST PUSH1 0x0 PUSH2 0x4BB DUP3 PUSH2 0xC76 JUMP JUMPDEST PUSH1 0x0 PUSH1 0x1 PUSH1 0x1 PUSH1 0xA0 SHL SUB DUP3 AND PUSH2 0x811 JUMPI PUSH1 0x40 MLOAD PUSH4 0x22718AD9 PUSH1 0xE2 SHL DUP2 MSTORE PUSH1 0x0 PUSH1 0x4 DUP3 ADD MSTORE PUSH1 0x24 ADD PUSH2 0x59A JUMP JUMPDEST POP PUSH1 0x1 PUSH1 0x1 PUSH1 0xA0 SHL SUB AND PUSH1 0x0 SWAP1 DUP2 MSTORE PUSH1 0x3 PUSH1 0x20 MSTORE PUSH1 0x40 SWAP1 KECCAK256 SLOAD SWAP1 JUMP JUMPDEST PUSH2 0x835 PUSH2 0xCAF JUMP JUMPDEST PUSH2 0x83F PUSH1 0x0 PUSH2 0xCDC JUMP JUMPDEST JUMP JUMPDEST PUSH1 0x0 PUSH2 0x884 PUSH1 0x40 DUP1 MLOAD PUSH1 0xE0 DUP2 ADD SWAP1 SWAP2 MSTORE DUP1 PUSH1 0x0 DUP2 MSTORE PUSH1 0x20 ADD PUSH1 0x0 DUP2 MSTORE PUSH1 0x20 ADD PUSH1 0x0 DUP2 MSTORE PUSH1 0x20 ADD PUSH1 0x60 DUP2 MSTORE PUSH1 0x20 ADD PUSH1 0x60 DUP2 MSTORE PUSH1 0x20 ADD PUSH1 0x60 DUP2 MSTORE PUSH1 0x20 ADD PUSH1 0x60 DUP2 MSTORE POP SWAP1 JUMP JUMPDEST PUSH2 0x8CB PUSH1 0x0 DUP1 DUP15 DUP15 DUP1 DUP1 PUSH1 0x1F ADD PUSH1 0x20 DUP1 SWAP2 DIV MUL PUSH1 0x20 ADD PUSH1 0x40 MLOAD SWAP1 DUP2 ADD PUSH1 0x40 MSTORE DUP1 SWAP4 SWAP3 SWAP2 SWAP1 DUP2 DUP2 MSTORE PUSH1 0x20 ADD DUP4 DUP4 DUP1 DUP3 DUP5 CALLDATACOPY PUSH1 0x0 SWAP3 ADD SWAP2 SWAP1 SWAP2 MSTORE POP DUP8 SWAP6 SWAP5 SWAP4 SWAP3 POP POP PUSH2 0xD2E SWAP1 POP JUMP JUMPDEST PUSH1 0x20 DUP2 ADD DUP11 PUSH1 0x2 DUP2 GT ISZERO PUSH2 0x8E1 JUMPI PUSH2 0x8E1 PUSH2 0x210E JUMP JUMPDEST SWAP1 DUP2 PUSH1 0x2 DUP2 GT ISZERO PUSH2 0x8F4 JUMPI PUSH2 0x8F4 PUSH2 0x210E JUMP JUMPDEST DUP2 MSTORE POP POP DUP9 DUP9 DUP1 DUP1 PUSH1 0x1F ADD PUSH1 0x20 DUP1 SWAP2 DIV MUL PUSH1 0x20 ADD PUSH1 0x40 MLOAD SWAP1 DUP2 ADD PUSH1 0x40 MSTORE DUP1 SWAP4 SWAP3 SWAP2 SWAP1 DUP2 DUP2 MSTORE PUSH1 0x20 ADD DUP4 DUP4 DUP1 DUP3 DUP5 CALLDATACOPY PUSH1 0x0 SWAP3 ADD SWAP2 SWAP1 SWAP2 MSTORE POP POP POP POP PUSH1 0x80 DUP3 ADD MSTORE DUP6 ISZERO PUSH2 0x94D JUMPI PUSH2 0x94D PUSH2 0x946 DUP8 DUP10 PUSH2 0x259C JUMP JUMPDEST DUP3 SWAP1 PUSH2 0xDAC JUMP JUMPDEST DUP4 ISZERO PUSH2 0x967 JUMPI PUSH2 0x967 PUSH2 0x960 DUP6 DUP8 PUSH2 0x260F JUMP JUMPDEST DUP3 SWAP1 PUSH2 0xDD6 JUMP JUMPDEST PUSH2 0x987 PUSH2 0x973 DUP3 PUSH2 0xE00 JUMP JUMPDEST PUSH1 0xC SLOAD PUSH1 0xD SLOAD DUP7 SWAP2 PUSH4 0xFFFFFFFF AND SWAP1 PUSH2 0x10D8 JUMP JUMPDEST PUSH1 0x9 DUP2 SWAP1 SSTORE SWAP13 SWAP12 POP POP POP POP POP POP POP POP POP POP POP POP JUMP JUMPDEST PUSH1 0x60 PUSH1 0x1 DUP1 SLOAD PUSH2 0x4D0 SWAP1 PUSH2 0x2562 JUMP JUMPDEST PUSH1 0x40 MLOAD PUSH3 0x461BCD PUSH1 0xE5 SHL DUP2 MSTORE PUSH1 0x20 PUSH1 0x4 DUP3 ADD MSTORE PUSH1 0x22 PUSH1 0x24 DUP3 ADD MSTORE PUSH32 0x5342543A20736574417070726F76616C466F72416C6C206E6F7420616C6C6F77 PUSH1 0x44 DUP3 ADD MSTORE PUSH2 0x1959 PUSH1 0xF2 SHL PUSH1 0x64 DUP3 ADD MSTORE PUSH1 0x84 ADD PUSH2 0x59A JUMP JUMPDEST PUSH2 0xA09 DUP5 DUP5 DUP5 PUSH2 0x66F JUMP JUMPDEST PUSH2 0xA15 DUP5 DUP5 DUP5 DUP5 PUSH2 0x11AA JUMP JUMPDEST POP POP POP POP JUMP JUMPDEST PUSH1 0x60 PUSH2 0x4BB DUP3 PUSH2 0x12D3 JUMP JUMPDEST PUSH2 0xA2E PUSH2 0xCAF JUMP JUMPDEST PUSH1 0x1 PUSH1 0x1 PUSH1 0xA0 SHL SUB DUP2 AND PUSH2 0xA58 JUMPI PUSH1 0x40 MLOAD PUSH4 0x1E4FBDF7 PUSH1 0xE0 SHL DUP2 MSTORE PUSH1 0x0 PUSH1 0x4 DUP3 ADD MSTORE PUSH1 0x24 ADD PUSH2 0x59A JUMP JUMPDEST PUSH2 0x7CA DUP2 PUSH2 0xCDC JUMP JUMPDEST PUSH1 0x0 PUSH1 0x1 PUSH1 0xF DUP8 PUSH1 0x40 MLOAD PUSH2 0xA75 SWAP2 SWAP1 PUSH2 0x2676 JUMP JUMPDEST SWAP1 DUP2 MSTORE PUSH1 0x40 MLOAD SWAP1 DUP2 SWAP1 SUB PUSH1 0x20 ADD SWAP1 KECCAK256 SLOAD PUSH1 0xFF AND PUSH1 0x1 DUP2 GT ISZERO PUSH2 0xA99 JUMPI PUSH2 0xA99 PUSH2 0x210E JUMP JUMPDEST SUB PUSH2 0xAB9 JUMPI DUP6 PUSH1 0x40 MLOAD PUSH4 0x2266861 PUSH1 0xE2 SHL DUP2 MSTORE PUSH1 0x4 ADD PUSH2 0x59A SWAP2 SWAP1 PUSH2 0x1F0B JUMP JUMPDEST PUSH1 0xE SLOAD PUSH1 0x40 MLOAD PUSH4 0x621A62F7 PUSH1 0xE1 SHL DUP2 MSTORE PUSH1 0x1 PUSH1 0x1 PUSH1 0xA0 SHL SUB SWAP1 SWAP2 AND SWAP1 PUSH4 0xC434C5EE SWAP1 PUSH2 0xAEF SWAP1 DUP9 SWAP1 DUP9 SWAP1 DUP9 SWAP1 DUP9 SWAP1 PUSH1 0x4 ADD PUSH2 0x26CD JUMP JUMPDEST PUSH1 0x20 PUSH1 0x40 MLOAD DUP1 DUP4 SUB DUP2 DUP7 GAS STATICCALL ISZERO DUP1 ISZERO PUSH2 0xB0C JUMPI RETURNDATASIZE PUSH1 0x0 DUP1 RETURNDATACOPY RETURNDATASIZE PUSH1 0x0 REVERT JUMPDEST POP POP POP POP PUSH1 0x40 MLOAD RETURNDATASIZE PUSH1 0x1F NOT PUSH1 0x1F DUP3 ADD AND DUP3 ADD DUP1 PUSH1 0x40 MSTORE POP DUP2 ADD SWAP1 PUSH2 0xB30 SWAP2 SWAP1 PUSH2 0x2718 JUMP JUMPDEST PUSH2 0xB4D JUMPI PUSH1 0x40 MLOAD PUSH4 0x8BAA579F PUSH1 0xE0 SHL DUP2 MSTORE PUSH1 0x4 ADD PUSH1 0x40 MLOAD DUP1 SWAP2 SUB SWAP1 REVERT JUMPDEST PUSH1 0x1 PUSH1 0xF DUP8 PUSH1 0x40 MLOAD PUSH2 0xB5F SWAP2 SWAP1 PUSH2 0x2676 JUMP JUMPDEST SWAP1 DUP2 MSTORE PUSH1 0x40 MLOAD SWAP1 DUP2 SWAP1 SUB PUSH1 0x20 ADD SWAP1 KECCAK256 DUP1 SLOAD PUSH1 0xFF NOT AND PUSH1 0x1 DUP4 DUP2 DUP2 GT ISZERO PUSH2 0xB87 JUMPI PUSH2 0xB87 PUSH2 0x210E JUMP JUMPDEST MUL OR SWAP1 SSTORE POP PUSH2 0xB98 CALLER PUSH1 0x8 SLOAD PUSH2 0x13E4 JUMP JUMPDEST PUSH2 0xBA4 PUSH1 0x8 SLOAD DUP9 PUSH2 0x1402 JUMP JUMPDEST PUSH1 0x8 DUP1 SLOAD SWAP1 PUSH1 0x0 PUSH2 0xBB4 DUP4 PUSH2 0x274B JUMP JUMPDEST SWAP1 SWAP2 SSTORE POP PUSH1 0x1 SWAP11 SWAP10 POP POP POP POP POP POP POP POP POP POP JUMP JUMPDEST PUSH1 0x0 PUSH1 0x1 PUSH1 0x1 PUSH1 0xE0 SHL SUB NOT DUP3 AND PUSH4 0x24832483 PUSH1 0xE1 SHL EQ DUP1 PUSH2 0x4BB JUMPI POP PUSH2 0x4BB DUP3 PUSH2 0x1452 JUMP JUMPDEST DUP3 PUSH1 0x9 SLOAD EQ PUSH2 0xC12 JUMPI PUSH1 0x40 MLOAD PUSH4 0xD068BF5B PUSH1 0xE0 SHL DUP2 MSTORE PUSH1 0x4 DUP2 ADD DUP5 SWAP1 MSTORE PUSH1 0x24 ADD PUSH2 0x59A JUMP JUMPDEST PUSH1 0xA PUSH2 0xC1E DUP4 DUP3 PUSH2 0x27B2 JUMP JUMPDEST POP PUSH1 0xB PUSH2 0xC2B DUP3 DUP3 PUSH2 0x27B2 JUMP JUMPDEST POP DUP3 PUSH32 0x7873807BF6DDC50401CD3D29BBE0DECEE23FD4D68D273F4B5EB83CDED4D2F172 PUSH1 0xA PUSH1 0xB PUSH1 0x40 MLOAD PUSH2 0xC60 SWAP3 SWAP2 SWAP1 PUSH2 0x28EE JUMP JUMPDEST PUSH1 0x40 MLOAD DUP1 SWAP2 SUB SWAP1 LOG2 POP POP POP JUMP JUMPDEST PUSH2 0x7CA DUP2 PUSH2 0x14A2 JUMP JUMPDEST PUSH1 0x0 DUP2 DUP2 MSTORE PUSH1 0x2 PUSH1 0x20 MSTORE PUSH1 0x40 DUP2 KECCAK256 SLOAD PUSH1 0x1 PUSH1 0x1 PUSH1 0xA0 SHL SUB AND DUP1 PUSH2 0x4BB JUMPI PUSH1 0x40 MLOAD PUSH4 0x7E273289 PUSH1 0xE0 SHL DUP2 MSTORE PUSH1 0x4 DUP2 ADD DUP5 SWAP1 MSTORE PUSH1 0x24 ADD PUSH2 0x59A JUMP JUMPDEST PUSH1 0x7 SLOAD PUSH1 0x1 PUSH1 0x1 PUSH1 0xA0 SHL SUB AND CALLER EQ PUSH2 0x83F JUMPI PUSH1 0x40 MLOAD PUSH4 0x118CDAA7 PUSH1 0xE0 SHL DUP2 MSTORE CALLER PUSH1 0x4 DUP3 ADD MSTORE PUSH1 0x24 ADD PUSH2 0x59A JUMP JUMPDEST PUSH1 0x7 DUP1 SLOAD PUSH1 0x1 PUSH1 0x1 PUSH1 0xA0 SHL SUB DUP4 DUP2 AND PUSH1 0x1 PUSH1 0x1 PUSH1 0xA0 SHL SUB NOT DUP4 AND DUP2 OR SWAP1 SWAP4 SSTORE PUSH1 0x40 MLOAD SWAP2 AND SWAP2 SWAP1 DUP3 SWAP1 PUSH32 0x8BE0079C531659141344CD1FD0A4F28419497F9722A3DAAFE3B4186F6B6457E0 SWAP1 PUSH1 0x0 SWAP1 LOG3 POP POP JUMP JUMPDEST DUP1 MLOAD PUSH1 0x0 SUB PUSH2 0xD50 JUMPI PUSH1 0x40 MLOAD PUSH4 0x22CE3EDD PUSH1 0xE0 SHL DUP2 MSTORE PUSH1 0x4 ADD PUSH1 0x40 MLOAD DUP1 SWAP2 SUB SWAP1 REVERT JUMPDEST DUP4 DUP4 PUSH1 0x2 DUP2 GT ISZERO PUSH2 0xD63 JUMPI PUSH2 0xD63 PUSH2 0x210E JUMP JUMPDEST SWAP1 DUP2 PUSH1 0x2 DUP2 GT ISZERO PUSH2 0xD76 JUMPI PUSH2 0xD76 PUSH2 0x210E JUMP JUMPDEST SWAP1 MSTORE POP PUSH1 0x40 DUP5 ADD DUP3 DUP1 ISZERO PUSH2 0xD8C JUMPI PUSH2 0xD8C PUSH2 0x210E JUMP JUMPDEST SWAP1 DUP2 DUP1 ISZERO PUSH2 0xD9C JUMPI PUSH2 0xD9C PUSH2 0x210E JUMP JUMPDEST SWAP1 MSTORE POP PUSH1 0x60 SWAP1 SWAP4 ADD SWAP3 SWAP1 SWAP3 MSTORE POP POP JUMP JUMPDEST DUP1 MLOAD PUSH1 0x0 SUB PUSH2 0xDCE JUMPI PUSH1 0x40 MLOAD PUSH4 0xFE936CB7 PUSH1 0xE0 SHL DUP2 MSTORE PUSH1 0x4 ADD PUSH1 0x40 MLOAD DUP1 SWAP2 SUB SWAP1 REVERT JUMPDEST PUSH1 0xA0 SWAP1 SWAP2 ADD MSTORE JUMP JUMPDEST DUP1 MLOAD PUSH1 0x0 SUB PUSH2 0xDF8 JUMPI PUSH1 0x40 MLOAD PUSH4 0xFE936CB7 PUSH1 0xE0 SHL DUP2 MSTORE PUSH1 0x4 ADD PUSH1 0x40 MLOAD DUP1 SWAP2 SUB SWAP1 REVERT JUMPDEST PUSH1 0xC0 SWAP1 SWAP2 ADD MSTORE JUMP JUMPDEST PUSH1 0x60 PUSH1 0x0 PUSH2 0xE0F PUSH2 0x100 PUSH2 0x14DD JUMP JUMPDEST SWAP1 POP PUSH2 0xE48 PUSH1 0x40 MLOAD DUP1 PUSH1 0x40 ADD PUSH1 0x40 MSTORE DUP1 PUSH1 0xC DUP2 MSTORE PUSH1 0x20 ADD PUSH12 0x31B7B232A637B1B0BA34B7B7 PUSH1 0xA1 SHL DUP2 MSTORE POP DUP3 PUSH2 0x14FE SWAP1 SWAP2 SWAP1 PUSH4 0xFFFFFFFF AND JUMP JUMPDEST DUP3 MLOAD PUSH2 0xE66 SWAP1 PUSH1 0x2 DUP2 GT ISZERO PUSH2 0xE5F JUMPI PUSH2 0xE5F PUSH2 0x210E JUMP JUMPDEST DUP3 SWAP1 PUSH2 0x151C JUMP JUMPDEST PUSH1 0x40 DUP1 MLOAD DUP1 DUP3 ADD SWAP1 SWAP2 MSTORE PUSH1 0x8 DUP2 MSTORE PUSH8 0x6C616E6775616765 PUSH1 0xC0 SHL PUSH1 0x20 DUP3 ADD MSTORE PUSH2 0xE90 SWAP1 DUP3 SWAP1 PUSH2 0x14FE JUMP JUMPDEST PUSH1 0x40 DUP4 ADD MLOAD PUSH2 0xEA7 SWAP1 DUP1 ISZERO PUSH2 0xE5F JUMPI PUSH2 0xE5F PUSH2 0x210E JUMP JUMPDEST PUSH1 0x40 DUP1 MLOAD DUP1 DUP3 ADD SWAP1 SWAP2 MSTORE PUSH1 0x6 DUP2 MSTORE PUSH6 0x736F75726365 PUSH1 0xD0 SHL PUSH1 0x20 DUP3 ADD MSTORE PUSH2 0xECF SWAP1 DUP3 SWAP1 PUSH2 0x14FE JUMP JUMPDEST PUSH1 0x60 DUP4 ADD MLOAD PUSH2 0xEDF SWAP1 DUP3 SWAP1 PUSH2 0x14FE JUMP JUMPDEST PUSH1 0xA0 DUP4 ADD MLOAD MLOAD ISZERO PUSH2 0xF73 JUMPI PUSH1 0x40 DUP1 MLOAD DUP1 DUP3 ADD SWAP1 SWAP2 MSTORE PUSH1 0x4 DUP2 MSTORE PUSH4 0x61726773 PUSH1 0xE0 SHL PUSH1 0x20 DUP3 ADD MSTORE PUSH2 0xF10 SWAP1 DUP3 SWAP1 PUSH2 0x14FE JUMP JUMPDEST PUSH2 0xF19 DUP2 PUSH2 0x1555 JUMP JUMPDEST PUSH1 0x0 JUMPDEST DUP4 PUSH1 0xA0 ADD MLOAD MLOAD DUP2 LT ISZERO PUSH2 0xF69 JUMPI PUSH2 0xF59 DUP5 PUSH1 0xA0 ADD MLOAD DUP3 DUP2 MLOAD DUP2 LT PUSH2 0xF42 JUMPI PUSH2 0xF42 PUSH2 0x291C JUMP JUMPDEST PUSH1 0x20 MUL PUSH1 0x20 ADD ADD MLOAD DUP4 PUSH2 0x14FE SWAP1 SWAP2 SWAP1 PUSH4 0xFFFFFFFF AND JUMP JUMPDEST PUSH2 0xF62 DUP2 PUSH2 0x274B JUMP JUMPDEST SWAP1 POP PUSH2 0xF1C JUMP JUMPDEST POP PUSH2 0xF73 DUP2 PUSH2 0x1579 JUMP JUMPDEST PUSH1 0x80 DUP4 ADD MLOAD MLOAD ISZERO PUSH2 0x1037 JUMPI PUSH1 0x0 DUP4 PUSH1 0x20 ADD MLOAD PUSH1 0x2 DUP2 GT ISZERO PUSH2 0xF96 JUMPI PUSH2 0xF96 PUSH2 0x210E JUMP JUMPDEST SUB PUSH2 0xFB4 JUMPI PUSH1 0x40 MLOAD PUSH4 0xA80D31F7 PUSH1 0xE0 SHL DUP2 MSTORE PUSH1 0x4 ADD PUSH1 0x40 MLOAD DUP1 SWAP2 SUB SWAP1 REVERT JUMPDEST PUSH1 0x40 DUP1 MLOAD DUP1 DUP3 ADD SWAP1 SWAP2 MSTORE PUSH1 0xF DUP2 MSTORE PUSH15 0x39B2B1B932BA39A637B1B0BA34B7B7 PUSH1 0x89 SHL PUSH1 0x20 DUP3 ADD MSTORE PUSH2 0xFE5 SWAP1 DUP3 SWAP1 PUSH2 0x14FE JUMP JUMPDEST PUSH2 0xFFE DUP4 PUSH1 0x20 ADD MLOAD PUSH1 0x2 DUP2 GT ISZERO PUSH2 0xE5F JUMPI PUSH2 0xE5F PUSH2 0x210E JUMP JUMPDEST PUSH1 0x40 DUP1 MLOAD DUP1 DUP3 ADD SWAP1 SWAP2 MSTORE PUSH1 0x7 DUP2 MSTORE PUSH7 0x73656372657473 PUSH1 0xC8 SHL PUSH1 0x20 DUP3 ADD MSTORE PUSH2 0x1027 SWAP1 DUP3 SWAP1 PUSH2 0x14FE JUMP JUMPDEST PUSH1 0x80 DUP4 ADD MLOAD PUSH2 0x1037 SWAP1 DUP3 SWAP1 PUSH2 0x1597 JUMP JUMPDEST PUSH1 0xC0 DUP4 ADD MLOAD MLOAD ISZERO PUSH2 0x10D0 JUMPI PUSH1 0x40 DUP1 MLOAD DUP1 DUP3 ADD SWAP1 SWAP2 MSTORE PUSH1 0x9 DUP2 MSTORE PUSH9 0x627974657341726773 PUSH1 0xB8 SHL PUSH1 0x20 DUP3 ADD MSTORE PUSH2 0x106D SWAP1 DUP3 SWAP1 PUSH2 0x14FE JUMP JUMPDEST PUSH2 0x1076 DUP2 PUSH2 0x1555 JUMP JUMPDEST PUSH1 0x0 JUMPDEST DUP4 PUSH1 0xC0 ADD MLOAD MLOAD DUP2 LT ISZERO PUSH2 0x10C6 JUMPI PUSH2 0x10B6 DUP5 PUSH1 0xC0 ADD MLOAD DUP3 DUP2 MLOAD DUP2 LT PUSH2 0x109F JUMPI PUSH2 0x109F PUSH2 0x291C JUMP JUMPDEST PUSH1 0x20 MUL PUSH1 0x20 ADD ADD MLOAD DUP4 PUSH2 0x1597 SWAP1 SWAP2 SWAP1 PUSH4 0xFFFFFFFF AND JUMP JUMPDEST PUSH2 0x10BF DUP2 PUSH2 0x274B JUMP JUMPDEST SWAP1 POP PUSH2 0x1079 JUMP JUMPDEST POP PUSH2 0x10D0 DUP2 PUSH2 0x1579 JUMP JUMPDEST MLOAD MLOAD SWAP3 SWAP2 POP POP JUMP JUMPDEST PUSH1 0x0 DUP1 PUSH32 0x0 PUSH1 0x1 PUSH1 0x1 PUSH1 0xA0 SHL SUB AND PUSH4 0x461D2762 DUP7 DUP9 PUSH1 0x1 DUP9 DUP9 PUSH1 0x40 MLOAD DUP7 PUSH4 0xFFFFFFFF AND PUSH1 0xE0 SHL DUP2 MSTORE PUSH1 0x4 ADD PUSH2 0x1130 SWAP6 SWAP5 SWAP4 SWAP3 SWAP2 SWAP1 PUSH2 0x2932 JUMP JUMPDEST PUSH1 0x20 PUSH1 0x40 MLOAD DUP1 DUP4 SUB DUP2 PUSH1 0x0 DUP8 GAS CALL ISZERO DUP1 ISZERO PUSH2 0x114F JUMPI RETURNDATASIZE PUSH1 0x0 DUP1 RETURNDATACOPY RETURNDATASIZE PUSH1 0x0 REVERT JUMPDEST POP POP POP POP PUSH1 0x40 MLOAD RETURNDATASIZE PUSH1 0x1F NOT PUSH1 0x1F DUP3 ADD AND DUP3 ADD DUP1 PUSH1 0x40 MSTORE POP DUP2 ADD SWAP1 PUSH2 0x1173 SWAP2 SWAP1 PUSH2 0x297B JUMP JUMPDEST PUSH1 0x40 MLOAD SWAP1 SWAP2 POP DUP2 SWAP1 PUSH32 0x1131472297A800FEE664D1D89CFA8F7676FF07189ECC53F80BBB5F4969099DB8 SWAP1 PUSH1 0x0 SWAP1 LOG2 SWAP6 SWAP5 POP POP POP POP POP JUMP JUMPDEST PUSH1 0x1 PUSH1 0x1 PUSH1 0xA0 SHL SUB DUP4 AND EXTCODESIZE ISZERO PUSH2 0xA15 JUMPI PUSH1 0x40 MLOAD PUSH4 0xA85BD01 PUSH1 0xE1 SHL DUP2 MSTORE PUSH1 0x1 PUSH1 0x1 PUSH1 0xA0 SHL SUB DUP5 AND SWAP1 PUSH4 0x150B7A02 SWAP1 PUSH2 0x11EC SWAP1 CALLER SWAP1 DUP9 SWAP1 DUP8 SWAP1 DUP8 SWAP1 PUSH1 0x4 ADD PUSH2 0x2994 JUMP JUMPDEST PUSH1 0x20 PUSH1 0x40 MLOAD DUP1 DUP4 SUB DUP2 PUSH1 0x0 DUP8 GAS CALL SWAP3 POP POP POP DUP1 ISZERO PUSH2 0x1227 JUMPI POP PUSH1 0x40 DUP1 MLOAD PUSH1 0x1F RETURNDATASIZE SWAP1 DUP2 ADD PUSH1 0x1F NOT AND DUP3 ADD SWAP1 SWAP3 MSTORE PUSH2 0x1224 SWAP2 DUP2 ADD SWAP1 PUSH2 0x29D1 JUMP JUMPDEST PUSH1 0x1 JUMPDEST PUSH2 0x1290 JUMPI RETURNDATASIZE DUP1 DUP1 ISZERO PUSH2 0x1255 JUMPI PUSH1 0x40 MLOAD SWAP2 POP PUSH1 0x1F NOT PUSH1 0x3F RETURNDATASIZE ADD AND DUP3 ADD PUSH1 0x40 MSTORE RETURNDATASIZE DUP3 MSTORE RETURNDATASIZE PUSH1 0x0 PUSH1 0x20 DUP5 ADD RETURNDATACOPY PUSH2 0x125A JUMP JUMPDEST PUSH1 0x60 SWAP2 POP JUMPDEST POP DUP1 MLOAD PUSH1 0x0 SUB PUSH2 0x1288 JUMPI PUSH1 0x40 MLOAD PUSH4 0x32505749 PUSH1 0xE1 SHL DUP2 MSTORE PUSH1 0x1 PUSH1 0x1 PUSH1 0xA0 SHL SUB DUP6 AND PUSH1 0x4 DUP3 ADD MSTORE PUSH1 0x24 ADD PUSH2 0x59A JUMP JUMPDEST DUP1 MLOAD DUP2 PUSH1 0x20 ADD REVERT JUMPDEST PUSH1 0x1 PUSH1 0x1 PUSH1 0xE0 SHL SUB NOT DUP2 AND PUSH4 0xA85BD01 PUSH1 0xE1 SHL EQ PUSH2 0x12CC JUMPI PUSH1 0x40 MLOAD PUSH4 0x32505749 PUSH1 0xE1 SHL DUP2 MSTORE PUSH1 0x1 PUSH1 0x1 PUSH1 0xA0 SHL SUB DUP6 AND PUSH1 0x4 DUP3 ADD MSTORE PUSH1 0x24 ADD PUSH2 0x59A JUMP JUMPDEST POP POP POP POP POP JUMP JUMPDEST PUSH1 0x60 PUSH2 0x12DE DUP3 PUSH2 0xC76 JUMP JUMPDEST POP PUSH1 0x0 DUP3 DUP2 MSTORE PUSH1 0x6 PUSH1 0x20 MSTORE PUSH1 0x40 DUP2 KECCAK256 DUP1 SLOAD PUSH2 0x12F8 SWAP1 PUSH2 0x2562 JUMP JUMPDEST DUP1 PUSH1 0x1F ADD PUSH1 0x20 DUP1 SWAP2 DIV MUL PUSH1 0x20 ADD PUSH1 0x40 MLOAD SWAP1 DUP2 ADD PUSH1 0x40 MSTORE DUP1 SWAP3 SWAP2 SWAP1 DUP2 DUP2 MSTORE PUSH1 0x20 ADD DUP3 DUP1 SLOAD PUSH2 0x1324 SWAP1 PUSH2 0x2562 JUMP JUMPDEST DUP1 ISZERO PUSH2 0x1371 JUMPI DUP1 PUSH1 0x1F LT PUSH2 0x1346 JUMPI PUSH2 0x100 DUP1 DUP4 SLOAD DIV MUL DUP4 MSTORE SWAP2 PUSH1 0x20 ADD SWAP2 PUSH2 0x1371 JUMP JUMPDEST DUP3 ADD SWAP2 SWAP1 PUSH1 0x0 MSTORE PUSH1 0x20 PUSH1 0x0 KECCAK256 SWAP1 JUMPDEST DUP2 SLOAD DUP2 MSTORE SWAP1 PUSH1 0x1 ADD SWAP1 PUSH1 0x20 ADD DUP1 DUP4 GT PUSH2 0x1354 JUMPI DUP3 SWAP1 SUB PUSH1 0x1F AND DUP3 ADD SWAP2 JUMPDEST POP POP POP POP POP SWAP1 POP PUSH1 0x0 PUSH2 0x138F PUSH1 0x40 DUP1 MLOAD PUSH1 0x20 DUP2 ADD SWAP1 SWAP2 MSTORE PUSH1 0x0 DUP2 MSTORE SWAP1 JUMP JUMPDEST SWAP1 POP DUP1 MLOAD PUSH1 0x0 SUB PUSH2 0x13A1 JUMPI POP SWAP3 SWAP2 POP POP JUMP JUMPDEST DUP2 MLOAD ISZERO PUSH2 0x13D3 JUMPI DUP1 DUP3 PUSH1 0x40 MLOAD PUSH1 0x20 ADD PUSH2 0x13BB SWAP3 SWAP2 SWAP1 PUSH2 0x29EE JUMP JUMPDEST PUSH1 0x40 MLOAD PUSH1 0x20 DUP2 DUP4 SUB SUB DUP2 MSTORE SWAP1 PUSH1 0x40 MSTORE SWAP3 POP POP POP SWAP2 SWAP1 POP JUMP JUMPDEST PUSH2 0x13DC DUP5 PUSH2 0x15A4 JUMP JUMPDEST SWAP5 SWAP4 POP POP POP POP JUMP JUMPDEST PUSH2 0x13FE DUP3 DUP3 PUSH1 0x40 MLOAD DUP1 PUSH1 0x20 ADD PUSH1 0x40 MSTORE DUP1 PUSH1 0x0 DUP2 MSTORE POP PUSH2 0x1619 JUMP JUMPDEST POP POP JUMP JUMPDEST PUSH1 0x0 DUP3 DUP2 MSTORE PUSH1 0x6 PUSH1 0x20 MSTORE PUSH1 0x40 SWAP1 KECCAK256 PUSH2 0x141A DUP3 DUP3 PUSH2 0x27B2 JUMP JUMPDEST POP PUSH1 0x40 MLOAD DUP3 DUP2 MSTORE PUSH32 0xF8E1A15ABA9398E019F0B49DF1A4FDE98EE17AE345CB5F6B5E2C27F5033E8CE7 SWAP1 PUSH1 0x20 ADD PUSH1 0x40 MLOAD DUP1 SWAP2 SUB SWAP1 LOG1 POP POP JUMP JUMPDEST PUSH1 0x0 PUSH1 0x1 PUSH1 0x1 PUSH1 0xE0 SHL SUB NOT DUP3 AND PUSH4 0x80AC58CD PUSH1 0xE0 SHL EQ DUP1 PUSH2 0x1483 JUMPI POP PUSH1 0x1 PUSH1 0x1 PUSH1 0xE0 SHL SUB NOT DUP3 AND PUSH4 0x5B5E139F PUSH1 0xE0 SHL EQ JUMPDEST DUP1 PUSH2 0x4BB JUMPI POP PUSH4 0x1FFC9A7 PUSH1 0xE0 SHL PUSH1 0x1 PUSH1 0x1 PUSH1 0xE0 SHL SUB NOT DUP4 AND EQ PUSH2 0x4BB JUMP JUMPDEST PUSH1 0x0 PUSH2 0x14B1 PUSH1 0x0 DUP4 PUSH1 0x0 PUSH2 0x1630 JUMP JUMPDEST SWAP1 POP PUSH1 0x1 PUSH1 0x1 PUSH1 0xA0 SHL SUB DUP2 AND PUSH2 0x13FE JUMPI PUSH1 0x40 MLOAD PUSH4 0x7E273289 PUSH1 0xE0 SHL DUP2 MSTORE PUSH1 0x4 DUP2 ADD DUP4 SWAP1 MSTORE PUSH1 0x24 ADD PUSH2 0x59A JUMP JUMPDEST PUSH2 0x14E5 PUSH2 0x1E53 JUMP JUMPDEST DUP1 MLOAD PUSH2 0x14F1 SWAP1 DUP4 PUSH2 0x1729 JUMP JUMPDEST POP PUSH1 0x0 PUSH1 0x20 DUP3 ADD MSTORE SWAP2 SWAP1 POP JUMP JUMPDEST PUSH2 0x150B DUP3 PUSH1 0x3 DUP4 MLOAD PUSH2 0x17A0 JUMP JUMPDEST DUP2 MLOAD PUSH2 0x1517 SWAP1 DUP3 PUSH2 0x18B9 JUMP JUMPDEST POP POP POP JUMP JUMPDEST DUP2 MLOAD PUSH2 0x1529 SWAP1 PUSH1 0xC2 PUSH2 0x18DA JUMP JUMPDEST POP PUSH2 0x13FE DUP3 DUP3 PUSH1 0x40 MLOAD PUSH1 0x20 ADD PUSH2 0x1541 SWAP2 DUP2 MSTORE PUSH1 0x20 ADD SWAP1 JUMP JUMPDEST PUSH1 0x40 MLOAD PUSH1 0x20 DUP2 DUP4 SUB SUB DUP2 MSTORE SWAP1 PUSH1 0x40 MSTORE PUSH2 0x1597 JUMP JUMPDEST PUSH2 0x1560 DUP2 PUSH1 0x4 PUSH2 0x1943 JUMP JUMPDEST PUSH1 0x1 DUP2 PUSH1 0x20 ADD DUP2 DUP2 MLOAD PUSH2 0x1573 SWAP2 SWAP1 PUSH2 0x2A1D JUMP JUMPDEST SWAP1 MSTORE POP POP JUMP JUMPDEST PUSH2 0x1584 DUP2 PUSH1 0x7 PUSH2 0x1943 JUMP JUMPDEST PUSH1 0x1 DUP2 PUSH1 0x20 ADD DUP2 DUP2 MLOAD PUSH2 0x1573 SWAP2 SWAP1 PUSH2 0x2A30 JUMP JUMPDEST PUSH2 0x150B DUP3 PUSH1 0x2 DUP4 MLOAD PUSH2 0x17A0 JUMP JUMPDEST PUSH1 0x60 PUSH2 0x15AF DUP3 PUSH2 0xC76 JUMP JUMPDEST POP PUSH1 0x0 PUSH2 0x15C7 PUSH1 0x40 DUP1 MLOAD PUSH1 0x20 DUP2 ADD SWAP1 SWAP2 MSTORE PUSH1 0x0 DUP2 MSTORE SWAP1 JUMP JUMPDEST SWAP1 POP PUSH1 0x0 DUP2 MLOAD GT PUSH2 0x15E7 JUMPI PUSH1 0x40 MLOAD DUP1 PUSH1 0x20 ADD PUSH1 0x40 MSTORE DUP1 PUSH1 0x0 DUP2 MSTORE POP PUSH2 0x1612 JUMP JUMPDEST DUP1 PUSH2 0x15F1 DUP5 PUSH2 0x195A JUMP JUMPDEST PUSH1 0x40 MLOAD PUSH1 0x20 ADD PUSH2 0x1602 SWAP3 SWAP2 SWAP1 PUSH2 0x29EE JUMP JUMPDEST PUSH1 0x40 MLOAD PUSH1 0x20 DUP2 DUP4 SUB SUB DUP2 MSTORE SWAP1 PUSH1 0x40 MSTORE JUMPDEST SWAP4 SWAP3 POP POP POP JUMP JUMPDEST PUSH2 0x1623 DUP4 DUP4 PUSH2 0x19EC JUMP JUMPDEST PUSH2 0x1517 PUSH1 0x0 DUP5 DUP5 DUP5 PUSH2 0x11AA JUMP JUMPDEST PUSH1 0x0 DUP3 DUP2 MSTORE PUSH1 0x2 PUSH1 0x20 MSTORE PUSH1 0x40 DUP2 KECCAK256 SLOAD PUSH1 0x1 PUSH1 0x1 PUSH1 0xA0 SHL SUB SWAP1 DUP2 AND SWAP1 DUP4 AND ISZERO PUSH2 0x165D JUMPI PUSH2 0x165D DUP2 DUP5 DUP7 PUSH2 0x1A51 JUMP JUMPDEST PUSH1 0x1 PUSH1 0x1 PUSH1 0xA0 SHL SUB DUP2 AND ISZERO PUSH2 0x169B JUMPI PUSH2 0x167A PUSH1 0x0 DUP6 PUSH1 0x0 DUP1 PUSH2 0x1AB5 JUMP JUMPDEST PUSH1 0x1 PUSH1 0x1 PUSH1 0xA0 SHL SUB DUP2 AND PUSH1 0x0 SWAP1 DUP2 MSTORE PUSH1 0x3 PUSH1 0x20 MSTORE PUSH1 0x40 SWAP1 KECCAK256 DUP1 SLOAD PUSH1 0x0 NOT ADD SWAP1 SSTORE JUMPDEST PUSH1 0x1 PUSH1 0x1 PUSH1 0xA0 SHL SUB DUP6 AND ISZERO PUSH2 0x16CA JUMPI PUSH1 0x1 PUSH1 0x1 PUSH1 0xA0 SHL SUB DUP6 AND PUSH1 0x0 SWAP1 DUP2 MSTORE PUSH1 0x3 PUSH1 0x20 MSTORE PUSH1 0x40 SWAP1 KECCAK256 DUP1 SLOAD PUSH1 0x1 ADD SWAP1 SSTORE JUMPDEST PUSH1 0x0 DUP5 DUP2 MSTORE PUSH1 0x2 PUSH1 0x20 MSTORE PUSH1 0x40 DUP1 DUP3 KECCAK256 DUP1 SLOAD PUSH1 0x1 PUSH1 0x1 PUSH1 0xA0 SHL SUB NOT AND PUSH1 0x1 PUSH1 0x1 PUSH1 0xA0 SHL SUB DUP10 DUP2 AND SWAP2 DUP3 OR SWAP1 SWAP3 SSTORE SWAP2 MLOAD DUP8 SWAP4 SWAP2 DUP6 AND SWAP2 PUSH32 0xDDF252AD1BE2C89B69C2B068FC378DAA952BA7F163C4A11628F55A4DF523B3EF SWAP2 LOG4 SWAP5 SWAP4 POP POP POP POP JUMP JUMPDEST PUSH1 0x40 DUP1 MLOAD DUP1 DUP3 ADD SWAP1 SWAP2 MSTORE PUSH1 0x60 DUP2 MSTORE PUSH1 0x0 PUSH1 0x20 DUP3 ADD MSTORE PUSH2 0x1749 PUSH1 0x20 DUP4 PUSH2 0x2A43 JUMP JUMPDEST ISZERO PUSH2 0x1771 JUMPI PUSH2 0x1759 PUSH1 0x20 DUP4 PUSH2 0x2A43 JUMP JUMPDEST PUSH2 0x1764 SWAP1 PUSH1 0x20 PUSH2 0x2A30 JUMP JUMPDEST PUSH2 0x176E SWAP1 DUP4 PUSH2 0x2A1D JUMP JUMPDEST SWAP2 POP JUMPDEST PUSH1 0x20 DUP1 DUP5 ADD DUP4 SWAP1 MSTORE PUSH1 0x40 MLOAD DUP1 DUP6 MSTORE PUSH1 0x0 DUP2 MSTORE SWAP1 DUP2 DUP5 ADD ADD DUP2 DUP2 LT ISZERO PUSH2 0x1795 JUMPI PUSH1 0x0 DUP1 REVERT JUMPDEST PUSH1 0x40 MSTORE POP SWAP2 SWAP3 SWAP2 POP POP JUMP JUMPDEST PUSH1 0x17 DUP2 PUSH1 0x1 PUSH1 0x1 PUSH1 0x40 SHL SUB AND GT PUSH2 0x17C6 JUMPI DUP3 MLOAD PUSH2 0xA15 SWAP1 PUSH1 0xE0 PUSH1 0x5 DUP6 SWAP1 SHL AND DUP4 OR PUSH2 0x18DA JUMP JUMPDEST PUSH1 0xFF DUP2 PUSH1 0x1 PUSH1 0x1 PUSH1 0x40 SHL SUB AND GT PUSH2 0x1806 JUMPI DUP3 MLOAD PUSH2 0x17EE SWAP1 PUSH1 0x18 PUSH2 0x1FE0 PUSH1 0x5 DUP7 SWAP1 SHL AND OR PUSH2 0x18DA JUMP JUMPDEST POP DUP3 MLOAD PUSH2 0xA15 SWAP1 PUSH1 0x1 PUSH1 0x1 PUSH1 0x40 SHL SUB DUP4 AND PUSH1 0x1 PUSH2 0x1BB2 JUMP JUMPDEST PUSH2 0xFFFF DUP2 PUSH1 0x1 PUSH1 0x1 PUSH1 0x40 SHL SUB AND GT PUSH2 0x1847 JUMPI DUP3 MLOAD PUSH2 0x182F SWAP1 PUSH1 0x19 PUSH2 0x1FE0 PUSH1 0x5 DUP7 SWAP1 SHL AND OR PUSH2 0x18DA JUMP JUMPDEST POP DUP3 MLOAD PUSH2 0xA15 SWAP1 PUSH1 0x1 PUSH1 0x1 PUSH1 0x40 SHL SUB DUP4 AND PUSH1 0x2 PUSH2 0x1BB2 JUMP JUMPDEST PUSH4 0xFFFFFFFF DUP2 PUSH1 0x1 PUSH1 0x1 PUSH1 0x40 SHL SUB AND GT PUSH2 0x188A JUMPI DUP3 MLOAD PUSH2 0x1872 SWAP1 PUSH1 0x1A PUSH2 0x1FE0 PUSH1 0x5 DUP7 SWAP1 SHL AND OR PUSH2 0x18DA JUMP JUMPDEST POP DUP3 MLOAD PUSH2 0xA15 SWAP1 PUSH1 0x1 PUSH1 0x1 PUSH1 0x40 SHL SUB DUP4 AND PUSH1 0x4 PUSH2 0x1BB2 JUMP JUMPDEST DUP3 MLOAD PUSH2 0x18A1 SWAP1 PUSH1 0x1B PUSH2 0x1FE0 PUSH1 0x5 DUP7 SWAP1 SHL AND OR PUSH2 0x18DA JUMP JUMPDEST POP DUP3 MLOAD PUSH2 0xA15 SWAP1 PUSH1 0x1 PUSH1 0x1 PUSH1 0x40 SHL SUB DUP4 AND PUSH1 0x8 PUSH2 0x1BB2 JUMP JUMPDEST PUSH1 0x40 DUP1 MLOAD DUP1 DUP3 ADD SWAP1 SWAP2 MSTORE PUSH1 0x60 DUP2 MSTORE PUSH1 0x0 PUSH1 0x20 DUP3 ADD MSTORE PUSH2 0x1612 DUP4 DUP4 DUP5 MLOAD PUSH2 0x1C37 JUMP JUMPDEST PUSH1 0x40 DUP1 MLOAD DUP1 DUP3 ADD SWAP1 SWAP2 MSTORE PUSH1 0x60 DUP2 MSTORE PUSH1 0x0 PUSH1 0x20 DUP3 ADD MSTORE DUP3 MLOAD MLOAD PUSH1 0x0 PUSH2 0x18FF DUP3 PUSH1 0x1 PUSH2 0x2A1D JUMP JUMPDEST SWAP1 POP DUP5 PUSH1 0x20 ADD MLOAD DUP3 LT PUSH2 0x1920 JUMPI PUSH2 0x1920 DUP6 PUSH2 0x191B DUP4 PUSH1 0x2 PUSH2 0x2A65 JUMP JUMPDEST PUSH2 0x1D08 JUMP JUMPDEST DUP5 MLOAD PUSH1 0x20 DUP4 DUP3 ADD ADD DUP6 DUP2 MSTORE8 POP DUP1 MLOAD DUP3 GT ISZERO PUSH2 0x1939 JUMPI DUP2 DUP2 MSTORE JUMPDEST POP SWAP4 SWAP5 SWAP4 POP POP POP POP JUMP JUMPDEST DUP2 MLOAD PUSH2 0x1517 SWAP1 PUSH1 0x1F PUSH2 0x1FE0 PUSH1 0x5 DUP6 SWAP1 SHL AND OR PUSH2 0x18DA JUMP JUMPDEST PUSH1 0x60 PUSH1 0x0 PUSH2 0x1967 DUP4 PUSH2 0x1D1F JUMP JUMPDEST PUSH1 0x1 ADD SWAP1 POP PUSH1 0x0 DUP2 PUSH1 0x1 PUSH1 0x1 PUSH1 0x40 SHL SUB DUP2 GT ISZERO PUSH2 0x1986 JUMPI PUSH2 0x1986 PUSH2 0x1F7D JUMP JUMPDEST PUSH1 0x40 MLOAD SWAP1 DUP1 DUP3 MSTORE DUP1 PUSH1 0x1F ADD PUSH1 0x1F NOT AND PUSH1 0x20 ADD DUP3 ADD PUSH1 0x40 MSTORE DUP1 ISZERO PUSH2 0x19B0 JUMPI PUSH1 0x20 DUP3 ADD DUP2 DUP1 CALLDATASIZE DUP4 CALLDATACOPY ADD SWAP1 POP JUMPDEST POP SWAP1 POP DUP2 DUP2 ADD PUSH1 0x20 ADD JUMPDEST PUSH1 0x0 NOT ADD PUSH16 0x181899199A1A9B1B9C1CB0B131B232B3 PUSH1 0x81 SHL PUSH1 0xA DUP7 MOD BYTE DUP2 MSTORE8 PUSH1 0xA DUP6 DIV SWAP5 POP DUP5 PUSH2 0x19BA JUMPI POP SWAP4 SWAP3 POP POP POP JUMP JUMPDEST PUSH1 0x1 PUSH1 0x1 PUSH1 0xA0 SHL SUB DUP3 AND PUSH2 0x1A16 JUMPI PUSH1 0x40 MLOAD PUSH4 0x32505749 PUSH1 0xE1 SHL DUP2 MSTORE PUSH1 0x0 PUSH1 0x4 DUP3 ADD MSTORE PUSH1 0x24 ADD PUSH2 0x59A JUMP JUMPDEST PUSH1 0x0 PUSH2 0x1A24 DUP4 DUP4 PUSH1 0x0 PUSH2 0x1630 JUMP JUMPDEST SWAP1 POP PUSH1 0x1 PUSH1 0x1 PUSH1 0xA0 SHL SUB DUP2 AND ISZERO PUSH2 0x1517 JUMPI PUSH1 0x40 MLOAD PUSH4 0x39E35637 PUSH1 0xE1 SHL DUP2 MSTORE PUSH1 0x0 PUSH1 0x4 DUP3 ADD MSTORE PUSH1 0x24 ADD PUSH2 0x59A JUMP JUMPDEST PUSH2 0x1A5C DUP4 DUP4 DUP4 PUSH2 0x1DF7 JUMP JUMPDEST PUSH2 0x1517 JUMPI PUSH1 0x1 PUSH1 0x1 PUSH1 0xA0 SHL SUB DUP4 AND PUSH2 0x1A8A JUMPI PUSH1 0x40 MLOAD PUSH4 0x7E273289 PUSH1 0xE0 SHL DUP2 MSTORE PUSH1 0x4 DUP2 ADD DUP3 SWAP1 MSTORE PUSH1 0x24 ADD PUSH2 0x59A JUMP JUMPDEST PUSH1 0x40 MLOAD PUSH4 0x177E802F PUSH1 0xE0 SHL DUP2 MSTORE PUSH1 0x1 PUSH1 0x1 PUSH1 0xA0 SHL SUB DUP4 AND PUSH1 0x4 DUP3 ADD MSTORE PUSH1 0x24 DUP2 ADD DUP3 SWAP1 MSTORE PUSH1 0x44 ADD PUSH2 0x59A JUMP JUMPDEST DUP1 DUP1 PUSH2 0x1AC9 JUMPI POP PUSH1 0x1 PUSH1 0x1 PUSH1 0xA0 SHL SUB DUP3 AND ISZERO ISZERO JUMPDEST ISZERO PUSH2 0x1B82 JUMPI PUSH1 0x0 PUSH2 0x1AD9 DUP5 PUSH2 0xC76 JUMP JUMPDEST SWAP1 POP PUSH1 0x1 PUSH1 0x1 PUSH1 0xA0 SHL SUB DUP4 AND ISZERO DUP1 ISZERO SWAP1 PUSH2 0x1B05 JUMPI POP DUP3 PUSH1 0x1 PUSH1 0x1 PUSH1 0xA0 SHL SUB AND DUP2 PUSH1 0x1 PUSH1 0x1 PUSH1 0xA0 SHL SUB AND EQ ISZERO JUMPDEST DUP1 ISZERO PUSH2 0x1B0F JUMPI POP PUSH1 0x1 JUMPDEST ISZERO PUSH2 0x1B38 JUMPI PUSH1 0x40 MLOAD PUSH4 0xA9FBF51F PUSH1 0xE0 SHL DUP2 MSTORE PUSH1 0x1 PUSH1 0x1 PUSH1 0xA0 SHL SUB DUP5 AND PUSH1 0x4 DUP3 ADD MSTORE PUSH1 0x24 ADD PUSH2 0x59A JUMP JUMPDEST DUP2 ISZERO PUSH2 0x1B80 JUMPI DUP4 DUP6 PUSH1 0x1 PUSH1 0x1 PUSH1 0xA0 SHL SUB AND DUP3 PUSH1 0x1 PUSH1 0x1 PUSH1 0xA0 SHL SUB AND PUSH32 0x8C5BE1E5EBEC7D5BD14F71427D1E84F3DD0314C0F7B2291E5B200AC8C7C3B925 PUSH1 0x40 MLOAD PUSH1 0x40 MLOAD DUP1 SWAP2 SUB SWAP1 LOG4 JUMPDEST POP JUMPDEST POP POP PUSH1 0x0 SWAP1 DUP2 MSTORE PUSH1 0x4 PUSH1 0x20 MSTORE PUSH1 0x40 SWAP1 KECCAK256 DUP1 SLOAD PUSH1 0x1 PUSH1 0x1 PUSH1 0xA0 SHL SUB NOT AND PUSH1 0x1 PUSH1 0x1 PUSH1 0xA0 SHL SUB SWAP3 SWAP1 SWAP3 AND SWAP2 SWAP1 SWAP2 OR SWAP1 SSTORE JUMP JUMPDEST PUSH1 0x40 DUP1 MLOAD DUP1 DUP3 ADD SWAP1 SWAP2 MSTORE PUSH1 0x60 DUP2 MSTORE PUSH1 0x0 PUSH1 0x20 DUP3 ADD MSTORE DUP4 MLOAD MLOAD PUSH1 0x0 PUSH2 0x1BD6 DUP3 DUP6 PUSH2 0x2A1D JUMP JUMPDEST SWAP1 POP DUP6 PUSH1 0x20 ADD MLOAD DUP2 GT ISZERO PUSH2 0x1BF3 JUMPI PUSH2 0x1BF3 DUP7 PUSH2 0x191B DUP4 PUSH1 0x2 PUSH2 0x2A65 JUMP JUMPDEST PUSH1 0x0 PUSH1 0x1 PUSH2 0x1C03 DUP7 PUSH2 0x100 PUSH2 0x2B60 JUMP JUMPDEST PUSH2 0x1C0D SWAP2 SWAP1 PUSH2 0x2A30 JUMP JUMPDEST SWAP1 POP DUP7 MLOAD DUP3 DUP2 ADD DUP8 DUP4 NOT DUP3 MLOAD AND OR DUP2 MSTORE POP DUP1 MLOAD DUP4 GT ISZERO PUSH2 0x1C2B JUMPI DUP3 DUP2 MSTORE JUMPDEST POP SWAP6 SWAP7 SWAP6 POP POP POP POP POP POP JUMP JUMPDEST PUSH1 0x40 DUP1 MLOAD DUP1 DUP3 ADD SWAP1 SWAP2 MSTORE PUSH1 0x60 DUP2 MSTORE PUSH1 0x0 PUSH1 0x20 DUP3 ADD MSTORE DUP3 MLOAD DUP3 GT ISZERO PUSH2 0x1C5A JUMPI PUSH1 0x0 DUP1 REVERT JUMPDEST DUP4 MLOAD MLOAD PUSH1 0x0 PUSH2 0x1C69 DUP5 DUP4 PUSH2 0x2A1D JUMP JUMPDEST SWAP1 POP DUP6 PUSH1 0x20 ADD MLOAD DUP2 GT ISZERO PUSH2 0x1C86 JUMPI PUSH2 0x1C86 DUP7 PUSH2 0x191B DUP4 PUSH1 0x2 PUSH2 0x2A65 JUMP JUMPDEST DUP6 MLOAD DUP1 MLOAD DUP4 DUP3 ADD PUSH1 0x20 ADD SWAP2 PUSH1 0x0 SWAP2 DUP1 DUP6 GT ISZERO PUSH2 0x1CA0 JUMPI DUP5 DUP3 MSTORE JUMPDEST POP POP POP PUSH1 0x20 DUP7 ADD JUMPDEST PUSH1 0x20 DUP7 LT PUSH2 0x1CE0 JUMPI DUP1 MLOAD DUP3 MSTORE PUSH2 0x1CBF PUSH1 0x20 DUP4 PUSH2 0x2A1D JUMP JUMPDEST SWAP2 POP PUSH2 0x1CCC PUSH1 0x20 DUP3 PUSH2 0x2A1D JUMP JUMPDEST SWAP1 POP PUSH2 0x1CD9 PUSH1 0x20 DUP8 PUSH2 0x2A30 JUMP JUMPDEST SWAP6 POP PUSH2 0x1CA8 JUMP JUMPDEST MLOAD DUP2 MLOAD PUSH1 0x0 NOT PUSH1 0x20 DUP9 SWAP1 SUB PUSH2 0x100 EXP ADD SWAP1 DUP2 AND SWAP1 NOT SWAP2 SWAP1 SWAP2 AND OR SWAP1 MSTORE POP DUP5 SWAP2 POP POP SWAP4 SWAP3 POP POP POP JUMP JUMPDEST DUP2 MLOAD PUSH2 0x1D14 DUP4 DUP4 PUSH2 0x1729 JUMP JUMPDEST POP PUSH2 0xA15 DUP4 DUP3 PUSH2 0x18B9 JUMP JUMPDEST PUSH1 0x0 DUP1 PUSH19 0x184F03E93FF9F4DAA797ED6E38ED64BF6A1F01 PUSH1 0x40 SHL DUP4 LT PUSH2 0x1D5E JUMPI PUSH19 0x184F03E93FF9F4DAA797ED6E38ED64BF6A1F01 PUSH1 0x40 SHL DUP4 DIV SWAP3 POP PUSH1 0x40 ADD JUMPDEST PUSH14 0x4EE2D6D415B85ACEF8100000000 DUP4 LT PUSH2 0x1D8A JUMPI PUSH14 0x4EE2D6D415B85ACEF8100000000 DUP4 DIV SWAP3 POP PUSH1 0x20 ADD JUMPDEST PUSH7 0x2386F26FC10000 DUP4 LT PUSH2 0x1DA8 JUMPI PUSH7 0x2386F26FC10000 DUP4 DIV SWAP3 POP PUSH1 0x10 ADD JUMPDEST PUSH4 0x5F5E100 DUP4 LT PUSH2 0x1DC0 JUMPI PUSH4 0x5F5E100 DUP4 DIV SWAP3 POP PUSH1 0x8 ADD JUMPDEST PUSH2 0x2710 DUP4 LT PUSH2 0x1DD4 JUMPI PUSH2 0x2710 DUP4 DIV SWAP3 POP PUSH1 0x4 ADD JUMPDEST PUSH1 0x64 DUP4 LT PUSH2 0x1DE6 JUMPI PUSH1 0x64 DUP4 DIV SWAP3 POP PUSH1 0x2 ADD JUMPDEST PUSH1 0xA DUP4 LT PUSH2 0x4BB JUMPI PUSH1 0x1 ADD SWAP3 SWAP2 POP POP JUMP JUMPDEST PUSH1 0x0 PUSH1 0x1 PUSH1 0x1 PUSH1 0xA0 SHL SUB DUP4 AND ISZERO DUP1 ISZERO SWAP1 PUSH2 0x13DC JUMPI POP DUP3 PUSH1 0x1 PUSH1 0x1 PUSH1 0xA0 SHL SUB AND DUP5 PUSH1 0x1 PUSH1 0x1 PUSH1 0xA0 SHL SUB AND EQ DUP1 PUSH2 0x1E2A JUMPI POP PUSH1 0x0 JUMPDEST DUP1 PUSH2 0x13DC JUMPI POP POP PUSH1 0x0 SWAP1 DUP2 MSTORE PUSH1 0x4 PUSH1 0x20 MSTORE PUSH1 0x40 SWAP1 KECCAK256 SLOAD PUSH1 0x1 PUSH1 0x1 PUSH1 0xA0 SHL SUB SWAP1 DUP2 AND SWAP2 AND EQ SWAP2 SWAP1 POP JUMP JUMPDEST PUSH1 0x40 MLOAD DUP1 PUSH1 0x40 ADD PUSH1 0x40 MSTORE DUP1 PUSH2 0x1E7B PUSH1 0x40 MLOAD DUP1 PUSH1 0x40 ADD PUSH1 0x40 MSTORE DUP1 PUSH1 0x60 DUP2 MSTORE PUSH1 0x20 ADD PUSH1 0x0 DUP2 MSTORE POP SWAP1 JUMP JUMPDEST DUP2 MSTORE PUSH1 0x20 ADD PUSH1 0x0 DUP2 MSTORE POP SWAP1 JUMP JUMPDEST PUSH1 0x1 PUSH1 0x1 PUSH1 0xE0 SHL SUB NOT DUP2 AND DUP2 EQ PUSH2 0x7CA JUMPI PUSH1 0x0 DUP1 REVERT JUMPDEST PUSH1 0x0 PUSH1 0x20 DUP3 DUP5 SUB SLT ISZERO PUSH2 0x1EB0 JUMPI PUSH1 0x0 DUP1 REVERT JUMPDEST DUP2 CALLDATALOAD PUSH2 0x1612 DUP2 PUSH2 0x1E88 JUMP JUMPDEST PUSH1 0x0 JUMPDEST DUP4 DUP2 LT ISZERO PUSH2 0x1ED6 JUMPI DUP2 DUP2 ADD MLOAD DUP4 DUP3 ADD MSTORE PUSH1 0x20 ADD PUSH2 0x1EBE JUMP JUMPDEST POP POP PUSH1 0x0 SWAP2 ADD MSTORE JUMP JUMPDEST PUSH1 0x0 DUP2 MLOAD DUP1 DUP5 MSTORE PUSH2 0x1EF7 DUP2 PUSH1 0x20 DUP7 ADD PUSH1 0x20 DUP7 ADD PUSH2 0x1EBB JUMP JUMPDEST PUSH1 0x1F ADD PUSH1 0x1F NOT AND SWAP3 SWAP1 SWAP3 ADD PUSH1 0x20 ADD SWAP3 SWAP2 POP POP JUMP JUMPDEST PUSH1 0x20 DUP2 MSTORE PUSH1 0x0 PUSH2 0x1612 PUSH1 0x20 DUP4 ADD DUP5 PUSH2 0x1EDF JUMP JUMPDEST PUSH1 0x0 PUSH1 0x20 DUP3 DUP5 SUB SLT ISZERO PUSH2 0x1F30 JUMPI PUSH1 0x0 DUP1 REVERT JUMPDEST POP CALLDATALOAD SWAP2 SWAP1 POP JUMP JUMPDEST DUP1 CALLDATALOAD PUSH1 0x1 PUSH1 0x1 PUSH1 0xA0 SHL SUB DUP2 AND DUP2 EQ PUSH2 0x1F4E JUMPI PUSH1 0x0 DUP1 REVERT JUMPDEST SWAP2 SWAP1 POP JUMP JUMPDEST PUSH1 0x0 DUP1 PUSH1 0x40 DUP4 DUP6 SUB SLT ISZERO PUSH2 0x1F66 JUMPI PUSH1 0x0 DUP1 REVERT JUMPDEST PUSH2 0x1F6F DUP4 PUSH2 0x1F37 JUMP JUMPDEST SWAP5 PUSH1 0x20 SWAP4 SWAP1 SWAP4 ADD CALLDATALOAD SWAP4 POP POP POP JUMP JUMPDEST PUSH4 0x4E487B71 PUSH1 0xE0 SHL PUSH1 0x0 MSTORE PUSH1 0x41 PUSH1 0x4 MSTORE PUSH1 0x24 PUSH1 0x0 REVERT JUMPDEST PUSH1 0x40 MLOAD PUSH1 0x1F DUP3 ADD PUSH1 0x1F NOT AND DUP2 ADD PUSH1 0x1 PUSH1 0x1 PUSH1 0x40 SHL SUB DUP2 GT DUP3 DUP3 LT OR ISZERO PUSH2 0x1FBB JUMPI PUSH2 0x1FBB PUSH2 0x1F7D JUMP JUMPDEST PUSH1 0x40 MSTORE SWAP2 SWAP1 POP JUMP JUMPDEST PUSH1 0x0 DUP3 PUSH1 0x1F DUP4 ADD SLT PUSH2 0x1FD4 JUMPI PUSH1 0x0 DUP1 REVERT JUMPDEST DUP2 CALLDATALOAD PUSH1 0x1 PUSH1 0x1 PUSH1 0x40 SHL SUB DUP2 GT ISZERO PUSH2 0x1FED JUMPI PUSH2 0x1FED PUSH2 0x1F7D JUMP JUMPDEST PUSH2 0x2000 PUSH1 0x1F DUP3 ADD PUSH1 0x1F NOT AND PUSH1 0x20 ADD PUSH2 0x1F93 JUMP JUMPDEST DUP2 DUP2 MSTORE DUP5 PUSH1 0x20 DUP4 DUP7 ADD ADD GT ISZERO PUSH2 0x2015 JUMPI PUSH1 0x0 DUP1 REVERT JUMPDEST DUP2 PUSH1 0x20 DUP6 ADD PUSH1 0x20 DUP4 ADD CALLDATACOPY PUSH1 0x0 SWAP2 DUP2 ADD PUSH1 0x20 ADD SWAP2 SWAP1 SWAP2 MSTORE SWAP4 SWAP3 POP POP POP JUMP JUMPDEST PUSH1 0x0 DUP1 PUSH1 0x0 PUSH1 0x60 DUP5 DUP7 SUB SLT ISZERO PUSH2 0x2047 JUMPI PUSH1 0x0 DUP1 REVERT JUMPDEST DUP4 CALLDATALOAD SWAP3 POP PUSH1 0x20 DUP5 ADD CALLDATALOAD PUSH1 0x1 PUSH1 0x1 PUSH1 0x40 SHL SUB DUP1 DUP3 GT ISZERO PUSH2 0x2065 JUMPI PUSH1 0x0 DUP1 REVERT JUMPDEST PUSH2 0x2071 DUP8 DUP4 DUP9 ADD PUSH2 0x1FC3 JUMP JUMPDEST SWAP4 POP PUSH1 0x40 DUP7 ADD CALLDATALOAD SWAP2 POP DUP1 DUP3 GT ISZERO PUSH2 0x2087 JUMPI PUSH1 0x0 DUP1 REVERT JUMPDEST POP PUSH2 0x2094 DUP7 DUP3 DUP8 ADD PUSH2 0x1FC3 JUMP JUMPDEST SWAP2 POP POP SWAP3 POP SWAP3 POP SWAP3 JUMP JUMPDEST PUSH1 0x0 DUP1 PUSH1 0x0 PUSH1 0x60 DUP5 DUP7 SUB SLT ISZERO PUSH2 0x20B3 JUMPI PUSH1 0x0 DUP1 REVERT JUMPDEST PUSH2 0x20BC DUP5 PUSH2 0x1F37 JUMP JUMPDEST SWAP3 POP PUSH2 0x20CA PUSH1 0x20 DUP6 ADD PUSH2 0x1F37 JUMP JUMPDEST SWAP2 POP PUSH1 0x40 DUP5 ADD CALLDATALOAD SWAP1 POP SWAP3 POP SWAP3 POP SWAP3 JUMP JUMPDEST PUSH1 0x0 PUSH1 0x20 DUP3 DUP5 SUB SLT ISZERO PUSH2 0x20EC JUMPI PUSH1 0x0 DUP1 REVERT JUMPDEST DUP2 CALLDATALOAD PUSH1 0x1 PUSH1 0x1 PUSH1 0x40 SHL SUB DUP2 GT ISZERO PUSH2 0x2102 JUMPI PUSH1 0x0 DUP1 REVERT JUMPDEST PUSH2 0x13DC DUP5 DUP3 DUP6 ADD PUSH2 0x1FC3 JUMP JUMPDEST PUSH4 0x4E487B71 PUSH1 0xE0 SHL PUSH1 0x0 MSTORE PUSH1 0x21 PUSH1 0x4 MSTORE PUSH1 0x24 PUSH1 0x0 REVERT JUMPDEST PUSH1 0x20 DUP2 ADD PUSH1 0x2 DUP4 LT PUSH2 0x2146 JUMPI PUSH4 0x4E487B71 PUSH1 0xE0 SHL PUSH1 0x0 MSTORE PUSH1 0x21 PUSH1 0x4 MSTORE PUSH1 0x24 PUSH1 0x0 REVERT JUMPDEST SWAP2 SWAP1 MSTORE SWAP1 JUMP JUMPDEST PUSH1 0x0 PUSH1 0x20 DUP3 DUP5 SUB SLT ISZERO PUSH2 0x215E JUMPI PUSH1 0x0 DUP1 REVERT JUMPDEST PUSH2 0x1612 DUP3 PUSH2 0x1F37 JUMP JUMPDEST PUSH1 0x0 DUP1 DUP4 PUSH1 0x1F DUP5 ADD SLT PUSH2 0x2179 JUMPI PUSH1 0x0 DUP1 REVERT JUMPDEST POP DUP2 CALLDATALOAD PUSH1 0x1 PUSH1 0x1 PUSH1 0x40 SHL SUB DUP2 GT ISZERO PUSH2 0x2190 JUMPI PUSH1 0x0 DUP1 REVERT JUMPDEST PUSH1 0x20 DUP4 ADD SWAP2 POP DUP4 PUSH1 0x20 DUP3 DUP6 ADD ADD GT ISZERO PUSH2 0x21A8 JUMPI PUSH1 0x0 DUP1 REVERT JUMPDEST SWAP3 POP SWAP3 SWAP1 POP JUMP JUMPDEST DUP1 CALLDATALOAD PUSH1 0x3 DUP2 LT PUSH2 0x1F4E JUMPI PUSH1 0x0 DUP1 REVERT JUMPDEST PUSH1 0x0 DUP1 DUP4 PUSH1 0x1F DUP5 ADD SLT PUSH2 0x21D0 JUMPI PUSH1 0x0 DUP1 REVERT JUMPDEST POP DUP2 CALLDATALOAD PUSH1 0x1 PUSH1 0x1 PUSH1 0x40 SHL SUB DUP2 GT ISZERO PUSH2 0x21E7 JUMPI PUSH1 0x0 DUP1 REVERT JUMPDEST PUSH1 0x20 DUP4 ADD SWAP2 POP DUP4 PUSH1 0x20 DUP3 PUSH1 0x5 SHL DUP6 ADD ADD GT ISZERO PUSH2 0x21A8 JUMPI PUSH1 0x0 DUP1 REVERT JUMPDEST DUP1 CALLDATALOAD PUSH1 0x1 PUSH1 0x1 PUSH1 0x40 SHL SUB DUP2 AND DUP2 EQ PUSH2 0x1F4E JUMPI PUSH1 0x0 DUP1 REVERT JUMPDEST PUSH1 0x0 DUP1 PUSH1 0x0 DUP1 PUSH1 0x0 DUP1 PUSH1 0x0 DUP1 PUSH1 0x0 DUP1 PUSH1 0xC0 DUP12 DUP14 SUB SLT ISZERO PUSH2 0x2238 JUMPI PUSH1 0x0 DUP1 REVERT JUMPDEST DUP11 CALLDATALOAD PUSH1 0x1 PUSH1 0x1 PUSH1 0x40 SHL SUB DUP1 DUP3 GT ISZERO PUSH2 0x224F JUMPI PUSH1 0x0 DUP1 REVERT JUMPDEST PUSH2 0x225B DUP15 DUP4 DUP16 ADD PUSH2 0x2167 JUMP JUMPDEST SWAP1 SWAP13 POP SWAP11 POP DUP11 SWAP2 POP PUSH2 0x226F PUSH1 0x20 DUP15 ADD PUSH2 0x21AF JUMP JUMPDEST SWAP10 POP PUSH1 0x40 DUP14 ADD CALLDATALOAD SWAP2 POP DUP1 DUP3 GT ISZERO PUSH2 0x2285 JUMPI PUSH1 0x0 DUP1 REVERT JUMPDEST PUSH2 0x2291 DUP15 DUP4 DUP16 ADD PUSH2 0x2167 JUMP JUMPDEST SWAP1 SWAP10 POP SWAP8 POP PUSH1 0x60 DUP14 ADD CALLDATALOAD SWAP2 POP DUP1 DUP3 GT ISZERO PUSH2 0x22AA JUMPI PUSH1 0x0 DUP1 REVERT JUMPDEST PUSH2 0x22B6 DUP15 DUP4 DUP16 ADD PUSH2 0x21BE JUMP JUMPDEST SWAP1 SWAP8 POP SWAP6 POP PUSH1 0x80 DUP14 ADD CALLDATALOAD SWAP2 POP DUP1 DUP3 GT ISZERO PUSH2 0x22CF JUMPI PUSH1 0x0 DUP1 REVERT JUMPDEST POP PUSH2 0x22DC DUP14 DUP3 DUP15 ADD PUSH2 0x21BE JUMP JUMPDEST SWAP1 SWAP5 POP SWAP3 POP PUSH2 0x22EF SWAP1 POP PUSH1 0xA0 DUP13 ADD PUSH2 0x2202 JUMP JUMPDEST SWAP1 POP SWAP3 SWAP6 SWAP9 SWAP12 SWAP2 SWAP5 SWAP8 SWAP11 POP SWAP3 SWAP6 SWAP9 POP JUMP JUMPDEST DUP1 ISZERO ISZERO DUP2 EQ PUSH2 0x7CA JUMPI PUSH1 0x0 DUP1 REVERT JUMPDEST PUSH1 0x0 DUP1 PUSH1 0x40 DUP4 DUP6 SUB SLT ISZERO PUSH2 0x2321 JUMPI PUSH1 0x0 DUP1 REVERT JUMPDEST PUSH2 0x232A DUP4 PUSH2 0x1F37 JUMP JUMPDEST SWAP2 POP PUSH1 0x20 DUP4 ADD CALLDATALOAD PUSH2 0x233A DUP2 PUSH2 0x2300 JUMP JUMPDEST DUP1 SWAP2 POP POP SWAP3 POP SWAP3 SWAP1 POP JUMP JUMPDEST PUSH1 0x0 DUP1 PUSH1 0x0 DUP1 PUSH1 0x80 DUP6 DUP8 SUB SLT ISZERO PUSH2 0x235B JUMPI PUSH1 0x0 DUP1 REVERT JUMPDEST PUSH2 0x2364 DUP6 PUSH2 0x1F37 JUMP JUMPDEST SWAP4 POP PUSH2 0x2372 PUSH1 0x20 DUP7 ADD PUSH2 0x1F37 JUMP JUMPDEST SWAP3 POP PUSH1 0x40 DUP6 ADD CALLDATALOAD SWAP2 POP PUSH1 0x60 DUP6 ADD CALLDATALOAD PUSH1 0x1 PUSH1 0x1 PUSH1 0x40 SHL SUB DUP2 GT ISZERO PUSH2 0x2394 JUMPI PUSH1 0x0 DUP1 REVERT JUMPDEST PUSH2 0x23A0 DUP8 DUP3 DUP9 ADD PUSH2 0x1FC3 JUMP JUMPDEST SWAP2 POP POP SWAP3 SWAP6 SWAP2 SWAP5 POP SWAP3 POP JUMP JUMPDEST PUSH1 0x0 DUP1 PUSH1 0x40 DUP4 DUP6 SUB SLT ISZERO PUSH2 0x23BF JUMPI PUSH1 0x0 DUP1 REVERT JUMPDEST PUSH2 0x23C8 DUP4 PUSH2 0x1F37 JUMP JUMPDEST SWAP2 POP PUSH2 0x23D6 PUSH1 0x20 DUP5 ADD PUSH2 0x1F37 JUMP JUMPDEST SWAP1 POP SWAP3 POP SWAP3 SWAP1 POP JUMP JUMPDEST PUSH1 0x0 PUSH1 0x1 PUSH1 0x1 PUSH1 0x40 SHL SUB DUP3 GT ISZERO PUSH2 0x23F8 JUMPI PUSH2 0x23F8 PUSH2 0x1F7D JUMP JUMPDEST POP PUSH1 0x5 SHL PUSH1 0x20 ADD SWAP1 JUMP JUMPDEST PUSH1 0x0 DUP3 PUSH1 0x1F DUP4 ADD SLT PUSH2 0x2413 JUMPI PUSH1 0x0 DUP1 REVERT JUMPDEST DUP2 CALLDATALOAD PUSH1 0x20 PUSH2 0x2428 PUSH2 0x2423 DUP4 PUSH2 0x23DF JUMP JUMPDEST PUSH2 0x1F93 JUMP JUMPDEST DUP3 DUP2 MSTORE PUSH1 0x5 SWAP3 SWAP1 SWAP3 SHL DUP5 ADD DUP2 ADD SWAP2 DUP2 DUP2 ADD SWAP1 DUP7 DUP5 GT ISZERO PUSH2 0x2447 JUMPI PUSH1 0x0 DUP1 REVERT JUMPDEST DUP3 DUP7 ADD JUMPDEST DUP5 DUP2 LT ISZERO PUSH2 0x2462 JUMPI DUP1 CALLDATALOAD DUP4 MSTORE SWAP2 DUP4 ADD SWAP2 DUP4 ADD PUSH2 0x244B JUMP JUMPDEST POP SWAP7 SWAP6 POP POP POP POP POP POP JUMP JUMPDEST PUSH1 0x0 DUP1 PUSH1 0x0 DUP1 PUSH1 0x0 DUP1 PUSH1 0x0 DUP1 PUSH2 0x100 DUP10 DUP12 SUB SLT ISZERO PUSH2 0x248A JUMPI PUSH1 0x0 DUP1 REVERT JUMPDEST PUSH2 0x2493 DUP10 PUSH2 0x1F37 JUMP JUMPDEST SWAP8 POP PUSH1 0x20 DUP10 ADD CALLDATALOAD SWAP7 POP PUSH1 0x40 DUP10 ADD CALLDATALOAD PUSH1 0x1 PUSH1 0x1 PUSH1 0x40 SHL SUB DUP1 DUP3 GT ISZERO PUSH2 0x24B6 JUMPI PUSH1 0x0 DUP1 REVERT JUMPDEST PUSH2 0x24C2 DUP13 DUP4 DUP14 ADD PUSH2 0x1FC3 JUMP JUMPDEST SWAP8 POP PUSH1 0x60 DUP12 ADD CALLDATALOAD SWAP2 POP DUP1 DUP3 GT ISZERO PUSH2 0x24D8 JUMPI PUSH1 0x0 DUP1 REVERT JUMPDEST PUSH2 0x24E4 DUP13 DUP4 DUP14 ADD PUSH2 0x1FC3 JUMP JUMPDEST SWAP7 POP PUSH1 0x80 DUP12 ADD CALLDATALOAD SWAP2 POP DUP1 DUP3 GT ISZERO PUSH2 0x24FA JUMPI PUSH1 0x0 DUP1 REVERT JUMPDEST PUSH2 0x2506 DUP13 DUP4 DUP14 ADD PUSH2 0x1FC3 JUMP JUMPDEST SWAP6 POP PUSH1 0xA0 DUP12 ADD CALLDATALOAD SWAP2 POP DUP1 DUP3 GT ISZERO PUSH2 0x251C JUMPI PUSH1 0x0 DUP1 REVERT JUMPDEST PUSH2 0x2528 DUP13 DUP4 DUP14 ADD PUSH2 0x2402 JUMP JUMPDEST SWAP5 POP PUSH1 0xC0 DUP12 ADD CALLDATALOAD SWAP2 POP DUP1 DUP3 GT ISZERO PUSH2 0x253E JUMPI PUSH1 0x0 DUP1 REVERT JUMPDEST POP PUSH2 0x254B DUP12 DUP3 DUP13 ADD PUSH2 0x2402 JUMP JUMPDEST SWAP3 POP POP PUSH1 0xE0 DUP10 ADD CALLDATALOAD SWAP1 POP SWAP3 SWAP6 SWAP9 POP SWAP3 SWAP6 SWAP9 SWAP1 SWAP4 SWAP7 POP JUMP JUMPDEST PUSH1 0x1 DUP2 DUP2 SHR SWAP1 DUP3 AND DUP1 PUSH2 0x2576 JUMPI PUSH1 0x7F DUP3 AND SWAP2 POP JUMPDEST PUSH1 0x20 DUP3 LT DUP2 SUB PUSH2 0x2596 JUMPI PUSH4 0x4E487B71 PUSH1 0xE0 SHL PUSH1 0x0 MSTORE PUSH1 0x22 PUSH1 0x4 MSTORE PUSH1 0x24 PUSH1 0x0 REVERT JUMPDEST POP SWAP2 SWAP1 POP JUMP JUMPDEST PUSH1 0x0 PUSH2 0x25AA PUSH2 0x2423 DUP5 PUSH2 0x23DF JUMP JUMPDEST DUP1 DUP5 DUP3 MSTORE PUSH1 0x20 DUP1 DUP4 ADD SWAP3 POP DUP6 PUSH1 0x5 SHL DUP6 ADD CALLDATASIZE DUP2 GT ISZERO PUSH2 0x25C8 JUMPI PUSH1 0x0 DUP1 REVERT JUMPDEST DUP6 JUMPDEST DUP2 DUP2 LT ISZERO PUSH2 0x2603 JUMPI DUP1 CALLDATALOAD PUSH1 0x1 PUSH1 0x1 PUSH1 0x40 SHL SUB DUP2 GT ISZERO PUSH2 0x25E9 JUMPI PUSH1 0x0 DUP1 DUP2 REVERT JUMPDEST PUSH2 0x25F5 CALLDATASIZE DUP3 DUP11 ADD PUSH2 0x1FC3 JUMP JUMPDEST DUP7 MSTORE POP SWAP4 DUP3 ADD SWAP4 DUP3 ADD PUSH2 0x25CA JUMP JUMPDEST POP SWAP2 SWAP7 SWAP6 POP POP POP POP POP POP JUMP JUMPDEST PUSH1 0x0 PUSH2 0x261D PUSH2 0x2423 DUP5 PUSH2 0x23DF JUMP JUMPDEST DUP1 DUP5 DUP3 MSTORE PUSH1 0x20 DUP1 DUP4 ADD SWAP3 POP DUP6 PUSH1 0x5 SHL DUP6 ADD CALLDATASIZE DUP2 GT ISZERO PUSH2 0x263B JUMPI PUSH1 0x0 DUP1 REVERT JUMPDEST DUP6 JUMPDEST DUP2 DUP2 LT ISZERO PUSH2 0x2603 JUMPI DUP1 CALLDATALOAD PUSH1 0x1 PUSH1 0x1 PUSH1 0x40 SHL SUB DUP2 GT ISZERO PUSH2 0x265C JUMPI PUSH1 0x0 DUP1 DUP2 REVERT JUMPDEST PUSH2 0x2668 CALLDATASIZE DUP3 DUP11 ADD PUSH2 0x1FC3 JUMP JUMPDEST DUP7 MSTORE POP SWAP4 DUP3 ADD SWAP4 DUP3 ADD PUSH2 0x263D JUMP JUMPDEST PUSH1 0x0 DUP3 MLOAD PUSH2 0x2688 DUP2 DUP5 PUSH1 0x20 DUP8 ADD PUSH2 0x1EBB JUMP JUMPDEST SWAP2 SWAP1 SWAP2 ADD SWAP3 SWAP2 POP POP JUMP JUMPDEST PUSH1 0x0 DUP2 MLOAD DUP1 DUP5 MSTORE PUSH1 0x20 DUP1 DUP6 ADD SWAP5 POP DUP1 DUP5 ADD PUSH1 0x0 JUMPDEST DUP4 DUP2 LT ISZERO PUSH2 0x26C2 JUMPI DUP2 MLOAD DUP8 MSTORE SWAP6 DUP3 ADD SWAP6 SWAP1 DUP3 ADD SWAP1 PUSH1 0x1 ADD PUSH2 0x26A6 JUMP JUMPDEST POP SWAP5 SWAP6 SWAP5 POP POP POP POP POP JUMP JUMPDEST PUSH1 0x80 DUP2 MSTORE PUSH1 0x0 PUSH2 0x26E0 PUSH1 0x80 DUP4 ADD DUP8 PUSH2 0x1EDF JUMP JUMPDEST DUP3 DUP2 SUB PUSH1 0x20 DUP5 ADD MSTORE PUSH2 0x26F2 DUP2 DUP8 PUSH2 0x2692 JUMP JUMPDEST SWAP1 POP DUP3 DUP2 SUB PUSH1 0x40 DUP5 ADD MSTORE PUSH2 0x2706 DUP2 DUP7 PUSH2 0x2692 JUMP JUMPDEST SWAP2 POP POP DUP3 PUSH1 0x60 DUP4 ADD MSTORE SWAP6 SWAP5 POP POP POP POP POP JUMP JUMPDEST PUSH1 0x0 PUSH1 0x20 DUP3 DUP5 SUB SLT ISZERO PUSH2 0x272A JUMPI PUSH1 0x0 DUP1 REVERT JUMPDEST DUP2 MLOAD PUSH2 0x1612 DUP2 PUSH2 0x2300 JUMP JUMPDEST PUSH4 0x4E487B71 PUSH1 0xE0 SHL PUSH1 0x0 MSTORE PUSH1 0x11 PUSH1 0x4 MSTORE PUSH1 0x24 PUSH1 0x0 REVERT JUMPDEST PUSH1 0x0 PUSH1 0x1 DUP3 ADD PUSH2 0x275D JUMPI PUSH2 0x275D PUSH2 0x2735 JUMP JUMPDEST POP PUSH1 0x1 ADD SWAP1 JUMP JUMPDEST PUSH1 0x1F DUP3 GT ISZERO PUSH2 0x1517 JUMPI PUSH1 0x0 DUP2 DUP2 MSTORE PUSH1 0x20 DUP2 KECCAK256 PUSH1 0x1F DUP6 ADD PUSH1 0x5 SHR DUP2 ADD PUSH1 0x20 DUP7 LT ISZERO PUSH2 0x278B JUMPI POP DUP1 JUMPDEST PUSH1 0x1F DUP6 ADD PUSH1 0x5 SHR DUP3 ADD SWAP2 POP JUMPDEST DUP2 DUP2 LT ISZERO PUSH2 0x27AA JUMPI DUP3 DUP2 SSTORE PUSH1 0x1 ADD PUSH2 0x2797 JUMP JUMPDEST POP POP POP POP POP POP JUMP JUMPDEST DUP2 MLOAD PUSH1 0x1 PUSH1 0x1 PUSH1 0x40 SHL SUB DUP2 GT ISZERO PUSH2 0x27CB JUMPI PUSH2 0x27CB PUSH2 0x1F7D JUMP JUMPDEST PUSH2 0x27DF DUP2 PUSH2 0x27D9 DUP5 SLOAD PUSH2 0x2562 JUMP JUMPDEST DUP5 PUSH2 0x2764 JUMP JUMPDEST PUSH1 0x20 DUP1 PUSH1 0x1F DUP4 GT PUSH1 0x1 DUP2 EQ PUSH2 0x2814 JUMPI PUSH1 0x0 DUP5 ISZERO PUSH2 0x27FC JUMPI POP DUP6 DUP4 ADD MLOAD JUMPDEST PUSH1 0x0 NOT PUSH1 0x3 DUP7 SWAP1 SHL SHR NOT AND PUSH1 0x1 DUP6 SWAP1 SHL OR DUP6 SSTORE PUSH2 0x27AA JUMP JUMPDEST PUSH1 0x0 DUP6 DUP2 MSTORE PUSH1 0x20 DUP2 KECCAK256 PUSH1 0x1F NOT DUP7 AND SWAP2 JUMPDEST DUP3 DUP2 LT ISZERO PUSH2 0x2843 JUMPI DUP9 DUP7 ADD MLOAD DUP3 SSTORE SWAP5 DUP5 ADD SWAP5 PUSH1 0x1 SWAP1 SWAP2 ADD SWAP1 DUP5 ADD PUSH2 0x2824 JUMP JUMPDEST POP DUP6 DUP3 LT ISZERO PUSH2 0x2861 JUMPI DUP8 DUP6 ADD MLOAD PUSH1 0x0 NOT PUSH1 0x3 DUP9 SWAP1 SHL PUSH1 0xF8 AND SHR NOT AND DUP2 SSTORE JUMPDEST POP POP POP POP POP PUSH1 0x1 SWAP1 DUP2 SHL ADD SWAP1 SSTORE POP JUMP JUMPDEST PUSH1 0x0 DUP2 SLOAD PUSH2 0x287E DUP2 PUSH2 0x2562 JUMP JUMPDEST DUP1 DUP6 MSTORE PUSH1 0x20 PUSH1 0x1 DUP4 DUP2 AND DUP1 ISZERO PUSH2 0x289B JUMPI PUSH1 0x1 DUP2 EQ PUSH2 0x28B5 JUMPI PUSH2 0x28E3 JUMP JUMPDEST PUSH1 0xFF NOT DUP6 AND DUP9 DUP5 ADD MSTORE DUP4 ISZERO ISZERO PUSH1 0x5 SHL DUP9 ADD DUP4 ADD SWAP6 POP PUSH2 0x28E3 JUMP JUMPDEST DUP7 PUSH1 0x0 MSTORE DUP3 PUSH1 0x0 KECCAK256 PUSH1 0x0 JUMPDEST DUP6 DUP2 LT ISZERO PUSH2 0x28DB JUMPI DUP2 SLOAD DUP11 DUP3 ADD DUP7 ADD MSTORE SWAP1 DUP4 ADD SWAP1 DUP5 ADD PUSH2 0x28C0 JUMP JUMPDEST DUP10 ADD DUP5 ADD SWAP7 POP POP JUMPDEST POP POP POP POP POP SWAP3 SWAP2 POP POP JUMP JUMPDEST PUSH1 0x40 DUP2 MSTORE PUSH1 0x0 PUSH2 0x2901 PUSH1 0x40 DUP4 ADD DUP6 PUSH2 0x2871 JUMP JUMPDEST DUP3 DUP2 SUB PUSH1 0x20 DUP5 ADD MSTORE PUSH2 0x2913 DUP2 DUP6 PUSH2 0x2871 JUMP JUMPDEST SWAP6 SWAP5 POP POP POP POP POP JUMP JUMPDEST PUSH4 0x4E487B71 PUSH1 0xE0 SHL PUSH1 0x0 MSTORE PUSH1 0x32 PUSH1 0x4 MSTORE PUSH1 0x24 PUSH1 0x0 REVERT JUMPDEST PUSH1 0x1 PUSH1 0x1 PUSH1 0x40 SHL SUB DUP7 AND DUP2 MSTORE PUSH1 0xA0 PUSH1 0x20 DUP3 ADD MSTORE PUSH1 0x0 PUSH2 0x2954 PUSH1 0xA0 DUP4 ADD DUP8 PUSH2 0x1EDF JUMP JUMPDEST PUSH2 0xFFFF SWAP6 SWAP1 SWAP6 AND PUSH1 0x40 DUP4 ADD MSTORE POP PUSH4 0xFFFFFFFF SWAP3 SWAP1 SWAP3 AND PUSH1 0x60 DUP4 ADD MSTORE PUSH1 0x80 SWAP1 SWAP2 ADD MSTORE SWAP3 SWAP2 POP POP JUMP JUMPDEST PUSH1 0x0 PUSH1 0x20 DUP3 DUP5 SUB SLT ISZERO PUSH2 0x298D JUMPI PUSH1 0x0 DUP1 REVERT JUMPDEST POP MLOAD SWAP2 SWAP1 POP JUMP JUMPDEST PUSH1 0x1 PUSH1 0x1 PUSH1 0xA0 SHL SUB DUP6 DUP2 AND DUP3 MSTORE DUP5 AND PUSH1 0x20 DUP3 ADD MSTORE PUSH1 0x40 DUP2 ADD DUP4 SWAP1 MSTORE PUSH1 0x80 PUSH1 0x60 DUP3 ADD DUP2 SWAP1 MSTORE PUSH1 0x0 SWAP1 PUSH2 0x29C7 SWAP1 DUP4 ADD DUP5 PUSH2 0x1EDF JUMP JUMPDEST SWAP7 SWAP6 POP POP POP POP POP POP JUMP JUMPDEST PUSH1 0x0 PUSH1 0x20 DUP3 DUP5 SUB SLT ISZERO PUSH2 0x29E3 JUMPI PUSH1 0x0 DUP1 REVERT JUMPDEST DUP2 MLOAD PUSH2 0x1612 DUP2 PUSH2 0x1E88 JUMP JUMPDEST PUSH1 0x0 DUP4 MLOAD PUSH2 0x2A00 DUP2 DUP5 PUSH1 0x20 DUP9 ADD PUSH2 0x1EBB JUMP JUMPDEST DUP4 MLOAD SWAP1 DUP4 ADD SWAP1 PUSH2 0x2A14 DUP2 DUP4 PUSH1 0x20 DUP9 ADD PUSH2 0x1EBB JUMP JUMPDEST ADD SWAP5 SWAP4 POP POP POP POP JUMP JUMPDEST DUP1 DUP3 ADD DUP1 DUP3 GT ISZERO PUSH2 0x4BB JUMPI PUSH2 0x4BB PUSH2 0x2735 JUMP JUMPDEST DUP2 DUP2 SUB DUP2 DUP2 GT ISZERO PUSH2 0x4BB JUMPI PUSH2 0x4BB PUSH2 0x2735 JUMP JUMPDEST PUSH1 0x0 DUP3 PUSH2 0x2A60 JUMPI PUSH4 0x4E487B71 PUSH1 0xE0 SHL PUSH1 0x0 MSTORE PUSH1 0x12 PUSH1 0x4 MSTORE PUSH1 0x24 PUSH1 0x0 REVERT JUMPDEST POP MOD SWAP1 JUMP JUMPDEST DUP1 DUP3 MUL DUP2 ISZERO DUP3 DUP3 DIV DUP5 EQ OR PUSH2 0x4BB JUMPI PUSH2 0x4BB PUSH2 0x2735 JUMP JUMPDEST PUSH1 0x1 DUP2 DUP2 JUMPDEST DUP1 DUP6 GT ISZERO PUSH2 0x2AB7 JUMPI DUP2 PUSH1 0x0 NOT DIV DUP3 GT ISZERO PUSH2 0x2A9D JUMPI PUSH2 0x2A9D PUSH2 0x2735 JUMP JUMPDEST DUP1 DUP6 AND ISZERO PUSH2 0x2AAA JUMPI SWAP2 DUP2 MUL SWAP2 JUMPDEST SWAP4 DUP5 SHR SWAP4 SWAP1 DUP1 MUL SWAP1 PUSH2 0x2A81 JUMP JUMPDEST POP SWAP3 POP SWAP3 SWAP1 POP JUMP JUMPDEST PUSH1 0x0 DUP3 PUSH2 0x2ACE JUMPI POP PUSH1 0x1 PUSH2 0x4BB JUMP JUMPDEST DUP2 PUSH2 0x2ADB JUMPI POP PUSH1 0x0 PUSH2 0x4BB JUMP JUMPDEST DUP2 PUSH1 0x1 DUP2 EQ PUSH2 0x2AF1 JUMPI PUSH1 0x2 DUP2 EQ PUSH2 0x2AFB JUMPI PUSH2 0x2B17 JUMP JUMPDEST PUSH1 0x1 SWAP2 POP POP PUSH2 0x4BB JUMP JUMPDEST PUSH1 0xFF DUP5 GT ISZERO PUSH2 0x2B0C JUMPI PUSH2 0x2B0C PUSH2 0x2735 JUMP JUMPDEST POP POP PUSH1 0x1 DUP3 SHL PUSH2 0x4BB JUMP JUMPDEST POP PUSH1 0x20 DUP4 LT PUSH2 0x133 DUP4 LT AND PUSH1 0x4E DUP5 LT PUSH1 0xB DUP5 LT AND OR ISZERO PUSH2 0x2B3A JUMPI POP DUP2 DUP2 EXP PUSH2 0x4BB JUMP JUMPDEST PUSH2 0x2B44 DUP4 DUP4 PUSH2 0x2A7C JUMP JUMPDEST DUP1 PUSH1 0x0 NOT DIV DUP3 GT ISZERO PUSH2 0x2B58 JUMPI PUSH2 0x2B58 PUSH2 0x2735 JUMP JUMPDEST MUL SWAP4 SWAP3 POP POP POP JUMP JUMPDEST PUSH1 0x0 PUSH2 0x1612 DUP4 DUP4 PUSH2 0x2ABF JUMP INVALID LOG2 PUSH5 0x6970667358 0x22 SLT KECCAK256 BYTE CHAINID SLT 0xB6 0xC0 INVALID 0xBE 0xC1 SWAP15 SWAP16 SSTORE GASPRICE 0xDF 0xD0 0xDB PC 0x4F 0xB6 0xFC 0xEA 0xAD PUSH0 0xDC DUP7 SWAP10 PUSH28 0x15FCB4645A4D64736F6C634300081400330000000000000000000000 "},"methodIdentifiers":{"approve(address,uint256)":"095ea7b3","balanceOf(address)":"70a08231","burn(uint256)":"42966c68","getApproved(uint256)":"081812fc","handleOracleFulfillment(bytes32,bytes,bytes)":"0ca76175","isApprovedForAll(address,address)":"e985e9c5","mint(address,uint256,string,string,string,uint256[],uint256[],uint256)":"feec04b5","mintStatus(string)":"28f21326","name()":"06fdde03","owner()":"8da5cb5b","ownerOf(uint256)":"6352211e","renounceOwnership()":"715018a6","s_lastError()":"4b0795a8","s_lastRequestId()":"b1e21749","s_lastResponse()":"3944ea3a","safeTransferFrom(address,address,uint256)":"42842e0e","safeTransferFrom(address,address,uint256,bytes)":"b88d4fde","sendRequest(string,uint8,bytes,string[],bytes[],uint64)":"8194af52","setApprovalForAll(address,bool)":"a22cb465","supportsInterface(bytes4)":"01ffc9a7","symbol()":"95d89b41","tokenURI(uint256)":"c87b56dd","transferFrom(address,address,uint256)":"23b872dd","transferOwnership(address)":"f2fde38b","verifier()":"2b7ac3f3"}}}}}