{"contracts/ringSigVerifier.sol":{"RingSigVerifier":{"abi":[{"inputs":[],"stateMutability":"nonpayable","type":"constructor"},{"inputs":[{"internalType":"string","name":"strRing","type":"string"},{"internalType":"string","name":"message","type":"string"},{"internalType":"uint256","name":"r","type":"uint256"},{"internalType":"uint256","name":"previousC","type":"uint256"},{"internalType":"uint256[2]","name":"previousPubKey","type":"uint256[2]"}],"name":"computeC","outputs":[{"internalType":"uint256","name":"","type":"uint256"}],"stateMutability":"pure","type":"function"},{"inputs":[{"internalType":"string","name":"message","type":"string"},{"internalType":"uint256[]","name":"ring","type":"uint256[]"},{"internalType":"uint256[]","name":"responses","type":"uint256[]"},{"internalType":"uint256","name":"c","type":"uint256"}],"name":"verifyRingSignature","outputs":[{"internalType":"bool","name":"","type":"bool"}],"stateMutability":"pure","type":"function"}],"evm":{"bytecode":{"linkReferences":{"contracts/secp256k1.sol":{"Secp256k1":[{"length":20,"start":836},{"length":20,"start":862},{"length":20,"start":1068}]}},"object":"608060405234801561001057600080fd5b506115c8806100206000396000f3fe608060405234801561001057600080fd5b50600436106100365760003560e01c8063c434c5ee1461003b578063eae4ae8f1461006b575b600080fd5b61005560048036038101906100509190610ce4565b61009b565b6040516100629190610dba565b60405180910390f35b61008560048036038101906100809190610e86565b61031f565b6040516100929190610f48565b60405180910390f35b6000600184511180156100bb57506000600285516100b99190610f92565b145b6100fa576040517f08c379a00000000000000000000000000000000000000000000000000000000081526004016100f190611046565b60405180910390fd5b600284516101089190611095565b83511461014a576040517f08c379a000000000000000000000000000000000000000000000000000000000815260040161014190611138565b60405180910390fd5b6000610155856105d8565b905060006101cb82888760008151811061017257610171611158565b5b60200260200101518760405180604001604052808c60008151811061019a57610199611158565b5b602002602001015181526020018c6001815181106101bb576101ba611158565b5b602002602001015181525061031f565b90506000600290505b865181101561027a576102648389886002856101f09190611095565b8151811061020157610200611158565b5b60200260200101518560405180604001604052808d888151811061022857610227611158565b5b602002602001015181526020018d6001896102439190611187565b8151811061025457610253611158565b5b602002602001015181525061031f565b91506002816102739190611187565b90506101d4565b506103118288876001895161028f91906111bb565b815181106102a05761029f611158565b5b60200260200101518460405180604001604052808c60028e516102c391906111bb565b815181106102d4576102d3611158565b5b602002602001015181526020018c60018e516102f091906111bb565b8151811061030157610300611158565b5b602002602001015181525061031f565b841492505050949350505050565b60008073__$ac9df8564564f09022d97baa7c4ddef38f$__637670aa7673__$ac9df8564564f09022d97baa7c4ddef38f$__63cef3da1a8860405180604001604052807f79be667ef9dcbbac55a06295ce870b07029bfcdb2dce28d959f2815b16f8179881526020017f483ada7726a3c4655da4fbfc0e1108a8fd17b448a68554199c47d08ffb10d4b88152506040518363ffffffff1660e01b81526004016103c99291906112a9565b606060405180830381865af41580156103e6573d6000803e3d6000fd5b505050506040513d601f19601f8201168201806040525081019061040a9190611398565b73__$ac9df8564564f09022d97baa7c4ddef38f$__63cef3da1a88886040518363ffffffff1660e01b81526004016104439291906112a9565b606060405180830381865af4158015610460573d6000803e3d6000fd5b505050506040513d601f19601f820116820180604052508101906104849190611398565b6040518363ffffffff1660e01b81526004016104a1929190611449565b606060405180830381865af41580156104be573d6000803e3d6000fd5b505050506040513d601f19601f820116820180604052508101906104e29190611398565b905061050e817ffffffffffffffffffffffffffffffffebaaedce6af48a03bbfd25e8cd036414161067e565b600087876105338460006003811061052957610528611158565b5b602002015161077e565b6105548560016003811061054a57610549611158565b5b602002015161077e565b60405160200161056794939291906114e3565b6040516020818303038152906040526040516020016105869190611521565b60405160208183030381529060405290506105cb818051906020012060001c7ffffffffffffffffffffffffffffffffebaaedce6af48a03bbfd25e8cd036414161084c565b9250505095945050505050565b6060600060405180602001604052806000815250905060005b8351811015610674578184828151811061060e5761060d611158565b5b6020026020010151856001846106249190611187565b8151811061063557610634611158565b5b602002602001015160405160200161064f93929190611559565b604051602081830303815290604052915060028161066d9190611187565b90506105f1565b5080915050919050565b60006106a28360026003811061069757610696611158565b5b60200201518361087f565b9050600082806106b5576106b4610f63565b5b828309905082806106c9576106c8610f63565b5b81856000600381106106de576106dd611158565b5b602002015109846000600381106106f8576106f7611158565b5b60200201818152505082806107105761070f610f63565b5b838061071f5761071e610f63565b5b8284098560016003811061073657610735611158565b5b602002015109846001600381106107505761074f611158565b5b60200201818152505060018460026003811061076f5761076e611158565b5b60200201818152505050505050565b60606000600161078d84610939565b01905060008167ffffffffffffffff8111156107ac576107ab610abb565b5b6040519080825280601f01601f1916602001820160405280156107de5781602001600182028036833780820191505090505b509050600082602001820190505b600115610841578080600190039150507f3031323334353637383961626364656600000000000000000000000000000000600a86061a8153600a858161083557610834610f63565b5b049450600085036107ec575b819350505050919050565b600080828461085b9190610f92565b905060008110156108755782816108729190611187565b90505b8091505092915050565b60008083148061088e57508183145b806108995750600082145b156108a357600080fd5b818311156108bf578183816108bb576108ba610f63565b5b0692505b600080600190506000849050600086905060005b6000821461090f578183816108eb576108ea610f63565b5b049050838482028603838484028603809550819650829750839850505050506108d3565b600085121561092a5784600003870395505050505050610933565b84955050505050505b92915050565b600080600090507a184f03e93ff9f4daa797ed6e38ed64bf6a1f0100000000000000008310610997577a184f03e93ff9f4daa797ed6e38ed64bf6a1f010000000000000000838161098d5761098c610f63565b5b0492506040810190505b6d04ee2d6d415b85acef810000000083106109d4576d04ee2d6d415b85acef810000000083816109ca576109c9610f63565b5b0492506020810190505b662386f26fc100008310610a0357662386f26fc1000083816109f9576109f8610f63565b5b0492506010810190505b6305f5e1008310610a2c576305f5e1008381610a2257610a21610f63565b5b0492506008810190505b6127108310610a51576127108381610a4757610a46610f63565b5b0492506004810190505b60648310610a745760648381610a6a57610a69610f63565b5b0492506002810190505b600a8310610a83576001810190505b80915050919050565b6000604051905090565b600080fd5b600080fd5b600080fd5b600080fd5b6000601f19601f8301169050919050565b7f4e487b7100000000000000000000000000000000000000000000000000000000600052604160045260246000fd5b610af382610aaa565b810181811067ffffffffffffffff82111715610b1257610b11610abb565b5b80604052505050565b6000610b25610a8c565b9050610b318282610aea565b919050565b600067ffffffffffffffff821115610b5157610b50610abb565b5b610b5a82610aaa565b9050602081019050919050565b82818337600083830152505050565b6000610b89610b8484610b36565b610b1b565b905082815260208101848484011115610ba557610ba4610aa5565b5b610bb0848285610b67565b509392505050565b600082601f830112610bcd57610bcc610aa0565b5b8135610bdd848260208601610b76565b91505092915050565b600067ffffffffffffffff821115610c0157610c00610abb565b5b602082029050602081019050919050565b600080fd5b6000819050919050565b610c2a81610c17565b8114610c3557600080fd5b50565b600081359050610c4781610c21565b92915050565b6000610c60610c5b84610be6565b610b1b565b90508083825260208201905060208402830185811115610c8357610c82610c12565b5b835b81811015610cac5780610c988882610c38565b845260208401935050602081019050610c85565b5050509392505050565b600082601f830112610ccb57610cca610aa0565b5b8135610cdb848260208601610c4d565b91505092915050565b60008060008060808587031215610cfe57610cfd610a96565b5b600085013567ffffffffffffffff811115610d1c57610d1b610a9b565b5b610d2887828801610bb8565b945050602085013567ffffffffffffffff811115610d4957610d48610a9b565b5b610d5587828801610cb6565b935050604085013567ffffffffffffffff811115610d7657610d75610a9b565b5b610d8287828801610cb6565b9250506060610d9387828801610c38565b91505092959194509250565b60008115159050919050565b610db481610d9f565b82525050565b6000602082019050610dcf6000830184610dab565b92915050565b600067ffffffffffffffff821115610df057610def610abb565b5b602082029050919050565b6000610e0e610e0984610dd5565b610b1b565b90508060208402830185811115610e2857610e27610c12565b5b835b81811015610e515780610e3d8882610c38565b845260208401935050602081019050610e2a565b5050509392505050565b600082601f830112610e7057610e6f610aa0565b5b6002610e7d848285610dfb565b91505092915050565b600080600080600060c08688031215610ea257610ea1610a96565b5b600086013567ffffffffffffffff811115610ec057610ebf610a9b565b5b610ecc88828901610bb8565b955050602086013567ffffffffffffffff811115610eed57610eec610a9b565b5b610ef988828901610bb8565b9450506040610f0a88828901610c38565b9350506060610f1b88828901610c38565b9250506080610f2c88828901610e5b565b9150509295509295909350565b610f4281610c17565b82525050565b6000602082019050610f5d6000830184610f39565b92915050565b7f4e487b7100000000000000000000000000000000000000000000000000000000600052601260045260246000fd5b6000610f9d82610c17565b9150610fa883610c17565b925082610fb857610fb7610f63565b5b828206905092915050565b600082825260208201905092915050565b7f52696e67206c656e677468206d757374206265206576656e20616e642067726560008201527f61746572207468616e2031000000000000000000000000000000000000000000602082015250565b6000611030602b83610fc3565b915061103b82610fd4565b604082019050919050565b6000602082019050818103600083015261105f81611023565b9050919050565b7f4e487b7100000000000000000000000000000000000000000000000000000000600052601160045260246000fd5b60006110a082610c17565b91506110ab83610c17565b9250826110bb576110ba610f63565b5b828204905092915050565b7f526573706f6e736573206c656e677468206d75737420626520657175616c207460008201527f6f2072696e67206c656e677468202f2032000000000000000000000000000000602082015250565b6000611122603183610fc3565b915061112d826110c6565b604082019050919050565b6000602082019050818103600083015261115181611115565b9050919050565b7f4e487b7100000000000000000000000000000000000000000000000000000000600052603260045260246000fd5b600061119282610c17565b915061119d83610c17565b92508282019050808211156111b5576111b4611066565b5b92915050565b60006111c682610c17565b91506111d183610c17565b92508282039050818111156111e9576111e8611066565b5b92915050565b6111f881610c17565b82525050565b600060029050919050565b600081905092915050565b6000819050919050565b61122781610c17565b82525050565b6000611239838361121e565b60208301905092915050565b6000602082019050919050565b61125b816111fe565b6112658184611209565b925061127082611214565b8060005b838110156112a1578151611288878261122d565b965061129383611245565b925050600181019050611274565b505050505050565b60006060820190506112be60008301856111ef565b6112cb6020830184611252565b9392505050565b600067ffffffffffffffff8211156112ed576112ec610abb565b5b602082029050919050565b60008151905061130781610c21565b92915050565b600061132061131b846112d2565b610b1b565b9050806020840283018581111561133a57611339610c12565b5b835b81811015611363578061134f88826112f8565b84526020840193505060208101905061133c565b5050509392505050565b600082601f83011261138257611381610aa0565b5b600361138f84828561130d565b91505092915050565b6000606082840312156113ae576113ad610a96565b5b60006113bc8482850161136d565b91505092915050565b600060039050919050565b600081905092915050565b6000819050919050565b6000602082019050919050565b6113fb816113c5565b61140581846113d0565b9250611410826113db565b8060005b83811015611441578151611428878261122d565b9650611433836113e5565b925050600181019050611414565b505050505050565b600060c08201905061145e60008301856113f2565b61146b60608301846113f2565b9392505050565b600081519050919050565b600081905092915050565b60005b838110156114a657808201518184015260208101905061148b565b60008484015250505050565b60006114bd82611472565b6114c7818561147d565b93506114d7818560208601611488565b80840191505092915050565b60006114ef82876114b2565b91506114fb82866114b2565b915061150782856114b2565b915061151382846114b2565b915081905095945050505050565b600061152d82846114b2565b915081905092915050565b6000819050919050565b61155361154e82610c17565b611538565b82525050565b600061156582866114b2565b91506115718285611542565b6020820191506115818284611542565b60208201915081905094935050505056fea2646970667358221220191f1bcc9137996b4bf1433fec3c609c72e9f469606245dfb1e03ba13efcb64364736f6c63430008140033","opcodes":"PUSH1 0x80 PUSH1 0x40 MSTORE CALLVALUE DUP1 ISZERO PUSH2 0x10 JUMPI PUSH1 0x0 DUP1 REVERT JUMPDEST POP PUSH2 0x15C8 DUP1 PUSH2 0x20 PUSH1 0x0 CODECOPY PUSH1 0x0 RETURN INVALID PUSH1 0x80 PUSH1 0x40 MSTORE CALLVALUE DUP1 ISZERO PUSH2 0x10 JUMPI PUSH1 0x0 DUP1 REVERT JUMPDEST POP PUSH1 0x4 CALLDATASIZE LT PUSH2 0x36 JUMPI PUSH1 0x0 CALLDATALOAD PUSH1 0xE0 SHR DUP1 PUSH4 0xC434C5EE EQ PUSH2 0x3B JUMPI DUP1 PUSH4 0xEAE4AE8F EQ PUSH2 0x6B JUMPI JUMPDEST PUSH1 0x0 DUP1 REVERT JUMPDEST PUSH2 0x55 PUSH1 0x4 DUP1 CALLDATASIZE SUB DUP2 ADD SWAP1 PUSH2 0x50 SWAP2 SWAP1 PUSH2 0xCE4 JUMP JUMPDEST PUSH2 0x9B JUMP JUMPDEST PUSH1 0x40 MLOAD PUSH2 0x62 SWAP2 SWAP1 PUSH2 0xDBA JUMP JUMPDEST PUSH1 0x40 MLOAD DUP1 SWAP2 SUB SWAP1 RETURN JUMPDEST PUSH2 0x85 PUSH1 0x4 DUP1 CALLDATASIZE SUB DUP2 ADD SWAP1 PUSH2 0x80 SWAP2 SWAP1 PUSH2 0xE86 JUMP JUMPDEST PUSH2 0x31F JUMP JUMPDEST PUSH1 0x40 MLOAD PUSH2 0x92 SWAP2 SWAP1 PUSH2 0xF48 JUMP JUMPDEST PUSH1 0x40 MLOAD DUP1 SWAP2 SUB SWAP1 RETURN JUMPDEST PUSH1 0x0 PUSH1 0x1 DUP5 MLOAD GT DUP1 ISZERO PUSH2 0xBB JUMPI POP PUSH1 0x0 PUSH1 0x2 DUP6 MLOAD PUSH2 0xB9 SWAP2 SWAP1 PUSH2 0xF92 JUMP JUMPDEST EQ JUMPDEST PUSH2 0xFA JUMPI PUSH1 0x40 MLOAD PUSH32 0x8C379A000000000000000000000000000000000000000000000000000000000 DUP2 MSTORE PUSH1 0x4 ADD PUSH2 0xF1 SWAP1 PUSH2 0x1046 JUMP JUMPDEST PUSH1 0x40 MLOAD DUP1 SWAP2 SUB SWAP1 REVERT JUMPDEST PUSH1 0x2 DUP5 MLOAD PUSH2 0x108 SWAP2 SWAP1 PUSH2 0x1095 JUMP JUMPDEST DUP4 MLOAD EQ PUSH2 0x14A JUMPI PUSH1 0x40 MLOAD PUSH32 0x8C379A000000000000000000000000000000000000000000000000000000000 DUP2 MSTORE PUSH1 0x4 ADD PUSH2 0x141 SWAP1 PUSH2 0x1138 JUMP JUMPDEST PUSH1 0x40 MLOAD DUP1 SWAP2 SUB SWAP1 REVERT JUMPDEST PUSH1 0x0 PUSH2 0x155 DUP6 PUSH2 0x5D8 JUMP JUMPDEST SWAP1 POP PUSH1 0x0 PUSH2 0x1CB DUP3 DUP9 DUP8 PUSH1 0x0 DUP2 MLOAD DUP2 LT PUSH2 0x172 JUMPI PUSH2 0x171 PUSH2 0x1158 JUMP JUMPDEST JUMPDEST PUSH1 0x20 MUL PUSH1 0x20 ADD ADD MLOAD DUP8 PUSH1 0x40 MLOAD DUP1 PUSH1 0x40 ADD PUSH1 0x40 MSTORE DUP1 DUP13 PUSH1 0x0 DUP2 MLOAD DUP2 LT PUSH2 0x19A JUMPI PUSH2 0x199 PUSH2 0x1158 JUMP JUMPDEST JUMPDEST PUSH1 0x20 MUL PUSH1 0x20 ADD ADD MLOAD DUP2 MSTORE PUSH1 0x20 ADD DUP13 PUSH1 0x1 DUP2 MLOAD DUP2 LT PUSH2 0x1BB JUMPI PUSH2 0x1BA PUSH2 0x1158 JUMP JUMPDEST JUMPDEST PUSH1 0x20 MUL PUSH1 0x20 ADD ADD MLOAD DUP2 MSTORE POP PUSH2 0x31F JUMP JUMPDEST SWAP1 POP PUSH1 0x0 PUSH1 0x2 SWAP1 POP JUMPDEST DUP7 MLOAD DUP2 LT ISZERO PUSH2 0x27A JUMPI PUSH2 0x264 DUP4 DUP10 DUP9 PUSH1 0x2 DUP6 PUSH2 0x1F0 SWAP2 SWAP1 PUSH2 0x1095 JUMP JUMPDEST DUP2 MLOAD DUP2 LT PUSH2 0x201 JUMPI PUSH2 0x200 PUSH2 0x1158 JUMP JUMPDEST JUMPDEST PUSH1 0x20 MUL PUSH1 0x20 ADD ADD MLOAD DUP6 PUSH1 0x40 MLOAD DUP1 PUSH1 0x40 ADD PUSH1 0x40 MSTORE DUP1 DUP14 DUP9 DUP2 MLOAD DUP2 LT PUSH2 0x228 JUMPI PUSH2 0x227 PUSH2 0x1158 JUMP JUMPDEST JUMPDEST PUSH1 0x20 MUL PUSH1 0x20 ADD ADD MLOAD DUP2 MSTORE PUSH1 0x20 ADD DUP14 PUSH1 0x1 DUP10 PUSH2 0x243 SWAP2 SWAP1 PUSH2 0x1187 JUMP JUMPDEST DUP2 MLOAD DUP2 LT PUSH2 0x254 JUMPI PUSH2 0x253 PUSH2 0x1158 JUMP JUMPDEST JUMPDEST PUSH1 0x20 MUL PUSH1 0x20 ADD ADD MLOAD DUP2 MSTORE POP PUSH2 0x31F JUMP JUMPDEST SWAP2 POP PUSH1 0x2 DUP2 PUSH2 0x273 SWAP2 SWAP1 PUSH2 0x1187 JUMP JUMPDEST SWAP1 POP PUSH2 0x1D4 JUMP JUMPDEST POP PUSH2 0x311 DUP3 DUP9 DUP8 PUSH1 0x1 DUP10 MLOAD PUSH2 0x28F SWAP2 SWAP1 PUSH2 0x11BB JUMP JUMPDEST DUP2 MLOAD DUP2 LT PUSH2 0x2A0 JUMPI PUSH2 0x29F PUSH2 0x1158 JUMP JUMPDEST JUMPDEST PUSH1 0x20 MUL PUSH1 0x20 ADD ADD MLOAD DUP5 PUSH1 0x40 MLOAD DUP1 PUSH1 0x40 ADD PUSH1 0x40 MSTORE DUP1 DUP13 PUSH1 0x2 DUP15 MLOAD PUSH2 0x2C3 SWAP2 SWAP1 PUSH2 0x11BB JUMP JUMPDEST DUP2 MLOAD DUP2 LT PUSH2 0x2D4 JUMPI PUSH2 0x2D3 PUSH2 0x1158 JUMP JUMPDEST JUMPDEST PUSH1 0x20 MUL PUSH1 0x20 ADD ADD MLOAD DUP2 MSTORE PUSH1 0x20 ADD DUP13 PUSH1 0x1 DUP15 MLOAD PUSH2 0x2F0 SWAP2 SWAP1 PUSH2 0x11BB JUMP JUMPDEST DUP2 MLOAD DUP2 LT PUSH2 0x301 JUMPI PUSH2 0x300 PUSH2 0x1158 JUMP JUMPDEST JUMPDEST PUSH1 0x20 MUL PUSH1 0x20 ADD ADD MLOAD DUP2 MSTORE POP PUSH2 0x31F JUMP JUMPDEST DUP5 EQ SWAP3 POP POP POP SWAP5 SWAP4 POP POP POP POP JUMP JUMPDEST PUSH1 0x0 DUP1 PUSH20 0x0 PUSH4 0x7670AA76 PUSH20 0x0 PUSH4 0xCEF3DA1A DUP9 PUSH1 0x40 MLOAD DUP1 PUSH1 0x40 ADD PUSH1 0x40 MSTORE DUP1 PUSH32 0x79BE667EF9DCBBAC55A06295CE870B07029BFCDB2DCE28D959F2815B16F81798 DUP2 MSTORE PUSH1 0x20 ADD PUSH32 0x483ADA7726A3C4655DA4FBFC0E1108A8FD17B448A68554199C47D08FFB10D4B8 DUP2 MSTORE POP PUSH1 0x40 MLOAD DUP4 PUSH4 0xFFFFFFFF AND PUSH1 0xE0 SHL DUP2 MSTORE PUSH1 0x4 ADD PUSH2 0x3C9 SWAP3 SWAP2 SWAP1 PUSH2 0x12A9 JUMP JUMPDEST PUSH1 0x60 PUSH1 0x40 MLOAD DUP1 DUP4 SUB DUP2 DUP7 GAS DELEGATECALL ISZERO DUP1 ISZERO PUSH2 0x3E6 JUMPI RETURNDATASIZE PUSH1 0x0 DUP1 RETURNDATACOPY RETURNDATASIZE PUSH1 0x0 REVERT JUMPDEST POP POP POP POP PUSH1 0x40 MLOAD RETURNDATASIZE PUSH1 0x1F NOT PUSH1 0x1F DUP3 ADD AND DUP3 ADD DUP1 PUSH1 0x40 MSTORE POP DUP2 ADD SWAP1 PUSH2 0x40A SWAP2 SWAP1 PUSH2 0x1398 JUMP JUMPDEST PUSH20 0x0 PUSH4 0xCEF3DA1A DUP9 DUP9 PUSH1 0x40 MLOAD DUP4 PUSH4 0xFFFFFFFF AND PUSH1 0xE0 SHL DUP2 MSTORE PUSH1 0x4 ADD PUSH2 0x443 SWAP3 SWAP2 SWAP1 PUSH2 0x12A9 JUMP JUMPDEST PUSH1 0x60 PUSH1 0x40 MLOAD DUP1 DUP4 SUB DUP2 DUP7 GAS DELEGATECALL ISZERO DUP1 ISZERO PUSH2 0x460 JUMPI RETURNDATASIZE PUSH1 0x0 DUP1 RETURNDATACOPY RETURNDATASIZE PUSH1 0x0 REVERT JUMPDEST POP POP POP POP PUSH1 0x40 MLOAD RETURNDATASIZE PUSH1 0x1F NOT PUSH1 0x1F DUP3 ADD AND DUP3 ADD DUP1 PUSH1 0x40 MSTORE POP DUP2 ADD SWAP1 PUSH2 0x484 SWAP2 SWAP1 PUSH2 0x1398 JUMP JUMPDEST PUSH1 0x40 MLOAD DUP4 PUSH4 0xFFFFFFFF AND PUSH1 0xE0 SHL DUP2 MSTORE PUSH1 0x4 ADD PUSH2 0x4A1 SWAP3 SWAP2 SWAP1 PUSH2 0x1449 JUMP JUMPDEST PUSH1 0x60 PUSH1 0x40 MLOAD DUP1 DUP4 SUB DUP2 DUP7 GAS DELEGATECALL ISZERO DUP1 ISZERO PUSH2 0x4BE JUMPI RETURNDATASIZE PUSH1 0x0 DUP1 RETURNDATACOPY RETURNDATASIZE PUSH1 0x0 REVERT JUMPDEST POP POP POP POP PUSH1 0x40 MLOAD RETURNDATASIZE PUSH1 0x1F NOT PUSH1 0x1F DUP3 ADD AND DUP3 ADD DUP1 PUSH1 0x40 MSTORE POP DUP2 ADD SWAP1 PUSH2 0x4E2 SWAP2 SWAP1 PUSH2 0x1398 JUMP JUMPDEST SWAP1 POP PUSH2 0x50E DUP2 PUSH32 0xFFFFFFFFFFFFFFFFFFFFFFFFFFFFFFFEBAAEDCE6AF48A03BBFD25E8CD0364141 PUSH2 0x67E JUMP JUMPDEST PUSH1 0x0 DUP8 DUP8 PUSH2 0x533 DUP5 PUSH1 0x0 PUSH1 0x3 DUP2 LT PUSH2 0x529 JUMPI PUSH2 0x528 PUSH2 0x1158 JUMP JUMPDEST JUMPDEST PUSH1 0x20 MUL ADD MLOAD PUSH2 0x77E JUMP JUMPDEST PUSH2 0x554 DUP6 PUSH1 0x1 PUSH1 0x3 DUP2 LT PUSH2 0x54A JUMPI PUSH2 0x549 PUSH2 0x1158 JUMP JUMPDEST JUMPDEST PUSH1 0x20 MUL ADD MLOAD PUSH2 0x77E JUMP JUMPDEST PUSH1 0x40 MLOAD PUSH1 0x20 ADD PUSH2 0x567 SWAP5 SWAP4 SWAP3 SWAP2 SWAP1 PUSH2 0x14E3 JUMP JUMPDEST PUSH1 0x40 MLOAD PUSH1 0x20 DUP2 DUP4 SUB SUB DUP2 MSTORE SWAP1 PUSH1 0x40 MSTORE PUSH1 0x40 MLOAD PUSH1 0x20 ADD PUSH2 0x586 SWAP2 SWAP1 PUSH2 0x1521 JUMP JUMPDEST PUSH1 0x40 MLOAD PUSH1 0x20 DUP2 DUP4 SUB SUB DUP2 MSTORE SWAP1 PUSH1 0x40 MSTORE SWAP1 POP PUSH2 0x5CB DUP2 DUP1 MLOAD SWAP1 PUSH1 0x20 ADD KECCAK256 PUSH1 0x0 SHR PUSH32 0xFFFFFFFFFFFFFFFFFFFFFFFFFFFFFFFEBAAEDCE6AF48A03BBFD25E8CD0364141 PUSH2 0x84C JUMP JUMPDEST SWAP3 POP POP POP SWAP6 SWAP5 POP POP POP POP POP JUMP JUMPDEST PUSH1 0x60 PUSH1 0x0 PUSH1 0x40 MLOAD DUP1 PUSH1 0x20 ADD PUSH1 0x40 MSTORE DUP1 PUSH1 0x0 DUP2 MSTORE POP SWAP1 POP PUSH1 0x0 JUMPDEST DUP4 MLOAD DUP2 LT ISZERO PUSH2 0x674 JUMPI DUP2 DUP5 DUP3 DUP2 MLOAD DUP2 LT PUSH2 0x60E JUMPI PUSH2 0x60D PUSH2 0x1158 JUMP JUMPDEST JUMPDEST PUSH1 0x20 MUL PUSH1 0x20 ADD ADD MLOAD DUP6 PUSH1 0x1 DUP5 PUSH2 0x624 SWAP2 SWAP1 PUSH2 0x1187 JUMP JUMPDEST DUP2 MLOAD DUP2 LT PUSH2 0x635 JUMPI PUSH2 0x634 PUSH2 0x1158 JUMP JUMPDEST JUMPDEST PUSH1 0x20 MUL PUSH1 0x20 ADD ADD MLOAD PUSH1 0x40 MLOAD PUSH1 0x20 ADD PUSH2 0x64F SWAP4 SWAP3 SWAP2 SWAP1 PUSH2 0x1559 JUMP JUMPDEST PUSH1 0x40 MLOAD PUSH1 0x20 DUP2 DUP4 SUB SUB DUP2 MSTORE SWAP1 PUSH1 0x40 MSTORE SWAP2 POP PUSH1 0x2 DUP2 PUSH2 0x66D SWAP2 SWAP1 PUSH2 0x1187 JUMP JUMPDEST SWAP1 POP PUSH2 0x5F1 JUMP JUMPDEST POP DUP1 SWAP2 POP POP SWAP2 SWAP1 POP JUMP JUMPDEST PUSH1 0x0 PUSH2 0x6A2 DUP4 PUSH1 0x2 PUSH1 0x3 DUP2 LT PUSH2 0x697 JUMPI PUSH2 0x696 PUSH2 0x1158 JUMP JUMPDEST JUMPDEST PUSH1 0x20 MUL ADD MLOAD DUP4 PUSH2 0x87F JUMP JUMPDEST SWAP1 POP PUSH1 0x0 DUP3 DUP1 PUSH2 0x6B5 JUMPI PUSH2 0x6B4 PUSH2 0xF63 JUMP JUMPDEST JUMPDEST DUP3 DUP4 MULMOD SWAP1 POP DUP3 DUP1 PUSH2 0x6C9 JUMPI PUSH2 0x6C8 PUSH2 0xF63 JUMP JUMPDEST JUMPDEST DUP2 DUP6 PUSH1 0x0 PUSH1 0x3 DUP2 LT PUSH2 0x6DE JUMPI PUSH2 0x6DD PUSH2 0x1158 JUMP JUMPDEST JUMPDEST PUSH1 0x20 MUL ADD MLOAD MULMOD DUP5 PUSH1 0x0 PUSH1 0x3 DUP2 LT PUSH2 0x6F8 JUMPI PUSH2 0x6F7 PUSH2 0x1158 JUMP JUMPDEST JUMPDEST PUSH1 0x20 MUL ADD DUP2 DUP2 MSTORE POP POP DUP3 DUP1 PUSH2 0x710 JUMPI PUSH2 0x70F PUSH2 0xF63 JUMP JUMPDEST JUMPDEST DUP4 DUP1 PUSH2 0x71F JUMPI PUSH2 0x71E PUSH2 0xF63 JUMP JUMPDEST JUMPDEST DUP3 DUP5 MULMOD DUP6 PUSH1 0x1 PUSH1 0x3 DUP2 LT PUSH2 0x736 JUMPI PUSH2 0x735 PUSH2 0x1158 JUMP JUMPDEST JUMPDEST PUSH1 0x20 MUL ADD MLOAD MULMOD DUP5 PUSH1 0x1 PUSH1 0x3 DUP2 LT PUSH2 0x750 JUMPI PUSH2 0x74F PUSH2 0x1158 JUMP JUMPDEST JUMPDEST PUSH1 0x20 MUL ADD DUP2 DUP2 MSTORE POP POP PUSH1 0x1 DUP5 PUSH1 0x2 PUSH1 0x3 DUP2 LT PUSH2 0x76F JUMPI PUSH2 0x76E PUSH2 0x1158 JUMP JUMPDEST JUMPDEST PUSH1 0x20 MUL ADD DUP2 DUP2 MSTORE POP POP POP POP POP POP JUMP JUMPDEST PUSH1 0x60 PUSH1 0x0 PUSH1 0x1 PUSH2 0x78D DUP5 PUSH2 0x939 JUMP JUMPDEST ADD SWAP1 POP PUSH1 0x0 DUP2 PUSH8 0xFFFFFFFFFFFFFFFF DUP2 GT ISZERO PUSH2 0x7AC JUMPI PUSH2 0x7AB PUSH2 0xABB JUMP JUMPDEST JUMPDEST PUSH1 0x40 MLOAD SWAP1 DUP1 DUP3 MSTORE DUP1 PUSH1 0x1F ADD PUSH1 0x1F NOT AND PUSH1 0x20 ADD DUP3 ADD PUSH1 0x40 MSTORE DUP1 ISZERO PUSH2 0x7DE JUMPI DUP2 PUSH1 0x20 ADD PUSH1 0x1 DUP3 MUL DUP1 CALLDATASIZE DUP4 CALLDATACOPY DUP1 DUP3 ADD SWAP2 POP POP SWAP1 POP JUMPDEST POP SWAP1 POP PUSH1 0x0 DUP3 PUSH1 0x20 ADD DUP3 ADD SWAP1 POP JUMPDEST PUSH1 0x1 ISZERO PUSH2 0x841 JUMPI DUP1 DUP1 PUSH1 0x1 SWAP1 SUB SWAP2 POP POP PUSH32 0x3031323334353637383961626364656600000000000000000000000000000000 PUSH1 0xA DUP7 MOD BYTE DUP2 MSTORE8 PUSH1 0xA DUP6 DUP2 PUSH2 0x835 JUMPI PUSH2 0x834 PUSH2 0xF63 JUMP JUMPDEST JUMPDEST DIV SWAP5 POP PUSH1 0x0 DUP6 SUB PUSH2 0x7EC JUMPI JUMPDEST DUP2 SWAP4 POP POP POP POP SWAP2 SWAP1 POP JUMP JUMPDEST PUSH1 0x0 DUP1 DUP3 DUP5 PUSH2 0x85B SWAP2 SWAP1 PUSH2 0xF92 JUMP JUMPDEST SWAP1 POP PUSH1 0x0 DUP2 LT ISZERO PUSH2 0x875 JUMPI DUP3 DUP2 PUSH2 0x872 SWAP2 SWAP1 PUSH2 0x1187 JUMP JUMPDEST SWAP1 POP JUMPDEST DUP1 SWAP2 POP POP SWAP3 SWAP2 POP POP JUMP JUMPDEST PUSH1 0x0 DUP1 DUP4 EQ DUP1 PUSH2 0x88E JUMPI POP DUP2 DUP4 EQ JUMPDEST DUP1 PUSH2 0x899 JUMPI POP PUSH1 0x0 DUP3 EQ JUMPDEST ISZERO PUSH2 0x8A3 JUMPI PUSH1 0x0 DUP1 REVERT JUMPDEST DUP2 DUP4 GT ISZERO PUSH2 0x8BF JUMPI DUP2 DUP4 DUP2 PUSH2 0x8BB JUMPI PUSH2 0x8BA PUSH2 0xF63 JUMP JUMPDEST JUMPDEST MOD SWAP3 POP JUMPDEST PUSH1 0x0 DUP1 PUSH1 0x1 SWAP1 POP PUSH1 0x0 DUP5 SWAP1 POP PUSH1 0x0 DUP7 SWAP1 POP PUSH1 0x0 JUMPDEST PUSH1 0x0 DUP3 EQ PUSH2 0x90F JUMPI DUP2 DUP4 DUP2 PUSH2 0x8EB JUMPI PUSH2 0x8EA PUSH2 0xF63 JUMP JUMPDEST JUMPDEST DIV SWAP1 POP DUP4 DUP5 DUP3 MUL DUP7 SUB DUP4 DUP5 DUP5 MUL DUP7 SUB DUP1 SWAP6 POP DUP2 SWAP7 POP DUP3 SWAP8 POP DUP4 SWAP9 POP POP POP POP POP PUSH2 0x8D3 JUMP JUMPDEST PUSH1 0x0 DUP6 SLT ISZERO PUSH2 0x92A JUMPI DUP5 PUSH1 0x0 SUB DUP8 SUB SWAP6 POP POP POP POP POP POP PUSH2 0x933 JUMP JUMPDEST DUP5 SWAP6 POP POP POP POP POP POP JUMPDEST SWAP3 SWAP2 POP POP JUMP JUMPDEST PUSH1 0x0 DUP1 PUSH1 0x0 SWAP1 POP PUSH27 0x184F03E93FF9F4DAA797ED6E38ED64BF6A1F010000000000000000 DUP4 LT PUSH2 0x997 JUMPI PUSH27 0x184F03E93FF9F4DAA797ED6E38ED64BF6A1F010000000000000000 DUP4 DUP2 PUSH2 0x98D JUMPI PUSH2 0x98C PUSH2 0xF63 JUMP JUMPDEST JUMPDEST DIV SWAP3 POP PUSH1 0x40 DUP2 ADD SWAP1 POP JUMPDEST PUSH14 0x4EE2D6D415B85ACEF8100000000 DUP4 LT PUSH2 0x9D4 JUMPI PUSH14 0x4EE2D6D415B85ACEF8100000000 DUP4 DUP2 PUSH2 0x9CA JUMPI PUSH2 0x9C9 PUSH2 0xF63 JUMP JUMPDEST JUMPDEST DIV SWAP3 POP PUSH1 0x20 DUP2 ADD SWAP1 POP JUMPDEST PUSH7 0x2386F26FC10000 DUP4 LT PUSH2 0xA03 JUMPI PUSH7 0x2386F26FC10000 DUP4 DUP2 PUSH2 0x9F9 JUMPI PUSH2 0x9F8 PUSH2 0xF63 JUMP JUMPDEST JUMPDEST DIV SWAP3 POP PUSH1 0x10 DUP2 ADD SWAP1 POP JUMPDEST PUSH4 0x5F5E100 DUP4 LT PUSH2 0xA2C JUMPI PUSH4 0x5F5E100 DUP4 DUP2 PUSH2 0xA22 JUMPI PUSH2 0xA21 PUSH2 0xF63 JUMP JUMPDEST JUMPDEST DIV SWAP3 POP PUSH1 0x8 DUP2 ADD SWAP1 POP JUMPDEST PUSH2 0x2710 DUP4 LT PUSH2 0xA51 JUMPI PUSH2 0x2710 DUP4 DUP2 PUSH2 0xA47 JUMPI PUSH2 0xA46 PUSH2 0xF63 JUMP JUMPDEST JUMPDEST DIV SWAP3 POP PUSH1 0x4 DUP2 ADD SWAP1 POP JUMPDEST PUSH1 0x64 DUP4 LT PUSH2 0xA74 JUMPI PUSH1 0x64 DUP4 DUP2 PUSH2 0xA6A JUMPI PUSH2 0xA69 PUSH2 0xF63 JUMP JUMPDEST JUMPDEST DIV SWAP3 POP PUSH1 0x2 DUP2 ADD SWAP1 POP JUMPDEST PUSH1 0xA DUP4 LT PUSH2 0xA83 JUMPI PUSH1 0x1 DUP2 ADD SWAP1 POP JUMPDEST DUP1 SWAP2 POP POP SWAP2 SWAP1 POP JUMP JUMPDEST PUSH1 0x0 PUSH1 0x40 MLOAD SWAP1 POP SWAP1 JUMP JUMPDEST PUSH1 0x0 DUP1 REVERT JUMPDEST PUSH1 0x0 DUP1 REVERT JUMPDEST PUSH1 0x0 DUP1 REVERT JUMPDEST PUSH1 0x0 DUP1 REVERT JUMPDEST PUSH1 0x0 PUSH1 0x1F NOT PUSH1 0x1F DUP4 ADD AND SWAP1 POP SWAP2 SWAP1 POP JUMP JUMPDEST PUSH32 0x4E487B7100000000000000000000000000000000000000000000000000000000 PUSH1 0x0 MSTORE PUSH1 0x41 PUSH1 0x4 MSTORE PUSH1 0x24 PUSH1 0x0 REVERT JUMPDEST PUSH2 0xAF3 DUP3 PUSH2 0xAAA JUMP JUMPDEST DUP2 ADD DUP2 DUP2 LT PUSH8 0xFFFFFFFFFFFFFFFF DUP3 GT OR ISZERO PUSH2 0xB12 JUMPI PUSH2 0xB11 PUSH2 0xABB JUMP JUMPDEST JUMPDEST DUP1 PUSH1 0x40 MSTORE POP POP POP JUMP JUMPDEST PUSH1 0x0 PUSH2 0xB25 PUSH2 0xA8C JUMP JUMPDEST SWAP1 POP PUSH2 0xB31 DUP3 DUP3 PUSH2 0xAEA JUMP JUMPDEST SWAP2 SWAP1 POP JUMP JUMPDEST PUSH1 0x0 PUSH8 0xFFFFFFFFFFFFFFFF DUP3 GT ISZERO PUSH2 0xB51 JUMPI PUSH2 0xB50 PUSH2 0xABB JUMP JUMPDEST JUMPDEST PUSH2 0xB5A DUP3 PUSH2 0xAAA JUMP JUMPDEST SWAP1 POP PUSH1 0x20 DUP2 ADD SWAP1 POP SWAP2 SWAP1 POP JUMP JUMPDEST DUP3 DUP2 DUP4 CALLDATACOPY PUSH1 0x0 DUP4 DUP4 ADD MSTORE POP POP POP JUMP JUMPDEST PUSH1 0x0 PUSH2 0xB89 PUSH2 0xB84 DUP5 PUSH2 0xB36 JUMP JUMPDEST PUSH2 0xB1B JUMP JUMPDEST SWAP1 POP DUP3 DUP2 MSTORE PUSH1 0x20 DUP2 ADD DUP5 DUP5 DUP5 ADD GT ISZERO PUSH2 0xBA5 JUMPI PUSH2 0xBA4 PUSH2 0xAA5 JUMP JUMPDEST JUMPDEST PUSH2 0xBB0 DUP5 DUP3 DUP6 PUSH2 0xB67 JUMP JUMPDEST POP SWAP4 SWAP3 POP POP POP JUMP JUMPDEST PUSH1 0x0 DUP3 PUSH1 0x1F DUP4 ADD SLT PUSH2 0xBCD JUMPI PUSH2 0xBCC PUSH2 0xAA0 JUMP JUMPDEST JUMPDEST DUP2 CALLDATALOAD PUSH2 0xBDD DUP5 DUP3 PUSH1 0x20 DUP7 ADD PUSH2 0xB76 JUMP JUMPDEST SWAP2 POP POP SWAP3 SWAP2 POP POP JUMP JUMPDEST PUSH1 0x0 PUSH8 0xFFFFFFFFFFFFFFFF DUP3 GT ISZERO PUSH2 0xC01 JUMPI PUSH2 0xC00 PUSH2 0xABB JUMP JUMPDEST JUMPDEST PUSH1 0x20 DUP3 MUL SWAP1 POP PUSH1 0x20 DUP2 ADD SWAP1 POP SWAP2 SWAP1 POP JUMP JUMPDEST PUSH1 0x0 DUP1 REVERT JUMPDEST PUSH1 0x0 DUP2 SWAP1 POP SWAP2 SWAP1 POP JUMP JUMPDEST PUSH2 0xC2A DUP2 PUSH2 0xC17 JUMP JUMPDEST DUP2 EQ PUSH2 0xC35 JUMPI PUSH1 0x0 DUP1 REVERT JUMPDEST POP JUMP JUMPDEST PUSH1 0x0 DUP2 CALLDATALOAD SWAP1 POP PUSH2 0xC47 DUP2 PUSH2 0xC21 JUMP JUMPDEST SWAP3 SWAP2 POP POP JUMP JUMPDEST PUSH1 0x0 PUSH2 0xC60 PUSH2 0xC5B DUP5 PUSH2 0xBE6 JUMP JUMPDEST PUSH2 0xB1B JUMP JUMPDEST SWAP1 POP DUP1 DUP4 DUP3 MSTORE PUSH1 0x20 DUP3 ADD SWAP1 POP PUSH1 0x20 DUP5 MUL DUP4 ADD DUP6 DUP2 GT ISZERO PUSH2 0xC83 JUMPI PUSH2 0xC82 PUSH2 0xC12 JUMP JUMPDEST JUMPDEST DUP4 JUMPDEST DUP2 DUP2 LT ISZERO PUSH2 0xCAC JUMPI DUP1 PUSH2 0xC98 DUP9 DUP3 PUSH2 0xC38 JUMP JUMPDEST DUP5 MSTORE PUSH1 0x20 DUP5 ADD SWAP4 POP POP PUSH1 0x20 DUP2 ADD SWAP1 POP PUSH2 0xC85 JUMP JUMPDEST POP POP POP SWAP4 SWAP3 POP POP POP JUMP JUMPDEST PUSH1 0x0 DUP3 PUSH1 0x1F DUP4 ADD SLT PUSH2 0xCCB JUMPI PUSH2 0xCCA PUSH2 0xAA0 JUMP JUMPDEST JUMPDEST DUP2 CALLDATALOAD PUSH2 0xCDB DUP5 DUP3 PUSH1 0x20 DUP7 ADD PUSH2 0xC4D JUMP JUMPDEST SWAP2 POP POP SWAP3 SWAP2 POP POP JUMP JUMPDEST PUSH1 0x0 DUP1 PUSH1 0x0 DUP1 PUSH1 0x80 DUP6 DUP8 SUB SLT ISZERO PUSH2 0xCFE JUMPI PUSH2 0xCFD PUSH2 0xA96 JUMP JUMPDEST JUMPDEST PUSH1 0x0 DUP6 ADD CALLDATALOAD PUSH8 0xFFFFFFFFFFFFFFFF DUP2 GT ISZERO PUSH2 0xD1C JUMPI PUSH2 0xD1B PUSH2 0xA9B JUMP JUMPDEST JUMPDEST PUSH2 0xD28 DUP8 DUP3 DUP9 ADD PUSH2 0xBB8 JUMP JUMPDEST SWAP5 POP POP PUSH1 0x20 DUP6 ADD CALLDATALOAD PUSH8 0xFFFFFFFFFFFFFFFF DUP2 GT ISZERO PUSH2 0xD49 JUMPI PUSH2 0xD48 PUSH2 0xA9B JUMP JUMPDEST JUMPDEST PUSH2 0xD55 DUP8 DUP3 DUP9 ADD PUSH2 0xCB6 JUMP JUMPDEST SWAP4 POP POP PUSH1 0x40 DUP6 ADD CALLDATALOAD PUSH8 0xFFFFFFFFFFFFFFFF DUP2 GT ISZERO PUSH2 0xD76 JUMPI PUSH2 0xD75 PUSH2 0xA9B JUMP JUMPDEST JUMPDEST PUSH2 0xD82 DUP8 DUP3 DUP9 ADD PUSH2 0xCB6 JUMP JUMPDEST SWAP3 POP POP PUSH1 0x60 PUSH2 0xD93 DUP8 DUP3 DUP9 ADD PUSH2 0xC38 JUMP JUMPDEST SWAP2 POP POP SWAP3 SWAP6 SWAP2 SWAP5 POP SWAP3 POP JUMP JUMPDEST PUSH1 0x0 DUP2 ISZERO ISZERO SWAP1 POP SWAP2 SWAP1 POP JUMP JUMPDEST PUSH2 0xDB4 DUP2 PUSH2 0xD9F JUMP JUMPDEST DUP3 MSTORE POP POP JUMP JUMPDEST PUSH1 0x0 PUSH1 0x20 DUP3 ADD SWAP1 POP PUSH2 0xDCF PUSH1 0x0 DUP4 ADD DUP5 PUSH2 0xDAB JUMP JUMPDEST SWAP3 SWAP2 POP POP JUMP JUMPDEST PUSH1 0x0 PUSH8 0xFFFFFFFFFFFFFFFF DUP3 GT ISZERO PUSH2 0xDF0 JUMPI PUSH2 0xDEF PUSH2 0xABB JUMP JUMPDEST JUMPDEST PUSH1 0x20 DUP3 MUL SWAP1 POP SWAP2 SWAP1 POP JUMP JUMPDEST PUSH1 0x0 PUSH2 0xE0E PUSH2 0xE09 DUP5 PUSH2 0xDD5 JUMP JUMPDEST PUSH2 0xB1B JUMP JUMPDEST SWAP1 POP DUP1 PUSH1 0x20 DUP5 MUL DUP4 ADD DUP6 DUP2 GT ISZERO PUSH2 0xE28 JUMPI PUSH2 0xE27 PUSH2 0xC12 JUMP JUMPDEST JUMPDEST DUP4 JUMPDEST DUP2 DUP2 LT ISZERO PUSH2 0xE51 JUMPI DUP1 PUSH2 0xE3D DUP9 DUP3 PUSH2 0xC38 JUMP JUMPDEST DUP5 MSTORE PUSH1 0x20 DUP5 ADD SWAP4 POP POP PUSH1 0x20 DUP2 ADD SWAP1 POP PUSH2 0xE2A JUMP JUMPDEST POP POP POP SWAP4 SWAP3 POP POP POP JUMP JUMPDEST PUSH1 0x0 DUP3 PUSH1 0x1F DUP4 ADD SLT PUSH2 0xE70 JUMPI PUSH2 0xE6F PUSH2 0xAA0 JUMP JUMPDEST JUMPDEST PUSH1 0x2 PUSH2 0xE7D DUP5 DUP3 DUP6 PUSH2 0xDFB JUMP JUMPDEST SWAP2 POP POP SWAP3 SWAP2 POP POP JUMP JUMPDEST PUSH1 0x0 DUP1 PUSH1 0x0 DUP1 PUSH1 0x0 PUSH1 0xC0 DUP7 DUP9 SUB SLT ISZERO PUSH2 0xEA2 JUMPI PUSH2 0xEA1 PUSH2 0xA96 JUMP JUMPDEST JUMPDEST PUSH1 0x0 DUP7 ADD CALLDATALOAD PUSH8 0xFFFFFFFFFFFFFFFF DUP2 GT ISZERO PUSH2 0xEC0 JUMPI PUSH2 0xEBF PUSH2 0xA9B JUMP JUMPDEST JUMPDEST PUSH2 0xECC DUP9 DUP3 DUP10 ADD PUSH2 0xBB8 JUMP JUMPDEST SWAP6 POP POP PUSH1 0x20 DUP7 ADD CALLDATALOAD PUSH8 0xFFFFFFFFFFFFFFFF DUP2 GT ISZERO PUSH2 0xEED JUMPI PUSH2 0xEEC PUSH2 0xA9B JUMP JUMPDEST JUMPDEST PUSH2 0xEF9 DUP9 DUP3 DUP10 ADD PUSH2 0xBB8 JUMP JUMPDEST SWAP5 POP POP PUSH1 0x40 PUSH2 0xF0A DUP9 DUP3 DUP10 ADD PUSH2 0xC38 JUMP JUMPDEST SWAP4 POP POP PUSH1 0x60 PUSH2 0xF1B DUP9 DUP3 DUP10 ADD PUSH2 0xC38 JUMP JUMPDEST SWAP3 POP POP PUSH1 0x80 PUSH2 0xF2C DUP9 DUP3 DUP10 ADD PUSH2 0xE5B JUMP JUMPDEST SWAP2 POP POP SWAP3 SWAP6 POP SWAP3 SWAP6 SWAP1 SWAP4 POP JUMP JUMPDEST PUSH2 0xF42 DUP2 PUSH2 0xC17 JUMP JUMPDEST DUP3 MSTORE POP POP JUMP JUMPDEST PUSH1 0x0 PUSH1 0x20 DUP3 ADD SWAP1 POP PUSH2 0xF5D PUSH1 0x0 DUP4 ADD DUP5 PUSH2 0xF39 JUMP JUMPDEST SWAP3 SWAP2 POP POP JUMP JUMPDEST PUSH32 0x4E487B7100000000000000000000000000000000000000000000000000000000 PUSH1 0x0 MSTORE PUSH1 0x12 PUSH1 0x4 MSTORE PUSH1 0x24 PUSH1 0x0 REVERT JUMPDEST PUSH1 0x0 PUSH2 0xF9D DUP3 PUSH2 0xC17 JUMP JUMPDEST SWAP2 POP PUSH2 0xFA8 DUP4 PUSH2 0xC17 JUMP JUMPDEST SWAP3 POP DUP3 PUSH2 0xFB8 JUMPI PUSH2 0xFB7 PUSH2 0xF63 JUMP JUMPDEST JUMPDEST DUP3 DUP3 MOD SWAP1 POP SWAP3 SWAP2 POP POP JUMP JUMPDEST PUSH1 0x0 DUP3 DUP3 MSTORE PUSH1 0x20 DUP3 ADD SWAP1 POP SWAP3 SWAP2 POP POP JUMP JUMPDEST PUSH32 0x52696E67206C656E677468206D757374206265206576656E20616E6420677265 PUSH1 0x0 DUP3 ADD MSTORE PUSH32 0x61746572207468616E2031000000000000000000000000000000000000000000 PUSH1 0x20 DUP3 ADD MSTORE POP JUMP JUMPDEST PUSH1 0x0 PUSH2 0x1030 PUSH1 0x2B DUP4 PUSH2 0xFC3 JUMP JUMPDEST SWAP2 POP PUSH2 0x103B DUP3 PUSH2 0xFD4 JUMP JUMPDEST PUSH1 0x40 DUP3 ADD SWAP1 POP SWAP2 SWAP1 POP JUMP JUMPDEST PUSH1 0x0 PUSH1 0x20 DUP3 ADD SWAP1 POP DUP2 DUP2 SUB PUSH1 0x0 DUP4 ADD MSTORE PUSH2 0x105F DUP2 PUSH2 0x1023 JUMP JUMPDEST SWAP1 POP SWAP2 SWAP1 POP JUMP JUMPDEST PUSH32 0x4E487B7100000000000000000000000000000000000000000000000000000000 PUSH1 0x0 MSTORE PUSH1 0x11 PUSH1 0x4 MSTORE PUSH1 0x24 PUSH1 0x0 REVERT JUMPDEST PUSH1 0x0 PUSH2 0x10A0 DUP3 PUSH2 0xC17 JUMP JUMPDEST SWAP2 POP PUSH2 0x10AB DUP4 PUSH2 0xC17 JUMP JUMPDEST SWAP3 POP DUP3 PUSH2 0x10BB JUMPI PUSH2 0x10BA PUSH2 0xF63 JUMP JUMPDEST JUMPDEST DUP3 DUP3 DIV SWAP1 POP SWAP3 SWAP2 POP POP JUMP JUMPDEST PUSH32 0x526573706F6E736573206C656E677468206D75737420626520657175616C2074 PUSH1 0x0 DUP3 ADD MSTORE PUSH32 0x6F2072696E67206C656E677468202F2032000000000000000000000000000000 PUSH1 0x20 DUP3 ADD MSTORE POP JUMP JUMPDEST PUSH1 0x0 PUSH2 0x1122 PUSH1 0x31 DUP4 PUSH2 0xFC3 JUMP JUMPDEST SWAP2 POP PUSH2 0x112D DUP3 PUSH2 0x10C6 JUMP JUMPDEST PUSH1 0x40 DUP3 ADD SWAP1 POP SWAP2 SWAP1 POP JUMP JUMPDEST PUSH1 0x0 PUSH1 0x20 DUP3 ADD SWAP1 POP DUP2 DUP2 SUB PUSH1 0x0 DUP4 ADD MSTORE PUSH2 0x1151 DUP2 PUSH2 0x1115 JUMP JUMPDEST SWAP1 POP SWAP2 SWAP1 POP JUMP JUMPDEST PUSH32 0x4E487B7100000000000000000000000000000000000000000000000000000000 PUSH1 0x0 MSTORE PUSH1 0x32 PUSH1 0x4 MSTORE PUSH1 0x24 PUSH1 0x0 REVERT JUMPDEST PUSH1 0x0 PUSH2 0x1192 DUP3 PUSH2 0xC17 JUMP JUMPDEST SWAP2 POP PUSH2 0x119D DUP4 PUSH2 0xC17 JUMP JUMPDEST SWAP3 POP DUP3 DUP3 ADD SWAP1 POP DUP1 DUP3 GT ISZERO PUSH2 0x11B5 JUMPI PUSH2 0x11B4 PUSH2 0x1066 JUMP JUMPDEST JUMPDEST SWAP3 SWAP2 POP POP JUMP JUMPDEST PUSH1 0x0 PUSH2 0x11C6 DUP3 PUSH2 0xC17 JUMP JUMPDEST SWAP2 POP PUSH2 0x11D1 DUP4 PUSH2 0xC17 JUMP JUMPDEST SWAP3 POP DUP3 DUP3 SUB SWAP1 POP DUP2 DUP2 GT ISZERO PUSH2 0x11E9 JUMPI PUSH2 0x11E8 PUSH2 0x1066 JUMP JUMPDEST JUMPDEST SWAP3 SWAP2 POP POP JUMP JUMPDEST PUSH2 0x11F8 DUP2 PUSH2 0xC17 JUMP JUMPDEST DUP3 MSTORE POP POP JUMP JUMPDEST PUSH1 0x0 PUSH1 0x2 SWAP1 POP SWAP2 SWAP1 POP JUMP JUMPDEST PUSH1 0x0 DUP2 SWAP1 POP SWAP3 SWAP2 POP POP JUMP JUMPDEST PUSH1 0x0 DUP2 SWAP1 POP SWAP2 SWAP1 POP JUMP JUMPDEST PUSH2 0x1227 DUP2 PUSH2 0xC17 JUMP JUMPDEST DUP3 MSTORE POP POP JUMP JUMPDEST PUSH1 0x0 PUSH2 0x1239 DUP4 DUP4 PUSH2 0x121E JUMP JUMPDEST PUSH1 0x20 DUP4 ADD SWAP1 POP SWAP3 SWAP2 POP POP JUMP JUMPDEST PUSH1 0x0 PUSH1 0x20 DUP3 ADD SWAP1 POP SWAP2 SWAP1 POP JUMP JUMPDEST PUSH2 0x125B DUP2 PUSH2 0x11FE JUMP JUMPDEST PUSH2 0x1265 DUP2 DUP5 PUSH2 0x1209 JUMP JUMPDEST SWAP3 POP PUSH2 0x1270 DUP3 PUSH2 0x1214 JUMP JUMPDEST DUP1 PUSH1 0x0 JUMPDEST DUP4 DUP2 LT ISZERO PUSH2 0x12A1 JUMPI DUP2 MLOAD PUSH2 0x1288 DUP8 DUP3 PUSH2 0x122D JUMP JUMPDEST SWAP7 POP PUSH2 0x1293 DUP4 PUSH2 0x1245 JUMP JUMPDEST SWAP3 POP POP PUSH1 0x1 DUP2 ADD SWAP1 POP PUSH2 0x1274 JUMP JUMPDEST POP POP POP POP POP POP JUMP JUMPDEST PUSH1 0x0 PUSH1 0x60 DUP3 ADD SWAP1 POP PUSH2 0x12BE PUSH1 0x0 DUP4 ADD DUP6 PUSH2 0x11EF JUMP JUMPDEST PUSH2 0x12CB PUSH1 0x20 DUP4 ADD DUP5 PUSH2 0x1252 JUMP JUMPDEST SWAP4 SWAP3 POP POP POP JUMP JUMPDEST PUSH1 0x0 PUSH8 0xFFFFFFFFFFFFFFFF DUP3 GT ISZERO PUSH2 0x12ED JUMPI PUSH2 0x12EC PUSH2 0xABB JUMP JUMPDEST JUMPDEST PUSH1 0x20 DUP3 MUL SWAP1 POP SWAP2 SWAP1 POP JUMP JUMPDEST PUSH1 0x0 DUP2 MLOAD SWAP1 POP PUSH2 0x1307 DUP2 PUSH2 0xC21 JUMP JUMPDEST SWAP3 SWAP2 POP POP JUMP JUMPDEST PUSH1 0x0 PUSH2 0x1320 PUSH2 0x131B DUP5 PUSH2 0x12D2 JUMP JUMPDEST PUSH2 0xB1B JUMP JUMPDEST SWAP1 POP DUP1 PUSH1 0x20 DUP5 MUL DUP4 ADD DUP6 DUP2 GT ISZERO PUSH2 0x133A JUMPI PUSH2 0x1339 PUSH2 0xC12 JUMP JUMPDEST JUMPDEST DUP4 JUMPDEST DUP2 DUP2 LT ISZERO PUSH2 0x1363 JUMPI DUP1 PUSH2 0x134F DUP9 DUP3 PUSH2 0x12F8 JUMP JUMPDEST DUP5 MSTORE PUSH1 0x20 DUP5 ADD SWAP4 POP POP PUSH1 0x20 DUP2 ADD SWAP1 POP PUSH2 0x133C JUMP JUMPDEST POP POP POP SWAP4 SWAP3 POP POP POP JUMP JUMPDEST PUSH1 0x0 DUP3 PUSH1 0x1F DUP4 ADD SLT PUSH2 0x1382 JUMPI PUSH2 0x1381 PUSH2 0xAA0 JUMP JUMPDEST JUMPDEST PUSH1 0x3 PUSH2 0x138F DUP5 DUP3 DUP6 PUSH2 0x130D JUMP JUMPDEST SWAP2 POP POP SWAP3 SWAP2 POP POP JUMP JUMPDEST PUSH1 0x0 PUSH1 0x60 DUP3 DUP5 SUB SLT ISZERO PUSH2 0x13AE JUMPI PUSH2 0x13AD PUSH2 0xA96 JUMP JUMPDEST JUMPDEST PUSH1 0x0 PUSH2 0x13BC DUP5 DUP3 DUP6 ADD PUSH2 0x136D JUMP JUMPDEST SWAP2 POP POP SWAP3 SWAP2 POP POP JUMP JUMPDEST PUSH1 0x0 PUSH1 0x3 SWAP1 POP SWAP2 SWAP1 POP JUMP JUMPDEST PUSH1 0x0 DUP2 SWAP1 POP SWAP3 SWAP2 POP POP JUMP JUMPDEST PUSH1 0x0 DUP2 SWAP1 POP SWAP2 SWAP1 POP JUMP JUMPDEST PUSH1 0x0 PUSH1 0x20 DUP3 ADD SWAP1 POP SWAP2 SWAP1 POP JUMP JUMPDEST PUSH2 0x13FB DUP2 PUSH2 0x13C5 JUMP JUMPDEST PUSH2 0x1405 DUP2 DUP5 PUSH2 0x13D0 JUMP JUMPDEST SWAP3 POP PUSH2 0x1410 DUP3 PUSH2 0x13DB JUMP JUMPDEST DUP1 PUSH1 0x0 JUMPDEST DUP4 DUP2 LT ISZERO PUSH2 0x1441 JUMPI DUP2 MLOAD PUSH2 0x1428 DUP8 DUP3 PUSH2 0x122D JUMP JUMPDEST SWAP7 POP PUSH2 0x1433 DUP4 PUSH2 0x13E5 JUMP JUMPDEST SWAP3 POP POP PUSH1 0x1 DUP2 ADD SWAP1 POP PUSH2 0x1414 JUMP JUMPDEST POP POP POP POP POP POP JUMP JUMPDEST PUSH1 0x0 PUSH1 0xC0 DUP3 ADD SWAP1 POP PUSH2 0x145E PUSH1 0x0 DUP4 ADD DUP6 PUSH2 0x13F2 JUMP JUMPDEST PUSH2 0x146B PUSH1 0x60 DUP4 ADD DUP5 PUSH2 0x13F2 JUMP JUMPDEST SWAP4 SWAP3 POP POP POP JUMP JUMPDEST PUSH1 0x0 DUP2 MLOAD SWAP1 POP SWAP2 SWAP1 POP JUMP JUMPDEST PUSH1 0x0 DUP2 SWAP1 POP SWAP3 SWAP2 POP POP JUMP JUMPDEST PUSH1 0x0 JUMPDEST DUP4 DUP2 LT ISZERO PUSH2 0x14A6 JUMPI DUP1 DUP3 ADD MLOAD DUP2 DUP5 ADD MSTORE PUSH1 0x20 DUP2 ADD SWAP1 POP PUSH2 0x148B JUMP JUMPDEST PUSH1 0x0 DUP5 DUP5 ADD MSTORE POP POP POP POP JUMP JUMPDEST PUSH1 0x0 PUSH2 0x14BD DUP3 PUSH2 0x1472 JUMP JUMPDEST PUSH2 0x14C7 DUP2 DUP6 PUSH2 0x147D JUMP JUMPDEST SWAP4 POP PUSH2 0x14D7 DUP2 DUP6 PUSH1 0x20 DUP7 ADD PUSH2 0x1488 JUMP JUMPDEST DUP1 DUP5 ADD SWAP2 POP POP SWAP3 SWAP2 POP POP JUMP JUMPDEST PUSH1 0x0 PUSH2 0x14EF DUP3 DUP8 PUSH2 0x14B2 JUMP JUMPDEST SWAP2 POP PUSH2 0x14FB DUP3 DUP7 PUSH2 0x14B2 JUMP JUMPDEST SWAP2 POP PUSH2 0x1507 DUP3 DUP6 PUSH2 0x14B2 JUMP JUMPDEST SWAP2 POP PUSH2 0x1513 DUP3 DUP5 PUSH2 0x14B2 JUMP JUMPDEST SWAP2 POP DUP2 SWAP1 POP SWAP6 SWAP5 POP POP POP POP POP JUMP JUMPDEST PUSH1 0x0 PUSH2 0x152D DUP3 DUP5 PUSH2 0x14B2 JUMP JUMPDEST SWAP2 POP DUP2 SWAP1 POP SWAP3 SWAP2 POP POP JUMP JUMPDEST PUSH1 0x0 DUP2 SWAP1 POP SWAP2 SWAP1 POP JUMP JUMPDEST PUSH2 0x1553 PUSH2 0x154E DUP3 PUSH2 0xC17 JUMP JUMPDEST PUSH2 0x1538 JUMP JUMPDEST DUP3 MSTORE POP POP JUMP JUMPDEST PUSH1 0x0 PUSH2 0x1565 DUP3 DUP7 PUSH2 0x14B2 JUMP JUMPDEST SWAP2 POP PUSH2 0x1571 DUP3 DUP6 PUSH2 0x1542 JUMP JUMPDEST PUSH1 0x20 DUP3 ADD SWAP2 POP PUSH2 0x1581 DUP3 DUP5 PUSH2 0x1542 JUMP JUMPDEST PUSH1 0x20 DUP3 ADD SWAP2 POP DUP2 SWAP1 POP SWAP5 SWAP4 POP POP POP POP JUMP INVALID LOG2 PUSH5 0x6970667358 0x22 SLT KECCAK256 NOT 0x1F SHL 0xCC SWAP2 CALLDATACOPY SWAP10 PUSH12 0x4BF1433FEC3C609C72E9F469 PUSH1 0x62 GASLIMIT 0xDF 0xB1 0xE0 EXTCODESIZE LOG1 RETURNDATACOPY 0xFC 0xB6 NUMBER PUSH5 0x736F6C6343 STOP ADDMOD EQ STOP CALLER "},"methodIdentifiers":{"computeC(string,string,uint256,uint256,uint256[2])":"eae4ae8f","verifyRingSignature(string,uint256[],uint256[],uint256)":"c434c5ee"}}}}}