{"contracts/secp256k1.sol":{"Secp256k1":{"abi":[{"inputs":[{"internalType":"uint256[3]","name":"P","type":"uint256[3]"},{"internalType":"uint256[3]","name":"Q","type":"uint256[3]"}],"name":"_add","outputs":[{"internalType":"uint256[3]","name":"R","type":"uint256[3]"}],"stateMutability":"pure","type":"function"},{"inputs":[{"internalType":"uint256","name":"d","type":"uint256"},{"internalType":"uint256[2]","name":"P","type":"uint256[2]"}],"name":"_mul","outputs":[{"internalType":"uint256[3]","name":"Q","type":"uint256[3]"}],"stateMutability":"pure","type":"function"}],"evm":{"bytecode":{"linkReferences":{},"object":"612aea610053600b82828239805160001a607314610046577f4e487b7100000000000000000000000000000000000000000000000000000000600052600060045260246000fd5b30600052607381538281f3fe73000000000000000000000000000000000000000030146080604052600436106100405760003560e01c80637670aa7614610045578063cef3da1a14610075575b600080fd5b61005f600480360381019061005a91906126e4565b6100a5565b60405161006c91906127cf565b60405180910390f35b61008f600480360381019061008a919061289b565b61073b565b60405161009c91906127cf565b60405180910390f35b6100ad6124a1565b6000836002600381106100c3576100c26128db565b5b6020020151036100d557819050610735565b6000826002600381106100eb576100ea6128db565b5b6020020151036100fd57829050610735565b60007ffffffffffffffffffffffffffffffffffffffffffffffffffffffffefffffc2f905061012a6124c3565b81806101395761013861290a565b5b8560026003811061014d5761014c6128db565b5b602002015186600260038110610166576101656128db565b5b602002015109816000600481106101805761017f6128db565b5b60200201818152505081806101985761019761290a565b5b816000600481106101ac576101ab6128db565b5b6020020151866002600381106101c5576101c46128db565b5b602002015109816001600481106101df576101de6128db565b5b60200201818152505081806101f7576101f661290a565b5b8460026003811061020b5761020a6128db565b5b602002015185600260038110610224576102236128db565b5b6020020151098160026004811061023e5761023d6128db565b5b60200201818152505081806102565761025561290a565b5b8160026004811061026a576102696128db565b5b602002015185600260038110610283576102826128db565b5b6020020151098160036004811061029d5761029c6128db565b5b6020020181815250506000604051806080016040528084806102c2576102c161290a565b5b846002600481106102d6576102d56128db565b5b6020020151896000600381106102ef576102ee6128db565b5b602002015109815260200184806103095761030861290a565b5b8460036004811061031d5761031c6128db565b5b602002015189600160038110610336576103356128db565b5b602002015109815260200184806103505761034f61290a565b5b84600060048110610364576103636128db565b5b60200201518860006003811061037d5761037c6128db565b5b602002015109815260200184806103975761039661290a565b5b846001600481106103ab576103aa6128db565b5b6020020151886001600381106103c4576103c36128db565b5b6020020151098152509050806002600481106103e3576103e26128db565b5b6020020151816000600481106103fc576103fb6128db565b5b602002015103610455578060036004811061041a576104196128db565b5b602002015181600160048110610433576104326128db565b5b60200201511461044257600080fd5b61044b86611263565b9350505050610735565b600083806104665761046561290a565b5b8260006004811061047a576104796128db565b5b60200201518561048a9190612968565b8360026004811061049e5761049d6128db565b5b6020020151089050600084806104b7576104b661290a565b5b836001600481106104cb576104ca6128db565b5b6020020151866104db9190612968565b846003600481106104ef576104ee6128db565b5b6020020151089050600085806105085761050761290a565b5b83840990506000868061051e5761051d61290a565b5b8483099050600087806105345761053361290a565b5b82896105409190612968565b898061054f5761054e61290a565b5b86870908905087806105645761056361290a565b5b88806105735761057261290a565b5b89806105825761058161290a565b5b8589600060048110610597576105966128db565b5b602002015109600209896105ab9190612968565b8208905080896000600381106105c4576105c36128db565b5b60200201818152505087806105dc576105db61290a565b5b88806105eb576105ea61290a565b5b828a6105f79190612968565b8a806106065761060561290a565b5b868a60006004811061061b5761061a6128db565b5b60200201510908850989600160038110610638576106376128db565b5b60200201818152505087806106505761064f61290a565b5b888061065f5761065e61290a565b5b8388600160048110610674576106736128db565b5b602002015109896106859190612968565b8a600160038110610699576106986128db565b5b602002015108896001600381106106b3576106b26128db565b5b60200201818152505087806106cb576106ca61290a565b5b88806106da576106d961290a565b5b8b6002600381106106ee576106ed6128db565b5b60200201518d600260038110610707576107066128db565b5b602002015109860989600260038110610723576107226128db565b5b60200201818152505050505050505050505b92915050565b6107436124a1565b60007ffffffffffffffffffffffffffffffffffffffffffffffffffffffffefffffc2f9050600084036107ff576040518060600160405280600085600060028110610791576107906128db565b5b60200201516107a0919061299c565b81526020016000856000600281106107bb576107ba6128db565b5b60200201516107ca919061299c565b81526020016000856000600281106107e5576107e46128db565b5b60200201516107f4919061299c565b81525091505061125d565b6000806000604051925061020083016040525b600087111561085257600187166108345760028704965060018201915061084d565b6020870690508082840153602060108211028188030196505b610812565b5061085b6124e5565b60405180606001604052808760006002811061087a576108796128db565b5b6020020151815260200187600160028110610898576108976128db565b5b602002015181526020016001815250816000600881106108bb576108ba6128db565b5b602002018190525060006108e6826000600881106108dc576108db6128db565b5b6020020151611263565b90506108f281886114aa565b82600160088110610906576109056128db565b5b60200201819052506109308183600160088110610926576109256128db565b5b60200201516100a5565b82600260088110610944576109436128db565b5b602002018190525061096e8183600260088110610964576109636128db565b5b60200201516100a5565b82600360088110610982576109816128db565b5b60200201819052506109ac81836003600881106109a2576109a16128db565b5b60200201516100a5565b826004600881106109c0576109bf6128db565b5b60200201819052506109ea81836004600881106109e0576109df6128db565b5b60200201516100a5565b826005600881106109fe576109fd6128db565b5b6020020181905250610a288183600560088110610a1e57610a1d6128db565b5b60200201516100a5565b82600660088110610a3c57610a3b6128db565b5b6020020181905250610a668183600660088110610a5c57610a5b6128db565b5b60200201516100a5565b82600760088110610a7a57610a796128db565b5b6020020181905250610a8a612513565b82600160088110610a9e57610a9d6128db565b5b6020020151600260038110610ab657610ab56128db565b5b602002015181600060108110610acf57610ace6128db565b5b6020020181815250508580610ae757610ae661290a565b5b81600060108110610afb57610afa6128db565b5b602002015184600260088110610b1457610b136128db565b5b6020020151600260038110610b2c57610b2b6128db565b5b60200201510981600160108110610b4657610b456128db565b5b6020020181815250508580610b5e57610b5d61290a565b5b81600160108110610b7257610b716128db565b5b602002015184600360088110610b8b57610b8a6128db565b5b6020020151600260038110610ba357610ba26128db565b5b60200201510981600260108110610bbd57610bbc6128db565b5b6020020181815250508580610bd557610bd461290a565b5b81600260108110610be957610be86128db565b5b602002015184600460088110610c0257610c016128db565b5b6020020151600260038110610c1a57610c196128db565b5b60200201510981600360108110610c3457610c336128db565b5b6020020181815250508580610c4c57610c4b61290a565b5b81600360108110610c6057610c5f6128db565b5b602002015184600560088110610c7957610c786128db565b5b6020020151600260038110610c9157610c906128db565b5b60200201510981600460108110610cab57610caa6128db565b5b6020020181815250508580610cc357610cc261290a565b5b81600460108110610cd757610cd66128db565b5b602002015184600660088110610cf057610cef6128db565b5b6020020151600260038110610d0857610d076128db565b5b60200201510981600560108110610d2257610d216128db565b5b6020020181815250508580610d3a57610d3961290a565b5b81600560108110610d4e57610d4d6128db565b5b602002015184600760088110610d6757610d666128db565b5b6020020151600260038110610d7f57610d7e6128db565b5b60200201510981600660108110610d9957610d986128db565b5b602002018181525050610dc481600660108110610db957610db86128db565b5b602002015187611ab7565b81600760108110610dd857610dd76128db565b5b60200201818152505080600760108110610df557610df46128db565b5b602002015181600860108110610e0e57610e0d6128db565b5b6020020181815250508580610e2657610e2561290a565b5b81600860108110610e3a57610e396128db565b5b602002015182600560108110610e5357610e526128db565b5b60200201510981600f60108110610e6d57610e6c6128db565b5b6020020181815250506000600690505b60028110610f8f578680610e9457610e9361290a565b5b82600860108110610ea857610ea76128db565b5b602002015185600184610ebb91906129de565b60088110610ecc57610ecb6128db565b5b6020020151600260038110610ee457610ee36128db565b5b60200201510982600860108110610efe57610efd6128db565b5b6020020181815250508680610f1657610f1561290a565b5b82600860108110610f2a57610f296128db565b5b602002015183600284610f3d9190612968565b60108110610f4e57610f4d6128db565b5b60200201510982826008610f6291906129de565b60108110610f7357610f726128db565b5b6020020181815250508080610f8790612a12565b915050610e7d565b508580610f9f57610f9e61290a565b5b81600860108110610fb357610fb26128db565b5b602002015184600260088110610fcc57610fcb6128db565b5b6020020151600260038110610fe457610fe36128db565b5b60200201510981600960108110610ffe57610ffd6128db565b5b60200201818152505060005b60078110156110cf576110bc8460018361102491906129de565b60088110611035576110346128db565b5b60200201518360098461104891906129de565b60108110611059576110586128db565b5b6020020151898061106d5761106c61290a565b5b8560098661107b91906129de565b6010811061108c5761108b6128db565b5b60200201518660098761109f91906129de565b601081106110b0576110af6128db565b5b6020020151098a611b71565b80806110c790612a3b565b91505061100a565b505b60008411156112565760008085806110e890612a12565b9650508587015160001a91506110fd89611c35565b60108211156111ad57600282601f6111159190612968565b61111f9190612a83565b90506111a8896040518060400160405280888560088110611143576111426128db565b5b602002015160006003811061115b5761115a6128db565b5b60200201518152602001888560088110611178576111776128db565b5b60200201516001600381106111905761118f6128db565b5b60200201518c6111a09190612968565b815250611e6f565b61124f565b600082111561124e5760026001836111c59190612968565b6111cf9190612a83565b905061124d8960405180604001604052808885600881106111f3576111f26128db565b5b602002015160006003811061120b5761120a6128db565b5b60200201518152602001888560088110611228576112276128db565b5b60200201516001600381106112405761123f6128db565b5b6020020151815250611e6f565b5b5b50506110d1565b5050505050505b92915050565b61126b6124a1565b60007ffffffffffffffffffffffffffffffffffffffffffffffffffffffffefffffc2f90506000836002600381106112a6576112a56128db565b5b6020020151036112b957829150506114a5565b6000836000600381106112cf576112ce6128db565b5b602002015190506000846001600381106112ec576112eb6128db565b5b60200201519050600083806113045761130361290a565b5b82830990506000848061131a5761131961290a565b5b85806113295761132861290a565b5b8386096004099050600085806113425761134161290a565b5b86806113515761135061290a565b5b86870960030990506000868061136a5761136961290a565b5b87806113795761137861290a565b5b848508886113879190612968565b88806113965761139561290a565b5b84850908905080886000600381106113b1576113b06128db565b5b60200201818152505086806113c9576113c861290a565b5b87806113d8576113d761290a565b5b88806113e7576113e661290a565b5b868709600809886113f89190612968565b88806114075761140661290a565b5b89806114165761141561290a565b5b848b6114229190612968565b87088509088860016003811061143b5761143a6128db565b5b60200201818152505086806114535761145261290a565b5b87806114625761146161290a565b5b8a600260038110611476576114756128db565b5b6020020151870960020988600260038110611494576114936128db565b5b602002018181525050505050505050505b919050565b6114b26124a1565b6000836002600381106114c8576114c76128db565b5b602002015103611525576040518060600160405280836000600281106114f1576114f06128db565b5b602002015181526020018360016002811061150f5761150e6128db565b5b6020020151815260200160018152509050611ab1565b60008260016002811061153b5761153a6128db565b5b60200201510361154d57829050611ab1565b60007ffffffffffffffffffffffffffffffffffffffffffffffffffffffffefffffc2f905061157a612536565b81806115895761158861290a565b5b8560026003811061159d5761159c6128db565b5b6020020151866002600381106115b6576115b56128db565b5b602002015109816000600281106115d0576115cf6128db565b5b60200201818152505081806115e8576115e761290a565b5b816000600281106115fc576115fb6128db565b5b602002015186600260038110611615576116146128db565b5b6020020151098160016002811061162f5761162e6128db565b5b6020020181815250506000604051806080016040528087600060038110611659576116586128db565b5b6020020151815260200187600160038110611677576116766128db565b5b6020020151815260200184806116905761168f61290a565b5b846000600281106116a4576116a36128db565b5b6020020151886000600281106116bd576116bc6128db565b5b602002015109815260200184806116d7576116d661290a565b5b846001600281106116eb576116ea6128db565b5b602002015188600160028110611704576117036128db565b5b602002015109815250905080600260048110611723576117226128db565b5b60200201518160006004811061173c5761173b6128db565b5b6020020151036117fa578060036004811061175a576117596128db565b5b602002015181600160048110611773576117726128db565b5b6020020151146117e557600086600060038110611793576117926128db565b5b6020020181815250506000866001600381106117b2576117b16128db565b5b6020020181815250506000866002600381106117d1576117d06128db565b5b602002018181525050859350505050611ab1565b6117ee86611263565b50859350505050611ab1565b6000838061180b5761180a61290a565b5b8260006004811061181f5761181e6128db565b5b60200201518561182f9190612968565b83600260048110611843576118426128db565b5b60200201510890506000848061185c5761185b61290a565b5b836001600481106118705761186f6128db565b5b6020020151866118809190612968565b84600360048110611894576118936128db565b5b6020020151089050600085806118ad576118ac61290a565b5b8384099050600086806118c3576118c261290a565b5b8483099050600087806118d9576118d861290a565b5b82896118e59190612968565b89806118f4576118f361290a565b5b86870908905087806119095761190861290a565b5b88806119185761191761290a565b5b89806119275761192661290a565b5b858960006004811061193c5761193b6128db565b5b602002015109600209896119509190612968565b820890508089600060038110611969576119686128db565b5b60200201818152505087806119815761198061290a565b5b88806119905761198f61290a565b5b828a61199c9190612968565b8a806119ab576119aa61290a565b5b868a6000600481106119c0576119bf6128db565b5b602002015109088509896001600381106119dd576119dc6128db565b5b60200201818152505087806119f5576119f461290a565b5b8880611a0457611a0361290a565b5b8388600160048110611a1957611a186128db565b5b60200201510989611a2a9190612968565b8a600160038110611a3e57611a3d6128db565b5b60200201510889600160038110611a5857611a576128db565b5b6020020181815250508780611a7057611a6f61290a565b5b8b600260038110611a8457611a836128db565b5b6020020151860989600260038110611a9f57611a9e6128db565b5b60200201818152505050505050505050505b92915050565b600080831480611ac657508183145b80611ad15750600082145b15611adb57600080fd5b81831115611af757818381611af357611af261290a565b5b0692505b600080600190506000849050600086905060005b60008214611b4757818381611b2357611b2261290a565b5b04905083848202860383848402860380955081965082975083985050505050611b0b565b6000851215611b625784600003870395505050505050611b6b565b84955050505050505b92915050565b8080611b8057611b7f61290a565b5b8285600060038110611b9557611b946128db565b5b60200201510984600060038110611baf57611bae6128db565b5b6020020181815250508080611bc757611bc661290a565b5b8180611bd657611bd561290a565b5b83850985600160038110611bed57611bec6128db565b5b60200201510984600160038110611c0757611c066128db565b5b602002018181525050600184600260038110611c2657611c256128db565b5b60200201818152505050505050565b60007ffffffffffffffffffffffffffffffffffffffffffffffffffffffffefffffc2f9050600082600260038110611c7057611c6f6128db565b5b602002015103611c805750611e6c565b600082600060038110611c9657611c956128db565b5b60200201519050600083600160038110611cb357611cb26128db565b5b6020020151905060008380611ccb57611cca61290a565b5b828309905060008480611ce157611ce061290a565b5b8580611cf057611cef61290a565b5b838609600409905060008580611d0957611d0861290a565b5b8680611d1857611d1761290a565b5b868709600309905060008680611d3157611d3061290a565b5b8780611d4057611d3f61290a565b5b84850888611d4e9190612968565b8880611d5d57611d5c61290a565b5b8485090890508088600060038110611d7857611d776128db565b5b6020020181815250508680611d9057611d8f61290a565b5b8780611d9f57611d9e61290a565b5b8880611dae57611dad61290a565b5b86870960080988611dbf9190612968565b8880611dce57611dcd61290a565b5b8980611ddd57611ddc61290a565b5b848b611de99190612968565b870885090888600160038110611e0257611e016128db565b5b6020020181815250508680611e1a57611e1961290a565b5b8780611e2957611e2861290a565b5b89600260038110611e3d57611e3c6128db565b5b6020020151870960020988600260038110611e5b57611e5a6128db565b5b602002018181525050505050505050505b50565b600082600160038110611e8557611e846128db565b5b602002015103611f1f5780600060028110611ea357611ea26128db565b5b602002015182600060038110611ebc57611ebb6128db565b5b60200201818152505080600160028110611ed957611ed86128db565b5b602002015182600160038110611ef257611ef16128db565b5b602002018181525050600182600260038110611f1157611f106128db565b5b60200201818152505061249d565b600081600160028110611f3557611f346128db565b5b6020020151031561249d5760007ffffffffffffffffffffffffffffffffffffffffffffffffffffffffefffffc2f9050611f6d612536565b8180611f7c57611f7b61290a565b5b84600260038110611f9057611f8f6128db565b5b602002015185600260038110611fa957611fa86128db565b5b60200201510981600060028110611fc357611fc26128db565b5b6020020181815250508180611fdb57611fda61290a565b5b81600060028110611fef57611fee6128db565b5b602002015185600260038110612008576120076128db565b5b60200201510981600160028110612022576120216128db565b5b602002018181525050600060405180608001604052808660006003811061204c5761204b6128db565b5b602002015181526020018660016003811061206a576120696128db565b5b6020020151815260200184806120835761208261290a565b5b84600060028110612097576120966128db565b5b6020020151876000600281106120b0576120af6128db565b5b602002015109815260200184806120ca576120c961290a565b5b846001600281106120de576120dd6128db565b5b6020020151876001600281106120f7576120f66128db565b5b602002015109815250905080600260048110612116576121156128db565b5b60200201518160006004811061212f5761212e6128db565b5b6020020151036121e6578060036004811061214d5761214c6128db565b5b602002015181600160048110612166576121656128db565b5b6020020151146121d557600085600060038110612186576121856128db565b5b6020020181815250506000856001600381106121a5576121a46128db565b5b6020020181815250506000856002600381106121c4576121c36128db565b5b60200201818152505050505061249d565b6121de85611c35565b50505061249d565b600083806121f7576121f661290a565b5b8260006004811061220b5761220a6128db565b5b60200201518561221b9190612968565b8360026004811061222f5761222e6128db565b5b6020020151089050600084806122485761224761290a565b5b8360016004811061225c5761225b6128db565b5b60200201518661226c9190612968565b846003600481106122805761227f6128db565b5b6020020151089050600085806122995761229861290a565b5b8384099050600086806122af576122ae61290a565b5b8483099050600087806122c5576122c461290a565b5b82896122d19190612968565b89806122e0576122df61290a565b5b86870908905087806122f5576122f461290a565b5b88806123045761230361290a565b5b89806123135761231261290a565b5b8589600060048110612328576123276128db565b5b6020020151096002098961233c9190612968565b82089050808a600060038110612355576123546128db565b5b602002018181525050878061236d5761236c61290a565b5b888061237c5761237b61290a565b5b828a6123889190612968565b8a806123975761239661290a565b5b868a6000600481106123ac576123ab6128db565b5b6020020151090885098a6001600381106123c9576123c86128db565b5b60200201818152505087806123e1576123e061290a565b5b88806123f0576123ef61290a565b5b8388600160048110612405576124046128db565b5b602002015109896124169190612968565b8b60016003811061242a576124296128db565b5b6020020151088a600160038110612444576124436128db565b5b602002018181525050878061245c5761245b61290a565b5b8a6002600381106124705761246f6128db565b5b602002015186098a60026003811061248b5761248a6128db565b5b60200201818152505050505050505050505b5050565b6040518060600160405280600390602082028036833780820191505090505090565b6040518060800160405280600490602082028036833780820191505090505090565b6040518061010001604052806008905b6124fd6124a1565b8152602001906001900390816124f55790505090565b604051806102000160405280601090602082028036833780820191505090505090565b6040518060400160405280600290602082028036833780820191505090505090565b6000604051905090565b600080fd5b600080fd5b6000601f19601f8301169050919050565b7f4e487b7100000000000000000000000000000000000000000000000000000000600052604160045260246000fd5b6125b58261256c565b810181811067ffffffffffffffff821117156125d4576125d361257d565b5b80604052505050565b60006125e7612558565b90506125f382826125ac565b919050565b600067ffffffffffffffff8211156126135761261261257d565b5b602082029050919050565b600080fd5b6000819050919050565b61263681612623565b811461264157600080fd5b50565b6000813590506126538161262d565b92915050565b600061266c612667846125f8565b6125dd565b905080602084028301858111156126865761268561261e565b5b835b818110156126af578061269b8882612644565b845260208401935050602081019050612688565b5050509392505050565b600082601f8301126126ce576126cd612567565b5b60036126db848285612659565b91505092915050565b60008060c083850312156126fb576126fa612562565b5b6000612709858286016126b9565b925050606061271a858286016126b9565b9150509250929050565b600060039050919050565b600081905092915050565b6000819050919050565b61274d81612623565b82525050565b600061275f8383612744565b60208301905092915050565b6000602082019050919050565b61278181612724565b61278b818461272f565b92506127968261273a565b8060005b838110156127c75781516127ae8782612753565b96506127b98361276b565b92505060018101905061279a565b505050505050565b60006060820190506127e46000830184612778565b92915050565b600067ffffffffffffffff8211156128055761280461257d565b5b602082029050919050565b600061282361281e846127ea565b6125dd565b9050806020840283018581111561283d5761283c61261e565b5b835b8181101561286657806128528882612644565b84526020840193505060208101905061283f565b5050509392505050565b600082601f83011261288557612884612567565b5b6002612892848285612810565b91505092915050565b600080606083850312156128b2576128b1612562565b5b60006128c085828601612644565b92505060206128d185828601612870565b9150509250929050565b7f4e487b7100000000000000000000000000000000000000000000000000000000600052603260045260246000fd5b7f4e487b7100000000000000000000000000000000000000000000000000000000600052601260045260246000fd5b7f4e487b7100000000000000000000000000000000000000000000000000000000600052601160045260246000fd5b600061297382612623565b915061297e83612623565b925082820390508181111561299657612995612939565b5b92915050565b60006129a782612623565b91506129b283612623565b92508282026129c081612623565b915082820484148315176129d7576129d6612939565b5b5092915050565b60006129e982612623565b91506129f483612623565b9250828201905080821115612a0c57612a0b612939565b5b92915050565b6000612a1d82612623565b915060008203612a3057612a2f612939565b5b600182039050919050565b6000612a4682612623565b91507fffffffffffffffffffffffffffffffffffffffffffffffffffffffffffffffff8203612a7857612a77612939565b5b600182019050919050565b6000612a8e82612623565b9150612a9983612623565b925082612aa957612aa861290a565b5b82820490509291505056fea264697066735822122005c8c7f65bbf466d426c286bb7888e82c0c7b057b77245c09c47e23e3c52882d64736f6c63430008140033","opcodes":"PUSH2 0x2AEA PUSH2 0x53 PUSH1 0xB DUP3 DUP3 DUP3 CODECOPY DUP1 MLOAD PUSH1 0x0 BYTE PUSH1 0x73 EQ PUSH2 0x46 JUMPI PUSH32 0x4E487B7100000000000000000000000000000000000000000000000000000000 PUSH1 0x0 MSTORE PUSH1 0x0 PUSH1 0x4 MSTORE PUSH1 0x24 PUSH1 0x0 REVERT JUMPDEST ADDRESS PUSH1 0x0 MSTORE PUSH1 0x73 DUP2 MSTORE8 DUP3 DUP2 RETURN INVALID PUSH20 0x0 ADDRESS EQ PUSH1 0x80 PUSH1 0x40 MSTORE PUSH1 0x4 CALLDATASIZE LT PUSH2 0x40 JUMPI PUSH1 0x0 CALLDATALOAD PUSH1 0xE0 SHR DUP1 PUSH4 0x7670AA76 EQ PUSH2 0x45 JUMPI DUP1 PUSH4 0xCEF3DA1A EQ PUSH2 0x75 JUMPI JUMPDEST PUSH1 0x0 DUP1 REVERT JUMPDEST PUSH2 0x5F PUSH1 0x4 DUP1 CALLDATASIZE SUB DUP2 ADD SWAP1 PUSH2 0x5A SWAP2 SWAP1 PUSH2 0x26E4 JUMP JUMPDEST PUSH2 0xA5 JUMP JUMPDEST PUSH1 0x40 MLOAD PUSH2 0x6C SWAP2 SWAP1 PUSH2 0x27CF JUMP JUMPDEST PUSH1 0x40 MLOAD DUP1 SWAP2 SUB SWAP1 RETURN JUMPDEST PUSH2 0x8F PUSH1 0x4 DUP1 CALLDATASIZE SUB DUP2 ADD SWAP1 PUSH2 0x8A SWAP2 SWAP1 PUSH2 0x289B JUMP JUMPDEST PUSH2 0x73B JUMP JUMPDEST PUSH1 0x40 MLOAD PUSH2 0x9C SWAP2 SWAP1 PUSH2 0x27CF JUMP JUMPDEST PUSH1 0x40 MLOAD DUP1 SWAP2 SUB SWAP1 RETURN JUMPDEST PUSH2 0xAD PUSH2 0x24A1 JUMP JUMPDEST PUSH1 0x0 DUP4 PUSH1 0x2 PUSH1 0x3 DUP2 LT PUSH2 0xC3 JUMPI PUSH2 0xC2 PUSH2 0x28DB JUMP JUMPDEST JUMPDEST PUSH1 0x20 MUL ADD MLOAD SUB PUSH2 0xD5 JUMPI DUP2 SWAP1 POP PUSH2 0x735 JUMP JUMPDEST PUSH1 0x0 DUP3 PUSH1 0x2 PUSH1 0x3 DUP2 LT PUSH2 0xEB JUMPI PUSH2 0xEA PUSH2 0x28DB JUMP JUMPDEST JUMPDEST PUSH1 0x20 MUL ADD MLOAD SUB PUSH2 0xFD JUMPI DUP3 SWAP1 POP PUSH2 0x735 JUMP JUMPDEST PUSH1 0x0 PUSH32 0xFFFFFFFFFFFFFFFFFFFFFFFFFFFFFFFFFFFFFFFFFFFFFFFFFFFFFFFEFFFFFC2F SWAP1 POP PUSH2 0x12A PUSH2 0x24C3 JUMP JUMPDEST DUP2 DUP1 PUSH2 0x139 JUMPI PUSH2 0x138 PUSH2 0x290A JUMP JUMPDEST JUMPDEST DUP6 PUSH1 0x2 PUSH1 0x3 DUP2 LT PUSH2 0x14D JUMPI PUSH2 0x14C PUSH2 0x28DB JUMP JUMPDEST JUMPDEST PUSH1 0x20 MUL ADD MLOAD DUP7 PUSH1 0x2 PUSH1 0x3 DUP2 LT PUSH2 0x166 JUMPI PUSH2 0x165 PUSH2 0x28DB JUMP JUMPDEST JUMPDEST PUSH1 0x20 MUL ADD MLOAD MULMOD DUP2 PUSH1 0x0 PUSH1 0x4 DUP2 LT PUSH2 0x180 JUMPI PUSH2 0x17F PUSH2 0x28DB JUMP JUMPDEST JUMPDEST PUSH1 0x20 MUL ADD DUP2 DUP2 MSTORE POP POP DUP2 DUP1 PUSH2 0x198 JUMPI PUSH2 0x197 PUSH2 0x290A JUMP JUMPDEST JUMPDEST DUP2 PUSH1 0x0 PUSH1 0x4 DUP2 LT PUSH2 0x1AC JUMPI PUSH2 0x1AB PUSH2 0x28DB JUMP JUMPDEST JUMPDEST PUSH1 0x20 MUL ADD MLOAD DUP7 PUSH1 0x2 PUSH1 0x3 DUP2 LT PUSH2 0x1C5 JUMPI PUSH2 0x1C4 PUSH2 0x28DB JUMP JUMPDEST JUMPDEST PUSH1 0x20 MUL ADD MLOAD MULMOD DUP2 PUSH1 0x1 PUSH1 0x4 DUP2 LT PUSH2 0x1DF JUMPI PUSH2 0x1DE PUSH2 0x28DB JUMP JUMPDEST JUMPDEST PUSH1 0x20 MUL ADD DUP2 DUP2 MSTORE POP POP DUP2 DUP1 PUSH2 0x1F7 JUMPI PUSH2 0x1F6 PUSH2 0x290A JUMP JUMPDEST JUMPDEST DUP5 PUSH1 0x2 PUSH1 0x3 DUP2 LT PUSH2 0x20B JUMPI PUSH2 0x20A PUSH2 0x28DB JUMP JUMPDEST JUMPDEST PUSH1 0x20 MUL ADD MLOAD DUP6 PUSH1 0x2 PUSH1 0x3 DUP2 LT PUSH2 0x224 JUMPI PUSH2 0x223 PUSH2 0x28DB JUMP JUMPDEST JUMPDEST PUSH1 0x20 MUL ADD MLOAD MULMOD DUP2 PUSH1 0x2 PUSH1 0x4 DUP2 LT PUSH2 0x23E JUMPI PUSH2 0x23D PUSH2 0x28DB JUMP JUMPDEST JUMPDEST PUSH1 0x20 MUL ADD DUP2 DUP2 MSTORE POP POP DUP2 DUP1 PUSH2 0x256 JUMPI PUSH2 0x255 PUSH2 0x290A JUMP JUMPDEST JUMPDEST DUP2 PUSH1 0x2 PUSH1 0x4 DUP2 LT PUSH2 0x26A JUMPI PUSH2 0x269 PUSH2 0x28DB JUMP JUMPDEST JUMPDEST PUSH1 0x20 MUL ADD MLOAD DUP6 PUSH1 0x2 PUSH1 0x3 DUP2 LT PUSH2 0x283 JUMPI PUSH2 0x282 PUSH2 0x28DB JUMP JUMPDEST JUMPDEST PUSH1 0x20 MUL ADD MLOAD MULMOD DUP2 PUSH1 0x3 PUSH1 0x4 DUP2 LT PUSH2 0x29D JUMPI PUSH2 0x29C PUSH2 0x28DB JUMP JUMPDEST JUMPDEST PUSH1 0x20 MUL ADD DUP2 DUP2 MSTORE POP POP PUSH1 0x0 PUSH1 0x40 MLOAD DUP1 PUSH1 0x80 ADD PUSH1 0x40 MSTORE DUP1 DUP5 DUP1 PUSH2 0x2C2 JUMPI PUSH2 0x2C1 PUSH2 0x290A JUMP JUMPDEST JUMPDEST DUP5 PUSH1 0x2 PUSH1 0x4 DUP2 LT PUSH2 0x2D6 JUMPI PUSH2 0x2D5 PUSH2 0x28DB JUMP JUMPDEST JUMPDEST PUSH1 0x20 MUL ADD MLOAD DUP10 PUSH1 0x0 PUSH1 0x3 DUP2 LT PUSH2 0x2EF JUMPI PUSH2 0x2EE PUSH2 0x28DB JUMP JUMPDEST JUMPDEST PUSH1 0x20 MUL ADD MLOAD MULMOD DUP2 MSTORE PUSH1 0x20 ADD DUP5 DUP1 PUSH2 0x309 JUMPI PUSH2 0x308 PUSH2 0x290A JUMP JUMPDEST JUMPDEST DUP5 PUSH1 0x3 PUSH1 0x4 DUP2 LT PUSH2 0x31D JUMPI PUSH2 0x31C PUSH2 0x28DB JUMP JUMPDEST JUMPDEST PUSH1 0x20 MUL ADD MLOAD DUP10 PUSH1 0x1 PUSH1 0x3 DUP2 LT PUSH2 0x336 JUMPI PUSH2 0x335 PUSH2 0x28DB JUMP JUMPDEST JUMPDEST PUSH1 0x20 MUL ADD MLOAD MULMOD DUP2 MSTORE PUSH1 0x20 ADD DUP5 DUP1 PUSH2 0x350 JUMPI PUSH2 0x34F PUSH2 0x290A JUMP JUMPDEST JUMPDEST DUP5 PUSH1 0x0 PUSH1 0x4 DUP2 LT PUSH2 0x364 JUMPI PUSH2 0x363 PUSH2 0x28DB JUMP JUMPDEST JUMPDEST PUSH1 0x20 MUL ADD MLOAD DUP9 PUSH1 0x0 PUSH1 0x3 DUP2 LT PUSH2 0x37D JUMPI PUSH2 0x37C PUSH2 0x28DB JUMP JUMPDEST JUMPDEST PUSH1 0x20 MUL ADD MLOAD MULMOD DUP2 MSTORE PUSH1 0x20 ADD DUP5 DUP1 PUSH2 0x397 JUMPI PUSH2 0x396 PUSH2 0x290A JUMP JUMPDEST JUMPDEST DUP5 PUSH1 0x1 PUSH1 0x4 DUP2 LT PUSH2 0x3AB JUMPI PUSH2 0x3AA PUSH2 0x28DB JUMP JUMPDEST JUMPDEST PUSH1 0x20 MUL ADD MLOAD DUP9 PUSH1 0x1 PUSH1 0x3 DUP2 LT PUSH2 0x3C4 JUMPI PUSH2 0x3C3 PUSH2 0x28DB JUMP JUMPDEST JUMPDEST PUSH1 0x20 MUL ADD MLOAD MULMOD DUP2 MSTORE POP SWAP1 POP DUP1 PUSH1 0x2 PUSH1 0x4 DUP2 LT PUSH2 0x3E3 JUMPI PUSH2 0x3E2 PUSH2 0x28DB JUMP JUMPDEST JUMPDEST PUSH1 0x20 MUL ADD MLOAD DUP2 PUSH1 0x0 PUSH1 0x4 DUP2 LT PUSH2 0x3FC JUMPI PUSH2 0x3FB PUSH2 0x28DB JUMP JUMPDEST JUMPDEST PUSH1 0x20 MUL ADD MLOAD SUB PUSH2 0x455 JUMPI DUP1 PUSH1 0x3 PUSH1 0x4 DUP2 LT PUSH2 0x41A JUMPI PUSH2 0x419 PUSH2 0x28DB JUMP JUMPDEST JUMPDEST PUSH1 0x20 MUL ADD MLOAD DUP2 PUSH1 0x1 PUSH1 0x4 DUP2 LT PUSH2 0x433 JUMPI PUSH2 0x432 PUSH2 0x28DB JUMP JUMPDEST JUMPDEST PUSH1 0x20 MUL ADD MLOAD EQ PUSH2 0x442 JUMPI PUSH1 0x0 DUP1 REVERT JUMPDEST PUSH2 0x44B DUP7 PUSH2 0x1263 JUMP JUMPDEST SWAP4 POP POP POP POP PUSH2 0x735 JUMP JUMPDEST PUSH1 0x0 DUP4 DUP1 PUSH2 0x466 JUMPI PUSH2 0x465 PUSH2 0x290A JUMP JUMPDEST JUMPDEST DUP3 PUSH1 0x0 PUSH1 0x4 DUP2 LT PUSH2 0x47A JUMPI PUSH2 0x479 PUSH2 0x28DB JUMP JUMPDEST JUMPDEST PUSH1 0x20 MUL ADD MLOAD DUP6 PUSH2 0x48A SWAP2 SWAP1 PUSH2 0x2968 JUMP JUMPDEST DUP4 PUSH1 0x2 PUSH1 0x4 DUP2 LT PUSH2 0x49E JUMPI PUSH2 0x49D PUSH2 0x28DB JUMP JUMPDEST JUMPDEST PUSH1 0x20 MUL ADD MLOAD ADDMOD SWAP1 POP PUSH1 0x0 DUP5 DUP1 PUSH2 0x4B7 JUMPI PUSH2 0x4B6 PUSH2 0x290A JUMP JUMPDEST JUMPDEST DUP4 PUSH1 0x1 PUSH1 0x4 DUP2 LT PUSH2 0x4CB JUMPI PUSH2 0x4CA PUSH2 0x28DB JUMP JUMPDEST JUMPDEST PUSH1 0x20 MUL ADD MLOAD DUP7 PUSH2 0x4DB SWAP2 SWAP1 PUSH2 0x2968 JUMP JUMPDEST DUP5 PUSH1 0x3 PUSH1 0x4 DUP2 LT PUSH2 0x4EF JUMPI PUSH2 0x4EE PUSH2 0x28DB JUMP JUMPDEST JUMPDEST PUSH1 0x20 MUL ADD MLOAD ADDMOD SWAP1 POP PUSH1 0x0 DUP6 DUP1 PUSH2 0x508 JUMPI PUSH2 0x507 PUSH2 0x290A JUMP JUMPDEST JUMPDEST DUP4 DUP5 MULMOD SWAP1 POP PUSH1 0x0 DUP7 DUP1 PUSH2 0x51E JUMPI PUSH2 0x51D PUSH2 0x290A JUMP JUMPDEST JUMPDEST DUP5 DUP4 MULMOD SWAP1 POP PUSH1 0x0 DUP8 DUP1 PUSH2 0x534 JUMPI PUSH2 0x533 PUSH2 0x290A JUMP JUMPDEST JUMPDEST DUP3 DUP10 PUSH2 0x540 SWAP2 SWAP1 PUSH2 0x2968 JUMP JUMPDEST DUP10 DUP1 PUSH2 0x54F JUMPI PUSH2 0x54E PUSH2 0x290A JUMP JUMPDEST JUMPDEST DUP7 DUP8 MULMOD ADDMOD SWAP1 POP DUP8 DUP1 PUSH2 0x564 JUMPI PUSH2 0x563 PUSH2 0x290A JUMP JUMPDEST JUMPDEST DUP9 DUP1 PUSH2 0x573 JUMPI PUSH2 0x572 PUSH2 0x290A JUMP JUMPDEST JUMPDEST DUP10 DUP1 PUSH2 0x582 JUMPI PUSH2 0x581 PUSH2 0x290A JUMP JUMPDEST JUMPDEST DUP6 DUP10 PUSH1 0x0 PUSH1 0x4 DUP2 LT PUSH2 0x597 JUMPI PUSH2 0x596 PUSH2 0x28DB JUMP JUMPDEST JUMPDEST PUSH1 0x20 MUL ADD MLOAD MULMOD PUSH1 0x2 MULMOD DUP10 PUSH2 0x5AB SWAP2 SWAP1 PUSH2 0x2968 JUMP JUMPDEST DUP3 ADDMOD SWAP1 POP DUP1 DUP10 PUSH1 0x0 PUSH1 0x3 DUP2 LT PUSH2 0x5C4 JUMPI PUSH2 0x5C3 PUSH2 0x28DB JUMP JUMPDEST JUMPDEST PUSH1 0x20 MUL ADD DUP2 DUP2 MSTORE POP POP DUP8 DUP1 PUSH2 0x5DC JUMPI PUSH2 0x5DB PUSH2 0x290A JUMP JUMPDEST JUMPDEST DUP9 DUP1 PUSH2 0x5EB JUMPI PUSH2 0x5EA PUSH2 0x290A JUMP JUMPDEST JUMPDEST DUP3 DUP11 PUSH2 0x5F7 SWAP2 SWAP1 PUSH2 0x2968 JUMP JUMPDEST DUP11 DUP1 PUSH2 0x606 JUMPI PUSH2 0x605 PUSH2 0x290A JUMP JUMPDEST JUMPDEST DUP7 DUP11 PUSH1 0x0 PUSH1 0x4 DUP2 LT PUSH2 0x61B JUMPI PUSH2 0x61A PUSH2 0x28DB JUMP JUMPDEST JUMPDEST PUSH1 0x20 MUL ADD MLOAD MULMOD ADDMOD DUP6 MULMOD DUP10 PUSH1 0x1 PUSH1 0x3 DUP2 LT PUSH2 0x638 JUMPI PUSH2 0x637 PUSH2 0x28DB JUMP JUMPDEST JUMPDEST PUSH1 0x20 MUL ADD DUP2 DUP2 MSTORE POP POP DUP8 DUP1 PUSH2 0x650 JUMPI PUSH2 0x64F PUSH2 0x290A JUMP JUMPDEST JUMPDEST DUP9 DUP1 PUSH2 0x65F JUMPI PUSH2 0x65E PUSH2 0x290A JUMP JUMPDEST JUMPDEST DUP4 DUP9 PUSH1 0x1 PUSH1 0x4 DUP2 LT PUSH2 0x674 JUMPI PUSH2 0x673 PUSH2 0x28DB JUMP JUMPDEST JUMPDEST PUSH1 0x20 MUL ADD MLOAD MULMOD DUP10 PUSH2 0x685 SWAP2 SWAP1 PUSH2 0x2968 JUMP JUMPDEST DUP11 PUSH1 0x1 PUSH1 0x3 DUP2 LT PUSH2 0x699 JUMPI PUSH2 0x698 PUSH2 0x28DB JUMP JUMPDEST JUMPDEST PUSH1 0x20 MUL ADD MLOAD ADDMOD DUP10 PUSH1 0x1 PUSH1 0x3 DUP2 LT PUSH2 0x6B3 JUMPI PUSH2 0x6B2 PUSH2 0x28DB JUMP JUMPDEST JUMPDEST PUSH1 0x20 MUL ADD DUP2 DUP2 MSTORE POP POP DUP8 DUP1 PUSH2 0x6CB JUMPI PUSH2 0x6CA PUSH2 0x290A JUMP JUMPDEST JUMPDEST DUP9 DUP1 PUSH2 0x6DA JUMPI PUSH2 0x6D9 PUSH2 0x290A JUMP JUMPDEST JUMPDEST DUP12 PUSH1 0x2 PUSH1 0x3 DUP2 LT PUSH2 0x6EE JUMPI PUSH2 0x6ED PUSH2 0x28DB JUMP JUMPDEST JUMPDEST PUSH1 0x20 MUL ADD MLOAD DUP14 PUSH1 0x2 PUSH1 0x3 DUP2 LT PUSH2 0x707 JUMPI PUSH2 0x706 PUSH2 0x28DB JUMP JUMPDEST JUMPDEST PUSH1 0x20 MUL ADD MLOAD MULMOD DUP7 MULMOD DUP10 PUSH1 0x2 PUSH1 0x3 DUP2 LT PUSH2 0x723 JUMPI PUSH2 0x722 PUSH2 0x28DB JUMP JUMPDEST JUMPDEST PUSH1 0x20 MUL ADD DUP2 DUP2 MSTORE POP POP POP POP POP POP POP POP POP POP JUMPDEST SWAP3 SWAP2 POP POP JUMP JUMPDEST PUSH2 0x743 PUSH2 0x24A1 JUMP JUMPDEST PUSH1 0x0 PUSH32 0xFFFFFFFFFFFFFFFFFFFFFFFFFFFFFFFFFFFFFFFFFFFFFFFFFFFFFFFEFFFFFC2F SWAP1 POP PUSH1 0x0 DUP5 SUB PUSH2 0x7FF JUMPI PUSH1 0x40 MLOAD DUP1 PUSH1 0x60 ADD PUSH1 0x40 MSTORE DUP1 PUSH1 0x0 DUP6 PUSH1 0x0 PUSH1 0x2 DUP2 LT PUSH2 0x791 JUMPI PUSH2 0x790 PUSH2 0x28DB JUMP JUMPDEST JUMPDEST PUSH1 0x20 MUL ADD MLOAD PUSH2 0x7A0 SWAP2 SWAP1 PUSH2 0x299C JUMP JUMPDEST DUP2 MSTORE PUSH1 0x20 ADD PUSH1 0x0 DUP6 PUSH1 0x0 PUSH1 0x2 DUP2 LT PUSH2 0x7BB JUMPI PUSH2 0x7BA PUSH2 0x28DB JUMP JUMPDEST JUMPDEST PUSH1 0x20 MUL ADD MLOAD PUSH2 0x7CA SWAP2 SWAP1 PUSH2 0x299C JUMP JUMPDEST DUP2 MSTORE PUSH1 0x20 ADD PUSH1 0x0 DUP6 PUSH1 0x0 PUSH1 0x2 DUP2 LT PUSH2 0x7E5 JUMPI PUSH2 0x7E4 PUSH2 0x28DB JUMP JUMPDEST JUMPDEST PUSH1 0x20 MUL ADD MLOAD PUSH2 0x7F4 SWAP2 SWAP1 PUSH2 0x299C JUMP JUMPDEST DUP2 MSTORE POP SWAP2 POP POP PUSH2 0x125D JUMP JUMPDEST PUSH1 0x0 DUP1 PUSH1 0x0 PUSH1 0x40 MLOAD SWAP3 POP PUSH2 0x200 DUP4 ADD PUSH1 0x40 MSTORE JUMPDEST PUSH1 0x0 DUP8 GT ISZERO PUSH2 0x852 JUMPI PUSH1 0x1 DUP8 AND PUSH2 0x834 JUMPI PUSH1 0x2 DUP8 DIV SWAP7 POP PUSH1 0x1 DUP3 ADD SWAP2 POP PUSH2 0x84D JUMP JUMPDEST PUSH1 0x20 DUP8 MOD SWAP1 POP DUP1 DUP3 DUP5 ADD MSTORE8 PUSH1 0x20 PUSH1 0x10 DUP3 GT MUL DUP2 DUP9 SUB ADD SWAP7 POP JUMPDEST PUSH2 0x812 JUMP JUMPDEST POP PUSH2 0x85B PUSH2 0x24E5 JUMP JUMPDEST PUSH1 0x40 MLOAD DUP1 PUSH1 0x60 ADD PUSH1 0x40 MSTORE DUP1 DUP8 PUSH1 0x0 PUSH1 0x2 DUP2 LT PUSH2 0x87A JUMPI PUSH2 0x879 PUSH2 0x28DB JUMP JUMPDEST JUMPDEST PUSH1 0x20 MUL ADD MLOAD DUP2 MSTORE PUSH1 0x20 ADD DUP8 PUSH1 0x1 PUSH1 0x2 DUP2 LT PUSH2 0x898 JUMPI PUSH2 0x897 PUSH2 0x28DB JUMP JUMPDEST JUMPDEST PUSH1 0x20 MUL ADD MLOAD DUP2 MSTORE PUSH1 0x20 ADD PUSH1 0x1 DUP2 MSTORE POP DUP2 PUSH1 0x0 PUSH1 0x8 DUP2 LT PUSH2 0x8BB JUMPI PUSH2 0x8BA PUSH2 0x28DB JUMP JUMPDEST JUMPDEST PUSH1 0x20 MUL ADD DUP2 SWAP1 MSTORE POP PUSH1 0x0 PUSH2 0x8E6 DUP3 PUSH1 0x0 PUSH1 0x8 DUP2 LT PUSH2 0x8DC JUMPI PUSH2 0x8DB PUSH2 0x28DB JUMP JUMPDEST JUMPDEST PUSH1 0x20 MUL ADD MLOAD PUSH2 0x1263 JUMP JUMPDEST SWAP1 POP PUSH2 0x8F2 DUP2 DUP9 PUSH2 0x14AA JUMP JUMPDEST DUP3 PUSH1 0x1 PUSH1 0x8 DUP2 LT PUSH2 0x906 JUMPI PUSH2 0x905 PUSH2 0x28DB JUMP JUMPDEST JUMPDEST PUSH1 0x20 MUL ADD DUP2 SWAP1 MSTORE POP PUSH2 0x930 DUP2 DUP4 PUSH1 0x1 PUSH1 0x8 DUP2 LT PUSH2 0x926 JUMPI PUSH2 0x925 PUSH2 0x28DB JUMP JUMPDEST JUMPDEST PUSH1 0x20 MUL ADD MLOAD PUSH2 0xA5 JUMP JUMPDEST DUP3 PUSH1 0x2 PUSH1 0x8 DUP2 LT PUSH2 0x944 JUMPI PUSH2 0x943 PUSH2 0x28DB JUMP JUMPDEST JUMPDEST PUSH1 0x20 MUL ADD DUP2 SWAP1 MSTORE POP PUSH2 0x96E DUP2 DUP4 PUSH1 0x2 PUSH1 0x8 DUP2 LT PUSH2 0x964 JUMPI PUSH2 0x963 PUSH2 0x28DB JUMP JUMPDEST JUMPDEST PUSH1 0x20 MUL ADD MLOAD PUSH2 0xA5 JUMP JUMPDEST DUP3 PUSH1 0x3 PUSH1 0x8 DUP2 LT PUSH2 0x982 JUMPI PUSH2 0x981 PUSH2 0x28DB JUMP JUMPDEST JUMPDEST PUSH1 0x20 MUL ADD DUP2 SWAP1 MSTORE POP PUSH2 0x9AC DUP2 DUP4 PUSH1 0x3 PUSH1 0x8 DUP2 LT PUSH2 0x9A2 JUMPI PUSH2 0x9A1 PUSH2 0x28DB JUMP JUMPDEST JUMPDEST PUSH1 0x20 MUL ADD MLOAD PUSH2 0xA5 JUMP JUMPDEST DUP3 PUSH1 0x4 PUSH1 0x8 DUP2 LT PUSH2 0x9C0 JUMPI PUSH2 0x9BF PUSH2 0x28DB JUMP JUMPDEST JUMPDEST PUSH1 0x20 MUL ADD DUP2 SWAP1 MSTORE POP PUSH2 0x9EA DUP2 DUP4 PUSH1 0x4 PUSH1 0x8 DUP2 LT PUSH2 0x9E0 JUMPI PUSH2 0x9DF PUSH2 0x28DB JUMP JUMPDEST JUMPDEST PUSH1 0x20 MUL ADD MLOAD PUSH2 0xA5 JUMP JUMPDEST DUP3 PUSH1 0x5 PUSH1 0x8 DUP2 LT PUSH2 0x9FE JUMPI PUSH2 0x9FD PUSH2 0x28DB JUMP JUMPDEST JUMPDEST PUSH1 0x20 MUL ADD DUP2 SWAP1 MSTORE POP PUSH2 0xA28 DUP2 DUP4 PUSH1 0x5 PUSH1 0x8 DUP2 LT PUSH2 0xA1E JUMPI PUSH2 0xA1D PUSH2 0x28DB JUMP JUMPDEST JUMPDEST PUSH1 0x20 MUL ADD MLOAD PUSH2 0xA5 JUMP JUMPDEST DUP3 PUSH1 0x6 PUSH1 0x8 DUP2 LT PUSH2 0xA3C JUMPI PUSH2 0xA3B PUSH2 0x28DB JUMP JUMPDEST JUMPDEST PUSH1 0x20 MUL ADD DUP2 SWAP1 MSTORE POP PUSH2 0xA66 DUP2 DUP4 PUSH1 0x6 PUSH1 0x8 DUP2 LT PUSH2 0xA5C JUMPI PUSH2 0xA5B PUSH2 0x28DB JUMP JUMPDEST JUMPDEST PUSH1 0x20 MUL ADD MLOAD PUSH2 0xA5 JUMP JUMPDEST DUP3 PUSH1 0x7 PUSH1 0x8 DUP2 LT PUSH2 0xA7A JUMPI PUSH2 0xA79 PUSH2 0x28DB JUMP JUMPDEST JUMPDEST PUSH1 0x20 MUL ADD DUP2 SWAP1 MSTORE POP PUSH2 0xA8A PUSH2 0x2513 JUMP JUMPDEST DUP3 PUSH1 0x1 PUSH1 0x8 DUP2 LT PUSH2 0xA9E JUMPI PUSH2 0xA9D PUSH2 0x28DB JUMP JUMPDEST JUMPDEST PUSH1 0x20 MUL ADD MLOAD PUSH1 0x2 PUSH1 0x3 DUP2 LT PUSH2 0xAB6 JUMPI PUSH2 0xAB5 PUSH2 0x28DB JUMP JUMPDEST JUMPDEST PUSH1 0x20 MUL ADD MLOAD DUP2 PUSH1 0x0 PUSH1 0x10 DUP2 LT PUSH2 0xACF JUMPI PUSH2 0xACE PUSH2 0x28DB JUMP JUMPDEST JUMPDEST PUSH1 0x20 MUL ADD DUP2 DUP2 MSTORE POP POP DUP6 DUP1 PUSH2 0xAE7 JUMPI PUSH2 0xAE6 PUSH2 0x290A JUMP JUMPDEST JUMPDEST DUP2 PUSH1 0x0 PUSH1 0x10 DUP2 LT PUSH2 0xAFB JUMPI PUSH2 0xAFA PUSH2 0x28DB JUMP JUMPDEST JUMPDEST PUSH1 0x20 MUL ADD MLOAD DUP5 PUSH1 0x2 PUSH1 0x8 DUP2 LT PUSH2 0xB14 JUMPI PUSH2 0xB13 PUSH2 0x28DB JUMP JUMPDEST JUMPDEST PUSH1 0x20 MUL ADD MLOAD PUSH1 0x2 PUSH1 0x3 DUP2 LT PUSH2 0xB2C JUMPI PUSH2 0xB2B PUSH2 0x28DB JUMP JUMPDEST JUMPDEST PUSH1 0x20 MUL ADD MLOAD MULMOD DUP2 PUSH1 0x1 PUSH1 0x10 DUP2 LT PUSH2 0xB46 JUMPI PUSH2 0xB45 PUSH2 0x28DB JUMP JUMPDEST JUMPDEST PUSH1 0x20 MUL ADD DUP2 DUP2 MSTORE POP POP DUP6 DUP1 PUSH2 0xB5E JUMPI PUSH2 0xB5D PUSH2 0x290A JUMP JUMPDEST JUMPDEST DUP2 PUSH1 0x1 PUSH1 0x10 DUP2 LT PUSH2 0xB72 JUMPI PUSH2 0xB71 PUSH2 0x28DB JUMP JUMPDEST JUMPDEST PUSH1 0x20 MUL ADD MLOAD DUP5 PUSH1 0x3 PUSH1 0x8 DUP2 LT PUSH2 0xB8B JUMPI PUSH2 0xB8A PUSH2 0x28DB JUMP JUMPDEST JUMPDEST PUSH1 0x20 MUL ADD MLOAD PUSH1 0x2 PUSH1 0x3 DUP2 LT PUSH2 0xBA3 JUMPI PUSH2 0xBA2 PUSH2 0x28DB JUMP JUMPDEST JUMPDEST PUSH1 0x20 MUL ADD MLOAD MULMOD DUP2 PUSH1 0x2 PUSH1 0x10 DUP2 LT PUSH2 0xBBD JUMPI PUSH2 0xBBC PUSH2 0x28DB JUMP JUMPDEST JUMPDEST PUSH1 0x20 MUL ADD DUP2 DUP2 MSTORE POP POP DUP6 DUP1 PUSH2 0xBD5 JUMPI PUSH2 0xBD4 PUSH2 0x290A JUMP JUMPDEST JUMPDEST DUP2 PUSH1 0x2 PUSH1 0x10 DUP2 LT PUSH2 0xBE9 JUMPI PUSH2 0xBE8 PUSH2 0x28DB JUMP JUMPDEST JUMPDEST PUSH1 0x20 MUL ADD MLOAD DUP5 PUSH1 0x4 PUSH1 0x8 DUP2 LT PUSH2 0xC02 JUMPI PUSH2 0xC01 PUSH2 0x28DB JUMP JUMPDEST JUMPDEST PUSH1 0x20 MUL ADD MLOAD PUSH1 0x2 PUSH1 0x3 DUP2 LT PUSH2 0xC1A JUMPI PUSH2 0xC19 PUSH2 0x28DB JUMP JUMPDEST JUMPDEST PUSH1 0x20 MUL ADD MLOAD MULMOD DUP2 PUSH1 0x3 PUSH1 0x10 DUP2 LT PUSH2 0xC34 JUMPI PUSH2 0xC33 PUSH2 0x28DB JUMP JUMPDEST JUMPDEST PUSH1 0x20 MUL ADD DUP2 DUP2 MSTORE POP POP DUP6 DUP1 PUSH2 0xC4C JUMPI PUSH2 0xC4B PUSH2 0x290A JUMP JUMPDEST JUMPDEST DUP2 PUSH1 0x3 PUSH1 0x10 DUP2 LT PUSH2 0xC60 JUMPI PUSH2 0xC5F PUSH2 0x28DB JUMP JUMPDEST JUMPDEST PUSH1 0x20 MUL ADD MLOAD DUP5 PUSH1 0x5 PUSH1 0x8 DUP2 LT PUSH2 0xC79 JUMPI PUSH2 0xC78 PUSH2 0x28DB JUMP JUMPDEST JUMPDEST PUSH1 0x20 MUL ADD MLOAD PUSH1 0x2 PUSH1 0x3 DUP2 LT PUSH2 0xC91 JUMPI PUSH2 0xC90 PUSH2 0x28DB JUMP JUMPDEST JUMPDEST PUSH1 0x20 MUL ADD MLOAD MULMOD DUP2 PUSH1 0x4 PUSH1 0x10 DUP2 LT PUSH2 0xCAB JUMPI PUSH2 0xCAA PUSH2 0x28DB JUMP JUMPDEST JUMPDEST PUSH1 0x20 MUL ADD DUP2 DUP2 MSTORE POP POP DUP6 DUP1 PUSH2 0xCC3 JUMPI PUSH2 0xCC2 PUSH2 0x290A JUMP JUMPDEST JUMPDEST DUP2 PUSH1 0x4 PUSH1 0x10 DUP2 LT PUSH2 0xCD7 JUMPI PUSH2 0xCD6 PUSH2 0x28DB JUMP JUMPDEST JUMPDEST PUSH1 0x20 MUL ADD MLOAD DUP5 PUSH1 0x6 PUSH1 0x8 DUP2 LT PUSH2 0xCF0 JUMPI PUSH2 0xCEF PUSH2 0x28DB JUMP JUMPDEST JUMPDEST PUSH1 0x20 MUL ADD MLOAD PUSH1 0x2 PUSH1 0x3 DUP2 LT PUSH2 0xD08 JUMPI PUSH2 0xD07 PUSH2 0x28DB JUMP JUMPDEST JUMPDEST PUSH1 0x20 MUL ADD MLOAD MULMOD DUP2 PUSH1 0x5 PUSH1 0x10 DUP2 LT PUSH2 0xD22 JUMPI PUSH2 0xD21 PUSH2 0x28DB JUMP JUMPDEST JUMPDEST PUSH1 0x20 MUL ADD DUP2 DUP2 MSTORE POP POP DUP6 DUP1 PUSH2 0xD3A JUMPI PUSH2 0xD39 PUSH2 0x290A JUMP JUMPDEST JUMPDEST DUP2 PUSH1 0x5 PUSH1 0x10 DUP2 LT PUSH2 0xD4E JUMPI PUSH2 0xD4D PUSH2 0x28DB JUMP JUMPDEST JUMPDEST PUSH1 0x20 MUL ADD MLOAD DUP5 PUSH1 0x7 PUSH1 0x8 DUP2 LT PUSH2 0xD67 JUMPI PUSH2 0xD66 PUSH2 0x28DB JUMP JUMPDEST JUMPDEST PUSH1 0x20 MUL ADD MLOAD PUSH1 0x2 PUSH1 0x3 DUP2 LT PUSH2 0xD7F JUMPI PUSH2 0xD7E PUSH2 0x28DB JUMP JUMPDEST JUMPDEST PUSH1 0x20 MUL ADD MLOAD MULMOD DUP2 PUSH1 0x6 PUSH1 0x10 DUP2 LT PUSH2 0xD99 JUMPI PUSH2 0xD98 PUSH2 0x28DB JUMP JUMPDEST JUMPDEST PUSH1 0x20 MUL ADD DUP2 DUP2 MSTORE POP POP PUSH2 0xDC4 DUP2 PUSH1 0x6 PUSH1 0x10 DUP2 LT PUSH2 0xDB9 JUMPI PUSH2 0xDB8 PUSH2 0x28DB JUMP JUMPDEST JUMPDEST PUSH1 0x20 MUL ADD MLOAD DUP8 PUSH2 0x1AB7 JUMP JUMPDEST DUP2 PUSH1 0x7 PUSH1 0x10 DUP2 LT PUSH2 0xDD8 JUMPI PUSH2 0xDD7 PUSH2 0x28DB JUMP JUMPDEST JUMPDEST PUSH1 0x20 MUL ADD DUP2 DUP2 MSTORE POP POP DUP1 PUSH1 0x7 PUSH1 0x10 DUP2 LT PUSH2 0xDF5 JUMPI PUSH2 0xDF4 PUSH2 0x28DB JUMP JUMPDEST JUMPDEST PUSH1 0x20 MUL ADD MLOAD DUP2 PUSH1 0x8 PUSH1 0x10 DUP2 LT PUSH2 0xE0E JUMPI PUSH2 0xE0D PUSH2 0x28DB JUMP JUMPDEST JUMPDEST PUSH1 0x20 MUL ADD DUP2 DUP2 MSTORE POP POP DUP6 DUP1 PUSH2 0xE26 JUMPI PUSH2 0xE25 PUSH2 0x290A JUMP JUMPDEST JUMPDEST DUP2 PUSH1 0x8 PUSH1 0x10 DUP2 LT PUSH2 0xE3A JUMPI PUSH2 0xE39 PUSH2 0x28DB JUMP JUMPDEST JUMPDEST PUSH1 0x20 MUL ADD MLOAD DUP3 PUSH1 0x5 PUSH1 0x10 DUP2 LT PUSH2 0xE53 JUMPI PUSH2 0xE52 PUSH2 0x28DB JUMP JUMPDEST JUMPDEST PUSH1 0x20 MUL ADD MLOAD MULMOD DUP2 PUSH1 0xF PUSH1 0x10 DUP2 LT PUSH2 0xE6D JUMPI PUSH2 0xE6C PUSH2 0x28DB JUMP JUMPDEST JUMPDEST PUSH1 0x20 MUL ADD DUP2 DUP2 MSTORE POP POP PUSH1 0x0 PUSH1 0x6 SWAP1 POP JUMPDEST PUSH1 0x2 DUP2 LT PUSH2 0xF8F JUMPI DUP7 DUP1 PUSH2 0xE94 JUMPI PUSH2 0xE93 PUSH2 0x290A JUMP JUMPDEST JUMPDEST DUP3 PUSH1 0x8 PUSH1 0x10 DUP2 LT PUSH2 0xEA8 JUMPI PUSH2 0xEA7 PUSH2 0x28DB JUMP JUMPDEST JUMPDEST PUSH1 0x20 MUL ADD MLOAD DUP6 PUSH1 0x1 DUP5 PUSH2 0xEBB SWAP2 SWAP1 PUSH2 0x29DE JUMP JUMPDEST PUSH1 0x8 DUP2 LT PUSH2 0xECC JUMPI PUSH2 0xECB PUSH2 0x28DB JUMP JUMPDEST JUMPDEST PUSH1 0x20 MUL ADD MLOAD PUSH1 0x2 PUSH1 0x3 DUP2 LT PUSH2 0xEE4 JUMPI PUSH2 0xEE3 PUSH2 0x28DB JUMP JUMPDEST JUMPDEST PUSH1 0x20 MUL ADD MLOAD MULMOD DUP3 PUSH1 0x8 PUSH1 0x10 DUP2 LT PUSH2 0xEFE JUMPI PUSH2 0xEFD PUSH2 0x28DB JUMP JUMPDEST JUMPDEST PUSH1 0x20 MUL ADD DUP2 DUP2 MSTORE POP POP DUP7 DUP1 PUSH2 0xF16 JUMPI PUSH2 0xF15 PUSH2 0x290A JUMP JUMPDEST JUMPDEST DUP3 PUSH1 0x8 PUSH1 0x10 DUP2 LT PUSH2 0xF2A JUMPI PUSH2 0xF29 PUSH2 0x28DB JUMP JUMPDEST JUMPDEST PUSH1 0x20 MUL ADD MLOAD DUP4 PUSH1 0x2 DUP5 PUSH2 0xF3D SWAP2 SWAP1 PUSH2 0x2968 JUMP JUMPDEST PUSH1 0x10 DUP2 LT PUSH2 0xF4E JUMPI PUSH2 0xF4D PUSH2 0x28DB JUMP JUMPDEST JUMPDEST PUSH1 0x20 MUL ADD MLOAD MULMOD DUP3 DUP3 PUSH1 0x8 PUSH2 0xF62 SWAP2 SWAP1 PUSH2 0x29DE JUMP JUMPDEST PUSH1 0x10 DUP2 LT PUSH2 0xF73 JUMPI PUSH2 0xF72 PUSH2 0x28DB JUMP JUMPDEST JUMPDEST PUSH1 0x20 MUL ADD DUP2 DUP2 MSTORE POP POP DUP1 DUP1 PUSH2 0xF87 SWAP1 PUSH2 0x2A12 JUMP JUMPDEST SWAP2 POP POP PUSH2 0xE7D JUMP JUMPDEST POP DUP6 DUP1 PUSH2 0xF9F JUMPI PUSH2 0xF9E PUSH2 0x290A JUMP JUMPDEST JUMPDEST DUP2 PUSH1 0x8 PUSH1 0x10 DUP2 LT PUSH2 0xFB3 JUMPI PUSH2 0xFB2 PUSH2 0x28DB JUMP JUMPDEST JUMPDEST PUSH1 0x20 MUL ADD MLOAD DUP5 PUSH1 0x2 PUSH1 0x8 DUP2 LT PUSH2 0xFCC JUMPI PUSH2 0xFCB PUSH2 0x28DB JUMP JUMPDEST JUMPDEST PUSH1 0x20 MUL ADD MLOAD PUSH1 0x2 PUSH1 0x3 DUP2 LT PUSH2 0xFE4 JUMPI PUSH2 0xFE3 PUSH2 0x28DB JUMP JUMPDEST JUMPDEST PUSH1 0x20 MUL ADD MLOAD MULMOD DUP2 PUSH1 0x9 PUSH1 0x10 DUP2 LT PUSH2 0xFFE JUMPI PUSH2 0xFFD PUSH2 0x28DB JUMP JUMPDEST JUMPDEST PUSH1 0x20 MUL ADD DUP2 DUP2 MSTORE POP POP PUSH1 0x0 JUMPDEST PUSH1 0x7 DUP2 LT ISZERO PUSH2 0x10CF JUMPI PUSH2 0x10BC DUP5 PUSH1 0x1 DUP4 PUSH2 0x1024 SWAP2 SWAP1 PUSH2 0x29DE JUMP JUMPDEST PUSH1 0x8 DUP2 LT PUSH2 0x1035 JUMPI PUSH2 0x1034 PUSH2 0x28DB JUMP JUMPDEST JUMPDEST PUSH1 0x20 MUL ADD MLOAD DUP4 PUSH1 0x9 DUP5 PUSH2 0x1048 SWAP2 SWAP1 PUSH2 0x29DE JUMP JUMPDEST PUSH1 0x10 DUP2 LT PUSH2 0x1059 JUMPI PUSH2 0x1058 PUSH2 0x28DB JUMP JUMPDEST JUMPDEST PUSH1 0x20 MUL ADD MLOAD DUP10 DUP1 PUSH2 0x106D JUMPI PUSH2 0x106C PUSH2 0x290A JUMP JUMPDEST JUMPDEST DUP6 PUSH1 0x9 DUP7 PUSH2 0x107B SWAP2 SWAP1 PUSH2 0x29DE JUMP JUMPDEST PUSH1 0x10 DUP2 LT PUSH2 0x108C JUMPI PUSH2 0x108B PUSH2 0x28DB JUMP JUMPDEST JUMPDEST PUSH1 0x20 MUL ADD MLOAD DUP7 PUSH1 0x9 DUP8 PUSH2 0x109F SWAP2 SWAP1 PUSH2 0x29DE JUMP JUMPDEST PUSH1 0x10 DUP2 LT PUSH2 0x10B0 JUMPI PUSH2 0x10AF PUSH2 0x28DB JUMP JUMPDEST JUMPDEST PUSH1 0x20 MUL ADD MLOAD MULMOD DUP11 PUSH2 0x1B71 JUMP JUMPDEST DUP1 DUP1 PUSH2 0x10C7 SWAP1 PUSH2 0x2A3B JUMP JUMPDEST SWAP2 POP POP PUSH2 0x100A JUMP JUMPDEST POP JUMPDEST PUSH1 0x0 DUP5 GT ISZERO PUSH2 0x1256 JUMPI PUSH1 0x0 DUP1 DUP6 DUP1 PUSH2 0x10E8 SWAP1 PUSH2 0x2A12 JUMP JUMPDEST SWAP7 POP POP DUP6 DUP8 ADD MLOAD PUSH1 0x0 BYTE SWAP2 POP PUSH2 0x10FD DUP10 PUSH2 0x1C35 JUMP JUMPDEST PUSH1 0x10 DUP3 GT ISZERO PUSH2 0x11AD JUMPI PUSH1 0x2 DUP3 PUSH1 0x1F PUSH2 0x1115 SWAP2 SWAP1 PUSH2 0x2968 JUMP JUMPDEST PUSH2 0x111F SWAP2 SWAP1 PUSH2 0x2A83 JUMP JUMPDEST SWAP1 POP PUSH2 0x11A8 DUP10 PUSH1 0x40 MLOAD DUP1 PUSH1 0x40 ADD PUSH1 0x40 MSTORE DUP1 DUP9 DUP6 PUSH1 0x8 DUP2 LT PUSH2 0x1143 JUMPI PUSH2 0x1142 PUSH2 0x28DB JUMP JUMPDEST JUMPDEST PUSH1 0x20 MUL ADD MLOAD PUSH1 0x0 PUSH1 0x3 DUP2 LT PUSH2 0x115B JUMPI PUSH2 0x115A PUSH2 0x28DB JUMP JUMPDEST JUMPDEST PUSH1 0x20 MUL ADD MLOAD DUP2 MSTORE PUSH1 0x20 ADD DUP9 DUP6 PUSH1 0x8 DUP2 LT PUSH2 0x1178 JUMPI PUSH2 0x1177 PUSH2 0x28DB JUMP JUMPDEST JUMPDEST PUSH1 0x20 MUL ADD MLOAD PUSH1 0x1 PUSH1 0x3 DUP2 LT PUSH2 0x1190 JUMPI PUSH2 0x118F PUSH2 0x28DB JUMP JUMPDEST JUMPDEST PUSH1 0x20 MUL ADD MLOAD DUP13 PUSH2 0x11A0 SWAP2 SWAP1 PUSH2 0x2968 JUMP JUMPDEST DUP2 MSTORE POP PUSH2 0x1E6F JUMP JUMPDEST PUSH2 0x124F JUMP JUMPDEST PUSH1 0x0 DUP3 GT ISZERO PUSH2 0x124E JUMPI PUSH1 0x2 PUSH1 0x1 DUP4 PUSH2 0x11C5 SWAP2 SWAP1 PUSH2 0x2968 JUMP JUMPDEST PUSH2 0x11CF SWAP2 SWAP1 PUSH2 0x2A83 JUMP JUMPDEST SWAP1 POP PUSH2 0x124D DUP10 PUSH1 0x40 MLOAD DUP1 PUSH1 0x40 ADD PUSH1 0x40 MSTORE DUP1 DUP9 DUP6 PUSH1 0x8 DUP2 LT PUSH2 0x11F3 JUMPI PUSH2 0x11F2 PUSH2 0x28DB JUMP JUMPDEST JUMPDEST PUSH1 0x20 MUL ADD MLOAD PUSH1 0x0 PUSH1 0x3 DUP2 LT PUSH2 0x120B JUMPI PUSH2 0x120A PUSH2 0x28DB JUMP JUMPDEST JUMPDEST PUSH1 0x20 MUL ADD MLOAD DUP2 MSTORE PUSH1 0x20 ADD DUP9 DUP6 PUSH1 0x8 DUP2 LT PUSH2 0x1228 JUMPI PUSH2 0x1227 PUSH2 0x28DB JUMP JUMPDEST JUMPDEST PUSH1 0x20 MUL ADD MLOAD PUSH1 0x1 PUSH1 0x3 DUP2 LT PUSH2 0x1240 JUMPI PUSH2 0x123F PUSH2 0x28DB JUMP JUMPDEST JUMPDEST PUSH1 0x20 MUL ADD MLOAD DUP2 MSTORE POP PUSH2 0x1E6F JUMP JUMPDEST JUMPDEST JUMPDEST POP POP PUSH2 0x10D1 JUMP JUMPDEST POP POP POP POP POP POP JUMPDEST SWAP3 SWAP2 POP POP JUMP JUMPDEST PUSH2 0x126B PUSH2 0x24A1 JUMP JUMPDEST PUSH1 0x0 PUSH32 0xFFFFFFFFFFFFFFFFFFFFFFFFFFFFFFFFFFFFFFFFFFFFFFFFFFFFFFFEFFFFFC2F SWAP1 POP PUSH1 0x0 DUP4 PUSH1 0x2 PUSH1 0x3 DUP2 LT PUSH2 0x12A6 JUMPI PUSH2 0x12A5 PUSH2 0x28DB JUMP JUMPDEST JUMPDEST PUSH1 0x20 MUL ADD MLOAD SUB PUSH2 0x12B9 JUMPI DUP3 SWAP2 POP POP PUSH2 0x14A5 JUMP JUMPDEST PUSH1 0x0 DUP4 PUSH1 0x0 PUSH1 0x3 DUP2 LT PUSH2 0x12CF JUMPI PUSH2 0x12CE PUSH2 0x28DB JUMP JUMPDEST JUMPDEST PUSH1 0x20 MUL ADD MLOAD SWAP1 POP PUSH1 0x0 DUP5 PUSH1 0x1 PUSH1 0x3 DUP2 LT PUSH2 0x12EC JUMPI PUSH2 0x12EB PUSH2 0x28DB JUMP JUMPDEST JUMPDEST PUSH1 0x20 MUL ADD MLOAD SWAP1 POP PUSH1 0x0 DUP4 DUP1 PUSH2 0x1304 JUMPI PUSH2 0x1303 PUSH2 0x290A JUMP JUMPDEST JUMPDEST DUP3 DUP4 MULMOD SWAP1 POP PUSH1 0x0 DUP5 DUP1 PUSH2 0x131A JUMPI PUSH2 0x1319 PUSH2 0x290A JUMP JUMPDEST JUMPDEST DUP6 DUP1 PUSH2 0x1329 JUMPI PUSH2 0x1328 PUSH2 0x290A JUMP JUMPDEST JUMPDEST DUP4 DUP7 MULMOD PUSH1 0x4 MULMOD SWAP1 POP PUSH1 0x0 DUP6 DUP1 PUSH2 0x1342 JUMPI PUSH2 0x1341 PUSH2 0x290A JUMP JUMPDEST JUMPDEST DUP7 DUP1 PUSH2 0x1351 JUMPI PUSH2 0x1350 PUSH2 0x290A JUMP JUMPDEST JUMPDEST DUP7 DUP8 MULMOD PUSH1 0x3 MULMOD SWAP1 POP PUSH1 0x0 DUP7 DUP1 PUSH2 0x136A JUMPI PUSH2 0x1369 PUSH2 0x290A JUMP JUMPDEST JUMPDEST DUP8 DUP1 PUSH2 0x1379 JUMPI PUSH2 0x1378 PUSH2 0x290A JUMP JUMPDEST JUMPDEST DUP5 DUP6 ADDMOD DUP9 PUSH2 0x1387 SWAP2 SWAP1 PUSH2 0x2968 JUMP JUMPDEST DUP9 DUP1 PUSH2 0x1396 JUMPI PUSH2 0x1395 PUSH2 0x290A JUMP JUMPDEST JUMPDEST DUP5 DUP6 MULMOD ADDMOD SWAP1 POP DUP1 DUP9 PUSH1 0x0 PUSH1 0x3 DUP2 LT PUSH2 0x13B1 JUMPI PUSH2 0x13B0 PUSH2 0x28DB JUMP JUMPDEST JUMPDEST PUSH1 0x20 MUL ADD DUP2 DUP2 MSTORE POP POP DUP7 DUP1 PUSH2 0x13C9 JUMPI PUSH2 0x13C8 PUSH2 0x290A JUMP JUMPDEST JUMPDEST DUP8 DUP1 PUSH2 0x13D8 JUMPI PUSH2 0x13D7 PUSH2 0x290A JUMP JUMPDEST JUMPDEST DUP9 DUP1 PUSH2 0x13E7 JUMPI PUSH2 0x13E6 PUSH2 0x290A JUMP JUMPDEST JUMPDEST DUP7 DUP8 MULMOD PUSH1 0x8 MULMOD DUP9 PUSH2 0x13F8 SWAP2 SWAP1 PUSH2 0x2968 JUMP JUMPDEST DUP9 DUP1 PUSH2 0x1407 JUMPI PUSH2 0x1406 PUSH2 0x290A JUMP JUMPDEST JUMPDEST DUP10 DUP1 PUSH2 0x1416 JUMPI PUSH2 0x1415 PUSH2 0x290A JUMP JUMPDEST JUMPDEST DUP5 DUP12 PUSH2 0x1422 SWAP2 SWAP1 PUSH2 0x2968 JUMP JUMPDEST DUP8 ADDMOD DUP6 MULMOD ADDMOD DUP9 PUSH1 0x1 PUSH1 0x3 DUP2 LT PUSH2 0x143B JUMPI PUSH2 0x143A PUSH2 0x28DB JUMP JUMPDEST JUMPDEST PUSH1 0x20 MUL ADD DUP2 DUP2 MSTORE POP POP DUP7 DUP1 PUSH2 0x1453 JUMPI PUSH2 0x1452 PUSH2 0x290A JUMP JUMPDEST JUMPDEST DUP8 DUP1 PUSH2 0x1462 JUMPI PUSH2 0x1461 PUSH2 0x290A JUMP JUMPDEST JUMPDEST DUP11 PUSH1 0x2 PUSH1 0x3 DUP2 LT PUSH2 0x1476 JUMPI PUSH2 0x1475 PUSH2 0x28DB JUMP JUMPDEST JUMPDEST PUSH1 0x20 MUL ADD MLOAD DUP8 MULMOD PUSH1 0x2 MULMOD DUP9 PUSH1 0x2 PUSH1 0x3 DUP2 LT PUSH2 0x1494 JUMPI PUSH2 0x1493 PUSH2 0x28DB JUMP JUMPDEST JUMPDEST PUSH1 0x20 MUL ADD DUP2 DUP2 MSTORE POP POP POP POP POP POP POP POP POP JUMPDEST SWAP2 SWAP1 POP JUMP JUMPDEST PUSH2 0x14B2 PUSH2 0x24A1 JUMP JUMPDEST PUSH1 0x0 DUP4 PUSH1 0x2 PUSH1 0x3 DUP2 LT PUSH2 0x14C8 JUMPI PUSH2 0x14C7 PUSH2 0x28DB JUMP JUMPDEST JUMPDEST PUSH1 0x20 MUL ADD MLOAD SUB PUSH2 0x1525 JUMPI PUSH1 0x40 MLOAD DUP1 PUSH1 0x60 ADD PUSH1 0x40 MSTORE DUP1 DUP4 PUSH1 0x0 PUSH1 0x2 DUP2 LT PUSH2 0x14F1 JUMPI PUSH2 0x14F0 PUSH2 0x28DB JUMP JUMPDEST JUMPDEST PUSH1 0x20 MUL ADD MLOAD DUP2 MSTORE PUSH1 0x20 ADD DUP4 PUSH1 0x1 PUSH1 0x2 DUP2 LT PUSH2 0x150F JUMPI PUSH2 0x150E PUSH2 0x28DB JUMP JUMPDEST JUMPDEST PUSH1 0x20 MUL ADD MLOAD DUP2 MSTORE PUSH1 0x20 ADD PUSH1 0x1 DUP2 MSTORE POP SWAP1 POP PUSH2 0x1AB1 JUMP JUMPDEST PUSH1 0x0 DUP3 PUSH1 0x1 PUSH1 0x2 DUP2 LT PUSH2 0x153B JUMPI PUSH2 0x153A PUSH2 0x28DB JUMP JUMPDEST JUMPDEST PUSH1 0x20 MUL ADD MLOAD SUB PUSH2 0x154D JUMPI DUP3 SWAP1 POP PUSH2 0x1AB1 JUMP JUMPDEST PUSH1 0x0 PUSH32 0xFFFFFFFFFFFFFFFFFFFFFFFFFFFFFFFFFFFFFFFFFFFFFFFFFFFFFFFEFFFFFC2F SWAP1 POP PUSH2 0x157A PUSH2 0x2536 JUMP JUMPDEST DUP2 DUP1 PUSH2 0x1589 JUMPI PUSH2 0x1588 PUSH2 0x290A JUMP JUMPDEST JUMPDEST DUP6 PUSH1 0x2 PUSH1 0x3 DUP2 LT PUSH2 0x159D JUMPI PUSH2 0x159C PUSH2 0x28DB JUMP JUMPDEST JUMPDEST PUSH1 0x20 MUL ADD MLOAD DUP7 PUSH1 0x2 PUSH1 0x3 DUP2 LT PUSH2 0x15B6 JUMPI PUSH2 0x15B5 PUSH2 0x28DB JUMP JUMPDEST JUMPDEST PUSH1 0x20 MUL ADD MLOAD MULMOD DUP2 PUSH1 0x0 PUSH1 0x2 DUP2 LT PUSH2 0x15D0 JUMPI PUSH2 0x15CF PUSH2 0x28DB JUMP JUMPDEST JUMPDEST PUSH1 0x20 MUL ADD DUP2 DUP2 MSTORE POP POP DUP2 DUP1 PUSH2 0x15E8 JUMPI PUSH2 0x15E7 PUSH2 0x290A JUMP JUMPDEST JUMPDEST DUP2 PUSH1 0x0 PUSH1 0x2 DUP2 LT PUSH2 0x15FC JUMPI PUSH2 0x15FB PUSH2 0x28DB JUMP JUMPDEST JUMPDEST PUSH1 0x20 MUL ADD MLOAD DUP7 PUSH1 0x2 PUSH1 0x3 DUP2 LT PUSH2 0x1615 JUMPI PUSH2 0x1614 PUSH2 0x28DB JUMP JUMPDEST JUMPDEST PUSH1 0x20 MUL ADD MLOAD MULMOD DUP2 PUSH1 0x1 PUSH1 0x2 DUP2 LT PUSH2 0x162F JUMPI PUSH2 0x162E PUSH2 0x28DB JUMP JUMPDEST JUMPDEST PUSH1 0x20 MUL ADD DUP2 DUP2 MSTORE POP POP PUSH1 0x0 PUSH1 0x40 MLOAD DUP1 PUSH1 0x80 ADD PUSH1 0x40 MSTORE DUP1 DUP8 PUSH1 0x0 PUSH1 0x3 DUP2 LT PUSH2 0x1659 JUMPI PUSH2 0x1658 PUSH2 0x28DB JUMP JUMPDEST JUMPDEST PUSH1 0x20 MUL ADD MLOAD DUP2 MSTORE PUSH1 0x20 ADD DUP8 PUSH1 0x1 PUSH1 0x3 DUP2 LT PUSH2 0x1677 JUMPI PUSH2 0x1676 PUSH2 0x28DB JUMP JUMPDEST JUMPDEST PUSH1 0x20 MUL ADD MLOAD DUP2 MSTORE PUSH1 0x20 ADD DUP5 DUP1 PUSH2 0x1690 JUMPI PUSH2 0x168F PUSH2 0x290A JUMP JUMPDEST JUMPDEST DUP5 PUSH1 0x0 PUSH1 0x2 DUP2 LT PUSH2 0x16A4 JUMPI PUSH2 0x16A3 PUSH2 0x28DB JUMP JUMPDEST JUMPDEST PUSH1 0x20 MUL ADD MLOAD DUP9 PUSH1 0x0 PUSH1 0x2 DUP2 LT PUSH2 0x16BD JUMPI PUSH2 0x16BC PUSH2 0x28DB JUMP JUMPDEST JUMPDEST PUSH1 0x20 MUL ADD MLOAD MULMOD DUP2 MSTORE PUSH1 0x20 ADD DUP5 DUP1 PUSH2 0x16D7 JUMPI PUSH2 0x16D6 PUSH2 0x290A JUMP JUMPDEST JUMPDEST DUP5 PUSH1 0x1 PUSH1 0x2 DUP2 LT PUSH2 0x16EB JUMPI PUSH2 0x16EA PUSH2 0x28DB JUMP JUMPDEST JUMPDEST PUSH1 0x20 MUL ADD MLOAD DUP9 PUSH1 0x1 PUSH1 0x2 DUP2 LT PUSH2 0x1704 JUMPI PUSH2 0x1703 PUSH2 0x28DB JUMP JUMPDEST JUMPDEST PUSH1 0x20 MUL ADD MLOAD MULMOD DUP2 MSTORE POP SWAP1 POP DUP1 PUSH1 0x2 PUSH1 0x4 DUP2 LT PUSH2 0x1723 JUMPI PUSH2 0x1722 PUSH2 0x28DB JUMP JUMPDEST JUMPDEST PUSH1 0x20 MUL ADD MLOAD DUP2 PUSH1 0x0 PUSH1 0x4 DUP2 LT PUSH2 0x173C JUMPI PUSH2 0x173B PUSH2 0x28DB JUMP JUMPDEST JUMPDEST PUSH1 0x20 MUL ADD MLOAD SUB PUSH2 0x17FA JUMPI DUP1 PUSH1 0x3 PUSH1 0x4 DUP2 LT PUSH2 0x175A JUMPI PUSH2 0x1759 PUSH2 0x28DB JUMP JUMPDEST JUMPDEST PUSH1 0x20 MUL ADD MLOAD DUP2 PUSH1 0x1 PUSH1 0x4 DUP2 LT PUSH2 0x1773 JUMPI PUSH2 0x1772 PUSH2 0x28DB JUMP JUMPDEST JUMPDEST PUSH1 0x20 MUL ADD MLOAD EQ PUSH2 0x17E5 JUMPI PUSH1 0x0 DUP7 PUSH1 0x0 PUSH1 0x3 DUP2 LT PUSH2 0x1793 JUMPI PUSH2 0x1792 PUSH2 0x28DB JUMP JUMPDEST JUMPDEST PUSH1 0x20 MUL ADD DUP2 DUP2 MSTORE POP POP PUSH1 0x0 DUP7 PUSH1 0x1 PUSH1 0x3 DUP2 LT PUSH2 0x17B2 JUMPI PUSH2 0x17B1 PUSH2 0x28DB JUMP JUMPDEST JUMPDEST PUSH1 0x20 MUL ADD DUP2 DUP2 MSTORE POP POP PUSH1 0x0 DUP7 PUSH1 0x2 PUSH1 0x3 DUP2 LT PUSH2 0x17D1 JUMPI PUSH2 0x17D0 PUSH2 0x28DB JUMP JUMPDEST JUMPDEST PUSH1 0x20 MUL ADD DUP2 DUP2 MSTORE POP POP DUP6 SWAP4 POP POP POP POP PUSH2 0x1AB1 JUMP JUMPDEST PUSH2 0x17EE DUP7 PUSH2 0x1263 JUMP JUMPDEST POP DUP6 SWAP4 POP POP POP POP PUSH2 0x1AB1 JUMP JUMPDEST PUSH1 0x0 DUP4 DUP1 PUSH2 0x180B JUMPI PUSH2 0x180A PUSH2 0x290A JUMP JUMPDEST JUMPDEST DUP3 PUSH1 0x0 PUSH1 0x4 DUP2 LT PUSH2 0x181F JUMPI PUSH2 0x181E PUSH2 0x28DB JUMP JUMPDEST JUMPDEST PUSH1 0x20 MUL ADD MLOAD DUP6 PUSH2 0x182F SWAP2 SWAP1 PUSH2 0x2968 JUMP JUMPDEST DUP4 PUSH1 0x2 PUSH1 0x4 DUP2 LT PUSH2 0x1843 JUMPI PUSH2 0x1842 PUSH2 0x28DB JUMP JUMPDEST JUMPDEST PUSH1 0x20 MUL ADD MLOAD ADDMOD SWAP1 POP PUSH1 0x0 DUP5 DUP1 PUSH2 0x185C JUMPI PUSH2 0x185B PUSH2 0x290A JUMP JUMPDEST JUMPDEST DUP4 PUSH1 0x1 PUSH1 0x4 DUP2 LT PUSH2 0x1870 JUMPI PUSH2 0x186F PUSH2 0x28DB JUMP JUMPDEST JUMPDEST PUSH1 0x20 MUL ADD MLOAD DUP7 PUSH2 0x1880 SWAP2 SWAP1 PUSH2 0x2968 JUMP JUMPDEST DUP5 PUSH1 0x3 PUSH1 0x4 DUP2 LT PUSH2 0x1894 JUMPI PUSH2 0x1893 PUSH2 0x28DB JUMP JUMPDEST JUMPDEST PUSH1 0x20 MUL ADD MLOAD ADDMOD SWAP1 POP PUSH1 0x0 DUP6 DUP1 PUSH2 0x18AD JUMPI PUSH2 0x18AC PUSH2 0x290A JUMP JUMPDEST JUMPDEST DUP4 DUP5 MULMOD SWAP1 POP PUSH1 0x0 DUP7 DUP1 PUSH2 0x18C3 JUMPI PUSH2 0x18C2 PUSH2 0x290A JUMP JUMPDEST JUMPDEST DUP5 DUP4 MULMOD SWAP1 POP PUSH1 0x0 DUP8 DUP1 PUSH2 0x18D9 JUMPI PUSH2 0x18D8 PUSH2 0x290A JUMP JUMPDEST JUMPDEST DUP3 DUP10 PUSH2 0x18E5 SWAP2 SWAP1 PUSH2 0x2968 JUMP JUMPDEST DUP10 DUP1 PUSH2 0x18F4 JUMPI PUSH2 0x18F3 PUSH2 0x290A JUMP JUMPDEST JUMPDEST DUP7 DUP8 MULMOD ADDMOD SWAP1 POP DUP8 DUP1 PUSH2 0x1909 JUMPI PUSH2 0x1908 PUSH2 0x290A JUMP JUMPDEST JUMPDEST DUP9 DUP1 PUSH2 0x1918 JUMPI PUSH2 0x1917 PUSH2 0x290A JUMP JUMPDEST JUMPDEST DUP10 DUP1 PUSH2 0x1927 JUMPI PUSH2 0x1926 PUSH2 0x290A JUMP JUMPDEST JUMPDEST DUP6 DUP10 PUSH1 0x0 PUSH1 0x4 DUP2 LT PUSH2 0x193C JUMPI PUSH2 0x193B PUSH2 0x28DB JUMP JUMPDEST JUMPDEST PUSH1 0x20 MUL ADD MLOAD MULMOD PUSH1 0x2 MULMOD DUP10 PUSH2 0x1950 SWAP2 SWAP1 PUSH2 0x2968 JUMP JUMPDEST DUP3 ADDMOD SWAP1 POP DUP1 DUP10 PUSH1 0x0 PUSH1 0x3 DUP2 LT PUSH2 0x1969 JUMPI PUSH2 0x1968 PUSH2 0x28DB JUMP JUMPDEST JUMPDEST PUSH1 0x20 MUL ADD DUP2 DUP2 MSTORE POP POP DUP8 DUP1 PUSH2 0x1981 JUMPI PUSH2 0x1980 PUSH2 0x290A JUMP JUMPDEST JUMPDEST DUP9 DUP1 PUSH2 0x1990 JUMPI PUSH2 0x198F PUSH2 0x290A JUMP JUMPDEST JUMPDEST DUP3 DUP11 PUSH2 0x199C SWAP2 SWAP1 PUSH2 0x2968 JUMP JUMPDEST DUP11 DUP1 PUSH2 0x19AB JUMPI PUSH2 0x19AA PUSH2 0x290A JUMP JUMPDEST JUMPDEST DUP7 DUP11 PUSH1 0x0 PUSH1 0x4 DUP2 LT PUSH2 0x19C0 JUMPI PUSH2 0x19BF PUSH2 0x28DB JUMP JUMPDEST JUMPDEST PUSH1 0x20 MUL ADD MLOAD MULMOD ADDMOD DUP6 MULMOD DUP10 PUSH1 0x1 PUSH1 0x3 DUP2 LT PUSH2 0x19DD JUMPI PUSH2 0x19DC PUSH2 0x28DB JUMP JUMPDEST JUMPDEST PUSH1 0x20 MUL ADD DUP2 DUP2 MSTORE POP POP DUP8 DUP1 PUSH2 0x19F5 JUMPI PUSH2 0x19F4 PUSH2 0x290A JUMP JUMPDEST JUMPDEST DUP9 DUP1 PUSH2 0x1A04 JUMPI PUSH2 0x1A03 PUSH2 0x290A JUMP JUMPDEST JUMPDEST DUP4 DUP9 PUSH1 0x1 PUSH1 0x4 DUP2 LT PUSH2 0x1A19 JUMPI PUSH2 0x1A18 PUSH2 0x28DB JUMP JUMPDEST JUMPDEST PUSH1 0x20 MUL ADD MLOAD MULMOD DUP10 PUSH2 0x1A2A SWAP2 SWAP1 PUSH2 0x2968 JUMP JUMPDEST DUP11 PUSH1 0x1 PUSH1 0x3 DUP2 LT PUSH2 0x1A3E JUMPI PUSH2 0x1A3D PUSH2 0x28DB JUMP JUMPDEST JUMPDEST PUSH1 0x20 MUL ADD MLOAD ADDMOD DUP10 PUSH1 0x1 PUSH1 0x3 DUP2 LT PUSH2 0x1A58 JUMPI PUSH2 0x1A57 PUSH2 0x28DB JUMP JUMPDEST JUMPDEST PUSH1 0x20 MUL ADD DUP2 DUP2 MSTORE POP POP DUP8 DUP1 PUSH2 0x1A70 JUMPI PUSH2 0x1A6F PUSH2 0x290A JUMP JUMPDEST JUMPDEST DUP12 PUSH1 0x2 PUSH1 0x3 DUP2 LT PUSH2 0x1A84 JUMPI PUSH2 0x1A83 PUSH2 0x28DB JUMP JUMPDEST JUMPDEST PUSH1 0x20 MUL ADD MLOAD DUP7 MULMOD DUP10 PUSH1 0x2 PUSH1 0x3 DUP2 LT PUSH2 0x1A9F JUMPI PUSH2 0x1A9E PUSH2 0x28DB JUMP JUMPDEST JUMPDEST PUSH1 0x20 MUL ADD DUP2 DUP2 MSTORE POP POP POP POP POP POP POP POP POP POP JUMPDEST SWAP3 SWAP2 POP POP JUMP JUMPDEST PUSH1 0x0 DUP1 DUP4 EQ DUP1 PUSH2 0x1AC6 JUMPI POP DUP2 DUP4 EQ JUMPDEST DUP1 PUSH2 0x1AD1 JUMPI POP PUSH1 0x0 DUP3 EQ JUMPDEST ISZERO PUSH2 0x1ADB JUMPI PUSH1 0x0 DUP1 REVERT JUMPDEST DUP2 DUP4 GT ISZERO PUSH2 0x1AF7 JUMPI DUP2 DUP4 DUP2 PUSH2 0x1AF3 JUMPI PUSH2 0x1AF2 PUSH2 0x290A JUMP JUMPDEST JUMPDEST MOD SWAP3 POP JUMPDEST PUSH1 0x0 DUP1 PUSH1 0x1 SWAP1 POP PUSH1 0x0 DUP5 SWAP1 POP PUSH1 0x0 DUP7 SWAP1 POP PUSH1 0x0 JUMPDEST PUSH1 0x0 DUP3 EQ PUSH2 0x1B47 JUMPI DUP2 DUP4 DUP2 PUSH2 0x1B23 JUMPI PUSH2 0x1B22 PUSH2 0x290A JUMP JUMPDEST JUMPDEST DIV SWAP1 POP DUP4 DUP5 DUP3 MUL DUP7 SUB DUP4 DUP5 DUP5 MUL DUP7 SUB DUP1 SWAP6 POP DUP2 SWAP7 POP DUP3 SWAP8 POP DUP4 SWAP9 POP POP POP POP POP PUSH2 0x1B0B JUMP JUMPDEST PUSH1 0x0 DUP6 SLT ISZERO PUSH2 0x1B62 JUMPI DUP5 PUSH1 0x0 SUB DUP8 SUB SWAP6 POP POP POP POP POP POP PUSH2 0x1B6B JUMP JUMPDEST DUP5 SWAP6 POP POP POP POP POP POP JUMPDEST SWAP3 SWAP2 POP POP JUMP JUMPDEST DUP1 DUP1 PUSH2 0x1B80 JUMPI PUSH2 0x1B7F PUSH2 0x290A JUMP JUMPDEST JUMPDEST DUP3 DUP6 PUSH1 0x0 PUSH1 0x3 DUP2 LT PUSH2 0x1B95 JUMPI PUSH2 0x1B94 PUSH2 0x28DB JUMP JUMPDEST JUMPDEST PUSH1 0x20 MUL ADD MLOAD MULMOD DUP5 PUSH1 0x0 PUSH1 0x3 DUP2 LT PUSH2 0x1BAF JUMPI PUSH2 0x1BAE PUSH2 0x28DB JUMP JUMPDEST JUMPDEST PUSH1 0x20 MUL ADD DUP2 DUP2 MSTORE POP POP DUP1 DUP1 PUSH2 0x1BC7 JUMPI PUSH2 0x1BC6 PUSH2 0x290A JUMP JUMPDEST JUMPDEST DUP2 DUP1 PUSH2 0x1BD6 JUMPI PUSH2 0x1BD5 PUSH2 0x290A JUMP JUMPDEST JUMPDEST DUP4 DUP6 MULMOD DUP6 PUSH1 0x1 PUSH1 0x3 DUP2 LT PUSH2 0x1BED JUMPI PUSH2 0x1BEC PUSH2 0x28DB JUMP JUMPDEST JUMPDEST PUSH1 0x20 MUL ADD MLOAD MULMOD DUP5 PUSH1 0x1 PUSH1 0x3 DUP2 LT PUSH2 0x1C07 JUMPI PUSH2 0x1C06 PUSH2 0x28DB JUMP JUMPDEST JUMPDEST PUSH1 0x20 MUL ADD DUP2 DUP2 MSTORE POP POP PUSH1 0x1 DUP5 PUSH1 0x2 PUSH1 0x3 DUP2 LT PUSH2 0x1C26 JUMPI PUSH2 0x1C25 PUSH2 0x28DB JUMP JUMPDEST JUMPDEST PUSH1 0x20 MUL ADD DUP2 DUP2 MSTORE POP POP POP POP POP POP JUMP JUMPDEST PUSH1 0x0 PUSH32 0xFFFFFFFFFFFFFFFFFFFFFFFFFFFFFFFFFFFFFFFFFFFFFFFFFFFFFFFEFFFFFC2F SWAP1 POP PUSH1 0x0 DUP3 PUSH1 0x2 PUSH1 0x3 DUP2 LT PUSH2 0x1C70 JUMPI PUSH2 0x1C6F PUSH2 0x28DB JUMP JUMPDEST JUMPDEST PUSH1 0x20 MUL ADD MLOAD SUB PUSH2 0x1C80 JUMPI POP PUSH2 0x1E6C JUMP JUMPDEST PUSH1 0x0 DUP3 PUSH1 0x0 PUSH1 0x3 DUP2 LT PUSH2 0x1C96 JUMPI PUSH2 0x1C95 PUSH2 0x28DB JUMP JUMPDEST JUMPDEST PUSH1 0x20 MUL ADD MLOAD SWAP1 POP PUSH1 0x0 DUP4 PUSH1 0x1 PUSH1 0x3 DUP2 LT PUSH2 0x1CB3 JUMPI PUSH2 0x1CB2 PUSH2 0x28DB JUMP JUMPDEST JUMPDEST PUSH1 0x20 MUL ADD MLOAD SWAP1 POP PUSH1 0x0 DUP4 DUP1 PUSH2 0x1CCB JUMPI PUSH2 0x1CCA PUSH2 0x290A JUMP JUMPDEST JUMPDEST DUP3 DUP4 MULMOD SWAP1 POP PUSH1 0x0 DUP5 DUP1 PUSH2 0x1CE1 JUMPI PUSH2 0x1CE0 PUSH2 0x290A JUMP JUMPDEST JUMPDEST DUP6 DUP1 PUSH2 0x1CF0 JUMPI PUSH2 0x1CEF PUSH2 0x290A JUMP JUMPDEST JUMPDEST DUP4 DUP7 MULMOD PUSH1 0x4 MULMOD SWAP1 POP PUSH1 0x0 DUP6 DUP1 PUSH2 0x1D09 JUMPI PUSH2 0x1D08 PUSH2 0x290A JUMP JUMPDEST JUMPDEST DUP7 DUP1 PUSH2 0x1D18 JUMPI PUSH2 0x1D17 PUSH2 0x290A JUMP JUMPDEST JUMPDEST DUP7 DUP8 MULMOD PUSH1 0x3 MULMOD SWAP1 POP PUSH1 0x0 DUP7 DUP1 PUSH2 0x1D31 JUMPI PUSH2 0x1D30 PUSH2 0x290A JUMP JUMPDEST JUMPDEST DUP8 DUP1 PUSH2 0x1D40 JUMPI PUSH2 0x1D3F PUSH2 0x290A JUMP JUMPDEST JUMPDEST DUP5 DUP6 ADDMOD DUP9 PUSH2 0x1D4E SWAP2 SWAP1 PUSH2 0x2968 JUMP JUMPDEST DUP9 DUP1 PUSH2 0x1D5D JUMPI PUSH2 0x1D5C PUSH2 0x290A JUMP JUMPDEST JUMPDEST DUP5 DUP6 MULMOD ADDMOD SWAP1 POP DUP1 DUP9 PUSH1 0x0 PUSH1 0x3 DUP2 LT PUSH2 0x1D78 JUMPI PUSH2 0x1D77 PUSH2 0x28DB JUMP JUMPDEST JUMPDEST PUSH1 0x20 MUL ADD DUP2 DUP2 MSTORE POP POP DUP7 DUP1 PUSH2 0x1D90 JUMPI PUSH2 0x1D8F PUSH2 0x290A JUMP JUMPDEST JUMPDEST DUP8 DUP1 PUSH2 0x1D9F JUMPI PUSH2 0x1D9E PUSH2 0x290A JUMP JUMPDEST JUMPDEST DUP9 DUP1 PUSH2 0x1DAE JUMPI PUSH2 0x1DAD PUSH2 0x290A JUMP JUMPDEST JUMPDEST DUP7 DUP8 MULMOD PUSH1 0x8 MULMOD DUP9 PUSH2 0x1DBF SWAP2 SWAP1 PUSH2 0x2968 JUMP JUMPDEST DUP9 DUP1 PUSH2 0x1DCE JUMPI PUSH2 0x1DCD PUSH2 0x290A JUMP JUMPDEST JUMPDEST DUP10 DUP1 PUSH2 0x1DDD JUMPI PUSH2 0x1DDC PUSH2 0x290A JUMP JUMPDEST JUMPDEST DUP5 DUP12 PUSH2 0x1DE9 SWAP2 SWAP1 PUSH2 0x2968 JUMP JUMPDEST DUP8 ADDMOD DUP6 MULMOD ADDMOD DUP9 PUSH1 0x1 PUSH1 0x3 DUP2 LT PUSH2 0x1E02 JUMPI PUSH2 0x1E01 PUSH2 0x28DB JUMP JUMPDEST JUMPDEST PUSH1 0x20 MUL ADD DUP2 DUP2 MSTORE POP POP DUP7 DUP1 PUSH2 0x1E1A JUMPI PUSH2 0x1E19 PUSH2 0x290A JUMP JUMPDEST JUMPDEST DUP8 DUP1 PUSH2 0x1E29 JUMPI PUSH2 0x1E28 PUSH2 0x290A JUMP JUMPDEST JUMPDEST DUP10 PUSH1 0x2 PUSH1 0x3 DUP2 LT PUSH2 0x1E3D JUMPI PUSH2 0x1E3C PUSH2 0x28DB JUMP JUMPDEST JUMPDEST PUSH1 0x20 MUL ADD MLOAD DUP8 MULMOD PUSH1 0x2 MULMOD DUP9 PUSH1 0x2 PUSH1 0x3 DUP2 LT PUSH2 0x1E5B JUMPI PUSH2 0x1E5A PUSH2 0x28DB JUMP JUMPDEST JUMPDEST PUSH1 0x20 MUL ADD DUP2 DUP2 MSTORE POP POP POP POP POP POP POP POP POP JUMPDEST POP JUMP JUMPDEST PUSH1 0x0 DUP3 PUSH1 0x1 PUSH1 0x3 DUP2 LT PUSH2 0x1E85 JUMPI PUSH2 0x1E84 PUSH2 0x28DB JUMP JUMPDEST JUMPDEST PUSH1 0x20 MUL ADD MLOAD SUB PUSH2 0x1F1F JUMPI DUP1 PUSH1 0x0 PUSH1 0x2 DUP2 LT PUSH2 0x1EA3 JUMPI PUSH2 0x1EA2 PUSH2 0x28DB JUMP JUMPDEST JUMPDEST PUSH1 0x20 MUL ADD MLOAD DUP3 PUSH1 0x0 PUSH1 0x3 DUP2 LT PUSH2 0x1EBC JUMPI PUSH2 0x1EBB PUSH2 0x28DB JUMP JUMPDEST JUMPDEST PUSH1 0x20 MUL ADD DUP2 DUP2 MSTORE POP POP DUP1 PUSH1 0x1 PUSH1 0x2 DUP2 LT PUSH2 0x1ED9 JUMPI PUSH2 0x1ED8 PUSH2 0x28DB JUMP JUMPDEST JUMPDEST PUSH1 0x20 MUL ADD MLOAD DUP3 PUSH1 0x1 PUSH1 0x3 DUP2 LT PUSH2 0x1EF2 JUMPI PUSH2 0x1EF1 PUSH2 0x28DB JUMP JUMPDEST JUMPDEST PUSH1 0x20 MUL ADD DUP2 DUP2 MSTORE POP POP PUSH1 0x1 DUP3 PUSH1 0x2 PUSH1 0x3 DUP2 LT PUSH2 0x1F11 JUMPI PUSH2 0x1F10 PUSH2 0x28DB JUMP JUMPDEST JUMPDEST PUSH1 0x20 MUL ADD DUP2 DUP2 MSTORE POP POP PUSH2 0x249D JUMP JUMPDEST PUSH1 0x0 DUP2 PUSH1 0x1 PUSH1 0x2 DUP2 LT PUSH2 0x1F35 JUMPI PUSH2 0x1F34 PUSH2 0x28DB JUMP JUMPDEST JUMPDEST PUSH1 0x20 MUL ADD MLOAD SUB ISZERO PUSH2 0x249D JUMPI PUSH1 0x0 PUSH32 0xFFFFFFFFFFFFFFFFFFFFFFFFFFFFFFFFFFFFFFFFFFFFFFFFFFFFFFFEFFFFFC2F SWAP1 POP PUSH2 0x1F6D PUSH2 0x2536 JUMP JUMPDEST DUP2 DUP1 PUSH2 0x1F7C JUMPI PUSH2 0x1F7B PUSH2 0x290A JUMP JUMPDEST JUMPDEST DUP5 PUSH1 0x2 PUSH1 0x3 DUP2 LT PUSH2 0x1F90 JUMPI PUSH2 0x1F8F PUSH2 0x28DB JUMP JUMPDEST JUMPDEST PUSH1 0x20 MUL ADD MLOAD DUP6 PUSH1 0x2 PUSH1 0x3 DUP2 LT PUSH2 0x1FA9 JUMPI PUSH2 0x1FA8 PUSH2 0x28DB JUMP JUMPDEST JUMPDEST PUSH1 0x20 MUL ADD MLOAD MULMOD DUP2 PUSH1 0x0 PUSH1 0x2 DUP2 LT PUSH2 0x1FC3 JUMPI PUSH2 0x1FC2 PUSH2 0x28DB JUMP JUMPDEST JUMPDEST PUSH1 0x20 MUL ADD DUP2 DUP2 MSTORE POP POP DUP2 DUP1 PUSH2 0x1FDB JUMPI PUSH2 0x1FDA PUSH2 0x290A JUMP JUMPDEST JUMPDEST DUP2 PUSH1 0x0 PUSH1 0x2 DUP2 LT PUSH2 0x1FEF JUMPI PUSH2 0x1FEE PUSH2 0x28DB JUMP JUMPDEST JUMPDEST PUSH1 0x20 MUL ADD MLOAD DUP6 PUSH1 0x2 PUSH1 0x3 DUP2 LT PUSH2 0x2008 JUMPI PUSH2 0x2007 PUSH2 0x28DB JUMP JUMPDEST JUMPDEST PUSH1 0x20 MUL ADD MLOAD MULMOD DUP2 PUSH1 0x1 PUSH1 0x2 DUP2 LT PUSH2 0x2022 JUMPI PUSH2 0x2021 PUSH2 0x28DB JUMP JUMPDEST JUMPDEST PUSH1 0x20 MUL ADD DUP2 DUP2 MSTORE POP POP PUSH1 0x0 PUSH1 0x40 MLOAD DUP1 PUSH1 0x80 ADD PUSH1 0x40 MSTORE DUP1 DUP7 PUSH1 0x0 PUSH1 0x3 DUP2 LT PUSH2 0x204C JUMPI PUSH2 0x204B PUSH2 0x28DB JUMP JUMPDEST JUMPDEST PUSH1 0x20 MUL ADD MLOAD DUP2 MSTORE PUSH1 0x20 ADD DUP7 PUSH1 0x1 PUSH1 0x3 DUP2 LT PUSH2 0x206A JUMPI PUSH2 0x2069 PUSH2 0x28DB JUMP JUMPDEST JUMPDEST PUSH1 0x20 MUL ADD MLOAD DUP2 MSTORE PUSH1 0x20 ADD DUP5 DUP1 PUSH2 0x2083 JUMPI PUSH2 0x2082 PUSH2 0x290A JUMP JUMPDEST JUMPDEST DUP5 PUSH1 0x0 PUSH1 0x2 DUP2 LT PUSH2 0x2097 JUMPI PUSH2 0x2096 PUSH2 0x28DB JUMP JUMPDEST JUMPDEST PUSH1 0x20 MUL ADD MLOAD DUP8 PUSH1 0x0 PUSH1 0x2 DUP2 LT PUSH2 0x20B0 JUMPI PUSH2 0x20AF PUSH2 0x28DB JUMP JUMPDEST JUMPDEST PUSH1 0x20 MUL ADD MLOAD MULMOD DUP2 MSTORE PUSH1 0x20 ADD DUP5 DUP1 PUSH2 0x20CA JUMPI PUSH2 0x20C9 PUSH2 0x290A JUMP JUMPDEST JUMPDEST DUP5 PUSH1 0x1 PUSH1 0x2 DUP2 LT PUSH2 0x20DE JUMPI PUSH2 0x20DD PUSH2 0x28DB JUMP JUMPDEST JUMPDEST PUSH1 0x20 MUL ADD MLOAD DUP8 PUSH1 0x1 PUSH1 0x2 DUP2 LT PUSH2 0x20F7 JUMPI PUSH2 0x20F6 PUSH2 0x28DB JUMP JUMPDEST JUMPDEST PUSH1 0x20 MUL ADD MLOAD MULMOD DUP2 MSTORE POP SWAP1 POP DUP1 PUSH1 0x2 PUSH1 0x4 DUP2 LT PUSH2 0x2116 JUMPI PUSH2 0x2115 PUSH2 0x28DB JUMP JUMPDEST JUMPDEST PUSH1 0x20 MUL ADD MLOAD DUP2 PUSH1 0x0 PUSH1 0x4 DUP2 LT PUSH2 0x212F JUMPI PUSH2 0x212E PUSH2 0x28DB JUMP JUMPDEST JUMPDEST PUSH1 0x20 MUL ADD MLOAD SUB PUSH2 0x21E6 JUMPI DUP1 PUSH1 0x3 PUSH1 0x4 DUP2 LT PUSH2 0x214D JUMPI PUSH2 0x214C PUSH2 0x28DB JUMP JUMPDEST JUMPDEST PUSH1 0x20 MUL ADD MLOAD DUP2 PUSH1 0x1 PUSH1 0x4 DUP2 LT PUSH2 0x2166 JUMPI PUSH2 0x2165 PUSH2 0x28DB JUMP JUMPDEST JUMPDEST PUSH1 0x20 MUL ADD MLOAD EQ PUSH2 0x21D5 JUMPI PUSH1 0x0 DUP6 PUSH1 0x0 PUSH1 0x3 DUP2 LT PUSH2 0x2186 JUMPI PUSH2 0x2185 PUSH2 0x28DB JUMP JUMPDEST JUMPDEST PUSH1 0x20 MUL ADD DUP2 DUP2 MSTORE POP POP PUSH1 0x0 DUP6 PUSH1 0x1 PUSH1 0x3 DUP2 LT PUSH2 0x21A5 JUMPI PUSH2 0x21A4 PUSH2 0x28DB JUMP JUMPDEST JUMPDEST PUSH1 0x20 MUL ADD DUP2 DUP2 MSTORE POP POP PUSH1 0x0 DUP6 PUSH1 0x2 PUSH1 0x3 DUP2 LT PUSH2 0x21C4 JUMPI PUSH2 0x21C3 PUSH2 0x28DB JUMP JUMPDEST JUMPDEST PUSH1 0x20 MUL ADD DUP2 DUP2 MSTORE POP POP POP POP POP PUSH2 0x249D JUMP JUMPDEST PUSH2 0x21DE DUP6 PUSH2 0x1C35 JUMP JUMPDEST POP POP POP PUSH2 0x249D JUMP JUMPDEST PUSH1 0x0 DUP4 DUP1 PUSH2 0x21F7 JUMPI PUSH2 0x21F6 PUSH2 0x290A JUMP JUMPDEST JUMPDEST DUP3 PUSH1 0x0 PUSH1 0x4 DUP2 LT PUSH2 0x220B JUMPI PUSH2 0x220A PUSH2 0x28DB JUMP JUMPDEST JUMPDEST PUSH1 0x20 MUL ADD MLOAD DUP6 PUSH2 0x221B SWAP2 SWAP1 PUSH2 0x2968 JUMP JUMPDEST DUP4 PUSH1 0x2 PUSH1 0x4 DUP2 LT PUSH2 0x222F JUMPI PUSH2 0x222E PUSH2 0x28DB JUMP JUMPDEST JUMPDEST PUSH1 0x20 MUL ADD MLOAD ADDMOD SWAP1 POP PUSH1 0x0 DUP5 DUP1 PUSH2 0x2248 JUMPI PUSH2 0x2247 PUSH2 0x290A JUMP JUMPDEST JUMPDEST DUP4 PUSH1 0x1 PUSH1 0x4 DUP2 LT PUSH2 0x225C JUMPI PUSH2 0x225B PUSH2 0x28DB JUMP JUMPDEST JUMPDEST PUSH1 0x20 MUL ADD MLOAD DUP7 PUSH2 0x226C SWAP2 SWAP1 PUSH2 0x2968 JUMP JUMPDEST DUP5 PUSH1 0x3 PUSH1 0x4 DUP2 LT PUSH2 0x2280 JUMPI PUSH2 0x227F PUSH2 0x28DB JUMP JUMPDEST JUMPDEST PUSH1 0x20 MUL ADD MLOAD ADDMOD SWAP1 POP PUSH1 0x0 DUP6 DUP1 PUSH2 0x2299 JUMPI PUSH2 0x2298 PUSH2 0x290A JUMP JUMPDEST JUMPDEST DUP4 DUP5 MULMOD SWAP1 POP PUSH1 0x0 DUP7 DUP1 PUSH2 0x22AF JUMPI PUSH2 0x22AE PUSH2 0x290A JUMP JUMPDEST JUMPDEST DUP5 DUP4 MULMOD SWAP1 POP PUSH1 0x0 DUP8 DUP1 PUSH2 0x22C5 JUMPI PUSH2 0x22C4 PUSH2 0x290A JUMP JUMPDEST JUMPDEST DUP3 DUP10 PUSH2 0x22D1 SWAP2 SWAP1 PUSH2 0x2968 JUMP JUMPDEST DUP10 DUP1 PUSH2 0x22E0 JUMPI PUSH2 0x22DF PUSH2 0x290A JUMP JUMPDEST JUMPDEST DUP7 DUP8 MULMOD ADDMOD SWAP1 POP DUP8 DUP1 PUSH2 0x22F5 JUMPI PUSH2 0x22F4 PUSH2 0x290A JUMP JUMPDEST JUMPDEST DUP9 DUP1 PUSH2 0x2304 JUMPI PUSH2 0x2303 PUSH2 0x290A JUMP JUMPDEST JUMPDEST DUP10 DUP1 PUSH2 0x2313 JUMPI PUSH2 0x2312 PUSH2 0x290A JUMP JUMPDEST JUMPDEST DUP6 DUP10 PUSH1 0x0 PUSH1 0x4 DUP2 LT PUSH2 0x2328 JUMPI PUSH2 0x2327 PUSH2 0x28DB JUMP JUMPDEST JUMPDEST PUSH1 0x20 MUL ADD MLOAD MULMOD PUSH1 0x2 MULMOD DUP10 PUSH2 0x233C SWAP2 SWAP1 PUSH2 0x2968 JUMP JUMPDEST DUP3 ADDMOD SWAP1 POP DUP1 DUP11 PUSH1 0x0 PUSH1 0x3 DUP2 LT PUSH2 0x2355 JUMPI PUSH2 0x2354 PUSH2 0x28DB JUMP JUMPDEST JUMPDEST PUSH1 0x20 MUL ADD DUP2 DUP2 MSTORE POP POP DUP8 DUP1 PUSH2 0x236D JUMPI PUSH2 0x236C PUSH2 0x290A JUMP JUMPDEST JUMPDEST DUP9 DUP1 PUSH2 0x237C JUMPI PUSH2 0x237B PUSH2 0x290A JUMP JUMPDEST JUMPDEST DUP3 DUP11 PUSH2 0x2388 SWAP2 SWAP1 PUSH2 0x2968 JUMP JUMPDEST DUP11 DUP1 PUSH2 0x2397 JUMPI PUSH2 0x2396 PUSH2 0x290A JUMP JUMPDEST JUMPDEST DUP7 DUP11 PUSH1 0x0 PUSH1 0x4 DUP2 LT PUSH2 0x23AC JUMPI PUSH2 0x23AB PUSH2 0x28DB JUMP JUMPDEST JUMPDEST PUSH1 0x20 MUL ADD MLOAD MULMOD ADDMOD DUP6 MULMOD DUP11 PUSH1 0x1 PUSH1 0x3 DUP2 LT PUSH2 0x23C9 JUMPI PUSH2 0x23C8 PUSH2 0x28DB JUMP JUMPDEST JUMPDEST PUSH1 0x20 MUL ADD DUP2 DUP2 MSTORE POP POP DUP8 DUP1 PUSH2 0x23E1 JUMPI PUSH2 0x23E0 PUSH2 0x290A JUMP JUMPDEST JUMPDEST DUP9 DUP1 PUSH2 0x23F0 JUMPI PUSH2 0x23EF PUSH2 0x290A JUMP JUMPDEST JUMPDEST DUP4 DUP9 PUSH1 0x1 PUSH1 0x4 DUP2 LT PUSH2 0x2405 JUMPI PUSH2 0x2404 PUSH2 0x28DB JUMP JUMPDEST JUMPDEST PUSH1 0x20 MUL ADD MLOAD MULMOD DUP10 PUSH2 0x2416 SWAP2 SWAP1 PUSH2 0x2968 JUMP JUMPDEST DUP12 PUSH1 0x1 PUSH1 0x3 DUP2 LT PUSH2 0x242A JUMPI PUSH2 0x2429 PUSH2 0x28DB JUMP JUMPDEST JUMPDEST PUSH1 0x20 MUL ADD MLOAD ADDMOD DUP11 PUSH1 0x1 PUSH1 0x3 DUP2 LT PUSH2 0x2444 JUMPI PUSH2 0x2443 PUSH2 0x28DB JUMP JUMPDEST JUMPDEST PUSH1 0x20 MUL ADD DUP2 DUP2 MSTORE POP POP DUP8 DUP1 PUSH2 0x245C JUMPI PUSH2 0x245B PUSH2 0x290A JUMP JUMPDEST JUMPDEST DUP11 PUSH1 0x2 PUSH1 0x3 DUP2 LT PUSH2 0x2470 JUMPI PUSH2 0x246F PUSH2 0x28DB JUMP JUMPDEST JUMPDEST PUSH1 0x20 MUL ADD MLOAD DUP7 MULMOD DUP11 PUSH1 0x2 PUSH1 0x3 DUP2 LT PUSH2 0x248B JUMPI PUSH2 0x248A PUSH2 0x28DB JUMP JUMPDEST JUMPDEST PUSH1 0x20 MUL ADD DUP2 DUP2 MSTORE POP POP POP POP POP POP POP POP POP POP JUMPDEST POP POP JUMP JUMPDEST PUSH1 0x40 MLOAD DUP1 PUSH1 0x60 ADD PUSH1 0x40 MSTORE DUP1 PUSH1 0x3 SWAP1 PUSH1 0x20 DUP3 MUL DUP1 CALLDATASIZE DUP4 CALLDATACOPY DUP1 DUP3 ADD SWAP2 POP POP SWAP1 POP POP SWAP1 JUMP JUMPDEST PUSH1 0x40 MLOAD DUP1 PUSH1 0x80 ADD PUSH1 0x40 MSTORE DUP1 PUSH1 0x4 SWAP1 PUSH1 0x20 DUP3 MUL DUP1 CALLDATASIZE DUP4 CALLDATACOPY DUP1 DUP3 ADD SWAP2 POP POP SWAP1 POP POP SWAP1 JUMP JUMPDEST PUSH1 0x40 MLOAD DUP1 PUSH2 0x100 ADD PUSH1 0x40 MSTORE DUP1 PUSH1 0x8 SWAP1 JUMPDEST PUSH2 0x24FD PUSH2 0x24A1 JUMP JUMPDEST DUP2 MSTORE PUSH1 0x20 ADD SWAP1 PUSH1 0x1 SWAP1 SUB SWAP1 DUP2 PUSH2 0x24F5 JUMPI SWAP1 POP POP SWAP1 JUMP JUMPDEST PUSH1 0x40 MLOAD DUP1 PUSH2 0x200 ADD PUSH1 0x40 MSTORE DUP1 PUSH1 0x10 SWAP1 PUSH1 0x20 DUP3 MUL DUP1 CALLDATASIZE DUP4 CALLDATACOPY DUP1 DUP3 ADD SWAP2 POP POP SWAP1 POP POP SWAP1 JUMP JUMPDEST PUSH1 0x40 MLOAD DUP1 PUSH1 0x40 ADD PUSH1 0x40 MSTORE DUP1 PUSH1 0x2 SWAP1 PUSH1 0x20 DUP3 MUL DUP1 CALLDATASIZE DUP4 CALLDATACOPY DUP1 DUP3 ADD SWAP2 POP POP SWAP1 POP POP SWAP1 JUMP JUMPDEST PUSH1 0x0 PUSH1 0x40 MLOAD SWAP1 POP SWAP1 JUMP JUMPDEST PUSH1 0x0 DUP1 REVERT JUMPDEST PUSH1 0x0 DUP1 REVERT JUMPDEST PUSH1 0x0 PUSH1 0x1F NOT PUSH1 0x1F DUP4 ADD AND SWAP1 POP SWAP2 SWAP1 POP JUMP JUMPDEST PUSH32 0x4E487B7100000000000000000000000000000000000000000000000000000000 PUSH1 0x0 MSTORE PUSH1 0x41 PUSH1 0x4 MSTORE PUSH1 0x24 PUSH1 0x0 REVERT JUMPDEST PUSH2 0x25B5 DUP3 PUSH2 0x256C JUMP JUMPDEST DUP2 ADD DUP2 DUP2 LT PUSH8 0xFFFFFFFFFFFFFFFF DUP3 GT OR ISZERO PUSH2 0x25D4 JUMPI PUSH2 0x25D3 PUSH2 0x257D JUMP JUMPDEST JUMPDEST DUP1 PUSH1 0x40 MSTORE POP POP POP JUMP JUMPDEST PUSH1 0x0 PUSH2 0x25E7 PUSH2 0x2558 JUMP JUMPDEST SWAP1 POP PUSH2 0x25F3 DUP3 DUP3 PUSH2 0x25AC JUMP JUMPDEST SWAP2 SWAP1 POP JUMP JUMPDEST PUSH1 0x0 PUSH8 0xFFFFFFFFFFFFFFFF DUP3 GT ISZERO PUSH2 0x2613 JUMPI PUSH2 0x2612 PUSH2 0x257D JUMP JUMPDEST JUMPDEST PUSH1 0x20 DUP3 MUL SWAP1 POP SWAP2 SWAP1 POP JUMP JUMPDEST PUSH1 0x0 DUP1 REVERT JUMPDEST PUSH1 0x0 DUP2 SWAP1 POP SWAP2 SWAP1 POP JUMP JUMPDEST PUSH2 0x2636 DUP2 PUSH2 0x2623 JUMP JUMPDEST DUP2 EQ PUSH2 0x2641 JUMPI PUSH1 0x0 DUP1 REVERT JUMPDEST POP JUMP JUMPDEST PUSH1 0x0 DUP2 CALLDATALOAD SWAP1 POP PUSH2 0x2653 DUP2 PUSH2 0x262D JUMP JUMPDEST SWAP3 SWAP2 POP POP JUMP JUMPDEST PUSH1 0x0 PUSH2 0x266C PUSH2 0x2667 DUP5 PUSH2 0x25F8 JUMP JUMPDEST PUSH2 0x25DD JUMP JUMPDEST SWAP1 POP DUP1 PUSH1 0x20 DUP5 MUL DUP4 ADD DUP6 DUP2 GT ISZERO PUSH2 0x2686 JUMPI PUSH2 0x2685 PUSH2 0x261E JUMP JUMPDEST JUMPDEST DUP4 JUMPDEST DUP2 DUP2 LT ISZERO PUSH2 0x26AF JUMPI DUP1 PUSH2 0x269B DUP9 DUP3 PUSH2 0x2644 JUMP JUMPDEST DUP5 MSTORE PUSH1 0x20 DUP5 ADD SWAP4 POP POP PUSH1 0x20 DUP2 ADD SWAP1 POP PUSH2 0x2688 JUMP JUMPDEST POP POP POP SWAP4 SWAP3 POP POP POP JUMP JUMPDEST PUSH1 0x0 DUP3 PUSH1 0x1F DUP4 ADD SLT PUSH2 0x26CE JUMPI PUSH2 0x26CD PUSH2 0x2567 JUMP JUMPDEST JUMPDEST PUSH1 0x3 PUSH2 0x26DB DUP5 DUP3 DUP6 PUSH2 0x2659 JUMP JUMPDEST SWAP2 POP POP SWAP3 SWAP2 POP POP JUMP JUMPDEST PUSH1 0x0 DUP1 PUSH1 0xC0 DUP4 DUP6 SUB SLT ISZERO PUSH2 0x26FB JUMPI PUSH2 0x26FA PUSH2 0x2562 JUMP JUMPDEST JUMPDEST PUSH1 0x0 PUSH2 0x2709 DUP6 DUP3 DUP7 ADD PUSH2 0x26B9 JUMP JUMPDEST SWAP3 POP POP PUSH1 0x60 PUSH2 0x271A DUP6 DUP3 DUP7 ADD PUSH2 0x26B9 JUMP JUMPDEST SWAP2 POP POP SWAP3 POP SWAP3 SWAP1 POP JUMP JUMPDEST PUSH1 0x0 PUSH1 0x3 SWAP1 POP SWAP2 SWAP1 POP JUMP JUMPDEST PUSH1 0x0 DUP2 SWAP1 POP SWAP3 SWAP2 POP POP JUMP JUMPDEST PUSH1 0x0 DUP2 SWAP1 POP SWAP2 SWAP1 POP JUMP JUMPDEST PUSH2 0x274D DUP2 PUSH2 0x2623 JUMP JUMPDEST DUP3 MSTORE POP POP JUMP JUMPDEST PUSH1 0x0 PUSH2 0x275F DUP4 DUP4 PUSH2 0x2744 JUMP JUMPDEST PUSH1 0x20 DUP4 ADD SWAP1 POP SWAP3 SWAP2 POP POP JUMP JUMPDEST PUSH1 0x0 PUSH1 0x20 DUP3 ADD SWAP1 POP SWAP2 SWAP1 POP JUMP JUMPDEST PUSH2 0x2781 DUP2 PUSH2 0x2724 JUMP JUMPDEST PUSH2 0x278B DUP2 DUP5 PUSH2 0x272F JUMP JUMPDEST SWAP3 POP PUSH2 0x2796 DUP3 PUSH2 0x273A JUMP JUMPDEST DUP1 PUSH1 0x0 JUMPDEST DUP4 DUP2 LT ISZERO PUSH2 0x27C7 JUMPI DUP2 MLOAD PUSH2 0x27AE DUP8 DUP3 PUSH2 0x2753 JUMP JUMPDEST SWAP7 POP PUSH2 0x27B9 DUP4 PUSH2 0x276B JUMP JUMPDEST SWAP3 POP POP PUSH1 0x1 DUP2 ADD SWAP1 POP PUSH2 0x279A JUMP JUMPDEST POP POP POP POP POP POP JUMP JUMPDEST PUSH1 0x0 PUSH1 0x60 DUP3 ADD SWAP1 POP PUSH2 0x27E4 PUSH1 0x0 DUP4 ADD DUP5 PUSH2 0x2778 JUMP JUMPDEST SWAP3 SWAP2 POP POP JUMP JUMPDEST PUSH1 0x0 PUSH8 0xFFFFFFFFFFFFFFFF DUP3 GT ISZERO PUSH2 0x2805 JUMPI PUSH2 0x2804 PUSH2 0x257D JUMP JUMPDEST JUMPDEST PUSH1 0x20 DUP3 MUL SWAP1 POP SWAP2 SWAP1 POP JUMP JUMPDEST PUSH1 0x0 PUSH2 0x2823 PUSH2 0x281E DUP5 PUSH2 0x27EA JUMP JUMPDEST PUSH2 0x25DD JUMP JUMPDEST SWAP1 POP DUP1 PUSH1 0x20 DUP5 MUL DUP4 ADD DUP6 DUP2 GT ISZERO PUSH2 0x283D JUMPI PUSH2 0x283C PUSH2 0x261E JUMP JUMPDEST JUMPDEST DUP4 JUMPDEST DUP2 DUP2 LT ISZERO PUSH2 0x2866 JUMPI DUP1 PUSH2 0x2852 DUP9 DUP3 PUSH2 0x2644 JUMP JUMPDEST DUP5 MSTORE PUSH1 0x20 DUP5 ADD SWAP4 POP POP PUSH1 0x20 DUP2 ADD SWAP1 POP PUSH2 0x283F JUMP JUMPDEST POP POP POP SWAP4 SWAP3 POP POP POP JUMP JUMPDEST PUSH1 0x0 DUP3 PUSH1 0x1F DUP4 ADD SLT PUSH2 0x2885 JUMPI PUSH2 0x2884 PUSH2 0x2567 JUMP JUMPDEST JUMPDEST PUSH1 0x2 PUSH2 0x2892 DUP5 DUP3 DUP6 PUSH2 0x2810 JUMP JUMPDEST SWAP2 POP POP SWAP3 SWAP2 POP POP JUMP JUMPDEST PUSH1 0x0 DUP1 PUSH1 0x60 DUP4 DUP6 SUB SLT ISZERO PUSH2 0x28B2 JUMPI PUSH2 0x28B1 PUSH2 0x2562 JUMP JUMPDEST JUMPDEST PUSH1 0x0 PUSH2 0x28C0 DUP6 DUP3 DUP7 ADD PUSH2 0x2644 JUMP JUMPDEST SWAP3 POP POP PUSH1 0x20 PUSH2 0x28D1 DUP6 DUP3 DUP7 ADD PUSH2 0x2870 JUMP JUMPDEST SWAP2 POP POP SWAP3 POP SWAP3 SWAP1 POP JUMP JUMPDEST PUSH32 0x4E487B7100000000000000000000000000000000000000000000000000000000 PUSH1 0x0 MSTORE PUSH1 0x32 PUSH1 0x4 MSTORE PUSH1 0x24 PUSH1 0x0 REVERT JUMPDEST PUSH32 0x4E487B7100000000000000000000000000000000000000000000000000000000 PUSH1 0x0 MSTORE PUSH1 0x12 PUSH1 0x4 MSTORE PUSH1 0x24 PUSH1 0x0 REVERT JUMPDEST PUSH32 0x4E487B7100000000000000000000000000000000000000000000000000000000 PUSH1 0x0 MSTORE PUSH1 0x11 PUSH1 0x4 MSTORE PUSH1 0x24 PUSH1 0x0 REVERT JUMPDEST PUSH1 0x0 PUSH2 0x2973 DUP3 PUSH2 0x2623 JUMP JUMPDEST SWAP2 POP PUSH2 0x297E DUP4 PUSH2 0x2623 JUMP JUMPDEST SWAP3 POP DUP3 DUP3 SUB SWAP1 POP DUP2 DUP2 GT ISZERO PUSH2 0x2996 JUMPI PUSH2 0x2995 PUSH2 0x2939 JUMP JUMPDEST JUMPDEST SWAP3 SWAP2 POP POP JUMP JUMPDEST PUSH1 0x0 PUSH2 0x29A7 DUP3 PUSH2 0x2623 JUMP JUMPDEST SWAP2 POP PUSH2 0x29B2 DUP4 PUSH2 0x2623 JUMP JUMPDEST SWAP3 POP DUP3 DUP3 MUL PUSH2 0x29C0 DUP2 PUSH2 0x2623 JUMP JUMPDEST SWAP2 POP DUP3 DUP3 DIV DUP5 EQ DUP4 ISZERO OR PUSH2 0x29D7 JUMPI PUSH2 0x29D6 PUSH2 0x2939 JUMP JUMPDEST JUMPDEST POP SWAP3 SWAP2 POP POP JUMP JUMPDEST PUSH1 0x0 PUSH2 0x29E9 DUP3 PUSH2 0x2623 JUMP JUMPDEST SWAP2 POP PUSH2 0x29F4 DUP4 PUSH2 0x2623 JUMP JUMPDEST SWAP3 POP DUP3 DUP3 ADD SWAP1 POP DUP1 DUP3 GT ISZERO PUSH2 0x2A0C JUMPI PUSH2 0x2A0B PUSH2 0x2939 JUMP JUMPDEST JUMPDEST SWAP3 SWAP2 POP POP JUMP JUMPDEST PUSH1 0x0 PUSH2 0x2A1D DUP3 PUSH2 0x2623 JUMP JUMPDEST SWAP2 POP PUSH1 0x0 DUP3 SUB PUSH2 0x2A30 JUMPI PUSH2 0x2A2F PUSH2 0x2939 JUMP JUMPDEST JUMPDEST PUSH1 0x1 DUP3 SUB SWAP1 POP SWAP2 SWAP1 POP JUMP JUMPDEST PUSH1 0x0 PUSH2 0x2A46 DUP3 PUSH2 0x2623 JUMP JUMPDEST SWAP2 POP PUSH32 0xFFFFFFFFFFFFFFFFFFFFFFFFFFFFFFFFFFFFFFFFFFFFFFFFFFFFFFFFFFFFFFFF DUP3 SUB PUSH2 0x2A78 JUMPI PUSH2 0x2A77 PUSH2 0x2939 JUMP JUMPDEST JUMPDEST PUSH1 0x1 DUP3 ADD SWAP1 POP SWAP2 SWAP1 POP JUMP JUMPDEST PUSH1 0x0 PUSH2 0x2A8E DUP3 PUSH2 0x2623 JUMP JUMPDEST SWAP2 POP PUSH2 0x2A99 DUP4 PUSH2 0x2623 JUMP JUMPDEST SWAP3 POP DUP3 PUSH2 0x2AA9 JUMPI PUSH2 0x2AA8 PUSH2 0x290A JUMP JUMPDEST JUMPDEST DUP3 DUP3 DIV SWAP1 POP SWAP3 SWAP2 POP POP JUMP INVALID LOG2 PUSH5 0x6970667358 0x22 SLT KECCAK256 SDIV 0xC8 0xC7 0xF6 JUMPDEST 0xBF CHAINID PUSH14 0x426C286BB7888E82C0C7B057B772 GASLIMIT 0xC0 SWAP13 SELFBALANCE 0xE2 RETURNDATACOPY EXTCODECOPY MSTORE DUP9 0x2D PUSH5 0x736F6C6343 STOP ADDMOD EQ STOP CALLER "},"methodIdentifiers":{"_add(uint256[3],uint256[3])":"7670aa76","_mul(uint256,uint256[2])":"cef3da1a"}}}}}