{"contracts/ringSigVerifier.sol":{"RingSigVerifier":{"abi":[{"inputs":[],"stateMutability":"nonpayable","type":"constructor"},{"inputs":[{"internalType":"string","name":"message","type":"string"},{"internalType":"uint256[]","name":"ring","type":"uint256[]"},{"internalType":"uint256[]","name":"responses","type":"uint256[]"},{"internalType":"uint256","name":"c","type":"uint256"}],"name":"verifyRingSignature","outputs":[{"internalType":"bool","name":"","type":"bool"}],"stateMutability":"pure","type":"function"}],"evm":{"bytecode":{"linkReferences":{},"object":"608060405234801561001057600080fd5b506111e0806100206000396000f3fe608060405234801561001057600080fd5b506004361061002b5760003560e01c8063c434c5ee14610030575b600080fd5b61004361003e366004610f7b565b610057565b604051901515815260200160405180910390f35b6000600184511180156100755750600284516100739190611075565b155b6100da5760405162461bcd60e51b815260206004820152602b60248201527f52696e67206c656e677468206d757374206265206576656e20616e642067726560448201526a61746572207468616e203160a81b60648201526084015b60405180910390fd5b600284516100e8919061109f565b8351146101515760405162461bcd60e51b815260206004820152603160248201527f526573706f6e736573206c656e677468206d75737420626520657175616c207460448201527037903934b733903632b733ba341017901960791b60648201526084016100d1565b600061015c856102f0565b905060006101cf828887600081518110610178576101786110b3565b60200260200101518760405180604001604052808c60008151811061019f5761019f6110b3565b602002602001015181526020018c6001815181106101bf576101bf6110b3565b602002602001015181525061036d565b905060025b600287516101e291906110c9565b81101561026f5761025b8389886101fa60028661109f565b8151811061020a5761020a6110b3565b60200260200101518560405180604001604052808d8881518110610230576102306110b3565b602002602001015181526020018d88600161024b91906110dc565b815181106101bf576101bf6110b3565b91506102686002826110dc565b90506101d4565b506102e38288876001895161028491906110c9565b81518110610294576102946110b3565b60200260200101518460405180604001604052808c60028e516102b791906110c9565b815181106102c7576102c76110b3565b602002602001015181526020018c60018e5161024b91906110c9565b9093149695505050505050565b60408051602081019091526000808252606091905b83518110156103665781610331858381518110610324576103246110b3565b6020026020010151610506565b60405160200161034292919061111f565b6040516020818303038152906040529150808061035e9061113c565b915050610305565b5092915050565b8051602082015160009161038a918360076401000003d019610599565b6103d65760405162461bcd60e51b815260206004820152601e60248201527f70726576696f75735075624b6579206973206e6f74206f6e206375727665000060448201526064016100d1565b60008061042d867f79be667ef9dcbbac55a06295ce870b07029bfcdb2dce28d959f2815b16f817987f483ada7726a3c4655da4fbfc0e1108a8fd17b448a68554199c47d08ffb10d4b860006401000003d019610652565b90925090506000806104568787836020020151886001602002015160006401000003d019610652565b915091506000806104728686868660006401000003d01961068c565b9150915060008c8c61048385610506565b61048c85610506565b60405160200161049f9493929190611155565b60408051601f19818403018152908290526104bc91602001611180565b60405160208183030381529060405290506104f3818051906020012060001c70014551231950b75fc4402da1732fc9bebe19610714565b9750505050505050505b95945050505050565b606060006105138361072b565b600101905060008167ffffffffffffffff81111561053357610533610eb4565b6040519080825280601f01601f19166020018201604052801561055d576020820181803683370190505b5090508181016020015b600019016f181899199a1a9b1b9c1cb0b131b232b360811b600a86061a8153600a850494508461056757509392505050565b60008515806105a85750818610155b806105b1575084155b806105bc5750818510155b156105c9575060006104fd565b600082806105d9576105d961105f565b8687099050600083806105ee576105ee61105f565b8885806105fd576105fd61105f565b8a8b09099050851561062d5783806106175761061761105f565b84806106255761062561105f565b878a09820890505b84156106475783806106415761064161105f565b85820890505b149695505050505050565b60008060008060006106698a8a8a60018b8b610803565b92509250925061067b83838389610885565b945094505050509550959350505050565b6000806000806000888b036106dc5785806106a9576106a961105f565b888b086000036106c25760008094509450505050610709565b6106d08b8b60018a8a6108f4565b919450925090506106f5565b6106ed8b8b60018c8c60018c610a97565b919450925090505b61070183838389610885565b945094505050505b965096945050505050565b6000806107218385611075565b9150505b92915050565b60008072184f03e93ff9f4daa797ed6e38ed64bf6a1f0160401b831061076a5772184f03e93ff9f4daa797ed6e38ed64bf6a1f0160401b830492506040015b6d04ee2d6d415b85acef81000000008310610796576d04ee2d6d415b85acef8100000000830492506020015b662386f26fc1000083106107b457662386f26fc10000830492506010015b6305f5e10083106107cc576305f5e100830492506008015b61271083106107e057612710830492506004015b606483106107f2576064830492506002015b600a83106107255760010192915050565b60008060008860000361081d575086915085905084610879565b8860008060015b831561087057600184161561084a576108428383838f8f8f8e610a97565b919450925090505b61085560028561109f565b93506108648c8c8c8c8c6108f4565b919d509b509950610824565b91955093509150505b96509650969350505050565b60008060006108948585610dca565b9050600084806108a6576108a661105f565b8283099050600085806108bb576108bb61105f565b828a099050600086806108d0576108d061105f565b87806108de576108de61105f565b8486098a09919a91995090975050505050505050565b60008060008560000361090e575086915085905084610a8c565b6000848061091e5761091e61105f565b898a099050600085806109335761093361105f565b898a099050600086806109485761094861105f565b898a0990506000878061095d5761095d61105f565b888061096b5761096b61105f565b848e096004099050600088806109835761098361105f565b89806109915761099161105f565b8a8061099f5761099f61105f565b8586098c098a806109b2576109b261105f565b8760030908905088806109c7576109c761105f565b89806109d5576109d561105f565b8384086109e2908b6110c9565b8a806109f0576109f061105f565b8384090894508880610a0457610a0461105f565b8980610a1257610a1261105f565b8a80610a2057610a2061105f565b868709600809610a30908b6110c9565b8a80610a3e57610a3e61105f565b8b80610a4c57610a4c61105f565b610a56898e6110c9565b860884090893508880610a6b57610a6b61105f565b8980610a7957610a7961105f565b8c8e096002099497509295509293505050505b955095509592505050565b6000808089158015610aa7575088155b15610ab9575085915084905083610dbd565b86158015610ac5575085155b15610ad7575088915087905086610dbd565b610adf610e96565b8480610aed57610aed61105f565b898a0981528480610b0057610b0061105f565b81518a0960208201528480610b1757610b1761105f565b86870960408201528480610b2d57610b2d61105f565b6040820151870960608201526040805160808101909152808680610b5357610b5361105f565b60408401518e0981526020018680610b6d57610b6d61105f565b60608401518d0981526020018680610b8757610b8761105f565b83518b0981526020018680610b9e57610b9e61105f565b60208401518a09905260408101518151919250141580610bc657506060810151602082015114155b610c125760405162461bcd60e51b815260206004820152601e60248201527f557365206a6163446f75626c652066756e6374696f6e20696e7374656164000060448201526064016100d1565b610c1a610e96565b8580610c2857610c2861105f565b8251610c3490886110c9565b60408401510881528580610c4a57610c4a61105f565b6020830151610c5990886110c9565b60608401510860208201528580610c7257610c7261105f565b8151800960408201528580610c8957610c8961105f565b8151604083015109606082015260008680610ca657610ca661105f565b6060830151610cb590896110c9565b8880610cc357610cc361105f565b602085015180090890508680610cdb57610cdb61105f565b8780610ce957610ce961105f565b8880610cf757610cf761105f565b6040850151865109600209610d0c90896110c9565b8208905060008780610d2057610d2061105f565b8880610d2e57610d2e61105f565b610d38848b6110c9565b8a80610d4657610d4661105f565b60408701518851090860208501510990508780610d6557610d6561105f565b8880610d7357610d7361105f565b6060850151602087015109610d88908a6110c9565b8208905060008880610d9c57610d9c61105f565b8980610daa57610daa61105f565b8b8f098551099297509095509093505050505b9750975097945050505050565b60008215801590610ddb5750818314155b8015610de657508115155b610e235760405162461bcd60e51b815260206004820152600e60248201526d24b73b30b634b210373ab6b132b960911b60448201526064016100d1565b6000600183825b8615610e8b57610e3a878361109f565b9050828680610e4b57610e4b61105f565b8780610e5957610e5961105f565b858409610e6690896110c9565b8608909450925086610e788183611193565b610e8290846110c9565b97509150610e2a565b509195945050505050565b60405180608001604052806004906020820280368337509192915050565b634e487b7160e01b600052604160045260246000fd5b604051601f8201601f1916810167ffffffffffffffff81118282101715610ef357610ef3610eb4565b604052919050565b600082601f830112610f0c57600080fd5b8135602067ffffffffffffffff821115610f2857610f28610eb4565b8160051b610f37828201610eca565b9283528481018201928281019087851115610f5157600080fd5b83870192505b84831015610f7057823582529183019190830190610f57565b979650505050505050565b60008060008060808587031215610f9157600080fd5b843567ffffffffffffffff80821115610fa957600080fd5b818701915087601f830112610fbd57600080fd5b8135602082821115610fd157610fd1610eb4565b610fe3601f8301601f19168201610eca565b8281528a82848701011115610ff757600080fd5b8282860183830137600092810182019290925290965087013591508082111561101f57600080fd5b61102b88838901610efb565b9450604087013591508082111561104157600080fd5b5061104e87828801610efb565b949793965093946060013593505050565b634e487b7160e01b600052601260045260246000fd5b6000826110845761108461105f565b500690565b634e487b7160e01b600052601160045260246000fd5b6000826110ae576110ae61105f565b500490565b634e487b7160e01b600052603260045260246000fd5b8181038181111561072557610725611089565b8082018082111561072557610725611089565b6000815160005b8181101561111057602081850181015186830152016110f6565b50600093019283525090919050565b600061113461112e83866110ef565b846110ef565b949350505050565b60006001820161114e5761114e611089565b5060010190565b600061117661112e61117061116a858a6110ef565b886110ef565b866110ef565b9695505050505050565b600061118c82846110ef565b9392505050565b80820281158282048414176107255761072561108956fea2646970667358221220260f001e88b8a048085afc317585b77865638f43dc819e11e7560aae63053b4d64736f6c63430008140033","opcodes":"PUSH1 0x80 PUSH1 0x40 MSTORE CALLVALUE DUP1 ISZERO PUSH2 0x10 JUMPI PUSH1 0x0 DUP1 REVERT JUMPDEST POP PUSH2 0x11E0 DUP1 PUSH2 0x20 PUSH1 0x0 CODECOPY PUSH1 0x0 RETURN INVALID PUSH1 0x80 PUSH1 0x40 MSTORE CALLVALUE DUP1 ISZERO PUSH2 0x10 JUMPI PUSH1 0x0 DUP1 REVERT JUMPDEST POP PUSH1 0x4 CALLDATASIZE LT PUSH2 0x2B JUMPI PUSH1 0x0 CALLDATALOAD PUSH1 0xE0 SHR DUP1 PUSH4 0xC434C5EE EQ PUSH2 0x30 JUMPI JUMPDEST PUSH1 0x0 DUP1 REVERT JUMPDEST PUSH2 0x43 PUSH2 0x3E CALLDATASIZE PUSH1 0x4 PUSH2 0xF7B JUMP JUMPDEST PUSH2 0x57 JUMP JUMPDEST PUSH1 0x40 MLOAD SWAP1 ISZERO ISZERO DUP2 MSTORE PUSH1 0x20 ADD PUSH1 0x40 MLOAD DUP1 SWAP2 SUB SWAP1 RETURN JUMPDEST PUSH1 0x0 PUSH1 0x1 DUP5 MLOAD GT DUP1 ISZERO PUSH2 0x75 JUMPI POP PUSH1 0x2 DUP5 MLOAD PUSH2 0x73 SWAP2 SWAP1 PUSH2 0x1075 JUMP JUMPDEST ISZERO JUMPDEST PUSH2 0xDA JUMPI PUSH1 0x40 MLOAD PUSH3 0x461BCD PUSH1 0xE5 SHL DUP2 MSTORE PUSH1 0x20 PUSH1 0x4 DUP3 ADD MSTORE PUSH1 0x2B PUSH1 0x24 DUP3 ADD MSTORE PUSH32 0x52696E67206C656E677468206D757374206265206576656E20616E6420677265 PUSH1 0x44 DUP3 ADD MSTORE PUSH11 0x61746572207468616E2031 PUSH1 0xA8 SHL PUSH1 0x64 DUP3 ADD MSTORE PUSH1 0x84 ADD JUMPDEST PUSH1 0x40 MLOAD DUP1 SWAP2 SUB SWAP1 REVERT JUMPDEST PUSH1 0x2 DUP5 MLOAD PUSH2 0xE8 SWAP2 SWAP1 PUSH2 0x109F JUMP JUMPDEST DUP4 MLOAD EQ PUSH2 0x151 JUMPI PUSH1 0x40 MLOAD PUSH3 0x461BCD PUSH1 0xE5 SHL DUP2 MSTORE PUSH1 0x20 PUSH1 0x4 DUP3 ADD MSTORE PUSH1 0x31 PUSH1 0x24 DUP3 ADD MSTORE PUSH32 0x526573706F6E736573206C656E677468206D75737420626520657175616C2074 PUSH1 0x44 DUP3 ADD MSTORE PUSH17 0x37903934B733903632B733BA3410179019 PUSH1 0x79 SHL PUSH1 0x64 DUP3 ADD MSTORE PUSH1 0x84 ADD PUSH2 0xD1 JUMP JUMPDEST PUSH1 0x0 PUSH2 0x15C DUP6 PUSH2 0x2F0 JUMP JUMPDEST SWAP1 POP PUSH1 0x0 PUSH2 0x1CF DUP3 DUP9 DUP8 PUSH1 0x0 DUP2 MLOAD DUP2 LT PUSH2 0x178 JUMPI PUSH2 0x178 PUSH2 0x10B3 JUMP JUMPDEST PUSH1 0x20 MUL PUSH1 0x20 ADD ADD MLOAD DUP8 PUSH1 0x40 MLOAD DUP1 PUSH1 0x40 ADD PUSH1 0x40 MSTORE DUP1 DUP13 PUSH1 0x0 DUP2 MLOAD DUP2 LT PUSH2 0x19F JUMPI PUSH2 0x19F PUSH2 0x10B3 JUMP JUMPDEST PUSH1 0x20 MUL PUSH1 0x20 ADD ADD MLOAD DUP2 MSTORE PUSH1 0x20 ADD DUP13 PUSH1 0x1 DUP2 MLOAD DUP2 LT PUSH2 0x1BF JUMPI PUSH2 0x1BF PUSH2 0x10B3 JUMP JUMPDEST PUSH1 0x20 MUL PUSH1 0x20 ADD ADD MLOAD DUP2 MSTORE POP PUSH2 0x36D JUMP JUMPDEST SWAP1 POP PUSH1 0x2 JUMPDEST PUSH1 0x2 DUP8 MLOAD PUSH2 0x1E2 SWAP2 SWAP1 PUSH2 0x10C9 JUMP JUMPDEST DUP2 LT ISZERO PUSH2 0x26F JUMPI PUSH2 0x25B DUP4 DUP10 DUP9 PUSH2 0x1FA PUSH1 0x2 DUP7 PUSH2 0x109F JUMP JUMPDEST DUP2 MLOAD DUP2 LT PUSH2 0x20A JUMPI PUSH2 0x20A PUSH2 0x10B3 JUMP JUMPDEST PUSH1 0x20 MUL PUSH1 0x20 ADD ADD MLOAD DUP6 PUSH1 0x40 MLOAD DUP1 PUSH1 0x40 ADD PUSH1 0x40 MSTORE DUP1 DUP14 DUP9 DUP2 MLOAD DUP2 LT PUSH2 0x230 JUMPI PUSH2 0x230 PUSH2 0x10B3 JUMP JUMPDEST PUSH1 0x20 MUL PUSH1 0x20 ADD ADD MLOAD DUP2 MSTORE PUSH1 0x20 ADD DUP14 DUP9 PUSH1 0x1 PUSH2 0x24B SWAP2 SWAP1 PUSH2 0x10DC JUMP JUMPDEST DUP2 MLOAD DUP2 LT PUSH2 0x1BF JUMPI PUSH2 0x1BF PUSH2 0x10B3 JUMP JUMPDEST SWAP2 POP PUSH2 0x268 PUSH1 0x2 DUP3 PUSH2 0x10DC JUMP JUMPDEST SWAP1 POP PUSH2 0x1D4 JUMP JUMPDEST POP PUSH2 0x2E3 DUP3 DUP9 DUP8 PUSH1 0x1 DUP10 MLOAD PUSH2 0x284 SWAP2 SWAP1 PUSH2 0x10C9 JUMP JUMPDEST DUP2 MLOAD DUP2 LT PUSH2 0x294 JUMPI PUSH2 0x294 PUSH2 0x10B3 JUMP JUMPDEST PUSH1 0x20 MUL PUSH1 0x20 ADD ADD MLOAD DUP5 PUSH1 0x40 MLOAD DUP1 PUSH1 0x40 ADD PUSH1 0x40 MSTORE DUP1 DUP13 PUSH1 0x2 DUP15 MLOAD PUSH2 0x2B7 SWAP2 SWAP1 PUSH2 0x10C9 JUMP JUMPDEST DUP2 MLOAD DUP2 LT PUSH2 0x2C7 JUMPI PUSH2 0x2C7 PUSH2 0x10B3 JUMP JUMPDEST PUSH1 0x20 MUL PUSH1 0x20 ADD ADD MLOAD DUP2 MSTORE PUSH1 0x20 ADD DUP13 PUSH1 0x1 DUP15 MLOAD PUSH2 0x24B SWAP2 SWAP1 PUSH2 0x10C9 JUMP JUMPDEST SWAP1 SWAP4 EQ SWAP7 SWAP6 POP POP POP POP POP POP JUMP JUMPDEST PUSH1 0x40 DUP1 MLOAD PUSH1 0x20 DUP2 ADD SWAP1 SWAP2 MSTORE PUSH1 0x0 DUP1 DUP3 MSTORE PUSH1 0x60 SWAP2 SWAP1 JUMPDEST DUP4 MLOAD DUP2 LT ISZERO PUSH2 0x366 JUMPI DUP2 PUSH2 0x331 DUP6 DUP4 DUP2 MLOAD DUP2 LT PUSH2 0x324 JUMPI PUSH2 0x324 PUSH2 0x10B3 JUMP JUMPDEST PUSH1 0x20 MUL PUSH1 0x20 ADD ADD MLOAD PUSH2 0x506 JUMP JUMPDEST PUSH1 0x40 MLOAD PUSH1 0x20 ADD PUSH2 0x342 SWAP3 SWAP2 SWAP1 PUSH2 0x111F JUMP JUMPDEST PUSH1 0x40 MLOAD PUSH1 0x20 DUP2 DUP4 SUB SUB DUP2 MSTORE SWAP1 PUSH1 0x40 MSTORE SWAP2 POP DUP1 DUP1 PUSH2 0x35E SWAP1 PUSH2 0x113C JUMP JUMPDEST SWAP2 POP POP PUSH2 0x305 JUMP JUMPDEST POP SWAP3 SWAP2 POP POP JUMP JUMPDEST DUP1 MLOAD PUSH1 0x20 DUP3 ADD MLOAD PUSH1 0x0 SWAP2 PUSH2 0x38A SWAP2 DUP4 PUSH1 0x7 PUSH5 0x1000003D0 NOT PUSH2 0x599 JUMP JUMPDEST PUSH2 0x3D6 JUMPI PUSH1 0x40 MLOAD PUSH3 0x461BCD PUSH1 0xE5 SHL DUP2 MSTORE PUSH1 0x20 PUSH1 0x4 DUP3 ADD MSTORE PUSH1 0x1E PUSH1 0x24 DUP3 ADD MSTORE PUSH32 0x70726576696F75735075624B6579206973206E6F74206F6E2063757276650000 PUSH1 0x44 DUP3 ADD MSTORE PUSH1 0x64 ADD PUSH2 0xD1 JUMP JUMPDEST PUSH1 0x0 DUP1 PUSH2 0x42D DUP7 PUSH32 0x79BE667EF9DCBBAC55A06295CE870B07029BFCDB2DCE28D959F2815B16F81798 PUSH32 0x483ADA7726A3C4655DA4FBFC0E1108A8FD17B448A68554199C47D08FFB10D4B8 PUSH1 0x0 PUSH5 0x1000003D0 NOT PUSH2 0x652 JUMP JUMPDEST SWAP1 SWAP3 POP SWAP1 POP PUSH1 0x0 DUP1 PUSH2 0x456 DUP8 DUP8 DUP4 PUSH1 0x20 MUL ADD MLOAD DUP9 PUSH1 0x1 PUSH1 0x20 MUL ADD MLOAD PUSH1 0x0 PUSH5 0x1000003D0 NOT PUSH2 0x652 JUMP JUMPDEST SWAP2 POP SWAP2 POP PUSH1 0x0 DUP1 PUSH2 0x472 DUP7 DUP7 DUP7 DUP7 PUSH1 0x0 PUSH5 0x1000003D0 NOT PUSH2 0x68C JUMP JUMPDEST SWAP2 POP SWAP2 POP PUSH1 0x0 DUP13 DUP13 PUSH2 0x483 DUP6 PUSH2 0x506 JUMP JUMPDEST PUSH2 0x48C DUP6 PUSH2 0x506 JUMP JUMPDEST PUSH1 0x40 MLOAD PUSH1 0x20 ADD PUSH2 0x49F SWAP5 SWAP4 SWAP3 SWAP2 SWAP1 PUSH2 0x1155 JUMP JUMPDEST PUSH1 0x40 DUP1 MLOAD PUSH1 0x1F NOT DUP2 DUP5 SUB ADD DUP2 MSTORE SWAP1 DUP3 SWAP1 MSTORE PUSH2 0x4BC SWAP2 PUSH1 0x20 ADD PUSH2 0x1180 JUMP JUMPDEST PUSH1 0x40 MLOAD PUSH1 0x20 DUP2 DUP4 SUB SUB DUP2 MSTORE SWAP1 PUSH1 0x40 MSTORE SWAP1 POP PUSH2 0x4F3 DUP2 DUP1 MLOAD SWAP1 PUSH1 0x20 ADD KECCAK256 PUSH1 0x0 SHR PUSH17 0x14551231950B75FC4402DA1732FC9BEBE NOT PUSH2 0x714 JUMP JUMPDEST SWAP8 POP POP POP POP POP POP POP POP JUMPDEST SWAP6 SWAP5 POP POP POP POP POP JUMP JUMPDEST PUSH1 0x60 PUSH1 0x0 PUSH2 0x513 DUP4 PUSH2 0x72B JUMP JUMPDEST PUSH1 0x1 ADD SWAP1 POP PUSH1 0x0 DUP2 PUSH8 0xFFFFFFFFFFFFFFFF DUP2 GT ISZERO PUSH2 0x533 JUMPI PUSH2 0x533 PUSH2 0xEB4 JUMP JUMPDEST PUSH1 0x40 MLOAD SWAP1 DUP1 DUP3 MSTORE DUP1 PUSH1 0x1F ADD PUSH1 0x1F NOT AND PUSH1 0x20 ADD DUP3 ADD PUSH1 0x40 MSTORE DUP1 ISZERO PUSH2 0x55D JUMPI PUSH1 0x20 DUP3 ADD DUP2 DUP1 CALLDATASIZE DUP4 CALLDATACOPY ADD SWAP1 POP JUMPDEST POP SWAP1 POP DUP2 DUP2 ADD PUSH1 0x20 ADD JUMPDEST PUSH1 0x0 NOT ADD PUSH16 0x181899199A1A9B1B9C1CB0B131B232B3 PUSH1 0x81 SHL PUSH1 0xA DUP7 MOD BYTE DUP2 MSTORE8 PUSH1 0xA DUP6 DIV SWAP5 POP DUP5 PUSH2 0x567 JUMPI POP SWAP4 SWAP3 POP POP POP JUMP JUMPDEST PUSH1 0x0 DUP6 ISZERO DUP1 PUSH2 0x5A8 JUMPI POP DUP2 DUP7 LT ISZERO JUMPDEST DUP1 PUSH2 0x5B1 JUMPI POP DUP5 ISZERO JUMPDEST DUP1 PUSH2 0x5BC JUMPI POP DUP2 DUP6 LT ISZERO JUMPDEST ISZERO PUSH2 0x5C9 JUMPI POP PUSH1 0x0 PUSH2 0x4FD JUMP JUMPDEST PUSH1 0x0 DUP3 DUP1 PUSH2 0x5D9 JUMPI PUSH2 0x5D9 PUSH2 0x105F JUMP JUMPDEST DUP7 DUP8 MULMOD SWAP1 POP PUSH1 0x0 DUP4 DUP1 PUSH2 0x5EE JUMPI PUSH2 0x5EE PUSH2 0x105F JUMP JUMPDEST DUP9 DUP6 DUP1 PUSH2 0x5FD JUMPI PUSH2 0x5FD PUSH2 0x105F JUMP JUMPDEST DUP11 DUP12 MULMOD MULMOD SWAP1 POP DUP6 ISZERO PUSH2 0x62D JUMPI DUP4 DUP1 PUSH2 0x617 JUMPI PUSH2 0x617 PUSH2 0x105F JUMP JUMPDEST DUP5 DUP1 PUSH2 0x625 JUMPI PUSH2 0x625 PUSH2 0x105F JUMP JUMPDEST DUP8 DUP11 MULMOD DUP3 ADDMOD SWAP1 POP JUMPDEST DUP5 ISZERO PUSH2 0x647 JUMPI DUP4 DUP1 PUSH2 0x641 JUMPI PUSH2 0x641 PUSH2 0x105F JUMP JUMPDEST DUP6 DUP3 ADDMOD SWAP1 POP JUMPDEST EQ SWAP7 SWAP6 POP POP POP POP POP POP JUMP JUMPDEST PUSH1 0x0 DUP1 PUSH1 0x0 DUP1 PUSH1 0x0 PUSH2 0x669 DUP11 DUP11 DUP11 PUSH1 0x1 DUP12 DUP12 PUSH2 0x803 JUMP JUMPDEST SWAP3 POP SWAP3 POP SWAP3 POP PUSH2 0x67B DUP4 DUP4 DUP4 DUP10 PUSH2 0x885 JUMP JUMPDEST SWAP5 POP SWAP5 POP POP POP POP SWAP6 POP SWAP6 SWAP4 POP POP POP POP JUMP JUMPDEST PUSH1 0x0 DUP1 PUSH1 0x0 DUP1 PUSH1 0x0 DUP9 DUP12 SUB PUSH2 0x6DC JUMPI DUP6 DUP1 PUSH2 0x6A9 JUMPI PUSH2 0x6A9 PUSH2 0x105F JUMP JUMPDEST DUP9 DUP12 ADDMOD PUSH1 0x0 SUB PUSH2 0x6C2 JUMPI PUSH1 0x0 DUP1 SWAP5 POP SWAP5 POP POP POP POP PUSH2 0x709 JUMP JUMPDEST PUSH2 0x6D0 DUP12 DUP12 PUSH1 0x1 DUP11 DUP11 PUSH2 0x8F4 JUMP JUMPDEST SWAP2 SWAP5 POP SWAP3 POP SWAP1 POP PUSH2 0x6F5 JUMP JUMPDEST PUSH2 0x6ED DUP12 DUP12 PUSH1 0x1 DUP13 DUP13 PUSH1 0x1 DUP13 PUSH2 0xA97 JUMP JUMPDEST SWAP2 SWAP5 POP SWAP3 POP SWAP1 POP JUMPDEST PUSH2 0x701 DUP4 DUP4 DUP4 DUP10 PUSH2 0x885 JUMP JUMPDEST SWAP5 POP SWAP5 POP POP POP POP JUMPDEST SWAP7 POP SWAP7 SWAP5 POP POP POP POP POP JUMP JUMPDEST PUSH1 0x0 DUP1 PUSH2 0x721 DUP4 DUP6 PUSH2 0x1075 JUMP JUMPDEST SWAP2 POP POP JUMPDEST SWAP3 SWAP2 POP POP JUMP JUMPDEST PUSH1 0x0 DUP1 PUSH19 0x184F03E93FF9F4DAA797ED6E38ED64BF6A1F01 PUSH1 0x40 SHL DUP4 LT PUSH2 0x76A JUMPI PUSH19 0x184F03E93FF9F4DAA797ED6E38ED64BF6A1F01 PUSH1 0x40 SHL DUP4 DIV SWAP3 POP PUSH1 0x40 ADD JUMPDEST PUSH14 0x4EE2D6D415B85ACEF8100000000 DUP4 LT PUSH2 0x796 JUMPI PUSH14 0x4EE2D6D415B85ACEF8100000000 DUP4 DIV SWAP3 POP PUSH1 0x20 ADD JUMPDEST PUSH7 0x2386F26FC10000 DUP4 LT PUSH2 0x7B4 JUMPI PUSH7 0x2386F26FC10000 DUP4 DIV SWAP3 POP PUSH1 0x10 ADD JUMPDEST PUSH4 0x5F5E100 DUP4 LT PUSH2 0x7CC JUMPI PUSH4 0x5F5E100 DUP4 DIV SWAP3 POP PUSH1 0x8 ADD JUMPDEST PUSH2 0x2710 DUP4 LT PUSH2 0x7E0 JUMPI PUSH2 0x2710 DUP4 DIV SWAP3 POP PUSH1 0x4 ADD JUMPDEST PUSH1 0x64 DUP4 LT PUSH2 0x7F2 JUMPI PUSH1 0x64 DUP4 DIV SWAP3 POP PUSH1 0x2 ADD JUMPDEST PUSH1 0xA DUP4 LT PUSH2 0x725 JUMPI PUSH1 0x1 ADD SWAP3 SWAP2 POP POP JUMP JUMPDEST PUSH1 0x0 DUP1 PUSH1 0x0 DUP9 PUSH1 0x0 SUB PUSH2 0x81D JUMPI POP DUP7 SWAP2 POP DUP6 SWAP1 POP DUP5 PUSH2 0x879 JUMP JUMPDEST DUP9 PUSH1 0x0 DUP1 PUSH1 0x1 JUMPDEST DUP4 ISZERO PUSH2 0x870 JUMPI PUSH1 0x1 DUP5 AND ISZERO PUSH2 0x84A JUMPI PUSH2 0x842 DUP4 DUP4 DUP4 DUP16 DUP16 DUP16 DUP15 PUSH2 0xA97 JUMP JUMPDEST SWAP2 SWAP5 POP SWAP3 POP SWAP1 POP JUMPDEST PUSH2 0x855 PUSH1 0x2 DUP6 PUSH2 0x109F JUMP JUMPDEST SWAP4 POP PUSH2 0x864 DUP13 DUP13 DUP13 DUP13 DUP13 PUSH2 0x8F4 JUMP JUMPDEST SWAP2 SWAP14 POP SWAP12 POP SWAP10 POP PUSH2 0x824 JUMP JUMPDEST SWAP2 SWAP6 POP SWAP4 POP SWAP2 POP POP JUMPDEST SWAP7 POP SWAP7 POP SWAP7 SWAP4 POP POP POP POP JUMP JUMPDEST PUSH1 0x0 DUP1 PUSH1 0x0 PUSH2 0x894 DUP6 DUP6 PUSH2 0xDCA JUMP JUMPDEST SWAP1 POP PUSH1 0x0 DUP5 DUP1 PUSH2 0x8A6 JUMPI PUSH2 0x8A6 PUSH2 0x105F JUMP JUMPDEST DUP3 DUP4 MULMOD SWAP1 POP PUSH1 0x0 DUP6 DUP1 PUSH2 0x8BB JUMPI PUSH2 0x8BB PUSH2 0x105F JUMP JUMPDEST DUP3 DUP11 MULMOD SWAP1 POP PUSH1 0x0 DUP7 DUP1 PUSH2 0x8D0 JUMPI PUSH2 0x8D0 PUSH2 0x105F JUMP JUMPDEST DUP8 DUP1 PUSH2 0x8DE JUMPI PUSH2 0x8DE PUSH2 0x105F JUMP JUMPDEST DUP5 DUP7 MULMOD DUP11 MULMOD SWAP2 SWAP11 SWAP2 SWAP10 POP SWAP1 SWAP8 POP POP POP POP POP POP POP POP JUMP JUMPDEST PUSH1 0x0 DUP1 PUSH1 0x0 DUP6 PUSH1 0x0 SUB PUSH2 0x90E JUMPI POP DUP7 SWAP2 POP DUP6 SWAP1 POP DUP5 PUSH2 0xA8C JUMP JUMPDEST PUSH1 0x0 DUP5 DUP1 PUSH2 0x91E JUMPI PUSH2 0x91E PUSH2 0x105F JUMP JUMPDEST DUP10 DUP11 MULMOD SWAP1 POP PUSH1 0x0 DUP6 DUP1 PUSH2 0x933 JUMPI PUSH2 0x933 PUSH2 0x105F JUMP JUMPDEST DUP10 DUP11 MULMOD SWAP1 POP PUSH1 0x0 DUP7 DUP1 PUSH2 0x948 JUMPI PUSH2 0x948 PUSH2 0x105F JUMP JUMPDEST DUP10 DUP11 MULMOD SWAP1 POP PUSH1 0x0 DUP8 DUP1 PUSH2 0x95D JUMPI PUSH2 0x95D PUSH2 0x105F JUMP JUMPDEST DUP9 DUP1 PUSH2 0x96B JUMPI PUSH2 0x96B PUSH2 0x105F JUMP JUMPDEST DUP5 DUP15 MULMOD PUSH1 0x4 MULMOD SWAP1 POP PUSH1 0x0 DUP9 DUP1 PUSH2 0x983 JUMPI PUSH2 0x983 PUSH2 0x105F JUMP JUMPDEST DUP10 DUP1 PUSH2 0x991 JUMPI PUSH2 0x991 PUSH2 0x105F JUMP JUMPDEST DUP11 DUP1 PUSH2 0x99F JUMPI PUSH2 0x99F PUSH2 0x105F JUMP JUMPDEST DUP6 DUP7 MULMOD DUP13 MULMOD DUP11 DUP1 PUSH2 0x9B2 JUMPI PUSH2 0x9B2 PUSH2 0x105F JUMP JUMPDEST DUP8 PUSH1 0x3 MULMOD ADDMOD SWAP1 POP DUP9 DUP1 PUSH2 0x9C7 JUMPI PUSH2 0x9C7 PUSH2 0x105F JUMP JUMPDEST DUP10 DUP1 PUSH2 0x9D5 JUMPI PUSH2 0x9D5 PUSH2 0x105F JUMP JUMPDEST DUP4 DUP5 ADDMOD PUSH2 0x9E2 SWAP1 DUP12 PUSH2 0x10C9 JUMP JUMPDEST DUP11 DUP1 PUSH2 0x9F0 JUMPI PUSH2 0x9F0 PUSH2 0x105F JUMP JUMPDEST DUP4 DUP5 MULMOD ADDMOD SWAP5 POP DUP9 DUP1 PUSH2 0xA04 JUMPI PUSH2 0xA04 PUSH2 0x105F JUMP JUMPDEST DUP10 DUP1 PUSH2 0xA12 JUMPI PUSH2 0xA12 PUSH2 0x105F JUMP JUMPDEST DUP11 DUP1 PUSH2 0xA20 JUMPI PUSH2 0xA20 PUSH2 0x105F JUMP JUMPDEST DUP7 DUP8 MULMOD PUSH1 0x8 MULMOD PUSH2 0xA30 SWAP1 DUP12 PUSH2 0x10C9 JUMP JUMPDEST DUP11 DUP1 PUSH2 0xA3E JUMPI PUSH2 0xA3E PUSH2 0x105F JUMP JUMPDEST DUP12 DUP1 PUSH2 0xA4C JUMPI PUSH2 0xA4C PUSH2 0x105F JUMP JUMPDEST PUSH2 0xA56 DUP10 DUP15 PUSH2 0x10C9 JUMP JUMPDEST DUP7 ADDMOD DUP5 MULMOD ADDMOD SWAP4 POP DUP9 DUP1 PUSH2 0xA6B JUMPI PUSH2 0xA6B PUSH2 0x105F JUMP JUMPDEST DUP10 DUP1 PUSH2 0xA79 JUMPI PUSH2 0xA79 PUSH2 0x105F JUMP JUMPDEST DUP13 DUP15 MULMOD PUSH1 0x2 MULMOD SWAP5 SWAP8 POP SWAP3 SWAP6 POP SWAP3 SWAP4 POP POP POP POP JUMPDEST SWAP6 POP SWAP6 POP SWAP6 SWAP3 POP POP POP JUMP JUMPDEST PUSH1 0x0 DUP1 DUP1 DUP10 ISZERO DUP1 ISZERO PUSH2 0xAA7 JUMPI POP DUP9 ISZERO JUMPDEST ISZERO PUSH2 0xAB9 JUMPI POP DUP6 SWAP2 POP DUP5 SWAP1 POP DUP4 PUSH2 0xDBD JUMP JUMPDEST DUP7 ISZERO DUP1 ISZERO PUSH2 0xAC5 JUMPI POP DUP6 ISZERO JUMPDEST ISZERO PUSH2 0xAD7 JUMPI POP DUP9 SWAP2 POP DUP8 SWAP1 POP DUP7 PUSH2 0xDBD JUMP JUMPDEST PUSH2 0xADF PUSH2 0xE96 JUMP JUMPDEST DUP5 DUP1 PUSH2 0xAED JUMPI PUSH2 0xAED PUSH2 0x105F JUMP JUMPDEST DUP10 DUP11 MULMOD DUP2 MSTORE DUP5 DUP1 PUSH2 0xB00 JUMPI PUSH2 0xB00 PUSH2 0x105F JUMP JUMPDEST DUP2 MLOAD DUP11 MULMOD PUSH1 0x20 DUP3 ADD MSTORE DUP5 DUP1 PUSH2 0xB17 JUMPI PUSH2 0xB17 PUSH2 0x105F JUMP JUMPDEST DUP7 DUP8 MULMOD PUSH1 0x40 DUP3 ADD MSTORE DUP5 DUP1 PUSH2 0xB2D JUMPI PUSH2 0xB2D PUSH2 0x105F JUMP JUMPDEST PUSH1 0x40 DUP3 ADD MLOAD DUP8 MULMOD PUSH1 0x60 DUP3 ADD MSTORE PUSH1 0x40 DUP1 MLOAD PUSH1 0x80 DUP2 ADD SWAP1 SWAP2 MSTORE DUP1 DUP7 DUP1 PUSH2 0xB53 JUMPI PUSH2 0xB53 PUSH2 0x105F JUMP JUMPDEST PUSH1 0x40 DUP5 ADD MLOAD DUP15 MULMOD DUP2 MSTORE PUSH1 0x20 ADD DUP7 DUP1 PUSH2 0xB6D JUMPI PUSH2 0xB6D PUSH2 0x105F JUMP JUMPDEST PUSH1 0x60 DUP5 ADD MLOAD DUP14 MULMOD DUP2 MSTORE PUSH1 0x20 ADD DUP7 DUP1 PUSH2 0xB87 JUMPI PUSH2 0xB87 PUSH2 0x105F JUMP JUMPDEST DUP4 MLOAD DUP12 MULMOD DUP2 MSTORE PUSH1 0x20 ADD DUP7 DUP1 PUSH2 0xB9E JUMPI PUSH2 0xB9E PUSH2 0x105F JUMP JUMPDEST PUSH1 0x20 DUP5 ADD MLOAD DUP11 MULMOD SWAP1 MSTORE PUSH1 0x40 DUP2 ADD MLOAD DUP2 MLOAD SWAP2 SWAP3 POP EQ ISZERO DUP1 PUSH2 0xBC6 JUMPI POP PUSH1 0x60 DUP2 ADD MLOAD PUSH1 0x20 DUP3 ADD MLOAD EQ ISZERO JUMPDEST PUSH2 0xC12 JUMPI PUSH1 0x40 MLOAD PUSH3 0x461BCD PUSH1 0xE5 SHL DUP2 MSTORE PUSH1 0x20 PUSH1 0x4 DUP3 ADD MSTORE PUSH1 0x1E PUSH1 0x24 DUP3 ADD MSTORE PUSH32 0x557365206A6163446F75626C652066756E6374696F6E20696E73746561640000 PUSH1 0x44 DUP3 ADD MSTORE PUSH1 0x64 ADD PUSH2 0xD1 JUMP JUMPDEST PUSH2 0xC1A PUSH2 0xE96 JUMP JUMPDEST DUP6 DUP1 PUSH2 0xC28 JUMPI PUSH2 0xC28 PUSH2 0x105F JUMP JUMPDEST DUP3 MLOAD PUSH2 0xC34 SWAP1 DUP9 PUSH2 0x10C9 JUMP JUMPDEST PUSH1 0x40 DUP5 ADD MLOAD ADDMOD DUP2 MSTORE DUP6 DUP1 PUSH2 0xC4A JUMPI PUSH2 0xC4A PUSH2 0x105F JUMP JUMPDEST PUSH1 0x20 DUP4 ADD MLOAD PUSH2 0xC59 SWAP1 DUP9 PUSH2 0x10C9 JUMP JUMPDEST PUSH1 0x60 DUP5 ADD MLOAD ADDMOD PUSH1 0x20 DUP3 ADD MSTORE DUP6 DUP1 PUSH2 0xC72 JUMPI PUSH2 0xC72 PUSH2 0x105F JUMP JUMPDEST DUP2 MLOAD DUP1 MULMOD PUSH1 0x40 DUP3 ADD MSTORE DUP6 DUP1 PUSH2 0xC89 JUMPI PUSH2 0xC89 PUSH2 0x105F JUMP JUMPDEST DUP2 MLOAD PUSH1 0x40 DUP4 ADD MLOAD MULMOD PUSH1 0x60 DUP3 ADD MSTORE PUSH1 0x0 DUP7 DUP1 PUSH2 0xCA6 JUMPI PUSH2 0xCA6 PUSH2 0x105F JUMP JUMPDEST PUSH1 0x60 DUP4 ADD MLOAD PUSH2 0xCB5 SWAP1 DUP10 PUSH2 0x10C9 JUMP JUMPDEST DUP9 DUP1 PUSH2 0xCC3 JUMPI PUSH2 0xCC3 PUSH2 0x105F JUMP JUMPDEST PUSH1 0x20 DUP6 ADD MLOAD DUP1 MULMOD ADDMOD SWAP1 POP DUP7 DUP1 PUSH2 0xCDB JUMPI PUSH2 0xCDB PUSH2 0x105F JUMP JUMPDEST DUP8 DUP1 PUSH2 0xCE9 JUMPI PUSH2 0xCE9 PUSH2 0x105F JUMP JUMPDEST DUP9 DUP1 PUSH2 0xCF7 JUMPI PUSH2 0xCF7 PUSH2 0x105F JUMP JUMPDEST PUSH1 0x40 DUP6 ADD MLOAD DUP7 MLOAD MULMOD PUSH1 0x2 MULMOD PUSH2 0xD0C SWAP1 DUP10 PUSH2 0x10C9 JUMP JUMPDEST DUP3 ADDMOD SWAP1 POP PUSH1 0x0 DUP8 DUP1 PUSH2 0xD20 JUMPI PUSH2 0xD20 PUSH2 0x105F JUMP JUMPDEST DUP9 DUP1 PUSH2 0xD2E JUMPI PUSH2 0xD2E PUSH2 0x105F JUMP JUMPDEST PUSH2 0xD38 DUP5 DUP12 PUSH2 0x10C9 JUMP JUMPDEST DUP11 DUP1 PUSH2 0xD46 JUMPI PUSH2 0xD46 PUSH2 0x105F JUMP JUMPDEST PUSH1 0x40 DUP8 ADD MLOAD DUP9 MLOAD MULMOD ADDMOD PUSH1 0x20 DUP6 ADD MLOAD MULMOD SWAP1 POP DUP8 DUP1 PUSH2 0xD65 JUMPI PUSH2 0xD65 PUSH2 0x105F JUMP JUMPDEST DUP9 DUP1 PUSH2 0xD73 JUMPI PUSH2 0xD73 PUSH2 0x105F JUMP JUMPDEST PUSH1 0x60 DUP6 ADD MLOAD PUSH1 0x20 DUP8 ADD MLOAD MULMOD PUSH2 0xD88 SWAP1 DUP11 PUSH2 0x10C9 JUMP JUMPDEST DUP3 ADDMOD SWAP1 POP PUSH1 0x0 DUP9 DUP1 PUSH2 0xD9C JUMPI PUSH2 0xD9C PUSH2 0x105F JUMP JUMPDEST DUP10 DUP1 PUSH2 0xDAA JUMPI PUSH2 0xDAA PUSH2 0x105F JUMP JUMPDEST DUP12 DUP16 MULMOD DUP6 MLOAD MULMOD SWAP3 SWAP8 POP SWAP1 SWAP6 POP SWAP1 SWAP4 POP POP POP POP JUMPDEST SWAP8 POP SWAP8 POP SWAP8 SWAP5 POP POP POP POP POP JUMP JUMPDEST PUSH1 0x0 DUP3 ISZERO DUP1 ISZERO SWAP1 PUSH2 0xDDB JUMPI POP DUP2 DUP4 EQ ISZERO JUMPDEST DUP1 ISZERO PUSH2 0xDE6 JUMPI POP DUP2 ISZERO ISZERO JUMPDEST PUSH2 0xE23 JUMPI PUSH1 0x40 MLOAD PUSH3 0x461BCD PUSH1 0xE5 SHL DUP2 MSTORE PUSH1 0x20 PUSH1 0x4 DUP3 ADD MSTORE PUSH1 0xE PUSH1 0x24 DUP3 ADD MSTORE PUSH14 0x24B73B30B634B210373AB6B132B9 PUSH1 0x91 SHL PUSH1 0x44 DUP3 ADD MSTORE PUSH1 0x64 ADD PUSH2 0xD1 JUMP JUMPDEST PUSH1 0x0 PUSH1 0x1 DUP4 DUP3 JUMPDEST DUP7 ISZERO PUSH2 0xE8B JUMPI PUSH2 0xE3A DUP8 DUP4 PUSH2 0x109F JUMP JUMPDEST SWAP1 POP DUP3 DUP7 DUP1 PUSH2 0xE4B JUMPI PUSH2 0xE4B PUSH2 0x105F JUMP JUMPDEST DUP8 DUP1 PUSH2 0xE59 JUMPI PUSH2 0xE59 PUSH2 0x105F JUMP JUMPDEST DUP6 DUP5 MULMOD PUSH2 0xE66 SWAP1 DUP10 PUSH2 0x10C9 JUMP JUMPDEST DUP7 ADDMOD SWAP1 SWAP5 POP SWAP3 POP DUP7 PUSH2 0xE78 DUP2 DUP4 PUSH2 0x1193 JUMP JUMPDEST PUSH2 0xE82 SWAP1 DUP5 PUSH2 0x10C9 JUMP JUMPDEST SWAP8 POP SWAP2 POP PUSH2 0xE2A JUMP JUMPDEST POP SWAP2 SWAP6 SWAP5 POP POP POP POP POP JUMP JUMPDEST PUSH1 0x40 MLOAD DUP1 PUSH1 0x80 ADD PUSH1 0x40 MSTORE DUP1 PUSH1 0x4 SWAP1 PUSH1 0x20 DUP3 MUL DUP1 CALLDATASIZE DUP4 CALLDATACOPY POP SWAP2 SWAP3 SWAP2 POP POP JUMP JUMPDEST PUSH4 0x4E487B71 PUSH1 0xE0 SHL PUSH1 0x0 MSTORE PUSH1 0x41 PUSH1 0x4 MSTORE PUSH1 0x24 PUSH1 0x0 REVERT JUMPDEST PUSH1 0x40 MLOAD PUSH1 0x1F DUP3 ADD PUSH1 0x1F NOT AND DUP2 ADD PUSH8 0xFFFFFFFFFFFFFFFF DUP2 GT DUP3 DUP3 LT OR ISZERO PUSH2 0xEF3 JUMPI PUSH2 0xEF3 PUSH2 0xEB4 JUMP JUMPDEST PUSH1 0x40 MSTORE SWAP2 SWAP1 POP JUMP JUMPDEST PUSH1 0x0 DUP3 PUSH1 0x1F DUP4 ADD SLT PUSH2 0xF0C JUMPI PUSH1 0x0 DUP1 REVERT JUMPDEST DUP2 CALLDATALOAD PUSH1 0x20 PUSH8 0xFFFFFFFFFFFFFFFF DUP3 GT ISZERO PUSH2 0xF28 JUMPI PUSH2 0xF28 PUSH2 0xEB4 JUMP JUMPDEST DUP2 PUSH1 0x5 SHL PUSH2 0xF37 DUP3 DUP3 ADD PUSH2 0xECA JUMP JUMPDEST SWAP3 DUP4 MSTORE DUP5 DUP2 ADD DUP3 ADD SWAP3 DUP3 DUP2 ADD SWAP1 DUP8 DUP6 GT ISZERO PUSH2 0xF51 JUMPI PUSH1 0x0 DUP1 REVERT JUMPDEST DUP4 DUP8 ADD SWAP3 POP JUMPDEST DUP5 DUP4 LT ISZERO PUSH2 0xF70 JUMPI DUP3 CALLDATALOAD DUP3 MSTORE SWAP2 DUP4 ADD SWAP2 SWAP1 DUP4 ADD SWAP1 PUSH2 0xF57 JUMP JUMPDEST SWAP8 SWAP7 POP POP POP POP POP POP POP JUMP JUMPDEST PUSH1 0x0 DUP1 PUSH1 0x0 DUP1 PUSH1 0x80 DUP6 DUP8 SUB SLT ISZERO PUSH2 0xF91 JUMPI PUSH1 0x0 DUP1 REVERT JUMPDEST DUP5 CALLDATALOAD PUSH8 0xFFFFFFFFFFFFFFFF DUP1 DUP3 GT ISZERO PUSH2 0xFA9 JUMPI PUSH1 0x0 DUP1 REVERT JUMPDEST DUP2 DUP8 ADD SWAP2 POP DUP8 PUSH1 0x1F DUP4 ADD SLT PUSH2 0xFBD JUMPI PUSH1 0x0 DUP1 REVERT JUMPDEST DUP2 CALLDATALOAD PUSH1 0x20 DUP3 DUP3 GT ISZERO PUSH2 0xFD1 JUMPI PUSH2 0xFD1 PUSH2 0xEB4 JUMP JUMPDEST PUSH2 0xFE3 PUSH1 0x1F DUP4 ADD PUSH1 0x1F NOT AND DUP3 ADD PUSH2 0xECA JUMP JUMPDEST DUP3 DUP2 MSTORE DUP11 DUP3 DUP5 DUP8 ADD ADD GT ISZERO PUSH2 0xFF7 JUMPI PUSH1 0x0 DUP1 REVERT JUMPDEST DUP3 DUP3 DUP7 ADD DUP4 DUP4 ADD CALLDATACOPY PUSH1 0x0 SWAP3 DUP2 ADD DUP3 ADD SWAP3 SWAP1 SWAP3 MSTORE SWAP1 SWAP7 POP DUP8 ADD CALLDATALOAD SWAP2 POP DUP1 DUP3 GT ISZERO PUSH2 0x101F JUMPI PUSH1 0x0 DUP1 REVERT JUMPDEST PUSH2 0x102B DUP9 DUP4 DUP10 ADD PUSH2 0xEFB JUMP JUMPDEST SWAP5 POP PUSH1 0x40 DUP8 ADD CALLDATALOAD SWAP2 POP DUP1 DUP3 GT ISZERO PUSH2 0x1041 JUMPI PUSH1 0x0 DUP1 REVERT JUMPDEST POP PUSH2 0x104E DUP8 DUP3 DUP9 ADD PUSH2 0xEFB JUMP JUMPDEST SWAP5 SWAP8 SWAP4 SWAP7 POP SWAP4 SWAP5 PUSH1 0x60 ADD CALLDATALOAD SWAP4 POP POP POP JUMP JUMPDEST PUSH4 0x4E487B71 PUSH1 0xE0 SHL PUSH1 0x0 MSTORE PUSH1 0x12 PUSH1 0x4 MSTORE PUSH1 0x24 PUSH1 0x0 REVERT JUMPDEST PUSH1 0x0 DUP3 PUSH2 0x1084 JUMPI PUSH2 0x1084 PUSH2 0x105F JUMP JUMPDEST POP MOD SWAP1 JUMP JUMPDEST PUSH4 0x4E487B71 PUSH1 0xE0 SHL PUSH1 0x0 MSTORE PUSH1 0x11 PUSH1 0x4 MSTORE PUSH1 0x24 PUSH1 0x0 REVERT JUMPDEST PUSH1 0x0 DUP3 PUSH2 0x10AE JUMPI PUSH2 0x10AE PUSH2 0x105F JUMP JUMPDEST POP DIV SWAP1 JUMP JUMPDEST PUSH4 0x4E487B71 PUSH1 0xE0 SHL PUSH1 0x0 MSTORE PUSH1 0x32 PUSH1 0x4 MSTORE PUSH1 0x24 PUSH1 0x0 REVERT JUMPDEST DUP2 DUP2 SUB DUP2 DUP2 GT ISZERO PUSH2 0x725 JUMPI PUSH2 0x725 PUSH2 0x1089 JUMP JUMPDEST DUP1 DUP3 ADD DUP1 DUP3 GT ISZERO PUSH2 0x725 JUMPI PUSH2 0x725 PUSH2 0x1089 JUMP JUMPDEST PUSH1 0x0 DUP2 MLOAD PUSH1 0x0 JUMPDEST DUP2 DUP2 LT ISZERO PUSH2 0x1110 JUMPI PUSH1 0x20 DUP2 DUP6 ADD DUP2 ADD MLOAD DUP7 DUP4 ADD MSTORE ADD PUSH2 0x10F6 JUMP JUMPDEST POP PUSH1 0x0 SWAP4 ADD SWAP3 DUP4 MSTORE POP SWAP1 SWAP2 SWAP1 POP JUMP JUMPDEST PUSH1 0x0 PUSH2 0x1134 PUSH2 0x112E DUP4 DUP7 PUSH2 0x10EF JUMP JUMPDEST DUP5 PUSH2 0x10EF JUMP JUMPDEST SWAP5 SWAP4 POP POP POP POP JUMP JUMPDEST PUSH1 0x0 PUSH1 0x1 DUP3 ADD PUSH2 0x114E JUMPI PUSH2 0x114E PUSH2 0x1089 JUMP JUMPDEST POP PUSH1 0x1 ADD SWAP1 JUMP JUMPDEST PUSH1 0x0 PUSH2 0x1176 PUSH2 0x112E PUSH2 0x1170 PUSH2 0x116A DUP6 DUP11 PUSH2 0x10EF JUMP JUMPDEST DUP9 PUSH2 0x10EF JUMP JUMPDEST DUP7 PUSH2 0x10EF JUMP JUMPDEST SWAP7 SWAP6 POP POP POP POP POP POP JUMP JUMPDEST PUSH1 0x0 PUSH2 0x118C DUP3 DUP5 PUSH2 0x10EF JUMP JUMPDEST SWAP4 SWAP3 POP POP POP JUMP JUMPDEST DUP1 DUP3 MUL DUP2 ISZERO DUP3 DUP3 DIV DUP5 EQ OR PUSH2 0x725 JUMPI PUSH2 0x725 PUSH2 0x1089 JUMP INVALID LOG2 PUSH5 0x6970667358 0x22 SLT KECCAK256 0x26 0xF STOP 0x1E DUP9 0xB8 LOG0 BASEFEE ADDMOD GAS 0xFC BALANCE PUSH22 0x85B77865638F43DC819E11E7560AAE63053B4D64736F PUSH13 0x63430008140033000000000000 "},"methodIdentifiers":{"verifyRingSignature(string,uint256[],uint256[],uint256)":"c434c5ee"}}}}}