{
  "_format": "hh-sol-artifact-1",
  "contractName": "AliceRingToken",
  "sourceName": "contracts/sbt.sol",
  "abi": [
    {
      "inputs": [
        {
          "internalType": "address",
          "name": "_verifier",
          "type": "address"
        }
      ],
      "stateMutability": "nonpayable",
      "type": "constructor"
    },
    {
      "inputs": [
        {
          "internalType": "string",
          "name": "proofId",
          "type": "string"
        }
      ],
      "name": "AlreadyMinted",
      "type": "error"
    },
    {
      "inputs": [
        {
          "internalType": "address",
          "name": "sender",
          "type": "address"
        },
        {
          "internalType": "uint256",
          "name": "tokenId",
          "type": "uint256"
        },
        {
          "internalType": "address",
          "name": "owner",
          "type": "address"
        }
      ],
      "name": "ERC721IncorrectOwner",
      "type": "error"
    },
    {
      "inputs": [
        {
          "internalType": "address",
          "name": "operator",
          "type": "address"
        },
        {
          "internalType": "uint256",
          "name": "tokenId",
          "type": "uint256"
        }
      ],
      "name": "ERC721InsufficientApproval",
      "type": "error"
    },
    {
      "inputs": [
        {
          "internalType": "address",
          "name": "approver",
          "type": "address"
        }
      ],
      "name": "ERC721InvalidApprover",
      "type": "error"
    },
    {
      "inputs": [
        {
          "internalType": "address",
          "name": "operator",
          "type": "address"
        }
      ],
      "name": "ERC721InvalidOperator",
      "type": "error"
    },
    {
      "inputs": [
        {
          "internalType": "address",
          "name": "owner",
          "type": "address"
        }
      ],
      "name": "ERC721InvalidOwner",
      "type": "error"
    },
    {
      "inputs": [
        {
          "internalType": "address",
          "name": "receiver",
          "type": "address"
        }
      ],
      "name": "ERC721InvalidReceiver",
      "type": "error"
    },
    {
      "inputs": [
        {
          "internalType": "address",
          "name": "sender",
          "type": "address"
        }
      ],
      "name": "ERC721InvalidSender",
      "type": "error"
    },
    {
      "inputs": [
        {
          "internalType": "uint256",
          "name": "tokenId",
          "type": "uint256"
        }
      ],
      "name": "ERC721NonexistentToken",
      "type": "error"
    },
    {
      "inputs": [],
      "name": "InvalidSignature",
      "type": "error"
    },
    {
      "inputs": [],
      "name": "InvalidTokenAmounts",
      "type": "error"
    },
    {
      "inputs": [
        {
          "internalType": "uint256",
          "name": "tokenId",
          "type": "uint256"
        }
      ],
      "name": "OnlyOwnerCanBurn",
      "type": "error"
    },
    {
      "inputs": [
        {
          "internalType": "address",
          "name": "owner",
          "type": "address"
        }
      ],
      "name": "OwnableInvalidOwner",
      "type": "error"
    },
    {
      "inputs": [
        {
          "internalType": "address",
          "name": "account",
          "type": "address"
        }
      ],
      "name": "OwnableUnauthorizedAccount",
      "type": "error"
    },
    {
      "anonymous": false,
      "inputs": [
        {
          "indexed": true,
          "internalType": "address",
          "name": "owner",
          "type": "address"
        },
        {
          "indexed": true,
          "internalType": "address",
          "name": "approved",
          "type": "address"
        },
        {
          "indexed": true,
          "internalType": "uint256",
          "name": "tokenId",
          "type": "uint256"
        }
      ],
      "name": "Approval",
      "type": "event"
    },
    {
      "anonymous": false,
      "inputs": [
        {
          "indexed": true,
          "internalType": "address",
          "name": "owner",
          "type": "address"
        },
        {
          "indexed": true,
          "internalType": "address",
          "name": "operator",
          "type": "address"
        },
        {
          "indexed": false,
          "internalType": "bool",
          "name": "approved",
          "type": "bool"
        }
      ],
      "name": "ApprovalForAll",
      "type": "event"
    },
    {
      "anonymous": false,
      "inputs": [
        {
          "indexed": false,
          "internalType": "uint256",
          "name": "_fromTokenId",
          "type": "uint256"
        },
        {
          "indexed": false,
          "internalType": "uint256",
          "name": "_toTokenId",
          "type": "uint256"
        }
      ],
      "name": "BatchMetadataUpdate",
      "type": "event"
    },
    {
      "anonymous": false,
      "inputs": [
        {
          "indexed": false,
          "internalType": "uint256",
          "name": "_tokenId",
          "type": "uint256"
        }
      ],
      "name": "MetadataUpdate",
      "type": "event"
    },
    {
      "anonymous": false,
      "inputs": [
        {
          "indexed": true,
          "internalType": "address",
          "name": "previousOwner",
          "type": "address"
        },
        {
          "indexed": true,
          "internalType": "address",
          "name": "newOwner",
          "type": "address"
        }
      ],
      "name": "OwnershipTransferred",
      "type": "event"
    },
    {
      "anonymous": false,
      "inputs": [
        {
          "indexed": true,
          "internalType": "address",
          "name": "from",
          "type": "address"
        },
        {
          "indexed": true,
          "internalType": "address",
          "name": "to",
          "type": "address"
        },
        {
          "indexed": true,
          "internalType": "uint256",
          "name": "tokenId",
          "type": "uint256"
        }
      ],
      "name": "Transfer",
      "type": "event"
    },
    {
      "inputs": [
        {
          "internalType": "address",
          "name": "to",
          "type": "address"
        },
        {
          "internalType": "uint256",
          "name": "tokenId",
          "type": "uint256"
        }
      ],
      "name": "approve",
      "outputs": [],
      "stateMutability": "pure",
      "type": "function"
    },
    {
      "inputs": [
        {
          "internalType": "address",
          "name": "owner",
          "type": "address"
        }
      ],
      "name": "balanceOf",
      "outputs": [
        {
          "internalType": "uint256",
          "name": "",
          "type": "uint256"
        }
      ],
      "stateMutability": "view",
      "type": "function"
    },
    {
      "inputs": [
        {
          "internalType": "uint256",
          "name": "tokenId",
          "type": "uint256"
        }
      ],
      "name": "burn",
      "outputs": [],
      "stateMutability": "nonpayable",
      "type": "function"
    },
    {
      "inputs": [
        {
          "internalType": "uint256",
          "name": "tokenId",
          "type": "uint256"
        }
      ],
      "name": "getApproved",
      "outputs": [
        {
          "internalType": "address",
          "name": "operator",
          "type": "address"
        }
      ],
      "stateMutability": "pure",
      "type": "function"
    },
    {
      "inputs": [
        {
          "internalType": "address",
          "name": "owner",
          "type": "address"
        },
        {
          "internalType": "address",
          "name": "operator",
          "type": "address"
        }
      ],
      "name": "isApprovedForAll",
      "outputs": [
        {
          "internalType": "bool",
          "name": "",
          "type": "bool"
        }
      ],
      "stateMutability": "pure",
      "type": "function"
    },
    {
      "inputs": [
        {
          "internalType": "address",
          "name": "token",
          "type": "address"
        },
        {
          "internalType": "uint256",
          "name": "minBalance",
          "type": "uint256"
        },
        {
          "internalType": "string",
          "name": "uri",
          "type": "string"
        },
        {
          "internalType": "string",
          "name": "proofId",
          "type": "string"
        },
        {
          "internalType": "string",
          "name": "message",
          "type": "string"
        },
        {
          "internalType": "uint256[]",
          "name": "ring",
          "type": "uint256[]"
        },
        {
          "internalType": "uint256[]",
          "name": "responses",
          "type": "uint256[]"
        },
        {
          "internalType": "uint256",
          "name": "c",
          "type": "uint256"
        }
      ],
      "name": "mint",
      "outputs": [
        {
          "internalType": "bool",
          "name": "",
          "type": "bool"
        }
      ],
      "stateMutability": "payable",
      "type": "function"
    },
    {
      "inputs": [
        {
          "internalType": "string",
          "name": "",
          "type": "string"
        }
      ],
      "name": "mintStatus",
      "outputs": [
        {
          "internalType": "enum AliceRingToken.Status",
          "name": "",
          "type": "uint8"
        }
      ],
      "stateMutability": "view",
      "type": "function"
    },
    {
      "inputs": [],
      "name": "name",
      "outputs": [
        {
          "internalType": "string",
          "name": "",
          "type": "string"
        }
      ],
      "stateMutability": "view",
      "type": "function"
    },
    {
      "inputs": [],
      "name": "owner",
      "outputs": [
        {
          "internalType": "address",
          "name": "",
          "type": "address"
        }
      ],
      "stateMutability": "view",
      "type": "function"
    },
    {
      "inputs": [
        {
          "internalType": "uint256",
          "name": "tokenId",
          "type": "uint256"
        }
      ],
      "name": "ownerOf",
      "outputs": [
        {
          "internalType": "address",
          "name": "",
          "type": "address"
        }
      ],
      "stateMutability": "view",
      "type": "function"
    },
    {
      "inputs": [],
      "name": "renounceOwnership",
      "outputs": [],
      "stateMutability": "nonpayable",
      "type": "function"
    },
    {
      "inputs": [
        {
          "internalType": "address",
          "name": "from",
          "type": "address"
        },
        {
          "internalType": "address",
          "name": "to",
          "type": "address"
        },
        {
          "internalType": "uint256",
          "name": "tokenId",
          "type": "uint256"
        }
      ],
      "name": "safeTransferFrom",
      "outputs": [],
      "stateMutability": "pure",
      "type": "function"
    },
    {
      "inputs": [
        {
          "internalType": "address",
          "name": "from",
          "type": "address"
        },
        {
          "internalType": "address",
          "name": "to",
          "type": "address"
        },
        {
          "internalType": "uint256",
          "name": "tokenId",
          "type": "uint256"
        },
        {
          "internalType": "bytes",
          "name": "data",
          "type": "bytes"
        }
      ],
      "name": "safeTransferFrom",
      "outputs": [],
      "stateMutability": "nonpayable",
      "type": "function"
    },
    {
      "inputs": [
        {
          "internalType": "address",
          "name": "operator",
          "type": "address"
        },
        {
          "internalType": "bool",
          "name": "_approved",
          "type": "bool"
        }
      ],
      "name": "setApprovalForAll",
      "outputs": [],
      "stateMutability": "pure",
      "type": "function"
    },
    {
      "inputs": [
        {
          "internalType": "bytes4",
          "name": "interfaceId",
          "type": "bytes4"
        }
      ],
      "name": "supportsInterface",
      "outputs": [
        {
          "internalType": "bool",
          "name": "",
          "type": "bool"
        }
      ],
      "stateMutability": "view",
      "type": "function"
    },
    {
      "inputs": [],
      "name": "symbol",
      "outputs": [
        {
          "internalType": "string",
          "name": "",
          "type": "string"
        }
      ],
      "stateMutability": "view",
      "type": "function"
    },
    {
      "inputs": [
        {
          "internalType": "uint256",
          "name": "tokenId",
          "type": "uint256"
        }
      ],
      "name": "tokenURI",
      "outputs": [
        {
          "internalType": "string",
          "name": "",
          "type": "string"
        }
      ],
      "stateMutability": "view",
      "type": "function"
    },
    {
      "inputs": [
        {
          "internalType": "address",
          "name": "from",
          "type": "address"
        },
        {
          "internalType": "address",
          "name": "to",
          "type": "address"
        },
        {
          "internalType": "uint256",
          "name": "tokenId",
          "type": "uint256"
        }
      ],
      "name": "transferFrom",
      "outputs": [],
      "stateMutability": "pure",
      "type": "function"
    },
    {
      "inputs": [
        {
          "internalType": "address",
          "name": "newOwner",
          "type": "address"
        }
      ],
      "name": "transferOwnership",
      "outputs": [],
      "stateMutability": "nonpayable",
      "type": "function"
    },
    {
      "inputs": [],
      "name": "verifier",
      "outputs": [
        {
          "internalType": "contract RingSigVerifier",
          "name": "",
          "type": "address"
        }
      ],
      "stateMutability": "view",
      "type": "function"
    }
  ],
  "bytecode": "0x60806040523480156200001157600080fd5b50604051620035f2380380620035f28339818101604052810190620000379190620002c9565b336040518060400160405280600e81526020017f416c69636552696e67546f6b656e0000000000000000000000000000000000008152506040518060400160405280600381526020017f41525400000000000000000000000000000000000000000000000000000000008152508160009081620000b5919062000575565b508060019081620000c7919062000575565b505050600073ffffffffffffffffffffffffffffffffffffffff168173ffffffffffffffffffffffffffffffffffffffff16036200013f5760006040517f1e4fbdf70000000000000000000000000000000000000000000000000000000081526004016200013691906200066d565b60405180910390fd5b62000150816200019960201b60201c565b5080600960006101000a81548173ffffffffffffffffffffffffffffffffffffffff021916908373ffffffffffffffffffffffffffffffffffffffff160217905550506200068a565b6000600760009054906101000a900473ffffffffffffffffffffffffffffffffffffffff16905081600760006101000a81548173ffffffffffffffffffffffffffffffffffffffff021916908373ffffffffffffffffffffffffffffffffffffffff1602179055508173ffffffffffffffffffffffffffffffffffffffff168173ffffffffffffffffffffffffffffffffffffffff167f8be0079c531659141344cd1fd0a4f28419497f9722a3daafe3b4186f6b6457e060405160405180910390a35050565b600080fd5b600073ffffffffffffffffffffffffffffffffffffffff82169050919050565b6000620002918262000264565b9050919050565b620002a38162000284565b8114620002af57600080fd5b50565b600081519050620002c38162000298565b92915050565b600060208284031215620002e257620002e16200025f565b5b6000620002f284828501620002b2565b91505092915050565b600081519050919050565b7f4e487b7100000000000000000000000000000000000000000000000000000000600052604160045260246000fd5b7f4e487b7100000000000000000000000000000000000000000000000000000000600052602260045260246000fd5b600060028204905060018216806200037d57607f821691505b60208210810362000393576200039262000335565b5b50919050565b60008190508160005260206000209050919050565b60006020601f8301049050919050565b600082821b905092915050565b600060088302620003fd7fffffffffffffffffffffffffffffffffffffffffffffffffffffffffffffffff82620003be565b620004098683620003be565b95508019841693508086168417925050509392505050565b6000819050919050565b6000819050919050565b600062000456620004506200044a8462000421565b6200042b565b62000421565b9050919050565b6000819050919050565b620004728362000435565b6200048a62000481826200045d565b848454620003cb565b825550505050565b600090565b620004a162000492565b620004ae81848462000467565b505050565b5b81811015620004d657620004ca60008262000497565b600181019050620004b4565b5050565b601f8211156200052557620004ef8162000399565b620004fa84620003ae565b810160208510156200050a578190505b620005226200051985620003ae565b830182620004b3565b50505b505050565b600082821c905092915050565b60006200054a600019846008026200052a565b1980831691505092915050565b600062000565838362000537565b9150826002028217905092915050565b6200058082620002fb565b67ffffffffffffffff8111156200059c576200059b62000306565b5b620005a8825462000364565b620005b5828285620004da565b600060209050601f831160018114620005ed5760008415620005d8578287015190505b620005e4858262000557565b86555062000654565b601f198416620005fd8662000399565b60005b82811015620006275784890151825560018201915060208501945060208101905062000600565b8683101562000647578489015162000643601f89168262000537565b8355505b6001600288020188555050505b505050505050565b620006678162000284565b82525050565b60006020820190506200068460008301846200065c565b92915050565b612f58806200069a6000396000f3fe60806040526004361061011f5760003560e01c806370a08231116100a0578063b88d4fde11610064578063b88d4fde146103e5578063c87b56dd1461040e578063e985e9c51461044b578063f2fde38b14610488578063feec04b5146104b15761011f565b806370a0823114610312578063715018a61461034f5780638da5cb5b1461036657806395d89b4114610391578063a22cb465146103bc5761011f565b806328f21326116100e757806328f213261461021b5780632b7ac3f31461025857806342842e0e1461028357806342966c68146102ac5780636352211e146102d55761011f565b806301ffc9a71461012457806306fdde0314610161578063081812fc1461018c578063095ea7b3146101c957806323b872dd146101f2575b600080fd5b34801561013057600080fd5b5061014b60048036038101906101469190611d3b565b6104e1565b6040516101589190611d83565b60405180910390f35b34801561016d57600080fd5b506101766104f3565b6040516101839190611e2e565b60405180910390f35b34801561019857600080fd5b506101b360048036038101906101ae9190611e86565b610585565b6040516101c09190611ef4565b60405180910390f35b3480156101d557600080fd5b506101f060048036038101906101eb9190611f3b565b6105c2565b005b3480156101fe57600080fd5b5061021960048036038101906102149190611f7b565b6105fd565b005b34801561022757600080fd5b50610242600480360381019061023d9190612103565b610638565b60405161024f91906121c3565b60405180910390f35b34801561026457600080fd5b5061026d61066e565b60405161027a919061223d565b60405180910390f35b34801561028f57600080fd5b506102aa60048036038101906102a59190611f7b565b610694565b005b3480156102b857600080fd5b506102d360048036038101906102ce9190611e86565b6106cf565b005b3480156102e157600080fd5b506102fc60048036038101906102f79190611e86565b610753565b6040516103099190611ef4565b60405180910390f35b34801561031e57600080fd5b5061033960048036038101906103349190612258565b610765565b6040516103469190612294565b60405180910390f35b34801561035b57600080fd5b5061036461081f565b005b34801561037257600080fd5b5061037b610833565b6040516103889190611ef4565b60405180910390f35b34801561039d57600080fd5b506103a661085d565b6040516103b39190611e2e565b60405180910390f35b3480156103c857600080fd5b506103e360048036038101906103de91906122db565b6108ef565b005b3480156103f157600080fd5b5061040c600480360381019061040791906123bc565b61092a565b005b34801561041a57600080fd5b5061043560048036038101906104309190611e86565b610947565b6040516104429190611e2e565b60405180910390f35b34801561045757600080fd5b50610472600480360381019061046d919061243f565b610959565b60405161047f9190611d83565b60405180910390f35b34801561049457600080fd5b506104af60048036038101906104aa9190612258565b610961565b005b6104cb60048036038101906104c69190612547565b6109e7565b6040516104d89190611d83565b60405180910390f35b60006104ec82610bdb565b9050919050565b606060008054610502906126b8565b80601f016020809104026020016040519081016040528092919081815260200182805461052e906126b8565b801561057b5780601f106105505761010080835404028352916020019161057b565b820191906000526020600020905b81548152906001019060200180831161055e57829003601f168201915b5050505050905090565b60006040517f08c379a00000000000000000000000000000000000000000000000000000000081526004016105b990612735565b60405180910390fd5b6040517f08c379a00000000000000000000000000000000000000000000000000000000081526004016105f4906127a1565b60405180910390fd5b6040517f08c379a000000000000000000000000000000000000000000000000000000000815260040161062f9061280d565b60405180910390fd5b600a818051602081018201805184825260208301602085012081835280955050505050506000915054906101000a900460ff1681565b600960009054906101000a900473ffffffffffffffffffffffffffffffffffffffff1681565b6040517f08c379a00000000000000000000000000000000000000000000000000000000081526004016106c690612879565b60405180910390fd5b3373ffffffffffffffffffffffffffffffffffffffff166106ef82610753565b73ffffffffffffffffffffffffffffffffffffffff161461074757806040517fbdeff5ab00000000000000000000000000000000000000000000000000000000815260040161073e9190612294565b60405180910390fd5b61075081610c3c565b50565b600061075e82610c48565b9050919050565b60008073ffffffffffffffffffffffffffffffffffffffff168273ffffffffffffffffffffffffffffffffffffffff16036107d85760006040517f89c62b640000000000000000000000000000000000000000000000000000000081526004016107cf9190611ef4565b60405180910390fd5b600360008373ffffffffffffffffffffffffffffffffffffffff1673ffffffffffffffffffffffffffffffffffffffff168152602001908152602001600020549050919050565b610827610cd0565b6108316000610d57565b565b6000600760009054906101000a900473ffffffffffffffffffffffffffffffffffffffff16905090565b60606001805461086c906126b8565b80601f0160208091040260200160405190810160405280929190818152602001828054610898906126b8565b80156108e55780601f106108ba576101008083540402835291602001916108e5565b820191906000526020600020905b8154815290600101906020018083116108c857829003601f168201915b5050505050905090565b6040517f08c379a00000000000000000000000000000000000000000000000000000000081526004016109219061290b565b60405180910390fd5b6109358484846105fd565b61094184848484610e1d565b50505050565b606061095282610fd4565b9050919050565b600092915050565b610969610cd0565b600073ffffffffffffffffffffffffffffffffffffffff168173ffffffffffffffffffffffffffffffffffffffff16036109db5760006040517f1e4fbdf70000000000000000000000000000000000000000000000000000000081526004016109d29190611ef4565b60405180910390fd5b6109e481610d57565b50565b60006001808111156109fc576109fb61214c565b5b600a87604051610a0c9190612967565b908152602001604051809103902060009054906101000a900460ff166001811115610a3a57610a3961214c565b5b03610a7c57856040517f0899a184000000000000000000000000000000000000000000000000000000008152600401610a739190611e2e565b60405180910390fd5b600960009054906101000a900473ffffffffffffffffffffffffffffffffffffffff1673ffffffffffffffffffffffffffffffffffffffff1663c434c5ee868686866040518563ffffffff1660e01b8152600401610add9493929190612a3c565b602060405180830381865afa158015610afa573d6000803e3d6000fd5b505050506040513d601f19601f82011682018060405250810190610b1e9190612aab565b610b54576040517f8baa579f00000000000000000000000000000000000000000000000000000000815260040160405180910390fd5b6001600a87604051610b669190612967565b908152602001604051809103902060006101000a81548160ff02191690836001811115610b9657610b9561214c565b5b0217905550610ba7336008546110e7565b610bb360085488611105565b60086000815480929190610bc690612b07565b91905055506001905098975050505050505050565b6000634906490660e01b7bffffffffffffffffffffffffffffffffffffffffffffffffffffffff1916827bffffffffffffffffffffffffffffffffffffffffffffffffffffffff19161480610c355750610c3482611161565b5b9050919050565b610c4581611243565b50565b600080610c54836112c9565b9050600073ffffffffffffffffffffffffffffffffffffffff168173ffffffffffffffffffffffffffffffffffffffff1603610cc757826040517f7e273289000000000000000000000000000000000000000000000000000000008152600401610cbe9190612294565b60405180910390fd5b80915050919050565b610cd8611306565b73ffffffffffffffffffffffffffffffffffffffff16610cf6610833565b73ffffffffffffffffffffffffffffffffffffffff1614610d5557610d19611306565b6040517f118cdaa7000000000000000000000000000000000000000000000000000000008152600401610d4c9190611ef4565b60405180910390fd5b565b6000600760009054906101000a900473ffffffffffffffffffffffffffffffffffffffff16905081600760006101000a81548173ffffffffffffffffffffffffffffffffffffffff021916908373ffffffffffffffffffffffffffffffffffffffff1602179055508173ffffffffffffffffffffffffffffffffffffffff168173ffffffffffffffffffffffffffffffffffffffff167f8be0079c531659141344cd1fd0a4f28419497f9722a3daafe3b4186f6b6457e060405160405180910390a35050565b60008373ffffffffffffffffffffffffffffffffffffffff163b1115610fce578273ffffffffffffffffffffffffffffffffffffffff1663150b7a02610e61611306565b8685856040518563ffffffff1660e01b8152600401610e839493929190612ba4565b6020604051808303816000875af1925050508015610ebf57506040513d601f19601f82011682018060405250810190610ebc9190612c05565b60015b610f43573d8060008114610eef576040519150601f19603f3d011682016040523d82523d6000602084013e610ef4565b606091505b506000815103610f3b57836040517f64a0ae92000000000000000000000000000000000000000000000000000000008152600401610f329190611ef4565b60405180910390fd5b805181602001fd5b63150b7a0260e01b7bffffffffffffffffffffffffffffffffffffffffffffffffffffffff1916817bffffffffffffffffffffffffffffffffffffffffffffffffffffffff191614610fcc57836040517f64a0ae92000000000000000000000000000000000000000000000000000000008152600401610fc39190611ef4565b60405180910390fd5b505b50505050565b6060610fdf82610c48565b506000600660008481526020019081526020016000208054611000906126b8565b80601f016020809104026020016040519081016040528092919081815260200182805461102c906126b8565b80156110795780601f1061104e57610100808354040283529160200191611079565b820191906000526020600020905b81548152906001019060200180831161105c57829003601f168201915b50505050509050600061108a61130e565b9050600081510361109f5781925050506110e2565b6000825111156110d45780826040516020016110bc929190612c32565b604051602081830303815290604052925050506110e2565b6110dd84611325565b925050505b919050565b61110182826040518060200160405280600081525061138e565b5050565b806006600084815260200190815260200160002090816111259190612df8565b507ff8e1a15aba9398e019f0b49df1a4fde98ee17ae345cb5f6b5e2c27f5033e8ce7826040516111559190612294565b60405180910390a15050565b60007f80ac58cd000000000000000000000000000000000000000000000000000000007bffffffffffffffffffffffffffffffffffffffffffffffffffffffff1916827bffffffffffffffffffffffffffffffffffffffffffffffffffffffff1916148061122c57507f5b5e139f000000000000000000000000000000000000000000000000000000007bffffffffffffffffffffffffffffffffffffffffffffffffffffffff1916827bffffffffffffffffffffffffffffffffffffffffffffffffffffffff1916145b8061123c575061123b826113aa565b5b9050919050565b60006112526000836000611414565b9050600073ffffffffffffffffffffffffffffffffffffffff168173ffffffffffffffffffffffffffffffffffffffff16036112c557816040517f7e2732890000000000000000000000000000000000000000000000000000000081526004016112bc9190612294565b60405180910390fd5b5050565b60006002600083815260200190815260200160002060009054906101000a900473ffffffffffffffffffffffffffffffffffffffff169050919050565b600033905090565b606060405180602001604052806000815250905090565b606061133082610c48565b50600061133b61130e565b9050600081511161135b5760405180602001604052806000815250611386565b806113658461162e565b604051602001611376929190612c32565b6040516020818303038152906040525b915050919050565b61139883836116fc565b6113a56000848484610e1d565b505050565b60007f01ffc9a7000000000000000000000000000000000000000000000000000000007bffffffffffffffffffffffffffffffffffffffffffffffffffffffff1916827bffffffffffffffffffffffffffffffffffffffffffffffffffffffff1916149050919050565b600080611420846112c9565b9050600073ffffffffffffffffffffffffffffffffffffffff168373ffffffffffffffffffffffffffffffffffffffff1614611462576114618184866117f5565b5b600073ffffffffffffffffffffffffffffffffffffffff168173ffffffffffffffffffffffffffffffffffffffff16146114f3576114a46000856000806118b9565b6001600360008373ffffffffffffffffffffffffffffffffffffffff1673ffffffffffffffffffffffffffffffffffffffff168152602001908152602001600020600082825403925050819055505b600073ffffffffffffffffffffffffffffffffffffffff168573ffffffffffffffffffffffffffffffffffffffff1614611576576001600360008773ffffffffffffffffffffffffffffffffffffffff1673ffffffffffffffffffffffffffffffffffffffff168152602001908152602001600020600082825401925050819055505b846002600086815260200190815260200160002060006101000a81548173ffffffffffffffffffffffffffffffffffffffff021916908373ffffffffffffffffffffffffffffffffffffffff160217905550838573ffffffffffffffffffffffffffffffffffffffff168273ffffffffffffffffffffffffffffffffffffffff167fddf252ad1be2c89b69c2b068fc378daa952ba7f163c4a11628f55a4df523b3ef60405160405180910390a4809150509392505050565b60606000600161163d84611a7e565b01905060008167ffffffffffffffff81111561165c5761165b611fd8565b5b6040519080825280601f01601f19166020018201604052801561168e5781602001600182028036833780820191505090505b509050600082602001820190505b6001156116f1578080600190039150507f3031323334353637383961626364656600000000000000000000000000000000600a86061a8153600a85816116e5576116e4612eca565b5b0494506000850361169c575b819350505050919050565b600073ffffffffffffffffffffffffffffffffffffffff168273ffffffffffffffffffffffffffffffffffffffff160361176e5760006040517f64a0ae920000000000000000000000000000000000000000000000000000000081526004016117659190611ef4565b60405180910390fd5b600061177c83836000611414565b9050600073ffffffffffffffffffffffffffffffffffffffff168173ffffffffffffffffffffffffffffffffffffffff16146117f05760006040517f73c6ac6e0000000000000000000000000000000000000000000000000000000081526004016117e79190611ef4565b60405180910390fd5b505050565b611800838383611bd1565b6118b457600073ffffffffffffffffffffffffffffffffffffffff168373ffffffffffffffffffffffffffffffffffffffff160361187557806040517f7e27328900000000000000000000000000000000000000000000000000000000815260040161186c9190612294565b60405180910390fd5b81816040517f177e802f0000000000000000000000000000000000000000000000000000000081526004016118ab929190612ef9565b60405180910390fd5b505050565b80806118f25750600073ffffffffffffffffffffffffffffffffffffffff168273ffffffffffffffffffffffffffffffffffffffff1614155b15611a2657600061190284610c48565b9050600073ffffffffffffffffffffffffffffffffffffffff168373ffffffffffffffffffffffffffffffffffffffff161415801561196d57508273ffffffffffffffffffffffffffffffffffffffff168173ffffffffffffffffffffffffffffffffffffffff1614155b8015611980575061197e8184610959565b155b156119c257826040517fa9fbf51f0000000000000000000000000000000000000000000000000000000081526004016119b99190611ef4565b60405180910390fd5b8115611a2457838573ffffffffffffffffffffffffffffffffffffffff168273ffffffffffffffffffffffffffffffffffffffff167f8c5be1e5ebec7d5bd14f71427d1e84f3dd0314c0f7b2291e5b200ac8c7c3b92560405160405180910390a45b505b836004600085815260200190815260200160002060006101000a81548173ffffffffffffffffffffffffffffffffffffffff021916908373ffffffffffffffffffffffffffffffffffffffff16021790555050505050565b600080600090507a184f03e93ff9f4daa797ed6e38ed64bf6a1f0100000000000000008310611adc577a184f03e93ff9f4daa797ed6e38ed64bf6a1f0100000000000000008381611ad257611ad1612eca565b5b0492506040810190505b6d04ee2d6d415b85acef81000000008310611b19576d04ee2d6d415b85acef81000000008381611b0f57611b0e612eca565b5b0492506020810190505b662386f26fc100008310611b4857662386f26fc100008381611b3e57611b3d612eca565b5b0492506010810190505b6305f5e1008310611b71576305f5e1008381611b6757611b66612eca565b5b0492506008810190505b6127108310611b96576127108381611b8c57611b8b612eca565b5b0492506004810190505b60648310611bb95760648381611baf57611bae612eca565b5b0492506002810190505b600a8310611bc8576001810190505b80915050919050565b60008073ffffffffffffffffffffffffffffffffffffffff168373ffffffffffffffffffffffffffffffffffffffff1614158015611c8957508273ffffffffffffffffffffffffffffffffffffffff168473ffffffffffffffffffffffffffffffffffffffff161480611c4a5750611c498484610959565b5b80611c8857508273ffffffffffffffffffffffffffffffffffffffff16611c7083611c92565b73ffffffffffffffffffffffffffffffffffffffff16145b5b90509392505050565b60006004600083815260200190815260200160002060009054906101000a900473ffffffffffffffffffffffffffffffffffffffff169050919050565b6000604051905090565b600080fd5b600080fd5b60007fffffffff0000000000000000000000000000000000000000000000000000000082169050919050565b611d1881611ce3565b8114611d2357600080fd5b50565b600081359050611d3581611d0f565b92915050565b600060208284031215611d5157611d50611cd9565b5b6000611d5f84828501611d26565b91505092915050565b60008115159050919050565b611d7d81611d68565b82525050565b6000602082019050611d986000830184611d74565b92915050565b600081519050919050565b600082825260208201905092915050565b60005b83811015611dd8578082015181840152602081019050611dbd565b60008484015250505050565b6000601f19601f8301169050919050565b6000611e0082611d9e565b611e0a8185611da9565b9350611e1a818560208601611dba565b611e2381611de4565b840191505092915050565b60006020820190508181036000830152611e488184611df5565b905092915050565b6000819050919050565b611e6381611e50565b8114611e6e57600080fd5b50565b600081359050611e8081611e5a565b92915050565b600060208284031215611e9c57611e9b611cd9565b5b6000611eaa84828501611e71565b91505092915050565b600073ffffffffffffffffffffffffffffffffffffffff82169050919050565b6000611ede82611eb3565b9050919050565b611eee81611ed3565b82525050565b6000602082019050611f096000830184611ee5565b92915050565b611f1881611ed3565b8114611f2357600080fd5b50565b600081359050611f3581611f0f565b92915050565b60008060408385031215611f5257611f51611cd9565b5b6000611f6085828601611f26565b9250506020611f7185828601611e71565b9150509250929050565b600080600060608486031215611f9457611f93611cd9565b5b6000611fa286828701611f26565b9350506020611fb386828701611f26565b9250506040611fc486828701611e71565b9150509250925092565b600080fd5b600080fd5b7f4e487b7100000000000000000000000000000000000000000000000000000000600052604160045260246000fd5b61201082611de4565b810181811067ffffffffffffffff8211171561202f5761202e611fd8565b5b80604052505050565b6000612042611ccf565b905061204e8282612007565b919050565b600067ffffffffffffffff82111561206e5761206d611fd8565b5b61207782611de4565b9050602081019050919050565b82818337600083830152505050565b60006120a66120a184612053565b612038565b9050828152602081018484840111156120c2576120c1611fd3565b5b6120cd848285612084565b509392505050565b600082601f8301126120ea576120e9611fce565b5b81356120fa848260208601612093565b91505092915050565b60006020828403121561211957612118611cd9565b5b600082013567ffffffffffffffff81111561213757612136611cde565b5b612143848285016120d5565b91505092915050565b7f4e487b7100000000000000000000000000000000000000000000000000000000600052602160045260246000fd5b6002811061218c5761218b61214c565b5b50565b600081905061219d8261217b565b919050565b60006121ad8261218f565b9050919050565b6121bd816121a2565b82525050565b60006020820190506121d860008301846121b4565b92915050565b6000819050919050565b60006122036121fe6121f984611eb3565b6121de565b611eb3565b9050919050565b6000612215826121e8565b9050919050565b60006122278261220a565b9050919050565b6122378161221c565b82525050565b6000602082019050612252600083018461222e565b92915050565b60006020828403121561226e5761226d611cd9565b5b600061227c84828501611f26565b91505092915050565b61228e81611e50565b82525050565b60006020820190506122a96000830184612285565b92915050565b6122b881611d68565b81146122c357600080fd5b50565b6000813590506122d5816122af565b92915050565b600080604083850312156122f2576122f1611cd9565b5b600061230085828601611f26565b9250506020612311858286016122c6565b9150509250929050565b600067ffffffffffffffff82111561233657612335611fd8565b5b61233f82611de4565b9050602081019050919050565b600061235f61235a8461231b565b612038565b90508281526020810184848401111561237b5761237a611fd3565b5b612386848285612084565b509392505050565b600082601f8301126123a3576123a2611fce565b5b81356123b384826020860161234c565b91505092915050565b600080600080608085870312156123d6576123d5611cd9565b5b60006123e487828801611f26565b94505060206123f587828801611f26565b935050604061240687828801611e71565b925050606085013567ffffffffffffffff81111561242757612426611cde565b5b6124338782880161238e565b91505092959194509250565b6000806040838503121561245657612455611cd9565b5b600061246485828601611f26565b925050602061247585828601611f26565b9150509250929050565b600067ffffffffffffffff82111561249a57612499611fd8565b5b602082029050602081019050919050565b600080fd5b60006124c36124be8461247f565b612038565b905080838252602082019050602084028301858111156124e6576124e56124ab565b5b835b8181101561250f57806124fb8882611e71565b8452602084019350506020810190506124e8565b5050509392505050565b600082601f83011261252e5761252d611fce565b5b813561253e8482602086016124b0565b91505092915050565b600080600080600080600080610100898b03121561256857612567611cd9565b5b60006125768b828c01611f26565b98505060206125878b828c01611e71565b975050604089013567ffffffffffffffff8111156125a8576125a7611cde565b5b6125b48b828c016120d5565b965050606089013567ffffffffffffffff8111156125d5576125d4611cde565b5b6125e18b828c016120d5565b955050608089013567ffffffffffffffff81111561260257612601611cde565b5b61260e8b828c016120d5565b94505060a089013567ffffffffffffffff81111561262f5761262e611cde565b5b61263b8b828c01612519565b93505060c089013567ffffffffffffffff81111561265c5761265b611cde565b5b6126688b828c01612519565b92505060e06126798b828c01611e71565b9150509295985092959890939650565b7f4e487b7100000000000000000000000000000000000000000000000000000000600052602260045260246000fd5b600060028204905060018216806126d057607f821691505b6020821081036126e3576126e2612689565b5b50919050565b7f5342543a20676574417070726f766564206e6f7420616c6c6f77656400000000600082015250565b600061271f601c83611da9565b915061272a826126e9565b602082019050919050565b6000602082019050818103600083015261274e81612712565b9050919050565b7f5342543a20417070726f7665206e6f7420616c6c6f7765640000000000000000600082015250565b600061278b601883611da9565b915061279682612755565b602082019050919050565b600060208201905081810360008301526127ba8161277e565b9050919050565b7f5342543a205472616e73666572206e6f7420616c6c6f77656400000000000000600082015250565b60006127f7601983611da9565b9150612802826127c1565b602082019050919050565b60006020820190508181036000830152612826816127ea565b9050919050565b7f5342543a20536166655472616e73666572206e6f7420616c6c6f776564000000600082015250565b6000612863601d83611da9565b915061286e8261282d565b602082019050919050565b6000602082019050818103600083015261289281612856565b9050919050565b7f5342543a20736574417070726f76616c466f72416c6c206e6f7420616c6c6f7760008201527f6564000000000000000000000000000000000000000000000000000000000000602082015250565b60006128f5602283611da9565b915061290082612899565b604082019050919050565b60006020820190508181036000830152612924816128e8565b9050919050565b600081905092915050565b600061294182611d9e565b61294b818561292b565b935061295b818560208601611dba565b80840191505092915050565b60006129738284612936565b915081905092915050565b600081519050919050565b600082825260208201905092915050565b6000819050602082019050919050565b6129b381611e50565b82525050565b60006129c583836129aa565b60208301905092915050565b6000602082019050919050565b60006129e98261297e565b6129f38185612989565b93506129fe8361299a565b8060005b83811015612a2f578151612a1688826129b9565b9750612a21836129d1565b925050600181019050612a02565b5085935050505092915050565b60006080820190508181036000830152612a568187611df5565b90508181036020830152612a6a81866129de565b90508181036040830152612a7e81856129de565b9050612a8d6060830184612285565b95945050505050565b600081519050612aa5816122af565b92915050565b600060208284031215612ac157612ac0611cd9565b5b6000612acf84828501612a96565b91505092915050565b7f4e487b7100000000000000000000000000000000000000000000000000000000600052601160045260246000fd5b6000612b1282611e50565b91507fffffffffffffffffffffffffffffffffffffffffffffffffffffffffffffffff8203612b4457612b43612ad8565b5b600182019050919050565b600081519050919050565b600082825260208201905092915050565b6000612b7682612b4f565b612b808185612b5a565b9350612b90818560208601611dba565b612b9981611de4565b840191505092915050565b6000608082019050612bb96000830187611ee5565b612bc66020830186611ee5565b612bd36040830185612285565b8181036060830152612be58184612b6b565b905095945050505050565b600081519050612bff81611d0f565b92915050565b600060208284031215612c1b57612c1a611cd9565b5b6000612c2984828501612bf0565b91505092915050565b6000612c3e8285612936565b9150612c4a8284612936565b91508190509392505050565b60008190508160005260206000209050919050565b60006020601f8301049050919050565b600082821b905092915050565b600060088302612cb87fffffffffffffffffffffffffffffffffffffffffffffffffffffffffffffffff82612c7b565b612cc28683612c7b565b95508019841693508086168417925050509392505050565b6000612cf5612cf0612ceb84611e50565b6121de565b611e50565b9050919050565b6000819050919050565b612d0f83612cda565b612d23612d1b82612cfc565b848454612c88565b825550505050565b600090565b612d38612d2b565b612d43818484612d06565b505050565b5b81811015612d6757612d5c600082612d30565b600181019050612d49565b5050565b601f821115612dac57612d7d81612c56565b612d8684612c6b565b81016020851015612d95578190505b612da9612da185612c6b565b830182612d48565b50505b505050565b600082821c905092915050565b6000612dcf60001984600802612db1565b1980831691505092915050565b6000612de88383612dbe565b9150826002028217905092915050565b612e0182611d9e565b67ffffffffffffffff811115612e1a57612e19611fd8565b5b612e2482546126b8565b612e2f828285612d6b565b600060209050601f831160018114612e625760008415612e50578287015190505b612e5a8582612ddc565b865550612ec2565b601f198416612e7086612c56565b60005b82811015612e9857848901518255600182019150602085019450602081019050612e73565b86831015612eb55784890151612eb1601f891682612dbe565b8355505b6001600288020188555050505b505050505050565b7f4e487b7100000000000000000000000000000000000000000000000000000000600052601260045260246000fd5b6000604082019050612f0e6000830185611ee5565b612f1b6020830184612285565b939250505056fea2646970667358221220a037f009d36739672103d8e4bb22f34f55c5fa455d19c6f087b4d53392e36d7c64736f6c63430008140033",
  "linkReferences": {},
  "deployedLinkReferences": {}
}