{
  "_format": "hh-sol-artifact-1",
  "contractName": "AliceRingToken",
  "sourceName": "contracts/sbt.sol",
  "abi": [
    {
      "inputs": [
        {
          "internalType": "address",
          "name": "_verifier",
          "type": "address"
        },
        {
          "internalType": "address",
          "name": "router",
          "type": "address"
        }
      ],
      "stateMutability": "nonpayable",
      "type": "constructor"
    },
    {
      "inputs": [
        {
          "internalType": "string",
          "name": "proofId",
          "type": "string"
        }
      ],
      "name": "AlreadyMinted",
      "type": "error"
    },
    {
      "inputs": [
        {
          "internalType": "address",
          "name": "sender",
          "type": "address"
        },
        {
          "internalType": "uint256",
          "name": "tokenId",
          "type": "uint256"
        },
        {
          "internalType": "address",
          "name": "owner",
          "type": "address"
        }
      ],
      "name": "ERC721IncorrectOwner",
      "type": "error"
    },
    {
      "inputs": [
        {
          "internalType": "address",
          "name": "operator",
          "type": "address"
        },
        {
          "internalType": "uint256",
          "name": "tokenId",
          "type": "uint256"
        }
      ],
      "name": "ERC721InsufficientApproval",
      "type": "error"
    },
    {
      "inputs": [
        {
          "internalType": "address",
          "name": "approver",
          "type": "address"
        }
      ],
      "name": "ERC721InvalidApprover",
      "type": "error"
    },
    {
      "inputs": [
        {
          "internalType": "address",
          "name": "operator",
          "type": "address"
        }
      ],
      "name": "ERC721InvalidOperator",
      "type": "error"
    },
    {
      "inputs": [
        {
          "internalType": "address",
          "name": "owner",
          "type": "address"
        }
      ],
      "name": "ERC721InvalidOwner",
      "type": "error"
    },
    {
      "inputs": [
        {
          "internalType": "address",
          "name": "receiver",
          "type": "address"
        }
      ],
      "name": "ERC721InvalidReceiver",
      "type": "error"
    },
    {
      "inputs": [
        {
          "internalType": "address",
          "name": "sender",
          "type": "address"
        }
      ],
      "name": "ERC721InvalidSender",
      "type": "error"
    },
    {
      "inputs": [
        {
          "internalType": "uint256",
          "name": "tokenId",
          "type": "uint256"
        }
      ],
      "name": "ERC721NonexistentToken",
      "type": "error"
    },
    {
      "inputs": [],
      "name": "EmptyArgs",
      "type": "error"
    },
    {
      "inputs": [],
      "name": "EmptySource",
      "type": "error"
    },
    {
      "inputs": [],
      "name": "InvalidSignature",
      "type": "error"
    },
    {
      "inputs": [],
      "name": "InvalidTokenAmounts",
      "type": "error"
    },
    {
      "inputs": [],
      "name": "NoInlineSecrets",
      "type": "error"
    },
    {
      "inputs": [
        {
          "internalType": "uint256",
          "name": "tokenId",
          "type": "uint256"
        }
      ],
      "name": "OnlyOwnerCanBurn",
      "type": "error"
    },
    {
      "inputs": [],
      "name": "OnlyRouterCanFulfill",
      "type": "error"
    },
    {
      "inputs": [
        {
          "internalType": "address",
          "name": "owner",
          "type": "address"
        }
      ],
      "name": "OwnableInvalidOwner",
      "type": "error"
    },
    {
      "inputs": [
        {
          "internalType": "address",
          "name": "account",
          "type": "address"
        }
      ],
      "name": "OwnableUnauthorizedAccount",
      "type": "error"
    },
    {
      "inputs": [
        {
          "internalType": "bytes32",
          "name": "requestId",
          "type": "bytes32"
        }
      ],
      "name": "UnexpectedRequestID",
      "type": "error"
    },
    {
      "anonymous": false,
      "inputs": [
        {
          "indexed": true,
          "internalType": "address",
          "name": "owner",
          "type": "address"
        },
        {
          "indexed": true,
          "internalType": "address",
          "name": "approved",
          "type": "address"
        },
        {
          "indexed": true,
          "internalType": "uint256",
          "name": "tokenId",
          "type": "uint256"
        }
      ],
      "name": "Approval",
      "type": "event"
    },
    {
      "anonymous": false,
      "inputs": [
        {
          "indexed": true,
          "internalType": "address",
          "name": "owner",
          "type": "address"
        },
        {
          "indexed": true,
          "internalType": "address",
          "name": "operator",
          "type": "address"
        },
        {
          "indexed": false,
          "internalType": "bool",
          "name": "approved",
          "type": "bool"
        }
      ],
      "name": "ApprovalForAll",
      "type": "event"
    },
    {
      "anonymous": false,
      "inputs": [
        {
          "indexed": false,
          "internalType": "uint256",
          "name": "_fromTokenId",
          "type": "uint256"
        },
        {
          "indexed": false,
          "internalType": "uint256",
          "name": "_toTokenId",
          "type": "uint256"
        }
      ],
      "name": "BatchMetadataUpdate",
      "type": "event"
    },
    {
      "anonymous": false,
      "inputs": [
        {
          "indexed": false,
          "internalType": "uint256",
          "name": "_tokenId",
          "type": "uint256"
        }
      ],
      "name": "MetadataUpdate",
      "type": "event"
    },
    {
      "anonymous": false,
      "inputs": [
        {
          "indexed": true,
          "internalType": "address",
          "name": "previousOwner",
          "type": "address"
        },
        {
          "indexed": true,
          "internalType": "address",
          "name": "newOwner",
          "type": "address"
        }
      ],
      "name": "OwnershipTransferred",
      "type": "event"
    },
    {
      "anonymous": false,
      "inputs": [
        {
          "indexed": true,
          "internalType": "bytes32",
          "name": "id",
          "type": "bytes32"
        }
      ],
      "name": "RequestFulfilled",
      "type": "event"
    },
    {
      "anonymous": false,
      "inputs": [
        {
          "indexed": true,
          "internalType": "bytes32",
          "name": "id",
          "type": "bytes32"
        }
      ],
      "name": "RequestSent",
      "type": "event"
    },
    {
      "anonymous": false,
      "inputs": [
        {
          "indexed": true,
          "internalType": "bytes32",
          "name": "requestId",
          "type": "bytes32"
        },
        {
          "indexed": false,
          "internalType": "bytes",
          "name": "response",
          "type": "bytes"
        },
        {
          "indexed": false,
          "internalType": "bytes",
          "name": "err",
          "type": "bytes"
        }
      ],
      "name": "Response",
      "type": "event"
    },
    {
      "anonymous": false,
      "inputs": [
        {
          "indexed": true,
          "internalType": "address",
          "name": "from",
          "type": "address"
        },
        {
          "indexed": true,
          "internalType": "address",
          "name": "to",
          "type": "address"
        },
        {
          "indexed": true,
          "internalType": "uint256",
          "name": "tokenId",
          "type": "uint256"
        }
      ],
      "name": "Transfer",
      "type": "event"
    },
    {
      "inputs": [
        {
          "internalType": "address",
          "name": "to",
          "type": "address"
        },
        {
          "internalType": "uint256",
          "name": "tokenId",
          "type": "uint256"
        }
      ],
      "name": "approve",
      "outputs": [],
      "stateMutability": "pure",
      "type": "function"
    },
    {
      "inputs": [
        {
          "internalType": "address",
          "name": "owner",
          "type": "address"
        }
      ],
      "name": "balanceOf",
      "outputs": [
        {
          "internalType": "uint256",
          "name": "",
          "type": "uint256"
        }
      ],
      "stateMutability": "view",
      "type": "function"
    },
    {
      "inputs": [
        {
          "internalType": "uint256",
          "name": "tokenId",
          "type": "uint256"
        }
      ],
      "name": "burn",
      "outputs": [],
      "stateMutability": "nonpayable",
      "type": "function"
    },
    {
      "inputs": [
        {
          "internalType": "uint256",
          "name": "tokenId",
          "type": "uint256"
        }
      ],
      "name": "getApproved",
      "outputs": [
        {
          "internalType": "address",
          "name": "operator",
          "type": "address"
        }
      ],
      "stateMutability": "pure",
      "type": "function"
    },
    {
      "inputs": [
        {
          "internalType": "bytes32",
          "name": "requestId",
          "type": "bytes32"
        },
        {
          "internalType": "bytes",
          "name": "response",
          "type": "bytes"
        },
        {
          "internalType": "bytes",
          "name": "err",
          "type": "bytes"
        }
      ],
      "name": "handleOracleFulfillment",
      "outputs": [],
      "stateMutability": "nonpayable",
      "type": "function"
    },
    {
      "inputs": [
        {
          "internalType": "address",
          "name": "owner",
          "type": "address"
        },
        {
          "internalType": "address",
          "name": "operator",
          "type": "address"
        }
      ],
      "name": "isApprovedForAll",
      "outputs": [
        {
          "internalType": "bool",
          "name": "",
          "type": "bool"
        }
      ],
      "stateMutability": "pure",
      "type": "function"
    },
    {
      "inputs": [
        {
          "internalType": "address",
          "name": "token",
          "type": "address"
        },
        {
          "internalType": "uint256",
          "name": "minBalance",
          "type": "uint256"
        },
        {
          "internalType": "string",
          "name": "uri",
          "type": "string"
        },
        {
          "internalType": "string",
          "name": "proofId",
          "type": "string"
        },
        {
          "internalType": "string",
          "name": "message",
          "type": "string"
        },
        {
          "internalType": "uint256[]",
          "name": "ring",
          "type": "uint256[]"
        },
        {
          "internalType": "uint256[]",
          "name": "responses",
          "type": "uint256[]"
        },
        {
          "internalType": "uint256",
          "name": "c",
          "type": "uint256"
        }
      ],
      "name": "mint",
      "outputs": [
        {
          "internalType": "bool",
          "name": "",
          "type": "bool"
        }
      ],
      "stateMutability": "payable",
      "type": "function"
    },
    {
      "inputs": [
        {
          "internalType": "string",
          "name": "",
          "type": "string"
        }
      ],
      "name": "mintStatus",
      "outputs": [
        {
          "internalType": "enum AliceRingToken.Status",
          "name": "",
          "type": "uint8"
        }
      ],
      "stateMutability": "view",
      "type": "function"
    },
    {
      "inputs": [],
      "name": "name",
      "outputs": [
        {
          "internalType": "string",
          "name": "",
          "type": "string"
        }
      ],
      "stateMutability": "view",
      "type": "function"
    },
    {
      "inputs": [],
      "name": "owner",
      "outputs": [
        {
          "internalType": "address",
          "name": "",
          "type": "address"
        }
      ],
      "stateMutability": "view",
      "type": "function"
    },
    {
      "inputs": [
        {
          "internalType": "uint256",
          "name": "tokenId",
          "type": "uint256"
        }
      ],
      "name": "ownerOf",
      "outputs": [
        {
          "internalType": "address",
          "name": "",
          "type": "address"
        }
      ],
      "stateMutability": "view",
      "type": "function"
    },
    {
      "inputs": [],
      "name": "renounceOwnership",
      "outputs": [],
      "stateMutability": "nonpayable",
      "type": "function"
    },
    {
      "inputs": [],
      "name": "s_lastError",
      "outputs": [
        {
          "internalType": "bytes",
          "name": "",
          "type": "bytes"
        }
      ],
      "stateMutability": "view",
      "type": "function"
    },
    {
      "inputs": [],
      "name": "s_lastRequestId",
      "outputs": [
        {
          "internalType": "bytes32",
          "name": "",
          "type": "bytes32"
        }
      ],
      "stateMutability": "view",
      "type": "function"
    },
    {
      "inputs": [],
      "name": "s_lastResponse",
      "outputs": [
        {
          "internalType": "bytes",
          "name": "",
          "type": "bytes"
        }
      ],
      "stateMutability": "view",
      "type": "function"
    },
    {
      "inputs": [
        {
          "internalType": "address",
          "name": "from",
          "type": "address"
        },
        {
          "internalType": "address",
          "name": "to",
          "type": "address"
        },
        {
          "internalType": "uint256",
          "name": "tokenId",
          "type": "uint256"
        }
      ],
      "name": "safeTransferFrom",
      "outputs": [],
      "stateMutability": "pure",
      "type": "function"
    },
    {
      "inputs": [
        {
          "internalType": "address",
          "name": "from",
          "type": "address"
        },
        {
          "internalType": "address",
          "name": "to",
          "type": "address"
        },
        {
          "internalType": "uint256",
          "name": "tokenId",
          "type": "uint256"
        },
        {
          "internalType": "bytes",
          "name": "data",
          "type": "bytes"
        }
      ],
      "name": "safeTransferFrom",
      "outputs": [],
      "stateMutability": "nonpayable",
      "type": "function"
    },
    {
      "inputs": [
        {
          "internalType": "string",
          "name": "source",
          "type": "string"
        },
        {
          "internalType": "enum FunctionsRequest.Location",
          "name": "secretsLocation",
          "type": "uint8"
        },
        {
          "internalType": "bytes",
          "name": "encryptedSecretsReference",
          "type": "bytes"
        },
        {
          "internalType": "string[]",
          "name": "args",
          "type": "string[]"
        },
        {
          "internalType": "bytes[]",
          "name": "bytesArgs",
          "type": "bytes[]"
        },
        {
          "internalType": "uint64",
          "name": "subscriptionId",
          "type": "uint64"
        },
        {
          "internalType": "uint32",
          "name": "callbackGasLimit",
          "type": "uint32"
        },
        {
          "internalType": "bytes32",
          "name": "donId",
          "type": "bytes32"
        }
      ],
      "name": "sendRequest",
      "outputs": [],
      "stateMutability": "nonpayable",
      "type": "function"
    },
    {
      "inputs": [
        {
          "internalType": "address",
          "name": "operator",
          "type": "address"
        },
        {
          "internalType": "bool",
          "name": "_approved",
          "type": "bool"
        }
      ],
      "name": "setApprovalForAll",
      "outputs": [],
      "stateMutability": "pure",
      "type": "function"
    },
    {
      "inputs": [
        {
          "internalType": "bytes4",
          "name": "interfaceId",
          "type": "bytes4"
        }
      ],
      "name": "supportsInterface",
      "outputs": [
        {
          "internalType": "bool",
          "name": "",
          "type": "bool"
        }
      ],
      "stateMutability": "view",
      "type": "function"
    },
    {
      "inputs": [],
      "name": "symbol",
      "outputs": [
        {
          "internalType": "string",
          "name": "",
          "type": "string"
        }
      ],
      "stateMutability": "view",
      "type": "function"
    },
    {
      "inputs": [
        {
          "internalType": "uint256",
          "name": "tokenId",
          "type": "uint256"
        }
      ],
      "name": "tokenURI",
      "outputs": [
        {
          "internalType": "string",
          "name": "",
          "type": "string"
        }
      ],
      "stateMutability": "view",
      "type": "function"
    },
    {
      "inputs": [
        {
          "internalType": "address",
          "name": "from",
          "type": "address"
        },
        {
          "internalType": "address",
          "name": "to",
          "type": "address"
        },
        {
          "internalType": "uint256",
          "name": "tokenId",
          "type": "uint256"
        }
      ],
      "name": "transferFrom",
      "outputs": [],
      "stateMutability": "pure",
      "type": "function"
    },
    {
      "inputs": [
        {
          "internalType": "address",
          "name": "newOwner",
          "type": "address"
        }
      ],
      "name": "transferOwnership",
      "outputs": [],
      "stateMutability": "nonpayable",
      "type": "function"
    },
    {
      "inputs": [],
      "name": "verifier",
      "outputs": [
        {
          "internalType": "contract RingSigVerifier",
          "name": "",
          "type": "address"
        }
      ],
      "stateMutability": "view",
      "type": "function"
    }
  ],
  "bytecode": "0x60a06040523480156200001157600080fd5b5060405162002f1838038062002f18833981016040819052620000349162000174565b80336040518060400160405280600e81526020016d20b634b1b2a934b733aa37b5b2b760911b8152506040518060400160405280600381526020016210549560ea1b81525081600090816200008a919062000251565b50600162000099828262000251565b5050506001600160a01b038116620000cb57604051631e4fbdf760e01b81526000600482015260240160405180910390fd5b620000d68162000105565b506001600160a01b03908116608052600c80546001600160a01b0319169390911692909217909155506200031d565b600780546001600160a01b038381166001600160a01b0319831681179093556040519116919082907f8be0079c531659141344cd1fd0a4f28419497f9722a3daafe3b4186f6b6457e090600090a35050565b80516001600160a01b03811681146200016f57600080fd5b919050565b600080604083850312156200018857600080fd5b620001938362000157565b9150620001a36020840162000157565b90509250929050565b634e487b7160e01b600052604160045260246000fd5b600181811c90821680620001d757607f821691505b602082108103620001f857634e487b7160e01b600052602260045260246000fd5b50919050565b601f8211156200024c57600081815260208120601f850160051c81016020861015620002275750805b601f850160051c820191505b81811015620002485782815560010162000233565b5050505b505050565b81516001600160401b038111156200026d576200026d620001ac565b62000285816200027e8454620001c2565b84620001fe565b602080601f831160018114620002bd5760008415620002a45750858301515b600019600386901b1c1916600185901b17855562000248565b600085815260208120601f198616915b82811015620002ee57888601518255948401946001909101908401620002cd565b50858210156200030d5787850151600019600388901b60f8161c191681555b5050505050600190811b01905550565b608051612bd862000340600039600081816105f601526110d40152612bd86000f3fe6080604052600436106101665760003560e01c80636352211e116100d1578063ae47d9011161008a578063c87b56dd11610064578063c87b56dd1461043a578063e985e9c51461045a578063f2fde38b1461047d578063feec04b51461049d57600080fd5b8063ae47d901146103e4578063b1e2174914610404578063b88d4fde1461041a57600080fd5b80636352211e1461032e57806370a082311461034e578063715018a61461037c5780638da5cb5b1461039157806395d89b41146103af578063a22cb465146103c457600080fd5b806328f213261161012357806328f213261461025c5780632b7ac3f3146102a45780633944ea3a146102c457806342842e0e146102d957806342966c68146102f95780634b0795a81461031957600080fd5b806301ffc9a71461016b57806306fdde03146101a0578063081812fc146101c2578063095ea7b3146101fa5780630ca761751461021c57806323b872dd1461023c575b600080fd5b34801561017757600080fd5b5061018b610186366004611e95565b6104b0565b60405190151581526020015b60405180910390f35b3480156101ac57600080fd5b506101b56104c1565b6040516101979190611f02565b3480156101ce57600080fd5b506101e26101dd366004611f15565b610553565b6040516001600160a01b039091168152602001610197565b34801561020657600080fd5b5061021a610215366004611f4a565b6105a3565b005b34801561022857600080fd5b5061021a610237366004612029565b6105eb565b34801561024857600080fd5b5061021a610257366004612095565b61066f565b34801561026857600080fd5b506102976102773660046120d1565b8051602081830181018051600d8252928201919093012091525460ff1681565b604051610197919061211b565b3480156102b057600080fd5b50600c546101e2906001600160a01b031681565b3480156102d057600080fd5b506101b56106b7565b3480156102e557600080fd5b5061021a6102f4366004612095565b610745565b34801561030557600080fd5b5061021a610314366004611f15565b61078d565b34801561032557600080fd5b506101b56107cd565b34801561033a57600080fd5b506101e2610349366004611f15565b6107da565b34801561035a57600080fd5b5061036e610369366004612143565b6107e5565b604051908152602001610197565b34801561038857600080fd5b5061021a61082d565b34801561039d57600080fd5b506007546001600160a01b03166101e2565b3480156103bb57600080fd5b506101b5610841565b3480156103d057600080fd5b5061021a6103df36600461216c565b610850565b3480156103f057600080fd5b5061021a6103ff366004612269565b6108a3565b34801561041057600080fd5b5061036e60095481565b34801561042657600080fd5b5061021a61043536600461237b565b6109f5565b34801561044657600080fd5b506101b5610455366004611f15565b610a12565b34801561046657600080fd5b5061018b6104753660046123e2565b600092915050565b34801561048957600080fd5b5061021a610498366004612143565b610a1d565b61018b6104ab3660046124a3565b610a58565b60006104bb82610bbf565b92915050565b6060600080546104d090612598565b80601f01602080910402602001604051908101604052809291908181526020018280546104fc90612598565b80156105495780601f1061051e57610100808354040283529160200191610549565b820191906000526020600020905b81548152906001019060200180831161052c57829003601f168201915b5050505050905090565b60405162461bcd60e51b815260206004820152601c60248201527f5342543a20676574417070726f766564206e6f7420616c6c6f7765640000000060448201526000906064015b60405180910390fd5b60405162461bcd60e51b815260206004820152601860248201527f5342543a20417070726f7665206e6f7420616c6c6f7765640000000000000000604482015260640161059a565b336001600160a01b037f000000000000000000000000000000000000000000000000000000000000000016146106345760405163c6829f8360e01b815260040160405180910390fd5b61063f838383610be4565b60405183907f85e1543bf2f84fe80c6badbce3648c8539ad1df4d2b3d822938ca0538be727e690600090a2505050565b60405162461bcd60e51b815260206004820152601960248201527f5342543a205472616e73666572206e6f7420616c6c6f77656400000000000000604482015260640161059a565b600a80546106c490612598565b80601f01602080910402602001604051908101604052809291908181526020018280546106f090612598565b801561073d5780601f106107125761010080835404028352916020019161073d565b820191906000526020600020905b81548152906001019060200180831161072057829003601f168201915b505050505081565b60405162461bcd60e51b815260206004820152601d60248201527f5342543a20536166655472616e73666572206e6f7420616c6c6f776564000000604482015260640161059a565b33610797826107da565b6001600160a01b0316146107c15760405163bdeff5ab60e01b81526004810182905260240161059a565b6107ca81610c64565b50565b600b80546106c490612598565b60006104bb82610c6d565b60006001600160a01b038216610811576040516322718ad960e21b81526000600482015260240161059a565b506001600160a01b031660009081526003602052604090205490565b610835610ca6565b61083f6000610cd3565b565b6060600180546104d090612598565b60405162461bcd60e51b815260206004820152602260248201527f5342543a20736574417070726f76616c466f72416c6c206e6f7420616c6c6f77604482015261195960f21b606482015260840161059a565b6108ab610ca6565b6108ec6040805160e0810190915280600081526020016000815260200160008152602001606081526020016060815260200160608152602001606081525090565b6109336000808f8f8080601f01602080910402602001604051908101604052809392919081815260200183838082843760009201919091525087959493925050610d259050565b602081018b600281111561094957610949612105565b9081600281111561095c5761095c612105565b8152505089898080601f016020809104026020016040519081016040528093929190818152602001838380828437600092019190915250505050608082015286156109b5576109b56109ae888a6125d2565b8290610da3565b84156109cf576109cf6109c88688612645565b8290610dcd565b6109e36109db82610df7565b8585856110cf565b60095550505050505050505050505050565b610a0084848461066f565b610a0c848484846111a1565b50505050565b60606104bb826112ca565b610a25610ca6565b6001600160a01b038116610a4f57604051631e4fbdf760e01b81526000600482015260240161059a565b6107ca81610cd3565b60006001600d87604051610a6c91906126ac565b9081526040519081900360200190205460ff166001811115610a9057610a90612105565b03610ab05785604051630226686160e21b815260040161059a9190611f02565b600c5460405163621a62f760e11b81526001600160a01b039091169063c434c5ee90610ae6908890889088908890600401612703565b602060405180830381865afa158015610b03573d6000803e3d6000fd5b505050506040513d601f19601f82011682018060405250810190610b27919061274e565b610b4457604051638baa579f60e01b815260040160405180910390fd5b6001600d87604051610b5691906126ac565b908152604051908190036020019020805460ff191660018381811115610b7e57610b7e612105565b0217905550610b8f336008546113db565b610b9b600854886113f9565b60088054906000610bab83612781565b9091555060019a9950505050505050505050565b60006001600160e01b03198216632483248360e11b14806104bb57506104bb82611449565b8260095414610c095760405163d068bf5b60e01b81526004810184905260240161059a565b600a610c1583826127e8565b50600b610c2282826127e8565b50827f7873807bf6ddc50401cd3d29bbe0decee23fd4d68d273f4b5eb83cded4d2f172600a600b604051610c57929190612924565b60405180910390a2505050565b6107ca81611499565b6000818152600260205260408120546001600160a01b0316806104bb57604051637e27328960e01b81526004810184905260240161059a565b6007546001600160a01b0316331461083f5760405163118cdaa760e01b815233600482015260240161059a565b600780546001600160a01b038381166001600160a01b0319831681179093556040519116919082907f8be0079c531659141344cd1fd0a4f28419497f9722a3daafe3b4186f6b6457e090600090a35050565b8051600003610d47576040516322ce3edd60e01b815260040160405180910390fd5b83836002811115610d5a57610d5a612105565b90816002811115610d6d57610d6d612105565b90525060408401828015610d8357610d83612105565b90818015610d9357610d93612105565b9052506060909301929092525050565b8051600003610dc55760405163fe936cb760e01b815260040160405180910390fd5b60a090910152565b8051600003610def5760405163fe936cb760e01b815260040160405180910390fd5b60c090910152565b60606000610e066101006114d4565b9050610e3f6040518060400160405280600c81526020016b31b7b232a637b1b0ba34b7b760a11b815250826114f590919063ffffffff16565b8251610e5d906002811115610e5657610e56612105565b8290611513565b6040805180820190915260088152676c616e677561676560c01b6020820152610e879082906114f5565b6040830151610e9e908015610e5657610e56612105565b604080518082019091526006815265736f7572636560d01b6020820152610ec69082906114f5565b6060830151610ed69082906114f5565b60a08301515115610f6a576040805180820190915260048152636172677360e01b6020820152610f079082906114f5565b610f108161154c565b60005b8360a0015151811015610f6057610f508460a001518281518110610f3957610f39612952565b6020026020010151836114f590919063ffffffff16565b610f5981612781565b9050610f13565b50610f6a81611570565b6080830151511561102e57600083602001516002811115610f8d57610f8d612105565b03610fab5760405163a80d31f760e01b815260040160405180910390fd5b60408051808201909152600f81526e39b2b1b932ba39a637b1b0ba34b7b760891b6020820152610fdc9082906114f5565b610ff583602001516002811115610e5657610e56612105565b6040805180820190915260078152667365637265747360c81b602082015261101e9082906114f5565b608083015161102e90829061158e565b60c083015151156110c75760408051808201909152600981526862797465734172677360b81b60208201526110649082906114f5565b61106d8161154c565b60005b8360c00151518110156110bd576110ad8460c00151828151811061109657611096612952565b60200260200101518361158e90919063ffffffff16565b6110b681612781565b9050611070565b506110c781611570565b515192915050565b6000807f00000000000000000000000000000000000000000000000000000000000000006001600160a01b031663461d27628688600188886040518663ffffffff1660e01b8152600401611127959493929190612968565b6020604051808303816000875af1158015611146573d6000803e3d6000fd5b505050506040513d601f19601f8201168201806040525081019061116a91906129b1565b60405190915081907f1131472297a800fee664d1d89cfa8f7676ff07189ecc53f80bbb5f4969099db890600090a295945050505050565b6001600160a01b0383163b15610a0c57604051630a85bd0160e11b81526001600160a01b0384169063150b7a02906111e39033908890879087906004016129ca565b6020604051808303816000875af192505050801561121e575060408051601f3d908101601f1916820190925261121b91810190612a07565b60015b611287573d80801561124c576040519150601f19603f3d011682016040523d82523d6000602084013e611251565b606091505b50805160000361127f57604051633250574960e11b81526001600160a01b038516600482015260240161059a565b805181602001fd5b6001600160e01b03198116630a85bd0160e11b146112c357604051633250574960e11b81526001600160a01b038516600482015260240161059a565b5050505050565b60606112d582610c6d565b50600082815260066020526040812080546112ef90612598565b80601f016020809104026020016040519081016040528092919081815260200182805461131b90612598565b80156113685780601f1061133d57610100808354040283529160200191611368565b820191906000526020600020905b81548152906001019060200180831161134b57829003601f168201915b50505050509050600061138660408051602081019091526000815290565b90508051600003611398575092915050565b8151156113ca5780826040516020016113b2929190612a24565b60405160208183030381529060405292505050919050565b6113d38461159b565b949350505050565b6113f5828260405180602001604052806000815250611610565b5050565b600082815260066020526040902061141182826127e8565b506040518281527ff8e1a15aba9398e019f0b49df1a4fde98ee17ae345cb5f6b5e2c27f5033e8ce79060200160405180910390a15050565b60006001600160e01b031982166380ac58cd60e01b148061147a57506001600160e01b03198216635b5e139f60e01b145b806104bb57506301ffc9a760e01b6001600160e01b03198316146104bb565b60006114a86000836000611627565b90506001600160a01b0381166113f557604051637e27328960e01b81526004810183905260240161059a565b6114dc611e4a565b80516114e89083611720565b5060006020820152919050565b6115028260038351611797565b815161150e90826118b0565b505050565b81516115209060c26118d1565b506113f5828260405160200161153891815260200190565b60405160208183030381529060405261158e565b61155781600461193a565b60018160200181815161156a9190612a53565b90525050565b61157b81600761193a565b60018160200181815161156a9190612a66565b6115028260028351611797565b60606115a682610c6d565b5060006115be60408051602081019091526000815290565b905060008151116115de5760405180602001604052806000815250611609565b806115e884611951565b6040516020016115f9929190612a24565b6040516020818303038152906040525b9392505050565b61161a83836119e3565b61150e60008484846111a1565b6000828152600260205260408120546001600160a01b039081169083161561165457611654818486611a48565b6001600160a01b0381161561169257611671600085600080611aac565b6001600160a01b038116600090815260036020526040902080546000190190555b6001600160a01b038516156116c1576001600160a01b0385166000908152600360205260409020805460010190555b60008481526002602052604080822080546001600160a01b0319166001600160a01b0389811691821790925591518793918516917fddf252ad1be2c89b69c2b068fc378daa952ba7f163c4a11628f55a4df523b3ef91a4949350505050565b604080518082019091526060815260006020820152611740602083612a79565b1561176857611750602083612a79565b61175b906020612a66565b6117659083612a53565b91505b60208084018390526040518085526000815290818401018181101561178c57600080fd5b604052509192915050565b6017816001600160401b0316116117bd578251610a0c9060e0600585901b1683176118d1565b60ff816001600160401b0316116117fd5782516117e5906018611fe0600586901b16176118d1565b508251610a0c906001600160401b0383166001611ba9565b61ffff816001600160401b03161161183e578251611826906019611fe0600586901b16176118d1565b508251610a0c906001600160401b0383166002611ba9565b63ffffffff816001600160401b03161161188157825161186990601a611fe0600586901b16176118d1565b508251610a0c906001600160401b0383166004611ba9565b825161189890601b611fe0600586901b16176118d1565b508251610a0c906001600160401b0383166008611ba9565b60408051808201909152606081526000602082015261160983838451611c2e565b60408051808201909152606081526000602082015282515160006118f6826001612a53565b9050846020015182106119175761191785611912836002612a9b565b611cff565b8451602083820101858153508051821115611930578181525b5093949350505050565b815161150e90601f611fe0600585901b16176118d1565b6060600061195e83611d16565b60010190506000816001600160401b0381111561197d5761197d611f74565b6040519080825280601f01601f1916602001820160405280156119a7576020820181803683370190505b5090508181016020015b600019016f181899199a1a9b1b9c1cb0b131b232b360811b600a86061a8153600a85049450846119b157509392505050565b6001600160a01b038216611a0d57604051633250574960e11b81526000600482015260240161059a565b6000611a1b83836000611627565b90506001600160a01b0381161561150e576040516339e3563760e11b81526000600482015260240161059a565b611a53838383611dee565b61150e576001600160a01b038316611a8157604051637e27328960e01b81526004810182905260240161059a565b60405163177e802f60e01b81526001600160a01b03831660048201526024810182905260440161059a565b8080611ac057506001600160a01b03821615155b15611b79576000611ad084610c6d565b90506001600160a01b03831615801590611afc5750826001600160a01b0316816001600160a01b031614155b8015611b06575060015b15611b2f5760405163a9fbf51f60e01b81526001600160a01b038416600482015260240161059a565b8115611b775783856001600160a01b0316826001600160a01b03167f8c5be1e5ebec7d5bd14f71427d1e84f3dd0314c0f7b2291e5b200ac8c7c3b92560405160405180910390a45b505b5050600090815260046020526040902080546001600160a01b0319166001600160a01b0392909216919091179055565b6040805180820190915260608152600060208201528351516000611bcd8285612a53565b90508560200151811115611bea57611bea86611912836002612a9b565b60006001611bfa86610100612b96565b611c049190612a66565b90508651828101878319825116178152508051831115611c22578281525b50959695505050505050565b6040805180820190915260608152600060208201528251821115611c5157600080fd5b8351516000611c608483612a53565b90508560200151811115611c7d57611c7d86611912836002612a9b565b855180518382016020019160009180851115611c97578482525b505050602086015b60208610611cd75780518252611cb6602083612a53565b9150611cc3602082612a53565b9050611cd0602087612a66565b9550611c9f565b51815160001960208890036101000a0190811690199190911617905250849150509392505050565b8151611d0b8383611720565b50610a0c83826118b0565b60008072184f03e93ff9f4daa797ed6e38ed64bf6a1f0160401b8310611d555772184f03e93ff9f4daa797ed6e38ed64bf6a1f0160401b830492506040015b6d04ee2d6d415b85acef81000000008310611d81576d04ee2d6d415b85acef8100000000830492506020015b662386f26fc100008310611d9f57662386f26fc10000830492506010015b6305f5e1008310611db7576305f5e100830492506008015b6127108310611dcb57612710830492506004015b60648310611ddd576064830492506002015b600a83106104bb5760010192915050565b60006001600160a01b038316158015906113d35750826001600160a01b0316846001600160a01b03161480611e21575060005b806113d35750506000908152600460205260409020546001600160a01b03908116911614919050565b6040518060400160405280611e72604051806040016040528060608152602001600081525090565b8152602001600081525090565b6001600160e01b0319811681146107ca57600080fd5b600060208284031215611ea757600080fd5b813561160981611e7f565b60005b83811015611ecd578181015183820152602001611eb5565b50506000910152565b60008151808452611eee816020860160208601611eb2565b601f01601f19169290920160200192915050565b6020815260006116096020830184611ed6565b600060208284031215611f2757600080fd5b5035919050565b80356001600160a01b0381168114611f4557600080fd5b919050565b60008060408385031215611f5d57600080fd5b611f6683611f2e565b946020939093013593505050565b634e487b7160e01b600052604160045260246000fd5b604051601f8201601f191681016001600160401b0381118282101715611fb257611fb2611f74565b604052919050565b600082601f830112611fcb57600080fd5b81356001600160401b03811115611fe457611fe4611f74565b611ff7601f8201601f1916602001611f8a565b81815284602083860101111561200c57600080fd5b816020850160208301376000918101602001919091529392505050565b60008060006060848603121561203e57600080fd5b8335925060208401356001600160401b038082111561205c57600080fd5b61206887838801611fba565b9350604086013591508082111561207e57600080fd5b5061208b86828701611fba565b9150509250925092565b6000806000606084860312156120aa57600080fd5b6120b384611f2e565b92506120c160208501611f2e565b9150604084013590509250925092565b6000602082840312156120e357600080fd5b81356001600160401b038111156120f957600080fd5b6113d384828501611fba565b634e487b7160e01b600052602160045260246000fd5b602081016002831061213d57634e487b7160e01b600052602160045260246000fd5b91905290565b60006020828403121561215557600080fd5b61160982611f2e565b80151581146107ca57600080fd5b6000806040838503121561217f57600080fd5b61218883611f2e565b915060208301356121988161215e565b809150509250929050565b60008083601f8401126121b557600080fd5b5081356001600160401b038111156121cc57600080fd5b6020830191508360208285010111156121e457600080fd5b9250929050565b803560038110611f4557600080fd5b60008083601f84011261220c57600080fd5b5081356001600160401b0381111561222357600080fd5b6020830191508360208260051b85010111156121e457600080fd5b80356001600160401b0381168114611f4557600080fd5b803563ffffffff81168114611f4557600080fd5b6000806000806000806000806000806000806101008d8f03121561228c57600080fd5b6001600160401b038d3511156122a157600080fd5b6122ae8e8e358f016121a3565b909c509a506122bf60208e016121eb565b99506001600160401b0360408e013511156122d957600080fd5b6122e98e60408f01358f016121a3565b90995097506001600160401b0360608e0135111561230657600080fd5b6123168e60608f01358f016121fa565b90975095506001600160401b0360808e0135111561233357600080fd5b6123438e60808f01358f016121fa565b909550935061235460a08e0161223e565b925061236260c08e01612255565b915060e08d013590509295989b509295989b509295989b565b6000806000806080858703121561239157600080fd5b61239a85611f2e565b93506123a860208601611f2e565b92506040850135915060608501356001600160401b038111156123ca57600080fd5b6123d687828801611fba565b91505092959194509250565b600080604083850312156123f557600080fd5b6123fe83611f2e565b915061240c60208401611f2e565b90509250929050565b60006001600160401b0382111561242e5761242e611f74565b5060051b60200190565b600082601f83011261244957600080fd5b8135602061245e61245983612415565b611f8a565b82815260059290921b8401810191818101908684111561247d57600080fd5b8286015b848110156124985780358352918301918301612481565b509695505050505050565b600080600080600080600080610100898b0312156124c057600080fd5b6124c989611f2e565b97506020890135965060408901356001600160401b03808211156124ec57600080fd5b6124f88c838d01611fba565b975060608b013591508082111561250e57600080fd5b61251a8c838d01611fba565b965060808b013591508082111561253057600080fd5b61253c8c838d01611fba565b955060a08b013591508082111561255257600080fd5b61255e8c838d01612438565b945060c08b013591508082111561257457600080fd5b506125818b828c01612438565b92505060e089013590509295985092959890939650565b600181811c908216806125ac57607f821691505b6020821081036125cc57634e487b7160e01b600052602260045260246000fd5b50919050565b60006125e061245984612415565b80848252602080830192508560051b8501368111156125fe57600080fd5b855b818110156126395780356001600160401b0381111561261f5760008081fd5b61262b36828a01611fba565b865250938201938201612600565b50919695505050505050565b600061265361245984612415565b80848252602080830192508560051b85013681111561267157600080fd5b855b818110156126395780356001600160401b038111156126925760008081fd5b61269e36828a01611fba565b865250938201938201612673565b600082516126be818460208701611eb2565b9190910192915050565b600081518084526020808501945080840160005b838110156126f8578151875295820195908201906001016126dc565b509495945050505050565b6080815260006127166080830187611ed6565b828103602084015261272881876126c8565b9050828103604084015261273c81866126c8565b91505082606083015295945050505050565b60006020828403121561276057600080fd5b81516116098161215e565b634e487b7160e01b600052601160045260246000fd5b6000600182016127935761279361276b565b5060010190565b601f82111561150e57600081815260208120601f850160051c810160208610156127c15750805b601f850160051c820191505b818110156127e0578281556001016127cd565b505050505050565b81516001600160401b0381111561280157612801611f74565b6128158161280f8454612598565b8461279a565b602080601f83116001811461284a57600084156128325750858301515b600019600386901b1c1916600185901b1785556127e0565b600085815260208120601f198616915b828110156128795788860151825594840194600190910190840161285a565b50858210156128975787850151600019600388901b60f8161c191681555b5050505050600190811b01905550565b600081546128b481612598565b8085526020600183811680156128d157600181146128eb57612919565b60ff1985168884015283151560051b880183019550612919565b866000528260002060005b858110156129115781548a82018601529083019084016128f6565b890184019650505b505050505092915050565b60408152600061293760408301856128a7565b828103602084015261294981856128a7565b95945050505050565b634e487b7160e01b600052603260045260246000fd5b6001600160401b038616815260a06020820152600061298a60a0830187611ed6565b61ffff9590951660408301525063ffffffff92909216606083015260809091015292915050565b6000602082840312156129c357600080fd5b5051919050565b6001600160a01b03858116825284166020820152604081018390526080606082018190526000906129fd90830184611ed6565b9695505050505050565b600060208284031215612a1957600080fd5b815161160981611e7f565b60008351612a36818460208801611eb2565b835190830190612a4a818360208801611eb2565b01949350505050565b808201808211156104bb576104bb61276b565b818103818111156104bb576104bb61276b565b600082612a9657634e487b7160e01b600052601260045260246000fd5b500690565b80820281158282048414176104bb576104bb61276b565b600181815b80851115612aed578160001904821115612ad357612ad361276b565b80851615612ae057918102915b93841c9390800290612ab7565b509250929050565b600082612b04575060016104bb565b81612b11575060006104bb565b8160018114612b275760028114612b3157612b4d565b60019150506104bb565b60ff841115612b4257612b4261276b565b50506001821b6104bb565b5060208310610133831016604e8410600b8410161715612b70575081810a6104bb565b612b7a8383612ab2565b8060001904821115612b8e57612b8e61276b565b029392505050565b60006116098383612af556fea264697066735822122077fa13adea57bc2571eb201cb2ccf8b74d9ab9a47e72536ec00abed9ca9b104a64736f6c63430008140033",
  "linkReferences": {},
  "deployedLinkReferences": {}
}